:100737007374617274202E2E2E0A00464C41472096
:0D074700253032580A00253034582020009B
:1007800050002900000000000000000000000000F0
:0307900000000066
:0A07E00075A15575A1AA75A1FF22AD
:0E07B700EF4E600905A1EF1F70F61E80F322C1
:10075400AD07AC06ED4C600E7FE87E031207B7EDE3
:070764001D70F11C80EE2264
:0D07D30043C60143C40843C50C43CE1022A9
:1005DF00C29FD29EC29DC2CDC2CC438780900001E4
:1005EF0012046D00000082E47B0AFAF9F890000112
:1005FF00E0FCA3E0FDA3E0FEA3E0FF1203CF900019
:10060F0005EBF0900001E0FCA3E0FDA3E0FEA3E00A
:10061F00FFE47B0AFAF9F81203CF9000011204618C
:10062F00900005E0C39405401F900001E0FCA3E09B
:10063F00FDA3E0FEA3E02401FFE43EFEE43DFDE464
:10064F003CFC900001120461E589540F4420F589A8
:10065F0043C9A0900001A3A3A3E0F404F58DD28EAB
:04066F00D299D29CAE
:010673002264
:0807EA003098FDC298AF99227E
:0807F2008F993099FDD2992284
:1007A600C2CDC2CCC2C8EF600443C9022253C9FD00
:0107B6002220
:10079400C3E49FFFE49EFEEFF5CCF5CAEEF5CDF57C
:0107A400CB89
:0107A5002231
:0E07C500C2C9D2CBD2C8EF25E025E042C9223E
:10076B00C2CDC2CCD2C8C2C953C9FDEF25E025E02A
:05077B00440142C92207
:03002B00020700C9
:10070000C0E0C083C082C0D075D010C2CA30CF1C38
:10071000900039E0FF04F0EF25E02429F582E4346D
:1007200000F583E5CDF0A3E5CCF0C2CFD2CAD0D09E
:07073000D082D083D0E0323B
:10053C007F057E001207541205DF7BFF7A0779379F
:10054C00120099E4900039F043C60143C40143C53D
:10055C000143C9C0C2C97F0112076BD2ADD2AFD261
:10056C00CAC2907F5A7E001207B7D2907FC87E0015
:10057C001207B7C2907F017E00120754C2CAC2AFE5
:10058C00C2AD7BFF7A077942E0FF900004E4F0A350
:10059C00EFF0120099E4900000F0900039E0FF9029
:1005AC000000E0FEC39F50297BFF7A07794DEE25B2
:1005BC00E02429F582E43400F583E0FFA3E0900009
:1005CC0004CFF0A3EFF0120099900000E004F0804B
:0305DC00C980FED5
:0300000002067481
:0C067400787FE4F6D8FD7581210206BBFA
:1003930075F008758200EF2FFFEE33FECD33CDCC21
:1003A30033CCC58233C5829BED9AEC99E5829840A4
:1003B3000CF582EE9BFEED9AFDEC99FC0FD5F0D681
:1003C300E4CEFBE4CDFAE4CCF9A88222B800C1B9AB
:1003D3000059BA002DEC8BF084CFCECDFCE5F0CBE9
:1003E300F97818EF2FFFEE33FEED33FDEC33FCEB22
:1003F30033FB10D703994004EB99FB0FD8E5E4F9DD
:10040300FA227818EF2FFFEE33FEED33FDEC33FCC9
:10041300C933C910D7059BE99A4007EC9BFCE99ABD
:10042300F90FD8E0E4C9FAE4CCFB2275F010EF2F02
:10043300FFEE33FEED33FDCC33CCC833C810D70702
:100443009BEC9AE899400AED9BFDEC9AFCE899F83D
:0E0453000FD5F0DAE4CDFBE4CCFAE4C8F922D0
:0C046100ECF0A3EDF0A3EEF0A3EFF0220E
:10046D00A8828583F0D083D0821204841204841272
:10047D000484120484E473E493A3C583C5F0C58397
:10048D00C8C582C8F0A3C583C5F0C583C8C582C8D9
:01049D00223C
:10002E00E5082404F582E43400F583E00508229007
:10003E000001300703900004E475F0011204F6028B
:10004E00049E2000E97F2ED2008018EF540F2490DA
:10005E00D43440D4FF30040BEF24BFB41A00500345
:10006E002461FFE50960021509050CE50C70020517
:10007E000B30070E900001E475F0011204F6EF024A
:10008E0004E40200037403D2078003E4C207F508F8
:10009E0090000112050DE4F509F50BF50CE509606C
:1000AE00077F2012007180F5750AFFC201C200C2DF
:1000BE0002C203C205C206C20812003DFF700D3017
:1000CE0007057F00120082AF0CAE0B22B4255FC273
:1000DE00D5C20412003DFF24D0B40A00501A75F0A8
:1000EE000A780930D50508B6FF0106C6A426F62003
:1000FE00D5047002D20380D924CFB41A00EF500475
:10010E00C2E5D204020283D20180C6D20080C0D2E0
:10011E000280BCD2D580BAD20580B47F2012007185
:10012E002002077401B5090040F112002EFF1200E3
:10013E00710200ABD208D206809512002EFB12007F
:10014E002EFA12002EF94A4B700679547A037BFF71
:10015E0020022EE509602A7E008E8275830012042D
:10016E00B760060EEE650A70F0C2D5EBC0E0EAC0CD
:10017E00E0E9C0E0EE1202CAD0E0F9D0E0FAD0E039
:10018E00FB12049EFF60AAEBC0E0EAC0E0E9C0E00B
:10019E00120071D0E02401F9D0E03400FAD0E0FB77
:1001AE00E50A0460DCD50AD980877BFF7A0279C61E
:1001BE00D202809C791080027908C206C20880089B
:1001CE00D2D5790A8004790AC2D5E50A047002F5FF
:1001DE000AE4FAFDFEFF12002EFC7B08200113122A
:1001EE00002EFD7B1030000A12002EFE12002EFF94
:1001FE007B20EC3382D592D55013C3E43000069F9A
:10020E00FFE49EFEE42001039DFDE49CFCE4CBF89C
:10021E00C201EC700CCFCECDCCE824F8F870F38090
:10022E0017C3EF33FFEE33FEED33FDEC33FCEB3350
:10023E00FB994002FB0FD8E9EB300105F8D0E0C482
:10024E0048B201C0E00AEC4D4E4F78207B0070C2E0
:10025E00EAB50A0040BCC0E01202CCD0F0D0E020DB
:10026E000104C4C0E0C4B201C0F012005AD0F0D5EF
:10027E00F0EB0200AB12051601485301C2580119EA
:10028E004C01154201C64F01CE4401CE49012E4309
:08029E0001D45501B84601B876
:1002A6004501B847037450011D2D01212E01442B31
:1002B600012523014220035D2A00DD480000013CA0
:1002C6003F3F3F00790AA2D5200314300509B91033
:1002D600020404B9080104A2D52006025001042034
:1002E60002689202B509005034C0E07F203003193D
:1002F6007F30A20272067205500F120323C202C299
:1003060006C205C2087F30800F300503E9C0E0123F
:100316000071300503D0E0F9D0E0B509CC300517FF
:100326007F30B9100C1200717F583004077F788037
:1003360003B908031200713002057F2D0200717F98
:10034600202008F87F2B2006F322920280CF286E09
:10035600756C6C2900D20112002E3001F8C20178AA
:100366000930D50108F60200DD2D50434958120028
:100376002E2403B405004001E490036F931200623B
:0D038600743A120062D2037509040201C22C
:1006800002053CE493A3F8E493A34003F68001F24F
:1006900008DFF48029E493A3F85407240CC8C3337B
:1006A000C4540F4420C8834004F456800146F6DF4A
:1006B000E4800B0102040810204080900780E47E53
:1006C000019360BCA3FF543F30E509541FFEE4933F
:1006D000A360010ECF54C025E060A840B8E493A306
:1006E000FAE493A3F8E493A3C8C582C8CAC583CA31
:1006F000F0A3C8C582C8CAC583CADFE9DEE780BEE9
:010793000065
:10049E00BB010689828A83E0225002E722BBFE025C
:0904AE00E32289828A83E493228F
:1004B700BB010CE58229F582E5833AF583E02250FA
:1004C70006E92582F8E622BBFE06E92582F8E22244
:0D04D700E58229F582E5833AF583E493225E
:1004E400BB010689828A83F0225002F722BBFE01F7
:0204F400F322F1
:1004F600F8E0FBA3A3E0F925F0F0E582158270028F
:070506001583E0FA38F02232
:09050D00EBF0A3EAF0A3E9F022EF
:10051600D083D082F8E4937012740193700DA3A374
:1005260093F8740193F5828883E473740293686088
:06053600EFA3A3A380DF88
:10000300EFB40A07740D12000E740A309811A89900
:10001300B8130CC2983098FDA899C298B811F6305D
:0700230099FDC299F5992235
:00000001FF
