:1006B500537461727420404368697049443D253024
:1006C50032580A0049442B4352433A256C780A00B4
:0806D50049443A256C780A0043
:0A07420075A15575A1AA75A1FF224B
:0E071B00EF4E600905A1EF1F70F61E80F3225D
:10070400AD07AC06ED4C600E7FE87E0312071BEDCF
:070714001D70F11C80EE22B4
:0D07290043C60143C40843C50C43CE102253
:10052400C29FD29EC29DC2CDC2CC4387809000049C
:1005340012045500000082E47B0AFAF9F8900004E2
:10054400E0FCA3E0FDA3E0FEA3E0FF1203A49000FF
:1005540008EBF0900004E0FCA3E0FDA3E0FEA3E0C0
:10056400FFE47B0AFAF9F81203A490000412044988
:10057400900008E0C39405401F900004E0FCA3E051
:10058400FDA3E0FEA3E02401FFE43EFEE43DFDE420
:100594003CFC900004120449E589540F4420F58979
:1005A40043C9A0900004A3A3A3E0F404F58DD28E64
:0405B400D299D29C6A
:0105B8002220
:08074C003098FDC298AF99221C
:080754008F993099FDD2992222
:1005B900D2AE900020E493FDA3E493FEEDFF9000FA
:1005C90004EEF0FAA3EFF0FB900022E493FDA3E41C
:1005D90093FFED900006CFF0A3EFF0900026E4938F
:1005E900FDA3E493C2AEFEEDFF900007E02BFD9062
:1005F9000006E03AFCED6F7002EC6E600774FFFFD5
:10060900FEFDFC22900006E0FEA3E0FFE4FCFD787D
:1006190010120436C8ECC8C9EDC9CAEECACBEFCB73
:10062900900004E0FEA3E0FFEB4FFFEA4EFEE9FD78
:02063900E8FCDB
:01063B00229C
:10068A00D2AE900020E493FD7401938F828E83CDC5
:10069A00F0A3EDF0900022E493FD7401938F828E13
:0B06AA0083A3A3CDF0A3EDF0C2AE22AD
:10063C001205247BFF7A0679B5AFA1900007E4F090
:10064C00A3EFF012006E1205B99000071204497B5B
:10065C00FF7A0679C912006E7E007F0012068A7B33
:10066C00FF7A0679D5900000E0FCA3E0FDA3E0FE44
:0E067C00A3E0FF90000712044912006E80FEFA
:03000000020736BE
:0C073600787FE4F6D8FD75812102063CB6
:1003680075F008758200EF2FFFEE33FECD33CDCC4C
:1003780033CCC58233C5829BED9AEC99E5829840CF
:100388000CF582EE9BFEED9AFDEC99FC0FD5F0D6AC
:10039800E4CEFBE4CDFAE4CCF9A88222B800C1B9D6
:1003A8000059BA002DEC8BF084CFCECDFCE5F0CB14
:1003B800F97818EF2FFFEE33FEED33FDEC33FCEB4D
:1003C80033FB10D703994004EB99FB0FD8E5E4F908
:1003D800FA227818EF2FFFEE33FEED33FDEC33FCF5
:1003E800C933C910D7059BE99A4007EC9BFCE99AE9
:1003F800F90FD8E0E4C9FAE4CCFB2275F010EF2F2E
:10040800FFEE33FEED33FDCC33CCC833C810D7072D
:100418009BEC9AE899400AED9BFDEC9AFCE899F868
:0E0428000FD5F0DAE4CDFBE4CCFAE4C8F922FB
:10043600E8600FEFC333FFEE33FEED33FDEC33FC24
:03044600D8F122C8
:0C044900ECF0A3EDF0A3EEF0A3EFF02226
:10045500A8828583F0D083D08212046C12046C12BA
:10046500046C12046CE473E493A3C583C5F0C583DF
:10047500C8C582C8F0A3C583C5F0C583C8C582C8F1
:010485002254
:10000300E5082407F582E43400F583E0050822902F
:100013000004300703900007E475F0011204DE02C8
:1000230004862000E97F2ED2008018EF540F24901D
:10003300D43440D4FF30040BEF24BFB41A00500370
:100043002461FFE50960021509050CE50C70020542
:100053000B30070E900004E475F0011204DEEF028A
:1000630004CC0206DD7403D2078003E4C207F5085B
:100073009000041204F5E4F509F50BF50CE50960AD
:10008300077F2012004680F5750AFFC201C200C235
:1000930002C203C205C206C208120012FF700D306D
:1000A30007057F00120057AF0CAE0B22B4255FC2C9
:1000B300D5C204120012FF24D0B40A00501A75F0FE
:1000C3000A780930D50508B6FF0106C6A426F6202E
:1000D300D5047002D20380D924CFB41A00EF5004A0
:1000E300C2E5D204020258D20180C6D20080C0D237
:1000F3000280BCD2D580BAD20580B47F20120046DC
:100103002002077401B5090040F1120003FF120039
:1001130046020080D208D2068095120003FB12002B
:1001230003FA120003F94A4B700679297A037BFF1D
:1001330020022EE509602A7E008E82758300120458
:100143009F60060EEE650A70F0C2D5EBC0E0EAC010
:10015300E0E9C0E0EE12029FD0E0F9D0E0FAD0E08F
:10016300FB120486FF60AAEBC0E0EAC0E0E9C0E04E
:10017300120046D0E02401F9D0E03400FAD0E0FBCD
:10018300E50A0460DCD50AD980877BFF7A02799B74
:10019300D202809C791080027908C206C2088008C6
:1001A300D2D5790A8004790AC2D5E50A047002F52A
:1001B3000AE4FAFDFEFF120003FC7B082001131280
:1001C3000003FD7B1030000A120003FE120003FF40
:1001D3007B20EC3382D592D55013C3E43000069FC5
:1001E300FFE49EFEE42001039DFDE49CFCE4CBF8C8
:1001F300C201EC700CCFCECDCCE824F8F870F380BC
:1002030017C3EF33FFEE33FEED33FDEC33FCEB337B
:10021300FB994002FB0FD8E9EB300105F8D0E0C4AD
:1002230048B201C0E00AEC4D4E4F78207B0070C20B
:10023300EAB50A0040BCC0E01202A1D0F0D0E02031
:100243000104C4C0E0C4B201C0F012002FD0F0D545
:10025300F0EB0200801204FE011D5301975800EEDB
:100263004C00EA42019B4F01A34401A3490103430C
:0802730001A955018D46018D22
:10027B0045018D4703495000F22D00F62E01192B35
:10028B0000FA2301172003322A00B24800000111A3
:10029B003F3F3F00790AA2D5200314300509B9105E
:1002AB00020404B9080104A2D5200602500104205F
:1002BB0002689202B509005034C0E07F2030031968
:1002CB007F30A20272067205500F1202F8C202C2F0
:1002DB0006C205C2087F30800F300503E9C0E0126B
:1002EB000046300503D0E0F9D0E0B509CC30051756
:1002FB007F30B9100C1200467F583004077F78808E
:10030B0003B908031200463002057F2D0200467F19
:10031B00202008F87F2B2006F322920280CF286E34
:10032B00756C6C2900D2011200033001F8C2017800
:10033B000930D50108F60200B22D5043495812007E
:10034B00032403B405004001E490034493120037E7
:0D035B00743A120037D203750904020197AD
:10048600BB010689828A83E0225002E722BBFE0274
:09049600E32289828A83E49322A7
:10049F00BB010CE58229F582E5833AF583E0225012
:1004AF0006E92582F8E622BBFE06E92582F8E2225C
:0D04BF00E58229F582E5833AF583E4932276
:1004CC00BB010689828A83F0225002F722BBFE010F
:0204DC00F32209
:1004DE00F8E0FBA3A3E0F925F0F0E58215827002A7
:0704EE001583E0FA38F0224B
:0904F500EBF0A3EAF0A3E9F02208
:1004FE00D083D082F8E4937012740193700DA3A38D
:10050E0093F8740193F5828883E4737402936860A0
:06051E00EFA3A3A380DFA0
:1006DD00EFB40A07740D1206E8740A309811A89940
:1006ED00B8130CC2983098FDA899C298B811F6307D
:0706FD0099FDC299F5992255
:00000001FF
