:10210D0048554220302064657620696E0A00485596
:10211D0042203020646576206F75740A0048554260
:10212D0020312064657620696E0A004855422031C1
:10213D0020646576206F75740A005265736574208E
:10214D00686F737420706F72740A004469736162F2
:10215D006C6520686F737420706F72742062656394
:10216D0061757365206F6620646973636F6E6E654C
:10217D0063740A0047657444657644657363723A07
:10218D002000782530325820000A004765744366D8
:10219D006744657363723A20005553422D44697349
:1021AD006B2052656164790A00496E6974526F6FD4
:1021BD007444657620457272203D20253032580AD0
:1021CD0000456E756D416C6C526F6F744465760A87
:1021DD00004572726F723A20253032580A005374DE
:1021ED0061727420404368697049443D253032580E
:1021FD000A00576169742044657669636520496EEC
:10220D000A00537461727420554449534B5F6465E1
:10221D006D6F20404348353539554649206C69620C
:10222D00726172790A0057616974204469736B5247
:10223D00656164790A004F70656E0A002F43353170
:10224D002F43483535394846542E4300B2BBB4E6CA
:10225D00D4DAB8C3CEC4BCFED4F2C1D0B3F6CBF938
:10226D00D3D0CEC4BCFE0A002F2A002F4335312F08
:10227D002A004C6973742066696C652025730A0009
:10228D0020206D617463682066696C65202530348B
:10229D0064233A2025730A00436C6F73650A005559
:1022AD00C5CCD1DDCABECDEAB3C90A0055C5CCC374
:1022BD00BBD3D0D7BCB1B8BAC320455252203D25AF
:1022CD003032580A00B3F5CABCBBAF55C5CCCAA74E
:1022DD00B0DCA3ACC7EBB0CECFC255C5CCD6D8CAF7
:1022ED00D40A0080060001000012008006000200E2
:1022FD0000040000050200000000000009000000BD
:0B230D000000000201000000000000C2
:0A38140075A15575A1AA75A1FF2248
:04379A007FC87E0066
:0E379E00EF4E600905A1EF1F70F61E80F322AA
:10373E00AD07AC06ED4C600E7FE87E0312379EEDB2
:07374E001D70F11C80EE224A
:0D37EF0043C60143C40843C50C43CE10225D
:102CEE00C29FD29EC29DC2CDC2CC4387809002D6D7
:102CFE0012063300000082E47B0AFAF9F89002D63D
:102D0E00E0FCA3E0FDA3E0FEA3E0FF1204DD9002D1
:102D1E00DAEBF09002D6E0FCA3E0FDA3E0FEA3E028
:102D2E00FFE47B0AFAF9F81204DD9002D612060EC1
:102D3E009002DAE0C39405401F9002D6E0FCA3E0B7
:102D4E00FDA3E0FEA3E02401FFE43EFEE43DFDE42E
:102D5E003CFC9002D612060EE589540F4420F589EC
:102D6E0043C9A09002D6A3A3A3E0F404F58DD28E9E
:042D7E00D299D29C78
:012D8200222E
:083828003098FDC298AF99220F
:083830008F993099FDD2992215
:0B2BAB009002D6EFF0A3ECF0A3EDF0D9
:102BB600E4A3F0900048E4F0E51224F8FF9002D672
:102BC600E0FEA807088002C333D8FC900049F0A3B2
:102BD600E4F0A3F0A37480F09002AEE090004DF014
:102BE600A3740AF0A37428F0A3E4F090028DE09099
:102BF6000051F090028EE0900052F090028FE0902B
:102C06000053F0900290E0900054F0A3E4F0A3F09B
:102C1600A3EEF0A3E4F09002D7E0FEA3E0FF121AC1
:102C260094E50D7002FF229002D9E0FF12337F8FE8
:102C36000DE50D6003AF0D229002D9E004F0E0C36C
:0C2C460094035003022BB9750D1F7F1F73
:012C5200225F
:0B2A54009002D6EFF0A3ECF0A3EDF031
:102A5F00E4A3F0900048E4F0E51224F8FF9002D6CA
:102A6F00E0FEA807088002C333D8FC900049F0A30A
:102A7F00E4F0A3F0A3F09002AEE090004DF0A37449
:102A8F000AF0A3742AF0A3E4F090028DE0900051B5
:102A9F00F090028EE0900052F090028FE090005381
:102AAF00F0900290E0900054F0A3E4F0A3F0A3EEB6
:102ABF00F0A3E4F09002D7E0FEA3E0FF121A94E532
:102ACF000D70097FC8FE12379E7F00229002D9E059
:102ADF00FF12337F8F0DE50D6003AF0D229002D9EA
:102AEF00E004F0E0C394035003022A62750D1F7FC8
:012AFF001FB7
:012B000022B2
:10344F0053E37FE5E364026006E5E364037028E578
:10345F00E3B40204AFE48002AFE5EF30E0037F0096
:10346F0022E5E3B402047F0880027F80E5DB5F6022
:0C347F0006750A027F0022750A017F1604
:01348B00221E
:012FFF0022AF
:10353A00122FFCEFC3941250037FFF227E007F807C
:10354A008E0B8F0C900286EEF0A3EFF0E4F50A756D
:10355A0012099002807402F09002B312063300003E
:05356A0000007F0022BB
:1035A300EF75F005A4240EF582E43403F583E4F00B
:1035B300EF75F005A4240FF582E43403F583E4F0FA
:0C35C300EFB40104E4F5E522E4F5E42295
:10299400E49002E4F0E5DB30E33590030EE06005FB
:1029A400E5E420E04AE4FF1235A3E5DB30E20280EF
:1029B400027F01900310EFF090030E7401F07BFF8F
:1029C4007A21790D120D069002E47415F08020909E
:1029D400030EE0C394014017E4FF1235A37BFF7A92
:1029E40021791B120D069002E4E070037416F0E5E1
:1029F400DB30E736900313E06005E5E520E04B7F2C
:102A0400011235A3E5DB30E6031F80027F0190034A
:102A140015EFF09003137401F07BFF7A21792A12E9
:102A24000D069002E47415F08020900313E0C39423
:102A34000140177F011235A37BFF7A217938120DEB
:0F2A4400069002E4E070037416F09002E4E0FFE5
:012A53002260
:0C37FC00EF547FFFE5E354804FF5E3221B
:1033CE00CEEFCE90030D7408F0E4FF1237FCEEB48E
:1033DE000114E5E554FB4402F5E57F0F7E0012373C
:1033EE003E53E5FD8012E5E454FB4402F5E47F0F05
:1033FE007E0012373E53E4FD7FFA7E0012379EC2E6
:02340E00D822C2
:10307800EF75F005A4240EF582E43403F583E0C36C
:1030880094015011EF75F005A4240EF582E4340381
:10309800F5837401F0EF64017025E5DB30E745E561
:1030A800E520E015E5DB30E6047F0080027F019033
:1030B8000315EFF0700343E50443E5017F0022E5C3
:1030C800DB30E320E5E420E015E5DB30E2047F00B7
:1030D80080027F01900310EFF0700343E40443E49F
:0730E800017F00227F162288
:10368B00CEEFCEEE75F005A4240FF582E43403F5EE
:10369B0083E0FF1237FCEE6003D38001C39210224C
:103724007FC87E0020D909EF1F70011EEF4E70F490
:0937340030D9047F0080027FFE01
:01373D002269
:0B27E1009002E1EFF0A3EAF0A3EBF0A0
:1027EC00CFEDCF8FD68FD4E4F5DD9002E1E0F5D5B7
:1027FC00C2D97FC87E0020D909EF1F70011EEF4E91
:10280C0070F4E4F5D520D9037FFE2230D81EC2D84F
:10281C00122994EFB41502D20FE50AB401037F1606
:10282C0022E50AB402037F152212379A30D9673099
:10283C00DE037F0022E5D9540FFFB40E028043EF74
:10284C00B40A299002E2E0FCA3E0FD4C7003EF8097
:10285C003EC3ED94FFEC94FF500E9002E3E024FF96
:10286C00F09002E2E034FFF015DD802D9002E1E003
:10287C00C4540F24F7600D24FC6004240C7014EF76
:10288C006017800BEFB40304640B600DEF600A4417
:10289C0020FF227FFE2275D8FF7F0F7E0012379E0D
:0F28AC0005DDAFDDEFC3940350030227F67F2055
:0128BB0022FA
:06231800EBF0E4FDFFFE06
:10231E009002DEEEF0A3EFF0A3EDF012379AE0603C
:10232E0003F8E4F675D7087B107A27E4FD7FD01208
:10233E0027E1CBEFCBEB60012275D6D075D4D075EB
:10234E00D701900047E060047FFF8005900046E0D3
:10235E00FF9002DDEFF07003022474A3E0FEA3E011
:10236E004E7003022474900040E020E7030223FE27
:10237E009002DDE0607512379A7B107A27ADD47F1C
:10238E00901227E1CBEFCBEB6001229002DDE0FF54
:10239E00E5D1C39F5007AED1CFEECF80009002DDC6
:1023AE00E0C39FF09002E0E06004F8EF26F6E4FE52
:1023BE00EE6F602A74002EF582E43400F583E0FDA2
:1023CE009002DEE0F8A3E0F5828883EDF09002DF64
:1023DE00E004F070069002DEE004F00E80D2E5D14B
:1023EE00600990030DE01455D16085E4F5D7807631
:1023FE009002DDE0607012379A90030DE0FF9002BC
:10240E00DDE0FEC39F40028003CFEECF8FD7E4FF07
:10241E00EF65D7602A9002DEE0FCA3E0F5828C83A4
:10242E00E0FE74402FF582E43400F583EEF0900266
:10243E00DFE004F070069002DEE004F00F80D17B46
:10244E00107A27ADD67F101227E1CBEFCBEB6001D0
:10245E00229002DDE0C395D7F09002E0E06091F8A3
:10246E00E5D726F6808A12379AE5D760047F9080EA
:10247E00027F107B107A277DC01227E1CBEFCBEBCA
:10248E00600122E5D77002FF22E5D17002FF227FA4
:01249E001726
:01249F00221A
:1036AB00E4FD8F828E83E493FC74402DF582E43429
:0F36BB0000F583ECF00FBF00010E0DEDB408E336
:0136CA0022DD
:10356F0090030D7408F07E227FF01236AB7E007F41
:10357F00407D1312231EEF600122900047E090035D
:10358F000DF09022F6E493FFE513C39F50037F17CE
:03359F00227F0088
:0135A2002206
:102F93007E227FF81236AB7E007F407D1312231E04
:102FA300EF6001229022FEE493FEE513C39E5003DB
:102FB3007F1722900042E0F513E513D394404003BA
:102FC3007F17227E227FF81236AB900046E513F07E
:102FD3007E007F407D1312231EEF6001229022FEAC
:102FE300E493FFE513C39F400A900042E0FFE5131B
:082FF3009F50037F17227F00AD
:012FFB0022B3
:0535CF009002DCEFF0AA
:1035D4007E237F001236AB9002DCE090004212237F
:1035E40019EF6001229002DCE0FF1237FC7F0A7EB3
:0635F4000012373E7F00CB
:0135FA0022AE
:1037AC00CBEFCB7E237F081236AB9000421223184E
:0137BC0022EA
:1037BD00CBEFCB7E237F101236AB90004412231833
:0137CD0022D9
:1031C300E4F9FC8F828E83A3A3E0FBECC39B5047FF
:1031D300EF2CF582E43EF583A3E064057025EF2C24
:1031E300F582E43EF583A3A3A3E05403FBBB0313DF
:1031F300EF2CF582E43EF583A3A3E030E705540FFB
:10320300F98014EF2CF582E43EF583E0FDD39410AE
:0A3213005005ED2CFC80ACCFE9CF94
:01321D00228E
:051622009002D7EFF07B
:101627007BFF7A217947120D069002D7E0FF12332C
:10163700CEE49002D8F0A3F07F017E0012373E90EF
:1016470002D7E0FF123078EF700E9002D8F0A3E0D7
:1016570004F0E0D39414500C9002D8E004F0E0C3F7
:10166700946440D49002D8E060149002D7E0FF124F
:1016770035A37BFF7A217958120D067F1622900237
:10168700D7E0FF12368B7BFF7A217981120D061284
:10169700356F9002D9EFF060030217D19002D8F0AE
:1016A7009022F6E493FF9002D8E0FEC39F50257B7B
:1016B700FF7A21798F74402EF582E43400F583E0B8
:1016C700FF9002E8E4F0A3EFF0120D069002D8E0D5
:1016D70004F080CC7BFF7A217996120D06900044A6
:1016E700E09002DBF0902302E493FF9002D7E02F13
:1016F700FF1235CF9002D9EFF060030217D1902384
:101707000293FF9002D7E0FE2FFFEE75F005A424A9
:101717000FF582E43403F583EFF07BFF7A217998A4
:10172700120D06122F939002D9EFF060030217D122
:10173700900045E09002DAF0E49002D8F090004281
:10174700E0FF9002D8E0FEC39F50257BFF7A217906
:101757008F74402EF582E43400F583E0FF9002E8B1
:10176700E4F0A3EFF0120D069002D8E004F080CD6C
:101777007BFF7A217996120D0690004EE0FF9002CA
:10178700DBE07046EF640870419002DAE0FF123741
:10179700AC9002D9EFF070329002D7E0FF75F005F8
:1017A700A4240EF582E43403F5837403F0EF75F097
:1017B70005A42411F582E43403F5837408F07BFF54
:1017C7007A2179A6120D067F00227BFF7A2179B64E
:1017D7009002D9E0FF9002E8E4F0A3EFF0120D06C3
:0817E700750A029002D9E0FF2F
:0117EF0022D7
:1034C8007BFF7A2179CE120D06E49002D6F09002A5
:1034D800D6E0FF64026021EF75F005A4240EF582A2
:1034E800E43403F583E0B40107121622EF600122E9
:0A34F8009002D6E004F080D67F00B9
:0135020022A6
:10350300E4FEEE75F005A42411F582E43403F5839B
:10351300E06F7019EE75F005A4240EF582E4340310
:10352300F583E0C394034005EE7F00FE220EEEB464
:0635330002D07EFF7FFFC5
:01353900226F
:10348C00C2EA75E280E4F5E39024477448F0902496
:10349C004C7400F0A37400F090244E7400F0A374EC
:1034AC0040F0E4F5D4F5D675E28975D24075D8FFB5
:0C34BC00FF1235A30F1235A375E10322A7
:10375500EF60137BFF7A2179DE9002E8E4F0A3EFB6
:07376500F0120D0680FE22A8
:101F01001238147F1E7E0012373E122CEE7BFF7AB0
:101F11002179EBAFA19002E8E4F0A3EFF0120D06F6
:101F210012348C12353AC20F7BFF7A2179FF120DE0
:101F310006E49002CDF030D80FC2D8122994900255
:101F4100CDEFF0BF1502D20F200F03022103C20F04
:101F51007FC87E0012373E1234C89002CDEFF07F69
:101F6100081235039002D4EEF0A3EFF0F47002EE04
:101F7100F470030220FA7BFF7A22790F120D06908A
:101F810002D4E0FF9002CEF012368B750A04E49081
:101F910002CEF07BFF7A227933120D061231659061
:101FA10002CDEFF060117F327E0012373E9002CEFB
:101FB100E004F0E0B40ADCE50AC394055003022012
:101FC100E57BFF7A227943120D0678237C007D00A0
:101FD1007BFF7A2279491207301208009002CDEF77
:101FE100F0BFB3197BFF7A227959120D069002CF07
:101FF10074FFF0A37422F0A37475F0800E9002CFE9
:1020010074FFF0A37422F0A37478F09002CFE0F98A
:10201100A3E0FAA3E09002E8C9F0A3EAF0A3E9F093
:102021007BFF7A22797F120D06E49002D2F0A3F0B1
:1020310078237C007D009002CFE0FBA3E0FAA3E0CF
:10204100F91207307B007A0079231207EB9002CE58
:10205100EFF0E02423F876FF9002D2E0FEA3E0FF48
:10206100E4FCFD9002AF12060E1208009002CEEFC2
:10207100F0644260569002CEE0B443259002D2E073
:10208100FFA3E09002E8CFF0A3EFF0A3E4F0A37484
:1020910000F0A37423F07BFF7A22798D120D068064
:1020A1000A9002CEE0FF12375580209002D3E0045F
:1020B100F070069002D2E004F0C39002D3E09410D5
:1020C1009002D2E0942750030220317BFF7A2279DB
:1020D100A5120D061230EF9002CEEFF07BFF7A22AF
:1020E10079AC801B7BFF7A2279B99002CDE0FF9019
:1020F10002E8E4F0A3EFF080067BFF7A2279D212A6
:0C2101000D067F647E0012373E021F3284
:1017F00021FF000000000000A1FE00000000010029
:062D830090028D12060E05
:102D89009002A5E0FF900290E06F70249002A2E00B
:102D9900FF90028DE06F70189002A3E0FF90028E01
:102DA900E06F700C9002A4E0FF90028FE06F605812
:102DB90090028DE0FCA3E0FDA3E0FEA3E0FF9002FA
:102DC900A212060E900286E0FEA3E0FBCAEECA65D7
:102DD9000C7003EA650B701490028DE0FCA3E0FD12
:102DE900A3E0FEA3E0FF9002A612060ECEEACECF24
:102DF900EBCFCDEFCDCCEECC7F01122BAB8F0DEF0E
:0B2E09006003123783AF0D227F002210
:102C53009002C0E0FCA3E0FDA3E0FEA3E0FF90022E
:042C63008D12060EBA
:102C67009002A9E0FF900290E06F70249002A6E026
:102C7700FF90028DE06F70189002A7E0FF90028E20
:102C8700E06F700C9002A8E0FF90028FE06F605435
:102C970090028DE0FCA3E0FDA3E0FEA3E0FF90021D
:102CA700A612060EAB0CAA0B900286E06A7003A36D
:102CB700E06B701490028DE0FCA3E0FDA3E0FEA39F
:102CC700E0FF9002A212060ECEEACECFEBCFCDEFF9
:102CD700CDCCEECC7F01122BAB8F0DEF60031237FB
:072CE70083AF0D227F0022E4
:1032790090028DE0FCA3E0FDA3E0FEA3E0FF900235
:10328900A212060E900286E0FEA3E0FBCAEECA6512
:103299000C7003EA650B701490028DE0FCA3E0FD4D
:1032A900A3E0FEA3E0FF9002A612060ECEEACECF5F
:1032B900EBCFCDEFCDCCEECC7F01122A548F0DEFA1
:0832C9006003123783AF0D22F0
:102E99008F118E108D0F8C0EE509241AF582E435F9
:102EA90008F583E50EF0A3E50FF0E5092414F58292
:0C2EB900E43508F583E510F0A3E511F006
:102EC50090028DE0FCA3E0FDA3E0FEA3E0FF9002ED
:102ED500A612060EAB0CAA0B900286E06A7003A33D
:102EE500E06B701490028DE0FCA3E0FDA3E0FEA36F
:102EF500E0FF9002A212060ECEEACECFEBCFCDEFC9
:102F0500CDCCEECC7F01122A548F0DEF6003123722
:042F150083AF0D2257
:10100000900291E0FCA3E0FDA3E0FEA3E0FF9002CC
:061010008212060EE4FF4F
:101016008FD39002B9E0FBB40212900282E0FCA3E7
:10102600E0FDA3E0FEA3E0FF78018014EBB4031516
:10103600900282E0FCA3E0FDA3E0FEA3E0FF7802BD
:101046001205A1803EC200900285E030E002D20087
:10105600900282E0F8A3E0F9A3E0FAA3E0FBE8C07F
:10106600E0900282E0FCA3E0FDA3E0FEA3E0FF78AF
:101076000112058ED0E0F8EB2FFFEA3EFEE93DFDBA
:10108600E83CFC90028212060E900280E024FFFFEC
:10109600EFFE900284E0FCA3E0FDEE5CFEEDFF9027
:1010A6000287E02FF509900286E03EF5089002825D
:1010B600E0FCA3E0FDA3E0FEA3E01236EA9002BA4C
:1010C600E0F8A3E0F9A3E0FAA3E02FFFEA3EFEE989
:1010D6003DFDE83CFC90028212060E9002A5E0FF60
:1010E600900285E06F70249002A2E0FF900282E0F9
:1010F6006F70189002A3E0FF900283E06F700C906F
:1011060002A4E0FF900284E06F601F300D07122BEF
:1011160001EF600122900282E0FCA3E0FDA3E0FE65
:10112600A3E0FF122D83EF600122E5D36044E5D3EF
:10113600B4040C900282120633FFFFFFFF8031E5F4
:10114600D3B4010C90028212063300000000802006
:101156009002ADE0900282F09002ACE0900283F043
:101166009002ABE0900284F09002AAE0900285F033
:10117600D20DC20E9002B9E0FB6402704685098268
:10118600850883E0F50FA3E0F510850F11E4F50E51
:10119600F50FC3E51194F7E51094FF4002D20EE572
:1011A600D36014900282E0FFA3E08509828508835C
:1011B600CFF0A3EFF0617D300E02617DAE10AF116E
:1011C600E46175EB64037071AF09AE081237DF8F07
:1011D600118E108D0F8C0EE50E54F0FF900285E0F7
:1011E600540F4FF0530E0FE50ED3940F5016E50E25
:1011F600B40F13E50FB4FF0EE510B4FF09E511C3F4
:1012060094F74002D20EE5D36016900282E0FCA36A
:10121600E0FDA3E0FEA3E0FF850982850883617AED
:10122600300E02617D9002AAE50EF0A3E50FF0A351
:10123600E510F0A3E511F0617D850982850883E05C
:10124600F511900282E0FFC454F0FEE511540F4EF2
:10125600F50EA3E0C454F0FEEFC4540F4EF50F9004
:101266000280E024FFFFEFFE900287E024FFFF905C
:101276000286E03EFEEF65097003EE650860438571
:101286000982850883A3E0F510E5D37002613E303C
:10129600000F850982850883E50EF0A3E50FF0614E
:1012A6003E900282E0850982850883F0900283E001
:1012B600540FFFE51054F04F850982850883A3F08B
:1012C6008076E5D36014300004AF0E80059002826C
:1012D600E0FF850982850883EFF0A20DE43345D34C
:1012E6006007122B01EF6001229002A2E0FCA3E04E
:1012F600FDA3E0FEA3E02401FFE43EFEE43DFDE4A1
:101306003CFC122D83EF600122900286E0FEA3E0F2
:10131600FFF5828E83E0F510E5D3601C300004AD46
:101326000F800D900283E0540FFDE51054F04DFD43
:101336008F828E83EDF0D20DE4F50EF50F3000149A
:10134600E510C4F854F0C868F510E511C4540F4808
:10135600F511800353100FC3E51194F7E510940FB0
:101366004002D20EE5D3700F200E0CAE10AF11FC6A
:0A137600FD9002AA12060E7F00226D
:101CDF00900288E0FCA3E0FDA3E0FEA3E0FF9002EA
:101CEF00AAE0F8A3E0F9A3E0FAA3E0FBD312057D85
:101CFF0040037FB1229002AAE0FCA3E0FDA3E0FE27
:101D0F00A3E02401FFE43EFEE43DFDE43CFC900330
:101D1F001812060E12100ECBEFCB900318E0FCA397
:101D2F00E0FDA3E0FEA3E0FF9002AA12060EEB6017
:101D3F0002FF22E511700AE50E450F45107002C132
:101D4F00E790028AE0FF90031AE06F701A90028802
:101D5F00E0FF900318E06F700E900289E0FF900390
:101D6F0019E06F700281DF9002B9E0FF6401700229
:101D7F0081DF900286E0FCA3E08C08F509EF640296
:101D8F00703E900280E075F080A424FFFFE5F034F0
:101D9F00FFF50E8F0FF5108F1174022509F509E469
:101DAF003508F508850982F583E07004A3E06077B4
:101DBF00E50F150F7002150E14AE0E4E70DBC1C37A
:101DCF00900280E075F040A424FFFFE5F034FFF5AA
:101DDF000E8F0FF5108F1174042509F509E43508DE
:101DEF00F508850982F583E06002C1B3A3E06002C4
:101DFF00C1B3850982850883A3A3E06002C1B385BF
:101E0F000982850883A3A3A3E0540F6002C1B385A1
:101E1F000982850883A3A374FFF08509828508834F
:101E2F00A3A3A3E0440FF085098285088374FFF014
:101E3F00A3F0AE10AF119002AAE0F8A3E0F9A3E06F
:101E4F00FAA3E04FFFEA4EFEE9FDE8FCEEC0E0EF3B
:101E5F00C0E0E50F24FFFFE50E34FFCBEFCBFAD048
:101E6F00E0FFD0E0FEC3EF9BFFEE9AFEED9400FD86
:101E7F00EC9400FC9002AA12060E900288E0FCA3DC
:101E8F00E0FDA3E0FEA3E0FF9002AAE0F8A3E0F9D3
:101E9F00A3E0FAA3E0FBD312057D40037FB122D26A
:101EAF000D7F0022E50F150F7002150E14AE0E4EAA
:101EBF006002A1E69002AAE0F8A3E0F9A3E0FAA37A
:101ECF00E0FBAE10AF11EB4FFFEA4EFEE9FDE8FC71
:101EDF009002AA12060E81DF900318E0FCA3E0FD2A
:101EEF00A3E0FEA3E0FF90028212060E7F04121001
:021EFF001622A9
:10376C00121CDFEF64B16001229002AA1206330032
:07377C00000000121CDF2217
:10080000E50AC394105007120003EF60012212366C
:1008100047EF600122C20B7823E6FF7002FF22EF50
:10082000645C6004EFB42F089002C47424F0801755
:100830007824E6643A600201FBEFC394435002015E
:10084000FB9002C47426F09002B9E0FBB403109050
:1008500002C5E0FCA3E0FDA3E0FEA3E0FF8005E409
:10086000FFFEFDFC90029112060E9002C4E0F8E635
:10087000600221019002AF120633FFFFFFFFEB641D
:1008800003604F9002947402F09002C8E0900281DD
:10089000F090029AE0FCA3E0FDA3E0FEA3E0FFEFEE
:1008A000C0E0900281E0FBD0E0FFC3EF9BFFEE943D
:1008B00000FEED9400FDEC9400FC90029A12060EEE
:1008C000900281E0FFE4FCFDFE1237079002AF12B8
:1008D000060E900291E0FCA3E0FDA3E0FEA3E0FF82
:1008E0009002AA12060E9002C91206330000000000
:1008F000E4900295F0750A127F41229002C474239D
:10090000F0900291E0700CA3E07008A3E07004A3E3
:10091000E06046900281E0900295F0900291E0FC48
:10092000A3E0FDA3E0FEA3E024FEFFEE34FFFEED16
:1009300034FFFDEC34FFFC90028CE0F9F81205A1C5
:1009400090029AE0F8A3E0F9A3E0FAA3E02FFFEA0F
:100950003EFEE93DFDE83C80249002C8E09002950F
:10096000F0FB90029AE0FCA3E0FDA3E0FEA3E0C34D
:100970009BFFEE9400FEED9400FDEC9400FC9002D1
:10098000C012060E900295E070028148122C53EFBF
:10099000600122E4900298F0A3F0900280E0FE90C3
:1009A0000298E0FCA3E0FDC39400EC9E400281218C
:1009B000ED250CF509EC350BF508850982F583E08A
:1009C000FF70028178EF64E570028111EFB40502D7
:1009D0007FE59002C4E0F8E6FE6F6007EE642A60EF
:1009E000028111EF6E70047F0180027F008F10AFD3
:1009F00010EFC3940B5059AE109002C4E02EF8E6ED
:100A0000FEE5092FF582E43508F583E0FD6E603BD5
:100A1000EE6009645C6005EE642F701FED64207069
:100A20002FEFC394085010E5092408F582E4350837
:100A3000F583E0642070197F0B8015EEB42E11E56C
:100A40001064086004EDB420077F070F051080A133
:100A5000AE109002C4E02EF8E6F511EFC3940B50EF
:100A6000026151E509240BF582E43508F583E03095
:100A7000E3026151C20EE509241AFFE43508FE12B3
:100A8000381EE4FCFD90029112060E9002B9E0B40B
:100A90000314E5092414FFE43508FE12381E900201
:100AA00091EEF0A3EFF0E5116005200E0261459094
:100AB0000291E0FCA3E0FDA3E0FEA3E0FF9002AA08
:100AC00012060E9002C912063300000000E49002E4
:100AD00095F0E509240BF582E43508F583E030E470
:100AE0001E9002AF120633FFFFFFFF7D137F10122F
:100AF000364BEF600122300E037F43227F4122E517
:100B000009241CFFE43508FE1237DF9002AF1206FD
:100B10000E900291E0701AA3E07016A3E07012A389
:100B2000E0700EA374FFF09002AF120633000000D5
:100B3000007D147F1012364BEF600122300E037FD0
:100B400043227F0022E51004FF9002C4E02FF02131
:100B500001E511642A60028111E509240BF582E4A4
:100B60003508F583E030E3028111E5A164596003A3
:100B70007F11229002AFE0FCA3E0FDA3E0FEA3E022
:100B8000FFEC4D4E4F602E9002AFE030E703122F86
:100B9000FF9002AFE0FCA3E0FDA3E0FEA3E024FF92
:100BA000FFEE34FFFEED34FFFDEC34FFFC9002AFAE
:100BB00012060E805CE4FFF50EE5092FF582E435A0
:100BC00008F583E064206036EFB4080CAE0E9002A6
:100BD000C4E02EF8762E050EE5092FF582E43508DF
:100BE000F583E0FEAD0E9002C4E0FC2DF8EEF6E5D4
:100BF0000E7009C8ECC8E6B4050276E5050E0FEFE5
:100C0000B40BB6AF0E9002C4E02FF8E4F6D20E415A
:100C100076900299E02420F0900298E03400F021D0
:100C20009A9002C0E0FCA3E0FDA3E0FEA3E0240153
:100C3000FFE43EFEE43DFDE43CFC9002C012060EE3
:100C4000900295E014F02184900291E0700CA3E0F2
:100C50007008A3E07004A3E0601E121000EF6001B2
:100C600022200E14900291E50EF0A3E50FF0A3E50B
:100C700010F0A3E511F02101E4FF9002C4E0CEEFF3
:100C8000CE0F2EF8E6FE6010642A600CEE645C6005
:0B0C900004EEB42FE57FB3227F422268
:1032D1009002AAE0FCA3E0FDA3E0FEA3E024FEFF30
:1032E100EE34FFFEED34FFFDEC34FFFC90028CE088
:1032F100F9F81205A190029AE0F8A3E0F9A3E0FA27
:10330100A3E02FFBEA3EFAE93DF9E83CF89002958B
:10331100E0FFE4FCFDFEEB2FFFEE3AFEED39FDECA4
:0833210038FC90028D02060E3B
:1026EE00900291E0700EA3E0700AA3E07006A3E0E2
:1026FE007002E1CF78271205B41236EAEFC0E090EF
:10270E000295E0FBD0E0FFC3EF9BF511EE9400F5D0
:10271E0010ED9400F50FEC9400F50EAF11AE10AD68
:10272E000FAC0E78231205C0C312057D4017782317
:10273E001205B4C3EF9511FFEE9510FEED950FFD4A
:10274E00EC950E8054900291E0FCA3E0FDA3E0FE18
:10275E00A3E0FF9002AA12060E900281E0FFE4FCB5
:10276E00FDFE78231205C0C312057D40349002AAE7
:10277E00121003EF600122200E4778231205B4EFEA
:10278E00C0E0900281E0FBD0E0FFC3EF9BFFEE9430
:10279E0000FEED9400FDEC9400FC782312060280FE
:1027AE00B87826E6900295F01232D190028DE0FCB8
:1027BE00A3E0FDA3E0FEA3E0FF78231206027F0054
:1027CE002290029574FFF0782312061AFFFFFFFF86
:0327DE007F002257
:032FFC007F12221F
:103783009002A6120633FFFFFFFF9002A212063338
:07379300FFFFFFFFC20D2242
:043647007D107F1063
:10364B00AE0AEEC39F4005CEEDCE8D0AEE6D700235
:0F365B00FF22750A0112344FEF6001227F832294
:10362200AB0DEBB41611750A019002B3120633000A
:10363200000000CFEBCF22EBB41507750A02CFEBE7
:05364200CF227F0022F1
:10321E007F027E0012373E9002BFE50DF012344F52
:10322E00EF600122E50AC3940450037F83227E17C8
:10323E007FF01236AB9002BEE0900044F0E4FDFF4A
:10324E00FE12231E8F0DEFB41601229002B8E05429
:10325E000FFF1237BD9002B7E0540F4480FF1237B4
:0B326E00BD9002BFE0FFF50DE4F02270
:10341000900048EDF0A3E4F0A3F0A3F0ED60047E8B
:103420008080027E0090004CEEF09002AEE09000B2
:103430004DF0A37406F0A3EFF0A3E4F0A3F0A3F023
:0F344000A3EDF0A3E4F0A3F0A3F0A3F0A3F02218
:071A8D001234107E007F629D
:101A94008E158F169000407455F0A37453F0A37400
:101AA40042F0A304F075D71F9002B8E0FF9002BF84
:101AB400E0FD7BE87AFD1227E18F0DEFB4160122D9
:101AC400EF60397E007F627C007D407B1B7A0012D0
:101AD400366A12321E7E007F407C007D627B1B7A58
:101AE4000012366A9002B8E0FF9002BFE0FD7BE886
:101AF4007AFD1227E18F0DEF600281D99002BFE0D9
:101B04006440F0900048E0FDA3E0FF4D7002819E28
:101B1400EFF513EDF51490004CE020E70261E8D2F4
:101B240001E5144513700261DCE5137007E514C385
:101B34009440400C90244CE515F0A3E516F0800C7D
:101B4400C20190244C7400F0A37400F09002B7E03A
:101B5400FF9002BFE0FD7BE87AFD1227E18F0DEFD5
:101B6400601E90244C7400F0A37400F0EF642E60A7
:101B740001229002B7E0540F4480FF1237BD805811
:101B84009002BFE06480F030011FE5D164407048EA
:101B940074C02514F51474FF3513F5137440251619
:101BA400F516E43515F5156125AFD1AE14EEC39FD6
:101BB4005003CFEECFE4FEEE6F601D74002EF5826D
:101BC400E43400F583E0851682851583F00516E577
:101BD40016700205150E80DF90244C7400F0A37477
:101BE40000F0819EE514451370028194E51370089A
:101BF400AF14EFC39440402690244EE515F0A3E5BE
:101C040016F074C02514F51474FF3513F5137440DD
:101C14002516F516E43515F51575D740803790244B
:101C24004E7400F0A37440F08FD7E4FFE5146F60A6
:101C34001F851682851583E0FE74402FF582E434F7
:101C440000F583EEF00516E516700205150F80DC2D
:101C5400E4F513F5149002B8E0FF9002BFE0FD7BB9
:101C6400E87AFD1227E18F0DEF601C90244E74007A
:101C7400F0A37440F0EF642E6001229002B8E054A7
:101C84000FFF1237BD80099002BFE06440F061E8A5
:101C940090244E7400F0A37440F09002B7E0FF90DB
:101CA40002BFE0FD7BE87AFD1227E18F0DEF6001B2
:101CB400229002BFE06480F0750D1FE5D1640D60D1
:101CC40003AF0D2290000CE0FE7004F50DFF22EE30
:0B1CD400C39402400302321EAF0D2239
:1036CB007F0A7E0012373E7D127F03121A8D7F0513
:0F36DB007E0012373EE50D7002FF2212362222CA
:102E1400751209750E0F7D087F2512341090004E2F
:102E2400740AF0900053E4F0121A90AF0DEF702082
:102E3400900068E0FEB4040575120A8040EEB40800
:102E44000575120B8037EE6410703275120C802DEC
:102E5400EF64166028EF64156023EF6413601E8F1F
:102E64000F1236CB850F0DE50E7E0030E3047F4054
:102E740080027FC812373E150EE50E7099E51224C4
:102E8400F8FF7401C8EFC8088002C333D8FC90026D
:052E940080F0AF0F22E9
:1024A00012344FEF600122E50AC3940450037F8386
:1024B00022750A04122F938F0DEF60012290004EB7
:1024C000E06408705FC20CA3E0B40602D20C900076
:1024D0004BE09002BEF0E4F50EE50E600790005B65
:1024E000E0FF8005900054E0FF8F0FE50E6007903D
:1024F000005DE0FF8005900056E0FFEF644070242F
:10250000E50F30E70CE50F540F44909002B7F080D0
:102510000AE50F540F44109002B8F0050EE50EB412
:1025200002B78006750D1FAF0D22900045E0FF1227
:1025300037AC8F0DEF600122E4F50E7E177FF812A5
:1025400036AB9002BEE0900044F07D0FAF0CAE0BB6
:1025500012231E8F0DEF7010E50FB4011A850C8247
:10256000850B83E0F50E800FE50DB42E07E4FF1216
:1025700037BD8003AF0D227F057E0012373E123734
:1025800083E49002BFF09002AEF07D247F121234FB
:1025900010AF0CAE0B121A94E50D7023E50E601807
:1025A0009002AEE07012850C82850B83E0B40508C2
:1025B0009002AE7401F080D27D057F0402364BE5B7
:1025C0000E600E9002AEE0C394035005E004F0806C
:0C25D000B9E49002AEF07F0112337F22CC
:10316500782312061A0000000012344FEF60012286
:10317500E50AC3940550301224A0EF600E7F407E0F
:103185000012373E1224A0EF600122122E14EF60C8
:1031950003AF0D22900062E0FCA3E0FDA3E0FEA3D7
:1031A500E0FF7823120602E4FDFF121A8DE50D708B
:0E31B50002FF22850D0E1236CBAF0E8F0D22BB
:10337F00E4FDFCE4F5A10DBD00010CBC01F5BDF4AD
:10338F00F2EFC394024014AE0AEEB41205750A05AB
:10339F008009EED394104003750A10AE0DEF601440
:1033AF00EE6416600FEE6415600A1236CBCEEFCEC8
:0F33BF00EE7001227F027E0012373E123622226C
:10000300E50AC39405500A1224A0EF600122122EC0
:10001300141237839002B3E0FCA3E0FDA3E0FEA338
:10002300E054F0FFEC7B707A5679347812C31205F2
:100033007D700A9002B6E0540FF5098003E4F509D8
:10004300E4900281F0900295F09002AF1206330023
:1000530000000090028D12063300000000122C678E
:10006300EF600D12321E122E14122C67EF60012264
:10007300E509700F850C82850B83E054FD64E970FC
:100083000221B6E50C24FEF582E50B3401F583E08D
:10009300FEA3E064AA7003EE645560037F9122908F
:1000A3000281E0F508E5086440700221A2E50C2412
:1000B300BEFFE50B3401FE7C00EF2508FFEC3ECFCD
:1000C3002408CF3400FE1237DF90028D12060EE5AE
:1000D3000C24BEFFE50B3401FE7C00EF2508FFEC8A
:1000E3003EF583EF2404F582E43583F583E0F50ED2
:1000F300E50E64056005E50EB40F5190028DE0FC3A
:10010300A3E0FDA3E0FEA3E0FF9002AFE0F8A3E0CD
:10011300F9A3E0FAA3E0FBEF2BFFEE3AFEED39FD86
:10012300EC38FC90028D12060E900295E0600201FD
:1001330060E5082410F090028DE0FCA3E0FDA3E04D
:10014300FEA3E0FF9002AF12060E0160E50E30E75A
:1001530003530E3FE50E603FE50EC3940F5038E5A1
:10016300099401503090028DE0FCA3E0FDA3E0FE72
:10017300A3E0FF9002A6E0F8A3E0F9A3E0FAA3E06E
:10018300FBEF2BFFEE3AFEED39FDEC38FC90028DD0
:1001930012060E801E150974102508F50801A89093
:1001A3000295E0FF600A900281E07004EFF0014CD9
:1001B3007F922290028DE0FCA3E0FDA3E0FEA3E08A
:1001C300FF9002B312060E122C67EF600122850C1A
:1001D30082850B83E054FD64E960037FA122E50C73
:1001E30024FEF582E50B3401F583E0FEA3E064AA67
:1001F3007003EE645560037FA122E50C240DF582A4
:10020300E4350BF583E0FF900281F090028C7407D4
:10021300F0EF20E713EF25E0FF90028CE014F0E00D
:1002230070EF9002817401F0E50C2416FFE4350BA6
:10023300FE12381EE4FCFD90029E12060E9002A0F0
:10024300E0FEA3E04E7012E50C2424FFE4350BFE20
:100253001237DF90029E12060EE50C2413FFE435DD
:100263000BFE12381EE4FCFD9002C912060E90022A
:10027300CBE0FEA3E04E7012E50C2420FFE4350B27
:10028300FE1237DF9002C912060EE50C2411FFE4BB
:10029300350BFE12381E900280E033333354F814CA
:1002A3007C002FFFEC3EFEE51224FBFDEFC8EDC8FA
:1002B300088005CEC313CE13D8F9FFE4FCFD9002EA
:1002C300C512060EE50C240EFFE4350BFE12381E94
:1002D300E4FCFD9002BA12060E9002C8E0FF7E0015
:1002E3009002BCE0FCA3E02FFFEE3CFEE4FCFD909B
:1002F300029EE0F8A3E0F9A3E0FAA3E02FF511EAE8
:100303003EF510ED39F50FEC38F50EE50C2410F53C
:1003130082E4350BF583E090029EB4021FE0FCA358
:10032300E0FDA3E0FEA3E02511F511EE3510F51075
:10033300ED350FF50FEC350EF50E80071206330081
:1003430000000090028DE0FCA3E0FDA3E0FEA3E02B
:100353002511FFEE3510FEED350FFDEC350EFC904B
:10036300029A12060E9002C9E0FCA3E0FDA3E0FE90
:10037300A3E0C39511FFEE9510FEED950FFDEC95EF
:100383000EFC90028CE0F9F812058E90028812069A
:100393000EE47FF57EFFFDFC900288E0F8A3E0F910
:1003A300A3E0FAA3E0FBC312057D5023E490029679
:1003B300F0A3F090028AE0FEA3E0C394F5EE940F5D
:1003C3009002B950057401F080317402F0802CE57D
:1003D3000C2430FFE4350BFE12381E900296EEF02B
:1003E300A3EFF0E50C242CFFE4350BFE1237DF906E
:1003F30002C512060E9002B97403F09002BCE0FE2F
:10040300A3E04E60579002C5E0FCA3E0FDA3E0FE2D
:10041300A3E0FFEC4D4E4F6043E50C2410F582E45E
:10042300350BF583E06401601490029EE0FCA3E0C9
:10043300FDA3E0FEA3E0FFEC4D4E4F601FE50C244F
:100443000BF582E4350BF583E07011E50C240CF514
:1004530082E4350BF583E0C39402500CE509700583
:1004630075090101437FA3229002BAE0FCA3E0FDDA
:10047300A3E0FEA3E0FF90028DE0F8A3E0F9A3E080
:10048300FAA3E0FBEF2BFFEE3AFEED39FDEC38FC6F
:0E0493009002BA12060E7D107F0512364B2223
:102B01009002A2E0FCA3E0FDA3E0FEA3E0FF90029F
:102B11008D12060E123279EF60012290029EE0FCC6
:102B2100A3E0FDA3E0FEA3E0FFEC4D4E4F607690E5
:102B3100028DE0FCA3E0FDA3E0FEA3E0FF90029E76
:102B4100E0F8A3E0F9A3E0FAA3E0FBEF2BFFEE3AF4
:102B5100FEED39FDEC38FC90028D12060E900286D6
:102B6100E0FCA3E0FD7F01122A548F0D90028DE05D
:102B7100FCA3E0FDA3E0FEA3E0FF90029EE0F8A32A
:102B8100E0F9A3E0FAA3E0FBC3EF9BFFEE9AFEEDB1
:102B910099FDEC98FC90028D12060EE50D6006126F
:0A2BA1003783AF0D22C20D7F002222
:102F1900121CDFEF600564B1600122EF60119002BD
:102F2900AA12063300000000121CDFEF6001221212
:102F39002B01EF6001229002AAE0FCA3E0FDA3E0CF
:102F4900FEA3E0FF90029112060E122C53EF6001CE
:102F590022900299E0250CF509900298E0350BF5CD
:102F690008F583E509241CF582E43583F583120607
:102F79003301000000900291E0FCA3E0FDA3E0FE14
:0A2F8900A3E0FF123838122E99223F
:083000007FFF7EFF7DFF7CFFD6
:103008008F118E108D0F8C0E900296E0FCA3E0FDC0
:103018004C7002FF22CFEDCFCEECCEE4FCFD900247
:10302800B3E0F8A3E0F9A3E0FAA3E02FFFEA3EFE3D
:10303800ED39FDEC38FC122C61EF600122E50C241F
:10304800E8FFE50B3401FE1237DFEF2511FFEE35FF
:1030580010FEED350FFDEC350EFC123838E50C246A
:10306800E8F582E50B3401F58312060E122EC5220F
:10332900C20BE50AC39414404A122C53EF600122E0
:10333900900299E0250CF509900298E0350BF50803
:10334900F583E509240BF582E43583F583E020E470
:10335900229002AFE0FCA3E0FDA3E0FEA3E0FF1290
:103369003838E509241CF582E43508F58312060E80
:06337900022EC57F0022B8
:1030EF00AF0AEFC3941250037FB422EFB41246908D
:1030FF0002B9E06403603E90028CE0FF7401C8EFF8
:10310F00C8088002C333D8FC900281F090029AE085
:10311F00F8A3E0F9A3E0FAA3E0FB9002C8E0FFE414
:10312F00FCFDFEEB2FFFEE3AFEED39FDEC38FC9087
:10313F00029A12060EAF0AEFD394134009EFB4149C
:10314F00077823E67002C20B300B07123329EF60AA
:06315F0001221236472296
:1028BC00E50AC394135007120800EF600122123688
:1028CC0047EF600122122C53EF600122900298E036
:1028DC00FEA3E0250CF582E50B3EF58374E5F012C2
:1028EC002EC5EF600122900291E0F50EA3E0F50FEA
:1028FC00A3E0F510A3E0F511E50E450F45104511C9
:10290C0070022191900291E0FCA3E0FDA3E0FEA3F4
:10291C00E024FFFFEE34FFFEED34FFFDEC34FFFC52
:10292C0090029112060E9002AA12063300000000CB
:10293C00900282E50EF0A3E50FF0A3E510F0A3E5FD
:10294C0011F07F01121016EF6001229002AAE0FC38
:10295C00A3E0FDA3E0FEA3E02401FFE43EFEE43D82
:10296C00FDE43CFC9002AA12060E300EC3122B01A1
:10297C00EF6001229002AAE0FCA3E0FDA3E0FEA31D
:08298C00E0FF0230087F002289
:10180000120800900295EFF070091228BCEF7002E8
:10181000216922900295E0FF6442600122900280DB
:10182000E0FEC3900299E09400900298E09E50027E
:101830002169900291E0700EA3E0700AA3E07006A7
:10184000A3E07002210D121000EF600122200E02B1
:101850002169900291E0FCA3E0FDA3E0FEA3E0FF7C
:101860009002AA12060E12376CEF600122900291CC
:10187000E0FCA3E0FDA3E0FEA3E0FF9002821206DD
:101880000E7F02121016EF600122122B01EF600191
:1018900022AF0CAE0B900280E0FDED6012E4FC8FF5
:1018A000828E83E4F00FBF00010EDCF31D80EBE4B9
:1018B000900295F01232D1E4900298F0A3F09002D9
:1018C0008DE0FCA3E0FDA3E0FEA3E0FF9002C012C8
:1018D000060E900281E0F50EE50E602A122EC5EF8D
:1018E00060012290028DE0FCA3E0FDA3E0FEA3E0F6
:1018F0002401FFE43EFEE43DFDE43CFC90028D1239
:10190000060E150E80D2123000EF605D229002C8E4
:10191000E0900295F09002C074FF1205CF122C6186
:10192000EF600122E4900298F0A3F0900280E0FEC4
:10193000900298E0FCA3E0FDC39400EC9E501FE5EC
:101940000C2DF582E50B3CF583E064E5601B90020D
:1019500099E02420F0900298E03400F080CD9002CD
:1019600095E014F070AF7FB222900291E0FCA3E00A
:10197000FDA3E0FEA3E0FF9002AA12060EE5B1541B
:10198000D064C060037F112212376CEF6001221215
:101990002B01EF6001229002AAE0FCA3E0FDA3E08E
:1019A000FEA3E0FF90029112060E123000EF6001DC
:1019B00022122C53EF600122900299E0250CF509C8
:1019C000900298E0350BF508E4FFEFC3940B500448
:1019D0007E2080027E00E5092FF582E43508F5833C
:1019E000EEF00FEFB420E3E5092418F582E43508A2
:1019F000F5837421F0A37430F0E509241CF582E42A
:101A00003508F5837401F0E4FFEFC3940B50319077
:101A100002C4E0F8E6FE6028EEB42E087F089002CB
:101A2000C4E004F09002C4E0F8E6FEE5092FF58278
:101A3000E43508F583EEF00F9002C4E004F080C9AD
:101A4000900291E0FCA3E0FDA3E0FEA3E0FF1238CA
:101A500038122E99EF600122900291E0FCA3E0FD84
:101A6000A3E0FEA3E0FF9002AA12060E9002AF12BE
:101A70000633000000009002C91206330000000087
:0D1A8000E4900295F07D147F1012364B2289
:10138000D20B900280E0FE90028CE0FDE4C8EDC834
:10139000088005C333CE33CED8F924FFFFEE34FFE7
:1013A000FEE4FCFD9002AFE0F8A3E0F9A3E0FAA3AD
:1013B000E02FFFEA3EFEED39FDEC38FC90028CE0B8
:1013C0002512F9F812058E90031C12060E9002C920
:1013D000E0FCA3E0FDA3E0FEA3E0FFC8E9C812051E
:1013E0008E90028212060E900282E0FCA3E0FDA322
:1013F000E0FEA3E0FF90031CE0F8A3E0F9A3E0FA0D
:10140000A3E0FBD312057D402D90031CE0FCA3E07C
:10141000FDA3E0FEA3E0FF900282E0F8A3E0F9A3C1
:10142000E0FAA3E0FBEF9BFFEE9AFEED99FDEC984E
:10143000FC90031C8011900291E0FCA3E0FDA3E06E
:10144000FEA3E0FF9002AA12060E900291E070291E
:10145000A3E07025A3E07021A3E0701D9002AFE02F
:10146000FCA3E0FDA3E0FEA3E0FFEC4D4E4F7002B5
:10147000FF22122F19EF601F229002AFE0FCA3E0C1
:10148000FDA3E0FEA3E0FFEC4D4E4F700A90031C5D
:10149000120633000000019002AAE0FCA3E0FDA3C5
:1014A000E0FEA3E0FF782312060290031CE0FCA3F9
:1014B000E0FDA3E0FEA3E024FFFFEE34FFFEED34E9
:1014C000FFFDEC34FFFC90031C12060E9002AAE014
:1014D000FCA3E0FDA3E0FEA3E0FF90028212060E53
:1014E0007827120602E4FF121016EF600122200E88
:1014F00002A18290031CE0700CA3E07008A3E070CE
:1015000004A3E060067E007F0180047E007F00EF80
:101510004E700E78231205B49002AA12060E7F00B8
:101520002290031CE0FCA3E0FDA3E0FEA3E0FF1279
:10153000056F123008EF6001229002AAE0FCA3E0E0
:10154000FDA3E0FEA3E0FF782712060212376CEF3E
:1015500060012278271205B490028212060E7F02E3
:10156000121016EF60012290031C74FF1205CFECDD
:101570004D4E4F70C478231205B49002AA12060E85
:10158000C11E90031CE0600281AAA3E0600281AA50
:10159000A3E0600281AAA3E0600281AA7827120575
:1015A000B48F118E108D0F8C0E900282E50EF0A379
:1015B000E50FF0A3E510F0A3E511F07F011210167E
:1015C000EF60012290031CE0FCA3E0FDA3E0FEA37A
:1015D000E02401FFE43EFEE43DFDE43CFC90031CFE
:1015E00012060E300EC390031CE0FCA3E0FDA3E046
:1015F000FEA3E0FF123008EF600122900291E0FCB0
:10160000A3E0FDA3E0FEA3E0FF9002AA12060E9065
:1016100002C912063300000000E4900295F0122B7C
:021620000122A5
:1025DC00E50AC3941350037FB422122C53EF60010D
:1025EC0022C211900299E0250CF509900298E03571
:1025FC000BF508782BE6FFE509240BF582E435088A
:10260C00F583E0F6EFF4600FE509240BF582E43571
:10261C0008F583EFF0D2117929E7F50F782AE6F562
:10262C000EE5092416FFE43508FE12381E7829EE53
:10263C00F608EFF6E50FF47003E50EF46014E50907
:10264C002416F582E43508F583E50EF0A3E50FF0CA
:10265C00D2117927E7F50F7828E6F50EE50924184D
:10266C00FFE43508FE12381E7827EEF608EFF6E583
:10267C000FF47003E50EF46014E5092418F582E4F8
:10268C003508F583E50EF0A3E50FF0D2117823128F
:10269C0005B48F118E108D0F8C0EE509241CFFE4F0
:1026AC003508FE1237DF7823120602E50E550F555A
:1026BC00105511F46023AF11AE10AD0FAC0E90029B
:1026CC00AF12060E123838E509241CF582E43508E1
:1026DC00F58312060ED211C20B301103022EC57FE8
:0226EC000022CA
:1037CE00E4FF74232FF876FF0FEFB40AF51225DC11
:0137DE0022C8
:1037DF008F828E83E0FFA3E0FEA3E0FDA3E0FC2237
:0A381E008F828E83E0FFA3E0FE22FC
:07383800EFCCFFEECDFE22F4
:1036EA00C3E4CC13CD13CE13FFE51224F7600DF813
:0D36FA00C3ED13FDEE13FEEF13FFD8F42215
:10370700C3E4CF33CE33CD33FCE51224F7600DF895
:0D371700C3EE33FEED33FDEC33FCD8F4229D
:10366A0005A28D828C8315A28F828E837F00EA60E9
:10367A0007E0A3A5DFFBDAF9EB6005E0A3A5DBFB16
:01368A00221D
:03000000023808BB
:0C380800787FE4F6D8FD758142021F01B4
:1004A10075F008758200EF2FFFEE33FECD33CDCC12
:1004B10033CCC58233C5829BED9AEC99E582984095
:1004C1000CF582EE9BFEED9AFDEC99FC0FD5F0D672
:1004D100E4CEFBE4CDFAE4CCF9A88222B800C1B99C
:1004E1000059BA002DEC8BF084CFCECDFCE5F0CBDA
:1004F100F97818EF2FFFEE33FEED33FDEC33FCEB13
:1005010033FB10D703994004EB99FB0FD8E5E4F9CD
:10051100FA227818EF2FFFEE33FEED33FDEC33FCBA
:10052100C933C910D7059BE99A4007EC9BFCE99AAE
:10053100F90FD8E0E4C9FAE4CCFB2275F010EF2FF3
:10054100FFEE33FEED33FDCC33CCC833C810D707F3
:100551009BEC9AE899400AED9BFDEC9AFCE899F82E
:0E0561000FD5F0DAE4CDFBE4CCFAE4C8F922C1
:0E056F00C3E49FFFE49EFEE49DFDE49CFC229D
:10057D00EB9FF5F0EA9E42F0E99D42F0E89C45F0D4
:01058D00224B
:10058E00E8600FECC313FCED13FDEE13FEEF13FF4B
:03059E00D8F1226F
:1005A100E8600FEFC333FFEE33FEED33FDEC33FCB8
:0305B100D8F1225C
:0C05B400E6FC08E6FD08E6FE08E6FF2273
:0D05C000E6FB08E6F908E6FA08E6CBF822AB
:1005CD007401FF3395E0FEFDFCA3A3A3E02FFFF024
:1005DD00E582158270021583E03EFEF0E5821582FC
:1005ED0070021583E03DFDF0E582158270021583E2
:0505FD00E03CFCF022CF
:0C060200ECF608EDF608EEF608EFF62224
:0C060E00ECF0A3EDF0A3EEF0A3EFF0225F
:10061A00D083D082E493F608740193F608740293A7
:09062A00F608740393F6740473DE
:10063300A8828583F0D083D08212064A12064A121A
:10064300064A12064AE473E493A3C583C5F0C5833F
:10065300C8C582C8F0A3C583C5F0C583C8C582C811
:010663002274
:100C9B00E51724E8F582E43402F583E0051722908A
:100CAB0002E53009039002E8E475F0011207A50292
:100CBB00074D2002E97F2ED2028018EF540F2490AB
:100CCB00D43440D4FF30060BEF24BFB41A005003CA
:100CDB002461FFE51860021518051BE51B70020562
:100CEB001A30090E9002E5E475F0011207A5EF0228
:100CFB0007930235FB7403D2098003E4C209F5178D
:100D0B009002E51207BCE4F518F51AF51BE518601F
:100D1B00077F20120CDE80F57519FFC203C202C2D9
:100D2B0004C205C207C208C20A120CAAFF700D301A
:100D3B0009057F00120CEFAF1BAE1A22B4255FC260
:100D4B00D5C206120CAAFF24D0B40A00501A75F0B3
:100D5B000A781830D50508B6FF0106C6A426F6207A
:100D6B00D5047002D20580D924CFB41A00EF5004F9
:100D7B00C2E5D206020EF0D20380C6D20280C0D2E8
:100D8B000480BCD2D580BAD20780B47F20120CDE8F
:100D9B002004077401B5180040F1120C9BFF120CD4
:100DAB00DE020D18D20AD2088095120C9BFB120C96
:100DBB009BFA120C9BF94A4B700679C17A0F7BFF99
:100DCB0020042EE518602A7E008E827583001207A0
:100DDB006660060EEE651970F0C2D5EBC0E0EAC096
:100DEB00E0E9C0E0EE120F37D0E0F9D0E0FAD0E046
:100DFB00FB12074DFF60AAEBC0E0EAC0E0E9C0E0E0
:100E0B00120CDED0E02401F9D0E03400FAD0E0FB84
:100E1B00E5190460DCD519D980877BFF7A0F79330C
:100E2B00D204809C791080027908C208C20A80081B
:100E3B00D2D5790A8004790AC2D5E519047002F576
:100E4B0019E4FAFDFEFF120C9BFC7B082003131226
:100E5B000C9BFD7B1030020A120C9BFE120C9BFFAD
:100E6B007B20EC3382D592D55013C3E43002069F1E
:100E7B00FFE49EFEE42003039DFDE49CFCE4CBF821
:100E8B00C203EC700CCFCECDCCE824F8F870F38015
:100E9B0017C3EF33FFEE33FEED33FDEC33FCEB33D7
:100EAB00FB994002FB0FD8E9EB300305F8D0E0C407
:100EBB0048B203C0E00AEC4D4E4F78207B0070C265
:100ECB00EAB5190040BCC0E0120F39D0F0D0E020D9
:100EDB000304C4C0E0C4B203C0F0120CC7D0F0D5F9
:100EEB00F0EB020D181207C50DB5530E2F580D86DA
:100EFB004C0D82420E334F0E3B440E3B490D9B4330
:080F0B000E41550E25460E258E
:100F1300450E25470FE1500D8A2D0D8E2E0DB12B59
:100F23000D92230DAF200FCA2A0D4A4800000DA9C8
:100F33003F3F3F00790AA2D5200514300709B910B5
:100F4300020404B9080104A2D520080250010420B8
:100F530004689204B518005034C0E07F20300519AE
:100F63007F30A20472087207500F120F90C204C29E
:100F730008C207C20A7F30800F300703E9C0E012BE
:100F83000CDE300703D0E0F9D0E0B518CC300717FA
:100F93007F30B9100C120CDE7F583006077F788043
:100FA30003B90803120CDE3004057F2D020CDE7F2B
:100FB30020200AF87F2B2008F322920480CF286E8A
:100FC300756C6C2900D203120C9B3003F8C20378B2
:100FD3001830D50108F6020D4A2D50434958120C1A
:100FE3009B2403B405004001E4900FDC93120CCF63
:0D0FF300743A120CCFD205751804020E2FAF
:10066400E709F60870FA8046E709F20870FA803E56
:1006740088828C83E709F0A370FA807EE309F60888
:1006840070FA8076E309F20870FA806E88828C83AF
:10069400E309F0A370FA806289828A83E0A3F608F2
:1006A40070FA805689828A83E0A3F20870FA804A3D
:1006B40080D280FA80C680D4806580F28031801038
:1006C40080A680EA809A80A880DA80E280CA80319D
:1006D40089828A83ECFAE493A3C8C582C8CCC58313
:1006E400CCF0A3C8C582C8CCC583CC70E9800D8981
:1006F400828A83E493A3F60870F9ECFAA9F0EDFB7F
:100704002289828A83ECFAE0A3C8C582C8CCC58357
:10071400CCF0A3C8C582C8CCC583CC70EA80DD897F
:10072400828A83E493A3F20870F980CE88F0ED24E2
:1007340002B4040050C4F582EB2402B4040050BA9D
:0907440023234582239006B473BF
:1007EB00E4FFFE12074D600C0FEF70010E09E9706C
:0507FB00F20A80EF226C
:10074D00BB010689828A83E0225002E722BBFE02AA
:09075D00E32289828A83E49322DD
:10076600BB010CE58229F582E5833AF583E0225048
:1007760006E92582F8E622BBFE06E92582F8E22292
:0D078600E58229F582E5833AF583E49322AC
:10079300BB010689828A83F0225002F722BBFE0145
:0207A300F3223F
:1007A500F8E0FBA3A3E0F925F0F0E58215827002DD
:0707B5001583E0FA38F02281
:0907BC00EBF0A3EAF0A3E9F0223E
:1007C500D083D082F8E4937012740193700DA3A3C3
:1007D50093F8740193F5828883E4737402936860D7
:0607E500EFA3A3A380DFD7
:1035FB00EFB40A07740D123606740A309811A899A5
:10360B00B8130CC2983098FDA899C298B811F6302F
:07361B0099FDC299F5992207
:00000001FF
