:1006AA00253032582020007374617274202E2E2E49
:0906BA000A00253034582020000C
:1006DA0075A15575A1AA43B34053B37F75A1FF22F3
:0E06EA00EF4E600905A1EF1F70F61E80F3228F
:1006C300AD07AC06ED4C600E7FE87E031206EAED43
:0706D3001D70F11C80EE22F6
:0D06F80043C60143C40843C50C43CE102285
:10055C00C29FD29EC29DC2CDC2CC4387809000A5C3
:10056C0012048D00000082E47B0AFAF9F89000A5D1
:10057C00E0FCA3E0FDA3E0FEA3E0FF1203EF90007C
:10058C00A9EBF09000A5E0FCA3E0FDA3E0FEA3E046
:10059C00FFE47B0AFAF9F81203EF9000A51204812C
:1005AC009000A9E0C39405401F9000A5E0FCA3E0D7
:1005BC00FDA3E0FEA3E02401FFE43EFEE43DFDE4E8
:1005CC003CFC9000A5120481E589540F4420F58968
:1005DC0043C9A09000A5A3A3A3E0F404F58DD28E8B
:0405EC00D299D29C32
:0105F00022E8
:08071E003098FDC298AF99224A
:080726008F993099FDD2992250
:03004800D2EB22D6
:10002A00E4F5B943F60443EF0C53F2F043F20C53F0
:0E003A00F2DF43F21043F7047F64FE0206EA91
:0D07050075ED0075EC4075EE1E43F6802288
:03004B0002065951
:10065900C0E0C0F0C083C082C0D075D0087BFF7AEB
:100669000679AAAFF19000A8E4F0A3EFF01200B95F
:10067900E5F130E7099000007401F043F180E5F1FC
:1006890030E60343F140E5F130E50343F120E5F1BC
:1006990030E40343F110D0D0D082D083D0F0D0E041
:0106A900321E
:1005F1007F1E7E001206C312055C7BFF7A0679B16D
:100601001200B9E4900000F012004812002A12070B
:1006110005D2AF900000E060FAE49000A4F09000F1
:10062100A4E0FFC3941E50297BFF7A0679BCEF2515
:10063100E02440F582E43400F583E0FFA3E090007C
:10064100A8CFF0A3EFF01200B99000A4E004F0806D
:08065100CDE4900000F080BB35
:03000000020712E2
:0C071200787FE4F6D8FD7581220205F125
:1003B30075F008758200EF2FFFEE33FECD33CDCC01
:1003C30033CCC58233C5829BED9AEC99E582984084
:1003D3000CF582EE9BFEED9AFDEC99FC0FD5F0D661
:1003E300E4CEFBE4CDFAE4CCF9A88222B800C1B98B
:1003F3000059BA002DEC8BF084CFCECDFCE5F0CBC9
:10040300F97818EF2FFFEE33FEED33FDEC33FCEB01
:1004130033FB10D703994004EB99FB0FD8E5E4F9BC
:10042300FA227818EF2FFFEE33FEED33FDEC33FCA9
:10043300C933C910D7059BE99A4007EC9BFCE99A9D
:10044300F90FD8E0E4C9FAE4CCFB2275F010EF2FE2
:10045300FFEE33FEED33FDCC33CCC833C810D707E2
:100463009BEC9AE899400AED9BFDEC9AFCE899F81D
:0E0473000FD5F0DAE4CDFBE4CCFAE4C8F922B0
:0C048100ECF0A3EDF0A3EEF0A3EFF022EE
:10048D00A8828583F0D083D0821204A41204A41212
:10049D0004A41204A4E473E493A3C583C5F0C58337
:1004AD00C8C582C8F0A3C583C5F0C583C8C582C8B9
:0104BD00221C
:10004E00E51524A8F582E43400F583E00515229029
:10005E0000A53010039000A8E475F00112051602F9
:10006E0004BE2009E97F2ED2098018EF540F249088
:10007E00D43440D4FF300D0BEF24BFB41A0050031C
:10008E002461FFE516600215160519E519700205C3
:10009E001830100E9000A5E475F001120516EF024F
:1000AE0005040200037403D2108003E4C210F51598
:1000BE009000A512052DE4F516F518F519E5166054
:1000CE00077F2012009180F57517FFC20AC209C280
:1000DE000BC20CC20EC20FC21112005DFF700D30AA
:1000EE0010057F001200A2AF19AE1822B4255FC210
:1000FE00D5C20D12005DFF24D0B40A00501A75F05F
:10010E000A781630D50508B6FF0106C6A426F620D5
:10011E00D5047002D20C80D924CFB41A00EF50044B
:10012E00C2E5D20D0202A3D20A80C6D20980C0D285
:10013E000B80BCD2D580BAD20E80B47F2012009133
:10014E00200B077401B5160040F112004EFF12008D
:10015E00910200CBD211D20F809512004EFB1200ED
:10016E004EFA12004EF94A4B700679747A037BFFF1
:10017E00200B2EE516602A7E008E827583001204F7
:10018E00D760060EEE651770F0C2D5EBC0E0EAC080
:10019E00E0E9C0E0EE1202EAD0E0F9D0E0FAD0E0F9
:1001AE00FB1204BEFF60AAEBC0E0EAC0E0E9C0E0CB
:1001BE00120091D0E02401F9D0E03400FAD0E0FB37
:1001CE00E5170460DCD517D980877BFF7A0279E6C4
:1001DE00D20B809C791080027908C20FC211800860
:1001EE00D2D5790A8004790AC2D5E517047002F5D2
:1001FE0017E4FAFDFEFF12004EFC7B08200A1312D4
:10020E00004EFD7B1030090A12004EFE12004EFF0A
:10021E007B20EC3382D592D55013C3E43009069F70
:10022E00FFE49EFEE4200A039DFDE49CFCE4CBF873
:10023E00C20AEC700CCFCECDCCE824F8F870F38067
:10024E0017C3EF33FFEE33FEED33FDEC33FCEB3330
:10025E00FB994002FB0FD8E9EB300A05F8D0E0C459
:10026E0048B20AC0E00AEC4D4E4F78207B0070C2B7
:10027E00EAB5170040BCC0E01202ECD0F0D0E0208E
:10028E000A04C4C0E0C4B20AC0F012007AD0F0D59D
:10029E00F0EB0200CB12053601685301E25801392A
:1002AE004C01354201E64F01EE4401EE49014E4349
:0802BE0001F45501D84601D8F6
:1002C6004501D847039450013D2D01412E01642B71
:1002D600014523016220037D2A00FD480000015CE0
:1002E6003F3F3F00790AA2D5200C14300E09B91001
:1002F600020404B9080104A2D5200F02500104200B
:100306000B68920BB516005034C0E07F20300C19F4
:100316007F30A20B720F720E500F120343C20BC234
:100326000FC20EC2117F30800F300E03E9C0E012FB
:100336000091300E03D0E0F9D0E0B516CC300E17A0
:100346007F30B9100C1200917F58300D077F7880EE
:1003560003B90803120091300B057F2D0200917F2F
:10036600202011F87F2B200FF322920B80CF286ECE
:10037600756C6C2900D20A12004E300AF8C20A784F
:100386001630D50108F60200FD2D504349581200DB
:100396004E2403B405004001E490038F93120082BB
:0D03A600743A120082D20C7516040201E2B6
:1004BE00BB010689828A83E0225002E722BBFE023C
:0904CE00E32289828A83E493226F
:1004D700BB010CE58229F582E5833AF583E02250DA
:1004E70006E92582F8E622BBFE06E92582F8E22224
:0D04F700E58229F582E5833AF583E493223E
:10050400BB010689828A83F0225002F722BBFE01D6
:02051400F322D0
:10051600F8E0FBA3A3E0F925F0F0E582158270026E
:070526001583E0FA38F02212
:09052D00EBF0A3EAF0A3E9F022CF
:10053600D083D082F8E4937012740193700DA3A354
:1005460093F8740193F5828883E473740293686068
:06055600EFA3A3A380DF68
:10000300EFB40A07740D12000E740A309811A89900
:10001300B8130CC2983098FDA899C298B811F6305D
:0700230099FDC299F5992235
:00000001FF
