:1006F3007374617274202E2E2E0A004649464F43AE
:100703006E743A253032582020496E76616C6964E4
:100713004144435F444154413A2530345820200A30
:10072300004649464F436E743A25303258202041E3
:1007330044435F4441544125583A253034582020DE
:100743000A002D2D2D2D2DCED2CAC7B7D6B8F4B79A
:09075300FB2D2D2D2D2D2D0A008A
:0B080F0048002B01020408102040806C
:1007E40075A15575A1AA43B34053B37F75A1FF22E8
:0E07F400EF4E600905A1EF1F70F61E80F32284
:1007CD00AD07AC06ED4C600E7FE87E031207F4ED2D
:0707DD001D70F11C80EE22EB
:0D08020043C60143C40843C50C43CE102279
:1005D200C29FD29EC29DC2CDC2CC438780900003EF
:1005E20012044200000082E47B0AFAF9F890000348
:1005F200E0FCA3E0FDA3E0FEA3E0FF1203A4900051
:1006020007EBF0900003E0FCA3E0FDA3E0FEA3E013
:10061200FFE47B0AFAF9F81203A4900003120436ED
:10062200900007E0C39405401F900003E0FCA3E0A4
:10063200FDA3E0FEA3E02401FFE43EFEE43DFDE471
:100642003CFC900003120436E589540F4420F589DE
:1006520043C9A0900003A3A3A3E0F404F58DD28EB6
:04066200D299D29CBB
:010666002271
:08081B003098FDC298AF99224C
:080823008F993099FDD2992252
:1007AE00E4F5B943F60475EF0253F2F053F2CF902D
:0F07BE00002BE0F5F343F7047F647E000207F49D
:10075C00E4FDFC8FF37F0AFE1207F443F2807F0561
:10076C007E001207F453F27FE5F130E4FB43F11005
:0A077C00ACF5ADF4CEECCECFEDCF1E
:010786002250
:10051100E4900002F07F05FE1207CD1205D27BFFA9
:100521007A0679F312006E1207AE900000E5F5F03D
:10053100A3E5F4F07BFF7A0679FEE5F15403FF9021
:100541000006E4F0A3EFF0900000E0FFA3E09000CC
:1005510008CFF0A3EFF012006E43F604E49000021E
:10056100F0900002E0FFC394085051742B2FF582E4
:10057100E43400F583E0FF12075C900000EEF0A385
:10058100EFF07BFF7A077924E5F15403FF90000631
:10059100E4F0A3EFF0900002E0FF900008E4F0A384
:1005A100EFF0900000E0FFA3E090000ACFF0A3EF8E
:1005B100F012006E900002E004F080A553F6FB7B80
:1005C100FF7A07794512006E7FE87E031207CD801E
:0105D10088A1
:030000000206678E
:0C066700787FE4F6D8FD7581210206AE14
:1003680075F008758200EF2FFFEE33FECD33CDCC4C
:1003780033CCC58233C5829BED9AEC99E5829840CF
:100388000CF582EE9BFEED9AFDEC99FC0FD5F0D6AC
:10039800E4CEFBE4CDFAE4CCF9A88222B800C1B9D6
:1003A8000059BA002DEC8BF084CFCECDFCE5F0CB14
:1003B800F97818EF2FFFEE33FEED33FDEC33FCEB4D
:1003C80033FB10D703994004EB99FB0FD8E5E4F908
:1003D800FA227818EF2FFFEE33FEED33FDEC33FCF5
:1003E800C933C910D7059BE99A4007EC9BFCE99AE9
:1003F800F90FD8E0E4C9FAE4CCFB2275F010EF2F2E
:10040800FFEE33FEED33FDCC33CCC833C810D7072D
:100418009BEC9AE899400AED9BFDEC9AFCE899F868
:0E0428000FD5F0DAE4CDFBE4CCFAE4C8F922FB
:0C043600ECF0A3EDF0A3EEF0A3EFF02239
:10044200A8828583F0D083D08212045912045912F3
:100452000459120459E473E493A3C583C5F0C58318
:10046200C8C582C8F0A3C583C5F0C583C8C582C804
:010472002267
:10000300E5082406F582E43400F583E00508229030
:100013000003300703900006E475F0011204CB02DD
:1000230004732000E97F2ED2008018EF540F249030
:10003300D43440D4FF30040BEF24BFB41A00500370
:100043002461FFE50960021509050CE50C70020542
:100053000B30070E900003E475F0011204CBEF029E
:1000630004B90207877403D2078003E4C207F508C3
:100073009000031204E2E4F509F50BF50CE50960C1
:10008300077F2012004680F5750AFFC201C200C235
:1000930002C203C205C206C208120012FF700D306D
:1000A30007057F00120057AF0CAE0B22B4255FC2C9
:1000B300D5C204120012FF24D0B40A00501A75F0FE
:1000C3000A780930D50508B6FF0106C6A426F6202E
:1000D300D5047002D20380D924CFB41A00EF5004A0
:1000E300C2E5D204020258D20180C6D20080C0D237
:1000F3000280BCD2D580BAD20580B47F20120046DC
:100103002002077401B5090040F1120003FF120039
:1001130046020080D208D2068095120003FB12002B
:1001230003FA120003F94A4B700679297A037BFF1D
:1001330020022EE509602A7E008E82758300120458
:100143008C60060EEE650A70F0C2D5EBC0E0EAC023
:10015300E0E9C0E0EE12029FD0E0F9D0E0FAD0E08F
:10016300FB120473FF60AAEBC0E0EAC0E0E9C0E061
:10017300120046D0E02401F9D0E03400FAD0E0FBCD
:10018300E50A0460DCD50AD980877BFF7A02799B74
:10019300D202809C791080027908C206C2088008C6
:1001A300D2D5790A8004790AC2D5E50A047002F52A
:1001B3000AE4FAFDFEFF120003FC7B082001131280
:1001C3000003FD7B1030000A120003FE120003FF40
:1001D3007B20EC3382D592D55013C3E43000069FC5
:1001E300FFE49EFEE42001039DFDE49CFCE4CBF8C8
:1001F300C201EC700CCFCECDCCE824F8F870F380BC
:1002030017C3EF33FFEE33FEED33FDEC33FCEB337B
:10021300FB994002FB0FD8E9EB300105F8D0E0C4AD
:1002230048B201C0E00AEC4D4E4F78207B0070C20B
:10023300EAB50A0040BCC0E01202A1D0F0D0E02031
:100243000104C4C0E0C4B201C0F012002FD0F0D545
:10025300F0EB0200801204EB011D5301975800EEEE
:100263004C00EA42019B4F01A34401A3490103430C
:0802730001A955018D46018D22
:10027B0045018D4703495000F22D00F62E01192B35
:10028B0000FA2301172003322A00B24800000111A3
:10029B003F3F3F00790AA2D5200314300509B9105E
:1002AB00020404B9080104A2D5200602500104205F
:1002BB0002689202B509005034C0E07F2030031968
:1002CB007F30A20272067205500F1202F8C202C2F0
:1002DB0006C205C2087F30800F300503E9C0E0126B
:1002EB000046300503D0E0F9D0E0B509CC30051756
:1002FB007F30B9100C1200467F583004077F78808E
:10030B0003B908031200463002057F2D0200467F19
:10031B00202008F87F2B2006F322920280CF286E34
:10032B00756C6C2900D2011200033001F8C2017800
:10033B000930D50108F60200B22D5043495812007E
:10034B00032403B405004001E490034493120037E7
:0D035B00743A120037D203750904020197AD
:10067300020511E493A3F8E493A34003F68001F287
:1006830008DFF48029E493A3F85407240CC8C33388
:10069300C4540F4420C8834004F456800146F6DF57
:1006A300E4800B010204081020408090080FE47ED0
:1006B300019360BCA3FF543F30E509541FFEE4934C
:1006C300A360010ECF54C025E060A840B8E493A313
:1006D300FAE493A3F8E493A3C8C582C8CAC583CA3E
:1006E300F0A3C8C582C8CAC583CADFE9DEE780BEF6
:01081A0000DD
:10047300BB010689828A83E0225002E722BBFE0287
:09048300E32289828A83E49322BA
:10048C00BB010CE58229F582E5833AF583E0225025
:10049C0006E92582F8E622BBFE06E92582F8E2226F
:0D04AC00E58229F582E5833AF583E4932289
:1004B900BB010689828A83F0225002F722BBFE0122
:0204C900F3221C
:1004CB00F8E0FBA3A3E0F925F0F0E58215827002BA
:0704DB001583E0FA38F0225E
:0904E200EBF0A3EAF0A3E9F0221B
:1004EB00D083D082F8E4937012740193700DA3A3A0
:1004FB0093F8740193F5828883E4737402936860B4
:06050B00EFA3A3A380DFB3
:10078700EFB40A07740D120792740A309811A899EA
:10079700B8130CC2983098FDA899C298B811F630D2
:0707A70099FDC299F59922AA
:00000001FF
