:0A02330075A15575A1AA75A1FF225F
:0E020C00EF4E600905A1EF1F70F61E80F32271
:10000300AD07AC06ED4C600E7FE87E0312020CEDEB
:070013001D70F11C80EE22BC
:0D021A0043C60143C40843C50C43CE102267
:10013100C29FD29EC29DC2CDC2CC43878090000196
:1001410012010000000082E47B0AFAF9F890000134
:10015100E0FCA3E0FDA3E0FEA3E0FF12006290003B
:1001610005EBF0900001E0FCA3E0FDA3E0FEA3E0BD
:10017100FFE47B0AFAF9F81200629000011200F420
:10018100900005E0C39405401F900001E0FCA3E04E
:10019100FDA3E0FEA3E02401FFE43EFEE43DFDE417
:1001A1003CFC9000011200F4E589540F4420F589CC
:1001B10043C9A0900001A3A3A3E0F404F58DD28E5E
:0401C100D299D29C61
:0101C5002217
:08001A003098FDC298AF992255
:08023D008F993099FDD299223E
:030023000201EBEC
:1001EB00C0E0C083C082309902C29930980C900055
:1001FB00067401F0C298A3E599F0D082D083D0E0C9
:01020B0032C0
:1001C6007F057E00120003E4900006F0120131D292
:1001D600ACD2AF900006E0B401F9A3E0F599E49043
:0501E6000006F080EEB0
:03000000020227D2
:0C022700787FE4F6D8FD7581070201C65F
:1000260075F008758200EF2FFFEE33FECD33CDCC91
:1000360033CCC58233C5829BED9AEC99E582984014
:100046000CF582EE9BFEED9AFDEC99FC0FD5F0D6F1
:10005600E4CEFBE4CDFAE4CCF9A88222B800C1B91B
:100066000059BA002DEC8BF084CFCECDFCE5F0CB59
:10007600F97818EF2FFFEE33FEED33FDEC33FCEB92
:1000860033FB10D703994004EB99FB0FD8E5E4F94D
:10009600FA227818EF2FFFEE33FEED33FDEC33FC3A
:1000A600C933C910D7059BE99A4007EC9BFCE99A2E
:1000B600F90FD8E0E4C9FAE4CCFB2275F010EF2F73
:1000C600FFEE33FEED33FDCC33CCC833C810D70773
:1000D6009BEC9AE899400AED9BFDEC9AFCE899F8AE
:0E00E6000FD5F0DAE4CDFBE4CCFAE4C8F92241
:0C00F400ECF0A3EDF0A3EEF0A3EFF0227F
:10010000A8828583F0D083D08212011712011712C2
:100110000117120117E473E493A3C583C5F0C583E7
:10012000C8C582C8F0A3C583C5F0C583C8C582C849
:0101300022AC
:00000001FF
