:1008FC00534552315F49455220253032580A005336
:10090C004552315F49495220253032580A0053452F
:10091C0052315F4C435220253032580A0053455215
:10092C00315F4D435220253032580A005345523125
:10093C005F4C535220253032580A00534552315FD8
:10094C004D535220253032580A0073746172742052
:10095C002E2E2E0A004572726F7220434E543A208E
:10096C002564202020202000253032582020000A29
:10097C000013AB5F9D32DE56AA23283648594696A3
:01098C00DD8D
:100BE80051005068656C6C6F20776F726C6431329D
:040BF8003334210071
:0A0C180075A15575A1AA75A1FF2270
:0E0BFD00EF4E600905A1EF1F70F61E80F32277
:100BD100AD07AC06ED4C600E7FE87E03120BFDED18
:070BE1001D70F11C80EE22E3
:0D0C0B0043C60143C40843C50C43CE10226C
:10086700C29FD29EC29DC2CDC2CC43878090002832
:1008770012059C00000082E47B0AFAF9F890002830
:10088700E0FCA3E0FDA3E0FEA3E0FF1204EB900071
:100897002CEBF0900028E0FCA3E0FDA3E0FEA3E032
:1008A700FFE47B0AFAF9F81204EB9000281205908E
:1008B70090002CE0C39405401F900028E0FCA3E0C3
:1008C700FDA3E0FEA3E02401FFE43EFEE43DFDE4DA
:1008D7003CFC900028120590E589540F4420F589C7
:1008E70043C9A0900028A3A3A3E0F404F58DD28EFA
:0408F700D299D29C24
:0108FB0022DA
:080C22003098FDC298AF992241
:080C2A008F993099FDD2992247
:100A19007BFF7A0879FCAF9190002BE4F0A3EFF00B
:100A290012006E7BFF7A09790BAF9290002BE4F0EC
:100A3900A3EFF012006E7BFF7A09791AAF93900049
:100A49002BE4F0A3EFF012006E7BFF7A097929AF4E
:100A59009490002BE4F0A3EFF012006E7BFF7A096B
:100A69007938AF9590002BE4F0A3EFF012006E7B7C
:100A7900FF7A097947AF9690002BE4F0A3EFF002D3
:020A8900006EFD
:040C3A004391802240
:08076D00900028EDF0A3EBF071
:100775004393808F97CBEFCBE4FAF9F8FF7E1C7D8E
:100785004E7C0E120B48E47B10FAF9F8120B48E484
:10079500FB7AE1F9F8120B4890002A120590E47BE8
:1007A5000AFAF9F890002AE0FCA3E0FDA3E0FEA315
:1007B500E0FF1204EB90002EEBF090002AE0FCA382
:1007C500E0FDA3E0FEA3E0FFE47B0AFAF9F81204DA
:1007D500EB90002A12059090002EE0C39405401F6F
:1007E50090002AE0FCA3E0FDA3E0FEA3E02401FFC6
:1007F500E43EFEE43DFDE43CFC90002A12059090A9
:10080500002AE0FCA3E0FDA3E0FEA3E0FF780812C8
:10081500057D8F9190002AA3A3A3E0FF8F9A5393A0
:100825007F900028E0FFB4010543A2108012EF700D
:100835000F43E58053CEFB43CE0153A2EF43948093
:100845004393035393F35394BF439140900029E09E
:10085500C4547042914391074392C74394087597D6
:01086500FF93
:01086600226F
:080C3200E59530E0FBAF9A22CA
:0B0AEC00900028EBF0A3EAF0A3E9F073
:100AF700E4FFED604BC394074028E59230E2FBE446
:100B0700FE900028E0FBA3E0FAA3E0F98F8275834B
:100B170000E59A1204770F0EEEB407E574F92DFD80
:100B270080D0E59530E0FB900028E0FBA3E0FAA336
:100B3700E0F98F82758300E59A1204770F1D80B262
:010B4700228B
:100BB300E59530E5069000617408F0900061E0600F
:0E0BC300068F9AE014F022E59520E5E480F913
:100A8B00900062EBF0A3EAF0A3E9F0E59530E50600
:100A9B009000617408F0900061E0602D900062E0BE
:100AAB00FBA3E0FAA3E0F912045E601D900062E084
:100ABB00FBA3E475F001120499A9F0FA12045EF598
:100ACB009A900061E014F080CD900062E0FBA3E00F
:100ADB00FAA3E0F912045E6007E59520E5AD80F915
:010AEB0022E8
:1006520078187C007D017BFF7A09797D7E007F100E
:100662001204381208677BFF7A09795612006E7BF2
:1006720002E4FD7F0D12076D75C2FF75C0FFE490A5
:100682000002F0A3F07B017A0079047D10120AECDB
:10069200E4900001F0900001E0FF2404F582E434CC
:1006A20000F583E0FE74182FF582E43400F583E050
:1006B2006E6067900003E004F07006900002E004B0
:1006C200F07BFF7A097961900002E0FFA3E09000DD
:1006D2002BCFF0A3EFF012006EE4900000F0900038
:1006E20000E0FFC3941050257BFF7A0979747404EB
:1006F2002FF582E43400F583E0FF90002BE4F0A3B1
:10070200EFF012006E900000E004F080D17BFF7ADF
:1007120009797B12006EC2C38011B2C0900001E061
:1007220004F0E0C394105003020697E4900000F036
:10073200900000E0FFC3941050257BFF7A09797482
:1007420074042FF582E43400F583E0FF90002BE47B
:10075200F0A3EFF012006E900000E004F080D17B75
:0B076200FF7A09797B12006E02068707
:0300000002098D65
:0C098D00787FE4F6D8FD7581210209D4C2
:10036800E709F608DFFA8046E709F208DFFA803E77
:1003780088828C83E709F0A3DFFA8032E309F60864
:10038800DFFA8078E309F208DFFA807088828C83CC
:10039800E309F0A3DFFA806489828A83E0A3F60880
:1003A800DFFA805889828A83E0A3F208DFFA804C5A
:1003B80080D280FA80C680D4806980F28033801031
:1003C80080A680EA809A80A880DA80E280CA80339A
:1003D80089828A83ECFAE493A3C8C582C8CCC58312
:1003E800CCF0A3C8C582C8CCC583CCDFE9DEE780E2
:1003F8000D89828A83E493A3F608DFF9ECFAA9F061
:10040800EDFB2289828A83ECFAE0A3C8C582C8CCB6
:10041800C583CCF0A3C8C582C8CCC583CCDFEADECF
:10042800E880DB89828A83E493A3F208DFF980CC31
:1004380088F0EF60010E4E60C388F0ED2402B4042A
:100448000050B9F582EB2402B4040050AF232345D1
:0604580082239003B8733B
:10045E00BB010689828A83E0225002E722BBFE029C
:09046E00E32289828A83E49322CF
:10047700F8BB010DE58229F582E5833AF583E8F0BB
:10048700225006E92582C8F622BBFE05E92582C867
:02049700F2224F
:10049900A3F8E0C5F025F0F0E58215827002158316
:0604A900E0C838F0E82273
:1004AF0075F008758200EF2FFFEE33FECD33CDCC04
:1004BF0033CCC58233C5829BED9AEC99E582984087
:1004CF000CF582EE9BFEED9AFDEC99FC0FD5F0D664
:1004DF00E4CEFBE4CDFAE4CCF9A88222B800C1B98E
:1004EF000059BA002DEC8BF084CFCECDFCE5F0CBCC
:1004FF00F97818EF2FFFEE33FEED33FDEC33FCEB05
:10050F0033FB10D703994004EB99FB0FD8E5E4F9BF
:10051F00FA227818EF2FFFEE33FEED33FDEC33FCAC
:10052F00C933C910D7059BE99A4007EC9BFCE99AA0
:10053F00F90FD8E0E4C9FAE4CCFB2275F010EF2FE5
:10054F00FFEE33FEED33FDCC33CCC833C810D707E5
:10055F009BEC9AE899400AED9BFDEC9AFCE899F820
:0E056F000FD5F0DAE4CDFBE4CCFAE4C8F922B3
:100B4800C2D5E830E70FB2D5E4C39BFBE49AFAE4D8
:100B580099F9E498F8EC30E717B2D5120B7E120435
:100B6800EBE4C39BFBE49AFAE499F9E498F8800370
:100B78001204EB30D50DE4C39FFFE49EFEE49DFD17
:040B8800E49CFC22CB
:10057D00E8600FECC313FCED13FDEE13FEEF13FF5C
:03058D00D8F12280
:0C059000ECF0A3EDF0A3EEF0A3EFF022DE
:10059C00A8828583F0D083D0821205B31205B312E2
:1005AC0005B31205B3E473E493A3C583C5F0C58307
:1005BC00C8C582C8F0A3C583C5F0C583C8C582C8A9
:0105CC00220C
:10000300E508242BF582E43400F583E0050822900B
:10001300002830070390002BE475F00112060C0250
:10002300045E2000E97F2ED2008018EF540F249045
:10003300D43440D4FF30040BEF24BFB41A00500370
:100043002461FFE50960021509050CE50C70020542
:100053000B30070E900028E475F00112060CEF0236
:1000630005FA020B8C7403D2078003E4C207F50878
:10007300900028120623E4F509F50BF50CE5096059
:10008300077F2012004680F5750AFFC201C200C235
:1000930002C203C205C206C208120012FF700D306D
:1000A30007057F00120057AF0CAE0B22B4255FC2C9
:1000B300D5C204120012FF24D0B40A00501A75F0FE
:1000C3000A780930D50508B6FF0106C6A426F6202E
:1000D300D5047002D20380D924CFB41A00EF5004A0
:1000E300C2E5D204020258D20180C6D20080C0D237
:1000F3000280BCD2D580BAD20580B47F20120046DC
:100103002002077401B5090040F1120003FF120039
:1001130046020080D208D2068095120003FB12002B
:1001230003FA120003F94A4B700679297A037BFF1D
:1001330020022EE509602A7E008E82758300120557
:10014300CD60060EEE650A70F0C2D5EBC0E0EAC0E2
:10015300E0E9C0E0EE12029FD0E0F9D0E0FAD0E08F
:10016300FB12045EFF60AAEBC0E0EAC0E0E9C0E076
:10017300120046D0E02401F9D0E03400FAD0E0FBCD
:10018300E50A0460DCD50AD980877BFF7A02799B74
:10019300D202809C791080027908C206C2088008C6
:1001A300D2D5790A8004790AC2D5E50A047002F52A
:1001B3000AE4FAFDFEFF120003FC7B082001131280
:1001C3000003FD7B1030000A120003FE120003FF40
:1001D3007B20EC3382D592D55013C3E43000069FC5
:1001E300FFE49EFEE42001039DFDE49CFCE4CBF8C8
:1001F300C201EC700CCFCECDCCE824F8F870F380BC
:1002030017C3EF33FFEE33FEED33FDEC33FCEB337B
:10021300FB994002FB0FD8E9EB300105F8D0E0C4AD
:1002230048B201C0E00AEC4D4E4F78207B0070C20B
:10023300EAB50A0040BCC0E01202A1D0F0D0E02031
:100243000104C4C0E0C4B201C0F012002FD0F0D545
:10025300F0EB02008012062C011D5301975800EEAB
:100263004C00EA42019B4F01A34401A3490103430C
:0802730001A955018D46018D22
:10027B0045018D4703495000F22D00F62E01192B35
:10028B0000FA2301172003322A00B24800000111A3
:10029B003F3F3F00790AA2D5200314300509B9105E
:1002AB00020404B9080104A2D5200602500104205F
:1002BB0002689202B509005034C0E07F2030031968
:1002CB007F30A20272067205500F1202F8C202C2F0
:1002DB0006C205C2087F30800F300503E9C0E0126B
:1002EB000046300503D0E0F9D0E0B509CC30051756
:1002FB007F30B9100C1200467F583004077F78808E
:10030B0003B908031200463002057F2D0200467F19
:10031B00202008F87F2B2006F322920280CF286E34
:10032B00756C6C2900D2011200033001F8C2017800
:10033B000930D50108F60200B22D5043495812007E
:10034B00032403B405004001E490034493120037E7
:0D035B00743A120037D203750904020197AD
:10099900020652E493A3F8E493A34003F68001F21C
:1009A90008DFF48029E493A3F85407240CC8C3335F
:1009B900C4540F4420C8834004F456800146F6DF2E
:1009C900E4800B0102040810204080900BE8E47ECB
:1009D900019360BCA3FF543F30E509541FFEE49323
:1009E900A360010ECF54C025E060A840B8E493A3EA
:1009F900FAE493A3F8E493A3C8C582C8CAC583CA15
:100A0900F0A3C8C582C8CAC583CADFE9DEE780BECC
:010BFC0000F8
:1005CD00BB010CE58229F582E5833AF583E02250E3
:1005DD0006E92582F8E622BBFE06E92582F8E2222D
:0D05ED00E58229F582E5833AF583E4932247
:1005FA00BB010689828A83F0225002F722BBFE01E0
:02060A00F322D9
:10060C00F8E0FBA3A3E0F925F0F0E5821582700277
:07061C001583E0FA38F0221B
:09062300EBF0A3EAF0A3E9F022D8
:10062C00D083D082F8E4937012740193700DA3A35D
:10063C0093F8740193F5828883E473740293686071
:06064C00EFA3A3A380DF71
:100B8C00EFB40A07740D120B97740A309811A899D8
:100B9C00B8130CC2983098FDA899C298B811F630C9
:070BAC0099FDC299F59922A1
:00000001FF
