:1007E900534552315F49455220253032580A00534A
:1007F9004552315F49495220253032580A00534544
:1008090052315F4C435220253032580A0053455229
:10081900315F4D435220253032580A005345523139
:100829005F4C535220253032580A00534552315FEC
:100839004D535220253032580A0073746172742066
:050849002E2E2E0A0016
:1009E900410049004D003C68656C6C6F20776F725F
:0409F9006C64210009
:0A0A190075A15575A1AA75A1FF2271
:0E09FE00EF4E600905A1EF1F70F61E80F32278
:1009D200AD07AC06ED4C600E7FE87E031209FEED1A
:0709E2001D70F11C80EE22E4
:0D0A0C0043C60143C40843C50C43CE10226D
:10065600C29FD29EC29DC2CDC2CC43878090001459
:100666001204A600000082E47B0AFAF9F89000144E
:10067600E0FCA3E0FDA3E0FEA3E0FF1203F590007B
:1006860018EBF0900014E0FCA3E0FDA3E0FEA3E06D
:10069600FFE47B0AFAF9F81203F590001412049AA3
:1006A600900018E0C39405401F900014E0FCA3E0FE
:1006B600FDA3E0FEA3E02401FFE43EFEE43DFDE4ED
:1006C6003CFC90001412049AE589540F4420F589E5
:1006D60043C9A0900014A3A3A3E0F404F58DD28E21
:0406E600D299D29C37
:0106EA0022ED
:080A23003098FDC298AF992242
:080A2B008F993099FDD2992248
:100777007BFF7A0779E9AF91900017E4F0A3EFF0D8
:1007870012006E7BFF7A0779F8AF92900017E4F0BA
:10079700A3EFF012006E7BFF7A087907AF93900002
:1007A70017E4F0A3EFF012006E7BFF7A087916AF1B
:1007B70094900017E4F0A3EFF012006E7BFF7A0825
:1007C7007925AF95900017E4F0A3EFF012006E7B48
:1007D700FF7A087934AF96900017E4F0A3EFF002A0
:0207E700006EA2
:040A3B004391802241
:08055C00900014EDF0A3EBF098
:100564004393808F97CBEFCBE4FAF9F8FF7E1C7DA1
:100574004E7C0E12090BE47B10FAF9F812090BE415
:10058400FB7AE1F9F812090B90001612049AE47B45
:100594000AFAF9F8900016E0FCA3E0FDA3E0FEA33C
:1005A400E0FF1203F590001AEBF0900016E0FCA3B4
:1005B400E0FDA3E0FEA3E0FFE47B0AFAF9F81203EE
:1005C400F590001612049A90001AE0C39405401F97
:1005D400900016E0FCA3E0FDA3E0FEA3E02401FFED
:1005E400E43EFEE43DFDE43CFC90001612049A90C7
:1005F4000016E0FCA3E0FDA3E0FEA3E0FF780812F0
:1006040004878F91900016A3A3A3E0FF8F9A5393BE
:100614007F900014E0FFB4010543A2108012EF7034
:100624000F43E58053CEFB43CE0153A2EF439480A6
:100634004393035393F35394BF439140900015E0C5
:10064400C4547042914391074392C74394087597E9
:01065400FFA6
:010655002282
:080A3300E59530E0FBAF9A22CB
:0B08AF00900014EBF0A3EAF0A3E9F0C6
:1008BA00E4FFED604BC394074028E59230E2FBE485
:1008CA00FE900014E0FBA3E0FAA3E0F98F8275839F
:1008DA0000E59A1203810F0EEEB407E574F92DFDB7
:1008EA0080D0E59530E0FB900014E0FBA3E0FAA38A
:1008FA00E0F98F82758300E59A1203810F1D80B299
:01090A0022CA
:1009B400E59530E5069000497408F0900049E06040
:0E09C400068F9AE014F022E59520E5E480F914
:10084E0090004AEBF0A3EAF0A3E9F0E59530E50657
:10085E009000497408F0900049E0602D90004AE045
:10086E00FBA3E0FAA3E0F9120368601D90004AE0D2
:10087E00FBA3E475F0011203A3A9F0FA120368F5C5
:10088E009A900049E014F080CD90004AE0FBA3E07E
:10089E00FAA3E0F91203686007E59520E5AD80F94B
:0108AE002227
:10094F001206567BFF7A08794312006E7B027D01F7
:10095F007F0D12055C12077743C2107B017A007975
:10096F00007D071208AFE4FE74002EF582E4340018
:0E097F00F583E0FF1209B40EEEB407EC80DD44
:030000000206EB0A
:0C06EB00787FE4F6D8FD7581210207320B
:10036800BB010689828A83E0225002E722BBFE0293
:09037800E32289828A83E49322C6
:10038100F8BB010DE58229F582E5833AF583E8F0B2
:10039100225006E92582C8F622BBFE05E92582C85E
:0203A100F22246
:1003A300A3F8E0C5F025F0F0E5821582700215830D
:0603B300E0C838F0E8226A
:1003B90075F008758200EF2FFFEE33FECD33CDCCFB
:1003C90033CCC58233C5829BED9AEC99E58298407E
:1003D9000CF582EE9BFEED9AFDEC99FC0FD5F0D65B
:1003E900E4CEFBE4CDFAE4CCF9A88222B800C1B985
:1003F9000059BA002DEC8BF084CFCECDFCE5F0CBC3
:10040900F97818EF2FFFEE33FEED33FDEC33FCEBFB
:1004190033FB10D703994004EB99FB0FD8E5E4F9B6
:10042900FA227818EF2FFFEE33FEED33FDEC33FCA3
:10043900C933C910D7059BE99A4007EC9BFCE99A97
:10044900F90FD8E0E4C9FAE4CCFB2275F010EF2FDC
:10045900FFEE33FEED33FDCC33CCC833C810D707DC
:100469009BEC9AE899400AED9BFDEC9AFCE899F817
:0E0479000FD5F0DAE4CDFBE4CCFAE4C8F922AA
:10090B00C2D5E830E70FB2D5E4C39BFBE49AFAE417
:10091B0099F9E498F8EC30E717B2D51209411203B4
:10092B00F5E4C39BFBE49AFAE499F9E498F88003A5
:10093B001203F530D50DE4C39FFFE49EFEE49DFD4D
:04094B00E49CFC220A
:10048700E8600FECC313FCED13FDEE13FEEF13FF53
:03049700D8F12277
:0C049A00ECF0A3EDF0A3EEF0A3EFF022D5
:1004A600A8828583F0D083D0821204BD1204BD12C7
:1004B60004BD1204BDE473E493A3C583C5F0C583EC
:1004C600C8C582C8F0A3C583C5F0C583C8C582C8A0
:0104D6002203
:10000300E5082417F582E43400F583E0050822901F
:100013000014300703900017E475F001120516026F
:1000230003682000E97F2ED2008018EF540F24903C
:10003300D43440D4FF30040BEF24BFB41A00500370
:100043002461FFE50960021509050CE50C70020542
:100053000B30070E900014E475F001120516EF0241
:10006300050402098D7403D2078003E4C207F5086F
:1000730090001412052DE4F509F50BF50CE5096064
:10008300077F2012004680F5750AFFC201C200C235
:1000930002C203C205C206C208120012FF700D306D
:1000A30007057F00120057AF0CAE0B22B4255FC2C9
:1000B300D5C204120012FF24D0B40A00501A75F0FE
:1000C3000A780930D50508B6FF0106C6A426F6202E
:1000D300D5047002D20380D924CFB41A00EF5004A0
:1000E300C2E5D204020258D20180C6D20080C0D237
:1000F3000280BCD2D580BAD20580B47F20120046DC
:100103002002077401B5090040F1120003FF120039
:1001130046020080D208D2068095120003FB12002B
:1001230003FA120003F94A4B700679297A037BFF1D
:1001330020022EE509602A7E008E82758300120458
:10014300D760060EEE650A70F0C2D5EBC0E0EAC0D8
:10015300E0E9C0E0EE12029FD0E0F9D0E0FAD0E08F
:10016300FB120368FF60AAEBC0E0EAC0E0E9C0E06D
:10017300120046D0E02401F9D0E03400FAD0E0FBCD
:10018300E50A0460DCD50AD980877BFF7A02799B74
:10019300D202809C791080027908C206C2088008C6
:1001A300D2D5790A8004790AC2D5E50A047002F52A
:1001B3000AE4FAFDFEFF120003FC7B082001131280
:1001C3000003FD7B1030000A120003FE120003FF40
:1001D3007B20EC3382D592D55013C3E43000069FC5
:1001E300FFE49EFEE42001039DFDE49CFCE4CBF8C8
:1001F300C201EC700CCFCECDCCE824F8F870F380BC
:1002030017C3EF33FFEE33FEED33FDEC33FCEB337B
:10021300FB994002FB0FD8E9EB300105F8D0E0C4AD
:1002230048B201C0E00AEC4D4E4F78207B0070C20B
:10023300EAB50A0040BCC0E01202A1D0F0D0E02031
:100243000104C4C0E0C4B201C0F012002FD0F0D545
:10025300F0EB020080120536011D5301975800EEA2
:100263004C00EA42019B4F01A34401A3490103430C
:0802730001A955018D46018D22
:10027B0045018D4703495000F22D00F62E01192B35
:10028B0000FA2301172003322A00B24800000111A3
:10029B003F3F3F00790AA2D5200314300509B9105E
:1002AB00020404B9080104A2D5200602500104205F
:1002BB0002689202B509005034C0E07F2030031968
:1002CB007F30A20272067205500F1202F8C202C2F0
:1002DB0006C205C2087F30800F300503E9C0E0126B
:1002EB000046300503D0E0F9D0E0B509CC30051756
:1002FB007F30B9100C1200467F583004077F78808E
:10030B0003B908031200463002057F2D0200467F19
:10031B00202008F87F2B2006F322920280CF286E34
:10032B00756C6C2900D2011200033001F8C2017800
:10033B000930D50108F60200B22D5043495812007E
:10034B00032403B405004001E490034493120037E7
:0D035B00743A120037D203750904020197AD
:1006F70002094FE493A3F8E493A34003F68001F2C1
:1007070008DFF48029E493A3F85407240CC8C33303
:10071700C4540F4420C8834004F456800146F6DFD2
:10072700E4800B01020408102040809009E9E47E70
:10073700019360BCA3FF543F30E509541FFEE493C7
:10074700A360010ECF54C025E060A840B8E493A38E
:10075700FAE493A3F8E493A3C8C582C8CAC583CAB9
:10076700F0A3C8C582C8CAC583CADFE9DEE780BE71
:0109FD0000F9
:1004D700BB010CE58229F582E5833AF583E02250DA
:1004E70006E92582F8E622BBFE06E92582F8E22224
:0D04F700E58229F582E5833AF583E493223E
:10050400BB010689828A83F0225002F722BBFE01D6
:02051400F322D0
:10051600F8E0FBA3A3E0F925F0F0E582158270026E
:070526001583E0FA38F02212
:09052D00EBF0A3EAF0A3E9F022CF
:10053600D083D082F8E4937012740193700DA3A354
:1005460093F8740193F5828883E473740293686068
:06055600EFA3A3A380DF68
:10098D00EFB40A07740D120998740A309811A899DA
:10099D00B8130CC2983098FDA899C298B811F630CA
:0709AD0099FDC299F59922A2
:00000001FF
