:0B064E007374617274202E2E2E0A00BF
:0A06590075A15575A1AA75A1FF2235
:0E061900EF4E600905A1EF1F70F61E80F32260
:10060200AD07AC06ED4C600E7FE87E03120619EDD5
:070612001D70F11C80EE22B7
:0D06350043C60143C40843C50C43CE102248
:10051C00C29FD29EC29DC2CDC2CC438780900000A8
:10052C0012044D00000082E47B0AFAF9F8900000F6
:10053C00E0FCA3E0FDA3E0FEA3E0FF1203AF9000FC
:10054C0004EBF0900000E0FCA3E0FDA3E0FEA3E0D0
:10055C00FFE47B0AFAF9F81203AF90000012044191
:10056C00900004E0C39405401F900000E0FCA3E061
:10057C00FDA3E0FEA3E02401FFE43EFEE43DFDE428
:10058C003CFC900000120441E589540F4420F5898D
:10059C0043C9A0900000A3A3A3E0F404F58DD28E70
:0405AC00D299D29C72
:0105B0002228
:080003003098FDC298AF99226C
:080663008F993099FDD2992214
:07066B005389F0EF428922E0
:0D062700C3E49FFFE49EFEEFF58AEEF58C24
:0106340022A3
:03000B0002067278
:03067200B2903211
:1005B1007F1E7E0012060212051C7BFF7A06794E11
:1005C1001200797F0212066B43C9907423FFFE1259
:0A05D1000627D28CD2A9D2AF80FE1B
:03000000020642B3
:0C064200787FE4F6D8FD7581210205B137
:1003730075F008758200EF2FFFEE33FECD33CDCC41
:1003830033CCC58233C5829BED9AEC99E5829840C4
:100393000CF582EE9BFEED9AFDEC99FC0FD5F0D6A1
:1003A300E4CEFBE4CDFAE4CCF9A88222B800C1B9CB
:1003B3000059BA002DEC8BF084CFCECDFCE5F0CB09
:1003C300F97818EF2FFFEE33FEED33FDEC33FCEB42
:1003D30033FB10D703994004EB99FB0FD8E5E4F9FD
:1003E300FA227818EF2FFFEE33FEED33FDEC33FCEA
:1003F300C933C910D7059BE99A4007EC9BFCE99ADE
:10040300F90FD8E0E4C9FAE4CCFB2275F010EF2F22
:10041300FFEE33FEED33FDCC33CCC833C810D70722
:100423009BEC9AE899400AED9BFDEC9AFCE899F85D
:0E0433000FD5F0DAE4CDFBE4CCFAE4C8F922F0
:0C044100ECF0A3EDF0A3EEF0A3EFF0222E
:10044D00A8828583F0D083D08212046412046412D2
:10045D000464120464E473E493A3C583C5F0C583F7
:10046D00C8C582C8F0A3C583C5F0C583C8C582C8F9
:01047D00225C
:10000E00E5082403F582E43400F583E00508229028
:10001E000000300703900003E475F0011204D602CD
:10002E00047E2000E97F2ED2008018EF540F24901A
:10003E00D43440D4FF30040BEF24BFB41A00500365
:10004E002461FFE50960021509050CE50C70020537
:10005E000B30070E900000E475F0011204D6EF028B
:10006E0004C40205DB7403D2078003E4C207F5085B
:10007E009000001204EDE4F509F50BF50CE50960AE
:10008E00077F2012005180F5750AFFC201C200C21F
:10009E0002C203C205C206C20812001DFF700D3057
:1000AE0007057F00120062AF0CAE0B22B4255FC2B3
:1000BE00D5C20412001DFF24D0B40A00501A75F0E8
:1000CE000A780930D50508B6FF0106C6A426F62023
:1000DE00D5047002D20380D924CFB41A00EF500495
:1000EE00C2E5D204020263D20180C6D20080C0D221
:1000FE000280BCD2D580BAD20580B47F20120051C6
:10010E002002077401B5090040F112000EFF120023
:10011E005102008BD208D206809512000EFB1200FF
:10012E000EFA12000EF94A4B700679347A037BFFF1
:10013E0020022EE509602A7E008E8275830012044D
:10014E009760060EEE650A70F0C2D5EBC0E0EAC00D
:10015E00E0E9C0E0EE1202AAD0E0F9D0E0FAD0E079
:10016E00FB12047EFF60AAEBC0E0EAC0E0E9C0E04B
:10017E00120051D0E02401F9D0E03400FAD0E0FBB7
:10018E00E50A0460DCD50AD980877BFF7A0279A65E
:10019E00D202809C791080027908C206C2088008BB
:1001AE00D2D5790A8004790AC2D5E50A047002F51F
:1001BE000AE4FAFDFEFF12000EFC7B08200113126A
:1001CE00000EFD7B1030000A12000EFE12000EFF14
:1001DE007B20EC3382D592D55013C3E43000069FBA
:1001EE00FFE49EFEE42001039DFDE49CFCE4CBF8BD
:1001FE00C201EC700CCFCECDCCE824F8F870F380B1
:10020E0017C3EF33FFEE33FEED33FDEC33FCEB3370
:10021E00FB994002FB0FD8E9EB300105F8D0E0C4A2
:10022E0048B201C0E00AEC4D4E4F78207B0070C200
:10023E00EAB50A0040BCC0E01202ACD0F0D0E0201B
:10024E000104C4C0E0C4B201C0F012003AD0F0D52F
:10025E00F0EB02008B1204F601285301A25800F9AC
:10026E004C00F54201A64F01AE4401AE49010E43CA
:08027E0001B4550198460198F6
:100286004501984703545000FD2D01012E01242BF2
:10029600010523012220033D2A00BD480000011C60
:1002A6003F3F3F00790AA2D5200314300509B91053
:1002B600020404B9080104A2D52006025001042054
:1002C60002689202B509005034C0E07F203003195D
:1002D6007F30A20272067205500F120303C202C2D9
:1002E60006C205C2087F30800F300503E9C0E01260
:1002F6000051300503D0E0F9D0E0B509CC30051740
:100306007F30B9100C1200517F583004077F788077
:1003160003B908031200513002057F2D0200517FF8
:10032600202008F87F2B2006F322920280CF286E29
:10033600756C6C2900D20112000E3001F8C20178EA
:100346000930D50108F60200BD2D50434958120068
:100356000E2403B405004001E490034F93120042BB
:0D036600743A120042D2037509040201A28C
:10047E00BB010689828A83E0225002E722BBFE027C
:09048E00E32289828A83E49322AF
:10049700BB010CE58229F582E5833AF583E022501A
:1004A70006E92582F8E622BBFE06E92582F8E22264
:0D04B700E58229F582E5833AF583E493227E
:1004C400BB010689828A83F0225002F722BBFE0117
:0204D400F32211
:1004D600F8E0FBA3A3E0F925F0F0E58215827002AF
:0704E6001583E0FA38F02253
:0904ED00EBF0A3EAF0A3E9F02210
:1004F600D083D082F8E4937012740193700DA3A395
:1005060093F8740193F5828883E4737402936860A8
:06051600EFA3A3A380DFA8
:1005DB00EFB40A07740D1205E6740A309811A89946
:1005EB00B8130CC2983098FDA899C298B811F63080
:0705FB0099FDC299F5992258
:00000001FF
