:100D290048554220302064657620696E0A0048558E
:100D390042203020646576206F75740A0048554258
:100D490020312064657620696E0A004855422031B9
:100D590020646576206F75740A0052657365742086
:100D6900726F6F7420687562202531642320706F5B
:100D790072740A0044697361626C6520726F6F74E2
:100D890020687562202531642320706F7274206297
:100D9900656361757365206F6620646973636F6E3F
:100DA9006E6563740A0047657444657644657363C8
:100DB900723A2000782530325820000A00476574BD
:100DC90043666744657363723A200069666E756DA0
:100DD90020253032582000494E5F45702025303299
:100DE90058200A00494E5F56616C20253032582040
:100DF9000A006869646C656E202530325820006CE1
:100E0900656E3030332025303258200A004765742A
:100E19004849445265706F72743A2025303258201F
:100E290000496E6974526F6F744465762045727219
:100E3900203D20253032580A00456E756D416C6C95
:100E4900526F6F744465760A00526F6F7448756209
:100E5900496E64657820253032780A00456E756DD3
:100E6900416C6C526F6F7444657620657272203DD7
:100E790020253032580A00434849505F49443A20F6
:100E8900253032780A00486F73745F4B6579626F59
:100E99006172645F4D6F7573655F563130303A41E9
:100EA900756720303120323031382C4465627567DE
:100EB9002074696D653A31363A30353A33380A006B
:100EC900485542305F4D6F75736520646174613AAE
:100ED9002000485542305F4B6579626F617264202A
:100EE900646174613A2000485542315F4D6F7573F2
:100EF9006520646174613A2000485542315F4B6551
:100F090079626F61726420646174613A20008006BD
:100F19000001000012008006000200000400000524
:100F29000200000000000009000000000000210A82
:100F3900000000000000010B000000000000020199
:100F49000000000000008106002200004100210984
:060F59000002000001008F
:041C7D004101A4007D
:071C76005389F0EF428922BF
:0D1C3A00C3E49FFFE49EFEEFF58AEEF58CFB
:011C4700227A
:101A4400308D38B2907FE07E2E121C3AE4FFEF25F1
:101A5400E02459F582E43401F583E475F0011214AD
:101A6400EDEF25E02461F582E43401F583E475F0BB
:0B1A7400011214ED0FEFB404D5C28D79
:011A7F002244
:041C06007FC87E0015
:0E1C0A00EF4E600905A1EF1F70F61E80F32259
:101BED00CDEFCDCCEECCED4C600E7FE87E03121C1C
:091BFD000AED1D70F11C80EE22BE
:101AEE00EF75F01DA4246AF582E43401F583E4F069
:101AFE00EF75F01DA4246BF582E43401F583E4F058
:0C1B0E00EFB40104E4F5E522E4F5E42264
:1016A300E4900129F0E5DB30E32790016AE060056F
:1016B300E5E420E03CE4FF121AEE90016A7401F0C5
:1016C3007BFF7A0D792912079D9001297415F0800B
:1016D3002090016AE0C394014017E4FF121AEE7BE5
:1016E300FF7A0D793712079D900129E07003741674
:1016F300F0E5DB30E727900187E06005E5E520E0D2
:101703003C7F01121AEE9001877401F07BFF7A0D82
:10171300794612079D9001297415F0802090018766
:10172300E0C3940140177F01121AEE7BFF7A0D7913
:101733005412079D900129E070037416F09001295B
:02174300E0FFC5
:011745002281
:0C1C5600EF547FFFE5E354804FF5E322DC
:0E1C4800EF600753E2BF53D27F2243E24022F7
:10197900CEEFCE9001697408F0E4FF121C567F0186
:10198900121C48EEB40114E5E554FB4402F5E57F69
:10199900197E00121BED53E5FD8012E5E454FB446A
:1019A90002F5E47F197E00121BED53E4FD7FFA7EF8
:0719B90000121C0AC2D82233
:10184B00EF75F01DA4246AF582E43401F583E0C33F
:10185B0094015011EF75F01DA4246AF582E4340154
:10186B00F5837401F0EF64017025E5DB30E745E5A6
:10187B00E520E015E5DB30E6047F0080027F019078
:10188B000189EFF0700343E50443E5017F0022E596
:10189B00DB30E320E5E420E015E5DB30E2047F00FC
:1018AB0080027F0190016CEFF0700343E40443E48A
:0718BB00017F00227F1622CD
:031A8000CEEFCED8
:101A8300900134EDF0EE75F01DA4246BF582E4347F
:101A930001F583E0FF121C56EE75F01DA4246CF5CE
:101AA30082E43401F583E0FF121C48EE6003D38027
:041AB30001C3920ACF
:011AB700220C
:0815AE00900145EFF0C9EDC901
:1015B60089D489D6E4A3F0900145E0F5D5C2D97F58
:1015C600C87E0020D909EF1F70011EEF4E70F4E4AB
:1015D600F5D520D9037FFE2220D90302168830DEF6
:1015E600037F0022E5D9540FFFB40E03021681EFE4
:1015F600B40A1CEB4A70028074C3EB94FFEA94FFB2
:101606005005EB1B70011A900146E014F0807690AD
:101616000145E0C4540F24F7602524FC6004240C23
:10162600705D30DE037F0022EFB402037F0022EFFD
:10163600640E6004EFB40A028033EF6048803C30E9
:10164600DE037F0022E9600CEFB40B047E01800EFE
:101656007E00800AEFB403047E0180027E00EE6005
:10166600037F0022EF640E6004EFB40A03EF800BE1
:10167600EFB40304640B600DEF600A4420FF227F81
:10168600FE2275D8FF7F0F7E00121C0A900146E0ED
:0C16960004F0C3940350030215BD7F2034
:0116A2002225
:10118800CB121B91900044EBF0900138E4F0A3F0EF
:05119800A3F0FBFAF9D1
:10119D00E490013BF0A3F090013FEBF0A3EAF0A344
:1011AD00E9F0900138E0F9A3E0FAA3E0900142C91B
:1011BD00F0A3EAF0A3E9F0121C06900142E0FBA3B4
:1011CD00E0FAA3E0F9EA494B6004E41214DB75D7A9
:1011DD00087B107A27E4FD7FD01215AE90013DEF0C
:1011ED00F06003E0FF2275D6D075D4D075D701908D
:1011FD000047E0FE900046E0FDEDFF90013BEEF074
:10120D00A3EFF04E700302137B90013FE0FBA3E0D0
:10121D00FAA3E0F9EA494B700302137B900040E01A
:10122D0020E7030212E090013BE07002A3E070039F
:10123D000212DA121C067B107A27ADD47F9012159C
:10124D00AE90013DEFF0E0FF600122AFD190013B88
:10125D00E0FCA3E0FDD39FEC94004004AFD18003EC
:10126D00CFEDCF90013EEFF0E0FFC390013CE09F4A
:10127D00F090013BE09400F0900142E0FBA3E0FA16
:10128D00A3E0F9EA494B6004EF1214B9E4FF9001B1
:10129D003EE06F602874002FF582E43400F583E0A2
:1012AD00FE90013FE0FBA3E0FAA3E0F9EE1214DBA0
:1012BD00900140E475F0011214ED0F80D1E5D1607D
:1012CD000C900169E01455D17003021233E4F5D787
:1012DD0002137B90013BE07002A3E0700302137BCD
:1012ED00121C06900169E0FFFD90013BE0FAA3E0BE
:1012FD00FBC39DEA940040028003CFEBCF8FD7E470
:10130D00FFEF65D7602890013FE0FBA3E0FAA3E073
:10131D00F91214A0FE74402FF582E43400F583EE2B
:10132D00F0900140E475F0011214ED0F80D37B10A5
:10133D007A27ADD67F101215AE90013DEFF0E0FF8C
:10134D00600122AFD7C390013CE09FF090013BE0DC
:10135D009400F0900142E0FBA3E0FAA3E0F9EA4922
:10136D004B70030212E0E5D71214B90212E0121C01
:10137D0006E5D760047F9080027F107B107A277D71
:10138D00C01215AE90013DEFF06003E0FF22E5D7EE
:0C139D007002FF22E5D17002FF227F17D2
:0113A9002221
:101B9100E4FD8F828E83E493FC74402DF582E4345E
:0F1BA10000F583ECF00FBF00010E0DEDB408E36B
:011BB0002212
:1019C0009001697408F07E0F7F17121B9190013807
:1019D0007401F0A37401F0A37431F07B017A0079F3
:1019E0004012119DEF600122900047E0900169F0E4
:1019F000900F1DE493FF900131E0C39F50037F17C8
:031A0000227F0042
:011A030022C0
:1017D2007E0F7F1F121B91900138E4F0A37400F07A
:1017E200A37408F07B017A00794012119DEF600129
:1017F20022900F25E493FEE508C39E50037F172233
:10180200900042E0F5087E0F7F1F121B9190004668
:10181200E508F0900138E4F0A37400F0A37408F036
:101822007B017A00794012119DEF600122900F2511
:10183200E493FFE508C39F400A900042E0FFE508F9
:081842009F50037F17227F0075
:01184A00227B
:051B1A00900131EFF025
:101B1F007E0F7F27121B91900131E090004212112E
:101B2F0090EF600122900131E0FF121C567F0A7E78
:061B3F0000121BED7F0007
:011B4500227D
:101C1800CBEFCB7E0F7F2F121B9190004212118FBA
:011C28002299
:0A1C6200CBEF7E0F7F3712118822AE
:0A1C6C00CBEF7E0F7F471211882294
:101AB800CBEFCBCAEECAC9EDC97E0F7F4F121B917F
:101AC800EB2440900046F0EB2440E43AA3F0900069
:101AD80044E9F0900138E4F0A3F0A3F07B017A0028
:061AE800794012119D225D
:101BB100900134EFF07E0F7F57121B91900138E4B2
:0E1BC100F0A3F0A3F07B017A01793402119DAC
:1018C200900040E0FE64057029A3E064017023A348
:1018D200E0B4091EA3E0B40219EF75F01DA424734D
:1018E200F582E43401F58375F006ED1215037433C5
:1018F200802EEE6405702D900041E064017025A3F6
:10190200E0B40920A3E0B4061BEF75F01DA4247314
:10191200F582E43401F58375F006ED1215037423A4
:07192200F07F00227FFB2291
:05000300900129EFF05F
:10000800E4900130F07BFF7A0D79639001340200AF
:100018009F900130E0FFC3940A400302072CEF755C
:10002800F064A4FFAEF0121BEDE004F0900129E0AB
:10003800FF121979E490012AF0A3F07F017E0012E3
:100048001BED900129E0FF12184BEF702190012A57
:10005800F0A3E004F0900130E075F00AA4FF9001ED
:100068002BE0D39FE5F06480F8748098500C9001E1
:100078002AE004F0E0C3946440C190012AE06021C2
:10008800900129E0FF121AEE7BFF7A0D797D90012D
:1000980029E0FF900134E4F0A3EFF012079D02007D
:1000A80019900129E0FFE4FD121A807BFF7A0D798F
:1000B800AF12079D1219C090012BEFF060030206E2
:1000C800FA90012AF0900F1DE493FF90012AE0FEB8
:1000D800C39F50257BFF7A0D79BD74402EF582E4CD
:1000E8003400F583E0FF900134E4F0A3EFF0120749
:1000F8009D90012AE004F080CC7BFF7A0D79C41230
:10010800079D900044E090012DF0900F29E493FFA3
:10011800900129E02FFF121B1A90012BEFF06003CA
:100128000206FA900F2993FF900129E0FE2FFFEEB7
:1001380075F01DA4246BF582E43401F583EFF07BA0
:10014800FF7A0D79C612079D1217D290012BEFF096
:1001580060030206FA900044E0FF900129E0FE7572
:10016800F01DA4246EF582E43401F583EFF0EE75FA
:10017800F01DA4246EF582E43401F583E0FED394E7
:100188000440037F3022900045E090012CF07BFF73
:100198007A0D79D4EEFF900134E4F0A3EFF0120762
:1001A8009DE490012AF0900042E0FF90012AE0FED1
:1001B800C39F50257BFF7A0D79BD74402EF582E4EC
:1001C8003400F583E0FF900134E4F0A3EFF0120768
:1001D8009D90012AE004F080CD7BFF7A0D79C4124E
:1001E800079D90004EE090012EF090012DE06003F5
:1001F8000206B5A3E0640360030206B590004FE071
:10020800D3940140030206B5E490012BF090012A33
:10021800F0900129E0FF75F01DA4246EF582E43406
:1002280001F583E0FE90012AE0C39E4003020545E4
:10023800A3E0FE2441F582E43400F583E0B4021221
:1002480074402EF582E43400F583E0FE90012BE043
:100258002EF090012BE0FE2441F582E43400F58372
:10026800E0B4042174442EF582E43400F583E09070
:10027800012FF074402EF582E43400F583E0FE90FF
:10028800012BE02EF090012BE0FE2441F582E434AE
:1002980000F583E06421600302035A74402EF5825E
:1002A800E43400F583E0FE90012BE02EF0E0FD241D
:1002B8003FF582E43400F583E0FBEF75F01DA424DC
:1002C8006FF582E43401F583C083C08290012AE08F
:1002D800D082D08375F006121503E4F0A3EBF090FA
:1002E8000129E0FC75F01DA4246FF582E43401F5C2
:1002F80083C083C08290012AE0D082D08375F00643
:10030800121503C083C082A3E0D082D083F0A3E497
:10031800F0EC75F01DA4246FF582E43401F583C078
:1003280083C08290012AE0D082D08375F00612152E
:1003380003C083C082E0FEA3E0FF743E2DF582E493
:100348003400F583E0FDEF4DFFD082D083EEF0A3BB
:10035800EFF090012BE02441F582E43400F583E0CE
:10036800640560030204FB90012FE0FF14F0EF70B6
:10037800030204FB90012BE0FF2442F582E43400E1
:10038800F583E020E7030204A9540FFE900129E059
:10039800FD75F01DA42471F582E43401F583C08352
:1003A800C08290012AE0FCD082D08375F006121535
:1003B80003EEF074462FF582E43400F583E0FFED98
:1003C80075F01DA42474F582E43401F58375F006F4
:1003D800EC121503EFF0900129E0FF75F01DA4243D
:1003E8006CF582E43401F583E07042EF75F01DA4EA
:1003F8002474F582E43401F583C083C08290012A15
:10040800E0FFD082D08375F006121503E0C394088C
:10041800501B900129E075F01DA42474F582E43482
:1004280001F58375F006EF1215037408F07BFF7A67
:100438000D79E0900129E075F01DA42471F582E49E
:100448003401F583C083C08290012AE0D082D08332
:1004580075F006121503E0FF900134E4F0A3EFF005
:1004680012079D7BFF7A0D79ED900129E075F01D4B
:10047800A42474F582E43401F583C083C08290011A
:100488002AE0D082D08375F006121503E0FF9001B0
:1004980034E4F0A3EFF012079D90012BE024408094
:1004A8004090012BE0FF2442F582E43400F583E01C
:1004B80030E70302036F540FFE900129E075F01D29
:1004C800A42472F582E43401F583C083C0829001CC
:1004D8002AE0D082D08375F006121503EEF074403E
:1004E8002FF582E43400F583E0FF90012BE02FF034
:1004F80002036F7BFF7A0D79FB900129E075F01DEF
:10050800A4246FF582E43401F583C083C08290018E
:100518002AE0D082D08375F006121503E0FFA3E02D
:10052800900134CFF0A3EFF012079D7BFF7A0D798D
:10053800C412079D90012AE004F002021990012CD0
:10054800E0FF121C1890012BEFF060030206FA90EE
:10055800012AF0900129E075F01DA4246EF582E4CB
:100568003401F583E0FE90012AE0FFC39E400302B8
:10057800068A121C62900129E075F01DA4246FF50B
:1005880082E43401F583C083C08290012AE0FDD063
:1005980082D08375F006121503E0FEA3E0FF121A5D
:1005A800B890012BEFF07BFF7A0E7908900129E0D3
:1005B80075F01DA4246FF582E43401F583C083C06F
:1005C8008290012AE0D082D08375F006121503E0EC
:1005D800FFA3E0900134CFF0A3EFF012079DE49061
:1005E800012CF0900129E075F01DA4246FF582E438
:1005F8003401F583C083C08290012AE0D082D08381
:1006080075F006121503E0FEA3E0FF90012CE0FD53
:10061800D3EF9DEE940040257BFF7A0D79BDE02451
:1006280040F582E43400F583E0FF900134E4F0A360
:10063800EFF012079D90012CE004F080A67BFF7A72
:100648000D79C412079D7BFF7A0E791690012BE075
:10065800FF900134E4F0A3EFF012079D90012BE026
:10066800FC7012900129E0FFA3E0FD1218C290016E
:100678002BEFF08004CFECCF2290012AE004F002A7
:10068800055B900173E0B4230F900190E0B4230858
:100698009001A4E0FF121BB1900129E075F01DA4A0
:1006A800246AF582E43401F5837403804190012CB7
:1006B800E0FF121C1890012BEFF07036900129E032
:1006C800FF75F01DA4246AF582E43401F5837403F0
:1006D800F090012DE0FE6002800590012EE0FEEF13
:1006E80075F01DA4246DF582E43401F583EEF07FE6
:1006F80000227BFF7A0E792A90012BE0FF900134CB
:10070800E4F0A3EFF012079D900129E075F01DA415
:10071800246AF582E43401F5837402F07F01121C27
:090728004802001990012BE0FFCA
:0107310022A5
:101929007BFF7A0E794212079DE4780EF6780EE66F
:10193900FFC3940250377BFF7A0E7952900134E449
:10194900F0A3EFF012079D780EE6FF75F01DA424B1
:101959006AF582E43401F583E0B4010C12000378DE
:0F1969000DEFF66003E6FF22780E0680C07F00C8
:01197800224C
:101BCF00C29FD29EC29DD29C438780E589540F4409
:0E1BDF0020F58943C9A0758DF3D28ED29922CC
:101A0400C2EA75E280E4F5E39024477448F0902438
:101A14004C7400F0A37400F090244E7400F0A3748E
:101A240040F0E4F5D4F5D675E28975D24075D8FF57
:0F1A3400FECFEECF121AEE0EEEB402F575E103FF
:011A43002280
:101C2900E4FF30D80BC2D81216A3EFB41502D209BB
:011C39002288
:101B6D00E430091FC2097FC8FE121BED121929EFBF
:101B7D0060117BFF7A0E7965900134E4F0A3EFF0EC
:031B8D0012079D9F
:011B90002232
:100A97007E007F147D007B017A01790112150F7E9C
:100AA700007F147D007B017A01791512150FA20AC8
:100AB700E433FF90012E7401F0A37401F0A37415C1
:090AC700F07B017A0179017D3315
:100AD000900129EFF090012BEBF0A3EAF0A3E9F0ED
:050AE00090012AEDF079
:100AE500E4900133F0ED6423600B90012AE0643358
:100AF5006003020D28E4900132F0900129E0FF75B2
:100B0500F01DA4246EF582E43401F583E0FE900126
:100B150032E0FDC39E4003020D28EF75F01DA424AD
:100B250073F582E43401F58375F006ED121503E0E3
:100B3500FF90012AE0FEEF6E6003020D1F90012970
:100B4500E075F01DA4246AF582E43401F583E0C361
:100B550094035003020D1F900129E0FF75F01DA4B9
:100B65002474F582E43401F583C083C08290013298
:100B7500E0FED082D08375F006121503E0FDEF7517
:100B8500F008A42459F582E43401F58375F002EEEA
:100B9500121503E0FEA3E0C39DEE94005003020D81
:100BA5001F900129E075F008A42459F582E4340169
:100BB500F583C083C082900132E0D082D08375F086
:100BC50002121503E4F0A3F0FD121A80900129E04A
:100BD50075F01DA42471F582E43401F583C083C04A
:100BE50082900132E0D082D08375F006121503E0C1
:100BF500FC540F7003020D1FEC547F4490FFEC3042
:100C0500E7047DC080027D00E4FBFA1215AE900179
:100C150031EFF06003020D1FEC6480FF900129E0C5
:100C2500FE75F01DA42471F582E43401F583C083BB
:100C3500C082900132E0D082D08375F00612150390
:100C4500EFF0E5D17003020D1FEE601990012EE063
:100C5500FBA3E0FAA3E0F9E5D11214DBAFD17E00E6
:100C650090012E801790012BE0FBA3E0FAA3E0F999
:100C7500E5D11214DBAFD17E0090012BE0FBA3E0A0
:100C8500FAA3E02401F9E43AC8E9C8FCCDEBCD7B31
:100C9500017A00790012147A90012AE06423600336
:100CA500020D28900002E0B439119001A4E064021D
:100CB500FFF0121BB190013374AAF0900002E0B46A
:100CC50053119001A4E06401FFF0121BB1900133B0
:100CD50074AAF0900002E0B447119001A4E0640406
:100CE500FFF0121BB190013374AAF0900133E06458
:100CF500AA7030900173E064237028900190E0B4ED
:100D05002321900129E06401FF900131F0E4FD12F7
:100D15001A809001A4E0FF021BB1900132E004F0BB
:030D2500020AFFC0
:010D280022A8
:100F5F00121BCF7BFF7A0E7980900134E4F0A374DB
:100F6F0059F012079D7BFF7A0E798F12079D121A87
:100F7F000443C9907F01121C767FE07E2E121C3A2B
:100F8F00D28CC2097E007F3A7D007B017A01796A9B
:100F9F0012150F7E007F107D007B017A01795912A7
:100FAF00150F121C29121B6DC20A120A979001010C
:100FBF00E0604B7BFF7A0E79C912079D9001007498
:100FCF0001F0900101E0FF900100E0FED39F50255A
:100FDF007BFF7A0D79BD74012EF582E43401F58320
:100FEF00E0FF900134E4F0A3EFF012079D900100B1
:100FFF00E004F080CD7BFF7A0D79C412079D7E004F
:10100F007F147D007B017A01790112150F7E007F1D
:10101F00147D007B017A01791512150FA20AE433B2
:10102F00FF90012E7401F0A37401F0A37415F07BEF
:10103F00017A0179017D23120AD0900101E0604B02
:10104F007BFF7A0E79DB12079D9001007401F090FF
:10105F000101E0FF900100E0FED39F50257BFF7A56
:10106F000D79BD74012EF582E43401F583E0FF9014
:10107F000134E4F0A3EFF012079D900100E004F0BB
:10108F0080CD7BFF7A0D79C412079DD20A120A9781
:10109F00900115E0604B7BFF7A0E79F012079D905F
:1010AF0001007401F0900115E0FF900100E0FED304
:1010BF009F50257BFF7A0D79BD74152EF582E43490
:1010CF0001F583E0FF900134E4F0A3EFF012079DE8
:1010DF00900100E004F080CD7BFF7A0D79C41207F8
:1010EF009D7E007F147D007B017A01790112150F1F
:1010FF007E007F147D007B017A01791512150FA2F6
:10110F000AE433FF90012E7401F0A37401F0A3746D
:10111F0015F07B017A0179017D23120AD090011518
:10112F00E0604B7BFF7A0F790212079D90010074EC
:10113F0001F0900115E0FF900100E0FED39F5025D4
:10114F007BFF7A0D79BD74152EF582E43401F5839A
:10115F00E0FF900134E4F0A3EFF012079D9001003F
:10116F00E004F080CD7BFF7A0D79C412079D7F01DB
:09117F00121C48121A44020FB1BF
:030000000217469E
:0C174600787FE4F6D8FD75812102178D34
:1013AA00E709F608DFFA8046E709F208DFFA803E25
:1013BA0088828C83E709F0A3DFFA8032E309F60812
:1013CA00DFFA8078E309F208DFFA807088828C837A
:1013DA00E309F0A3DFFA806489828A83E0A3F6082E
:1013EA00DFFA805889828A83E0A3F208DFFA804C08
:1013FA0080D280FA80C680D4806980F280338010DF
:10140A0080A680EA809A80A880DA80E280CA803347
:10141A0089828A83ECFAE493A3C8C582C8CCC583BF
:10142A00CCF0A3C8C582C8CCC583CCDFE9DEE7808F
:10143A000D89828A83E493A3F608DFF9ECFAA9F00E
:10144A00EDFB2289828A83ECFAE0A3C8C582C8CC64
:10145A00C583CCF0A3C8C582C8CCC583CCDFEADE7D
:10146A00E880DB89828A83E493A3F208DFF980CCDF
:10147A0088F0EF60010E4E60C388F0ED2402B404D8
:10148A000050B9F582EB2402B4040050AF2323457F
:06149A0082239013FA7397
:1014A000BB010689828A83E0225002E722BBFE024A
:0914B000E32289828A83E493227D
:1014B900BB010989828A83F8E028F022500327F7C3
:1014C90022BBFE05F8E328F3228A838982F8E49394
:0214D9002822C7
:1014DB00BB010689828A83F0225002F722BBFE01F0
:0214EB00F322EA
:1014ED00C5F0F8A3E028F0C5F0F8E582158270028A
:0614FD001583E038F02227
:0C150300A42582F582E5F03583F58322F3
:10073200E5082434F582E43401F583E005082290CB
:100742000131300703900134E475F001121568029B
:1007520014A02000E97F2ED2008018EF540F2490BD
:10076200D43440D4FF30040BEF24BFB41A0050033A
:100772002461FFE50960021509050CE50C7002050C
:100782000B30070E900131E475F001121568EF028B
:1007920014DB021B467403D2078003E4C207F50888
:1007A20090013112157FE4F509F50BF50CE50960AE
:1007B200077F2012077580F5750AFFC201C200C2C9
:1007C20002C203C205C206C208120741FF700D3001
:1007D20007057F00120786AF0CAE0B22B4255FC25D
:1007E200D5C204120741FF24D0B40A00501A75F092
:1007F2000A780930D50508B6FF0106C6A426F620F8
:10080200D5047002D20380D924CFB41A00EF500469
:10081200C2E5D204020987D20180C6D20080C0D2CA
:100822000280BCD2D580BAD20580B47F201207756F
:100832002002077401B5090040F1120732FF1207C6
:10084200750207AFD208D2068095120732FB120753
:1008520032FA120732F94A4B700679587A0A7BFF4C
:1008620020022EE509602A7E008E82758300121511
:100872003B60060EEE650A70F0C2D5EBC0E0EAC03E
:10088200E0E9C0E0EE1209CED0E0F9D0E0FAD0E023
:10089200FB1214A0FF60AAEBC0E0EAC0E0E9C0E0EE
:1008A200120775D0E02401F9D0E03400FAD0E0FB61
:1008B200E50A0460DCD50AD980877BFF7A0979CA08
:1008C200D202809C791080027908C206C208800890
:1008D200D2D5790A8004790AC2D5E50A047002F5F4
:1008E2000AE4FAFDFEFF120732FC7B082001131214
:1008F2000732FD7B1030000A120732FE120732FF68
:100902007B20EC3382D592D55013C3E43000069F8E
:10091200FFE49EFEE42001039DFDE49CFCE4CBF891
:10092200C201EC700CCFCECDCCE824F8F870F38085
:1009320017C3EF33FFEE33FEED33FDEC33FCEB3345
:10094200FB994002FB0FD8E9EB300105F8D0E0C477
:1009520048B201C0E00AEC4D4E4F78207B0070C2D5
:10096200EAB50A0040BCC0E01209D0D0F0D0E020C5
:100972000104C4C0E0C4B201C0F012075ED0F0D5D9
:10098200F0EB0207AF121588084C5308C658081D31
:100992004C08194208CA4F08D24408D249083243C7
:0809A20008D85508BC4608BC4A
:1009AA004508BC470A785008212D08252E08482BEF
:1009BA000829230846200A612A07E148000008405E
:1009CA003F3F3F00790AA2D5200314300509B91028
:1009DA00020404B9080104A2D52006025001042029
:1009EA0002689202B509005034C0E07F2030031932
:1009FA007F30A20272067205500F120A27C202C283
:100A0A0006C205C2087F30800F300503E9C0E01234
:100A1A000775300503D0E0F9D0E0B509CC300517E9
:100A2A007F30B9100C1207757F583004077F788021
:100A3A0003B908031207753002057F2D0207757F77
:100A4A00202008F87F2B2006F322920280CF286EFE
:100A5A00756C6C2900D2011207323001F8C2017894
:100A6A000930D50108F60207E12D5043495812070B
:100A7A00322403B405004001E4900A739312076616
:0D0A8A00743A120766D2037509040208C60B
:10150F00EF4E6012EF60010EEDBB010B89828A83F3
:10151F00F0A3DFFCDEFA2289F05007F709DFFCA900
:0C152F00F022BBFEFCF309DFFCA9F02257
:10175200020F5FE493A3F8E493A34003F68001F23F
:1017620008DFF48029E493A3F85407240CC8C33398
:10177200C4540F4420C8834004F456800146F6DF67
:10178200E4800B0102040810204080901C7DE47E5E
:10179200019360BCA3FF543F30E509541FFEE4935C
:1017A200A360010ECF54C025E060A840B8E493A323
:1017B200FAE493A3F8E493A3C8C582C8CAC583CA4E
:1017C200F0A3C8C582C8CAC583CADFE9DEE780BE06
:011C81000062
:10153B00BB010CE58229F582E5833AF583E0225065
:10154B0006E92582F8E622BBFE06E92582F8E222AF
:0D155B00E58229F582E5833AF583E49322C9
:10156800F8E0FBA3A3E0F925F0F0E582158270020C
:071578001583E0FA38F022B0
:09157F00EBF0A3EAF0A3E9F0226D
:10158800D083D082F8E4937012740193700DA3A3F2
:1015980093F8740193F5828883E473740293686006
:0615A800EFA3A3A380DF06
:101B4600EFB40A07740D121B51740A309811A89944
:101B5600B8130CC2983098FDA899C298B811F630FF
:071B660099FDC299F59922D7
:00000001FF
