:1010050048554220302064657620696E0A004855AF
:1010150042203020646576206F75740A0048554279
:1010250020312064657620696E0A004855422031DA
:1010350020646576206F75740A005345545F504FE0
:101045005254202025303258202025303258200097
:10105500526573657420726F6F7420687562202500
:1010650031642320706F72740A0044697361626C85
:101075006520726F6F7420687562202531642320A6
:10108500706F72742062656361757365206F662089
:10109500646973636F6E6E6563740A0047657444B3
:1010A500657644657363723A20007825303258209E
:1010B500000A0047657443666744657363723A20A6
:1010C500005553422D4469736B2052656164790A5A
:1010D500005553422D5072696E74204F4B0A0055CE
:1010E50053422D5072696E742052656164790A000D
:1010F5004849443A202530327800476574484944C8
:101105005265706F72743A20005553422D4B6579C4
:10111500626F6172642052656164790A00555342B9
:101125002D4D6F7573652052656164790A004765B9
:101135007448756244657363723A20004578742D6E
:1011450048554220506F72745F2531642320706FBB
:10115500776572206F6E206572726F720A0045782E
:10116500742D48554220506F72745F2531642309F0
:10117500636C65617220636F6E6E656374696F6E13
:10118500206572726F720A0064765F636C733D2529
:101195003032782C69665F636C73203D2530327878
:1011A50000496E6974526F6F74446576204572729A
:1011B500203D20253032580A00456E756D416C6C16
:1011C500526F6F744465760A00526F6F744875628A
:1011D500496E64657820253032780A00496E697455
:1011E5002064657620404578744875622D706F726D
:1011F500745F253164200040526F6F745F25316440
:101205000A0055485F5345545550203D20476574A5
:1012150044657644657363723A202530327800540C
:101225006869732070726F6772616D20646F6E27D5
:101235007420737570706F7274204C6576656C20C0
:1012450032204855420A00496E69744465764F6EEE
:1012550048756220457272203D20253032580A00BB
:10126500456E756D487562506F72740A00466F75EC
:101275006E642066756C6C207370656564206465AA
:1012850076696365206F6E20706F727420253164F6
:101295000A00466F756E64206C6F77207370656504
:1012A5006420646576696365206F6E20706F727463
:1012B500202531640A00526573657420706F72745D
:1012C50020616E64207468656E2077616974206999
:1012D5006E0A00446576696365206F6E20706F72D3
:1012E50074206572726F720A0044657669636520C1
:1012F5006F6E20706F7274202531642072656D6F7A
:101305007665640A00456E756D416C6C4875625072
:101315006F72740A00456E756D416C6C487562504C
:101325006F727420657272203D20253032580A0094
:101335004572726F723A20253032580A0053746133
:10134500727420404368697049443D253032580A1B
:1013550000576169742044657669636520496E0AA2
:1013650000456E756D416C6C526F6F7444657620E7
:10137500657272203D20253032580A00517565721C
:1013850079204D6F7573652040253034580A004D1E
:101395006F75736520646174613A20004D6F7573D4
:1013A50065206572726F7220253032780A004D6FA4
:1013B500757365206E6F20696E74657272757074D1
:1013C50020656E64706F696E740A00517565727977
:1013D500204B6579626F6172642040253034580A6C
:1013E50000253032582020006B6579626F61726488
:1013F50020646174613A20006B6579626F61726483
:10140500206572726F7220253032780A006B65791B
:10141500626F617264206E6F20696E746572727599
:10142500707420656E64706F696E740A0048554269
:10143500206572726F7220253032780A0048554255
:101445002025303264206E6F20696E746572727566
:10145500707420656E64706F696E740A00517565ED
:101465007279205072696E74657220402530345847
:101475000A005072696E746572206572726F72200F
:10148500253032780A0053746172742055444953EB
:101495004B5F64656D6F2040434835353955464986
:1014A500206C6962726172790A005761697420441F
:1014B50069736B52656164790A004F70656E2046E9
:1014C500696C650A002F4335312F43483535394856
:1014D50046542E4300C3BBD3D0D5D2B5BDCEC4BC74
:1014E500FE0A002530327820C3BBD3D0D5D2B5BD96
:1014F500CEC4BCFE0A00B4D3CEC4BCFED6D0B6C1A1
:10150500B3F6B5C4C7B02564B8F6D7D6B7FBCAC716
:101515003A0A00254300CEC4BCFED2D1BEADBDE122
:10152500CAF80A00436C6F73650A004372656174FB
:10153500652046696C650A002F4E455746494C455E
:101545002E545854004279746557726974650A00BF
:101555004E6F74653A200D0AD5E2B8F6B3CCD0F2D9
:10156500CAC7D2D4D7D6BDDACEAAB5A5CEBBBDF8EB
:10157500D0D055C5CCCEC4BCFEB6C1D0B42C353503
:1015850039BCF2B5A5D1DDCABEB9A6C4DCA1A30D8F
:101595000A00B3C9B9A6D0B4C8EB2025303258B477
:1015A500CE0A004D6F646966790A0044656C6574FE
:1015B500650A002F4F4C442E545854004572726FE3
:1015C500722046696C65206E6F7420657869737446
:1015D5003A20253032580A0055C5CCD1DDCABECDDA
:1015E500EAB3C90A0055C5CCC3BBD3D0D7BCB1B883
:1015F500BAC320455252203D253032580A00800694
:101605000001000012008006000200000400000531
:101615000200000000000009000000000000210A8F
:10162500000000000000010B0000000000000201A6
:10163500000000000000A006002900000900810646
:10164500002200004100A10000000000F103210A72
:0E16550000000000000021090002000001005A
:041FFA004103AC00F3
:0B4C0F009002F2EFF0A3ECF0A3EDF038
:104C1A00E4A3F0900048E4F0E51224F8FF9002F2D1
:104C2A00E0FEA807088002C333D8FC900049F0A32D
:104C3A00E4F0A3F0A37480F0900364E090004DF0D8
:104C4A00A3740AF0A37428F0A3E4F0900343E0905D
:104C5A000051F0900344E0900052F0900345E09038
:104C6A000053F0900346E0900054F0A3E4F0A3F060
:104C7A00A3EEF0A3E4F09002F3E0FEA3E0FF1241FA
:104C8A00FEE50D7002FF229002F5E0FF12553F8FFC
:104C9A000DE50D6003AF0D229002F5E004F0E0C3CC
:0C4CAA0094035003024C1D750D1F7F1F6A
:014CB60022DB
:0B4AB8009002F2EFF0A3ECF0A3EDF091
:104AC300E4A3F0900048E4F0E51224F8FF9002F22A
:104AD300E0FEA807088002C333D8FC900049F0A386
:104AE300E4F0A3F0A3F0900364E090004DF0A3740E
:104AF3000AF0A3742AF0A3E4F0900343E09000517A
:104B0300F0900344E0900052F0900345E09000538E
:104B1300F0900346E0900054F0A3E4F0A3F0A3EE7A
:104B2300F0A3E4F09002F3E0FEA3E0FF1241FEE500
:104B33000D70097FC8FE125AF57F00229002F5E03E
:104B4300FF12553F8F0DE50D6003AF0D229002F567
:104B5300E004F0E0C394035003024AC6750D1F7FBF
:014B63001F32
:014B6400222E
:1056E70053E37FE5E364026006E5E364037028E5BE
:1056F700E3B40204AFE48002AFE5EF30E0037F00DC
:1057070022E5E3B402047F0880027F80E5DB5F6067
:0C57170006750A027F0022750A017F1649
:015723002263
:0117FE0022C8
:10580B00124FFDEFC3941350037FFF227E007F8066
:10581B008E0B8F0C90033CEEF0A3EFF0E4F50A75C2
:10582B0012099003367402F09003691226E500000A
:05583B0000007F0022C7
:045AF1007FC87E00EC
:0E5AF500EF4E600905A1EF1F70F61E80F32230
:105AAA00CDEFCDCCEECCED4C600E7FE87E03125AE2
:095ABA00F5ED1D70F11C80EE22D7
:10587400EF75F006A424ADF582E43403F583E4F077
:10588400EF75F006A424AEF582E43403F583E4F066
:0C589400EFB40104E4F5E522E4F5E422A1
:104CB700E49002EEF0E5DB30E3279003ADE060051A
:104CC700E5E420E03CE4FF1258749003AD7401F072
:104CD7007BFF7A1079051233829002EE7415F0800B
:104CE700209003ADE0C394014017E4FF1258747B92
:104CF700FF7A1079131233829002EEE07003741674
:104D0700F0E5DB30E7279003B3E06005E5E520E059
:104D17003C7F011258749003B37401F07BFF7A1043
:104D270079221233829002EE7415F080209003B33B
:104D3700E0C3940140177F011258747BFF7A107902
:104D4700301233829002EEE070037416F09002EE98
:024D5700E0FF7B
:014D59002237
:0C5B4200EF547FFFE5E354804FF5E322B1
:0E5B3400EF600753E2BF53D27F2243E24022CC
:1055DC00CEEFCE9003837408F0E4FF125B427F01A0
:1055EC00125B34EEB40114E5E554FB4402F5E57F9F
:1055FC000F7E00125AAA53E5FD8012E5E454FB44D9
:10560C0002F5E47F0F7E00125AAA53E4FD7FFA7E66
:07561C0000125AF5C2D8226A
:10517200EF75F006A424ADF582E43403F583E0C3B1
:1051820094015011EF75F006A424ADF582E43403C6
:10519200F5837401F0EF64017025E5DB30E745E546
:1051A200E520E015E5DB30E6047F0080027F019018
:1051B20003B5EFF0700343E50443E5017F0022E508
:1051C200DB30E320E5E420E015E5DB30E2047F009C
:1051D20080027F019003AFEFF0700343E40443E4E5
:0751E200017F00227F16226D
:104D5A00900286E0FCA3E0FDECFF900280F0CEED2D
:064D6A00CE900283EEF082
:104D7000CCEFCCED6057EC75F014A42480F582E400
:104D80003403F58375F005ED122716E0FF125B4240
:104D9000EC75F014A42481F582E43403F58375F0F6
:104DA00005ED122716E0FF125B34EC75F014A42415
:104DB00081F582E43403F58375F005ED122716E0E2
:104DC000703143D2807F64FE125AF58026EC75F074
:104DD00006A424AEF582E43403F583E0FF125B42BF
:104DE000EC75F006A424AFF582E43403F583E0FF0C
:0D4DF000125B34EC6003D38001C3921022EB
:105A90007FC87E0020D909EF1F70011EEF4E70F401
:095AA00030D9047F0080027FFE72
:015AA90022DA
:03466B00E4FBFA73
:08466E0090030EEFF0C9EDC945
:1046760089D489D6E4A3F090030EE0F5D5C2D97F9C
:10468600C87E0020D909EF1F70011EEF4E70F4E4BA
:10469600F5D520D9037FFE2220D90302474830DE14
:1046A600037F0022E5D9540FFFB40E03024741EF02
:1046B600B40A1CEB4A70028074C3EB94FFEA94FFC1
:1046C6005005EB1B70011A90030FE014F0807690F2
:1046D600030EE0C4540F24F7602524FC6004240C68
:1046E600705D30DE037F0022EFB402037F0022EF0D
:1046F600640E6004EFB40A028033EF6048803C30F9
:10470600DE037F0022E9600CEFB40B047E01800E0D
:104716007E00800AEFB403047E0180027E00EE6014
:10472600037F0022EF640E6004EFB40A03EF800BF0
:10473600EFB40304640B600DEF600A4420FF227F90
:10474600FE2275D8FF7F0F7E00125AF590030FE008
:0C47560004F0C39403500302467D7F2052
:014762002234
:103D07009003017401F0A37402F074F5A3F07B0132
:043D17007A00794075
:103D1B00E4900304F0A3F0900308EBF0A3EAF0A304
:103D2B00E9F0900301E0F9A3E0FAA3E090030BC9DB
:103D3B00F0A3EAF0A3E9F0125AF190030BE0FBA316
:103D4B00E0FAA3E0F9EA494B6004E41225F975D7D0
:103D5B00087B107A27E4FD7FD012466E900306EFA6
:103D6B00F06003E0FF2275D6D075D4D075D70190E3
:103D7B000047E0FE900046E0FDEDFF900304EEF0FF
:103D8B00A3EFF04E7003023F51900308E0FBA3E05A
:103D9B00FAA3E0F9EA494B7003023F51900040E06F
:103DAB0020E703023E5E900304E07002A3E0700381
:103DBB00023E58125AF17B107A27ADD47F901246EF
:103DCB006E900306EFF0E0FF600122AFD190030489
:103DDB00E0FCA3E0FDD39FEC94004004AFD1800343
:103DEB00CFEDCF900307EFF0E0FFC3900305E09F0B
:103DFB00F0900304E09400F090030BE0FBA3E0FAD7
:103E0B00A3E0F9EA494B6004EF1225D7E4FF9003D6
:103E1B0007E06F602874002FF582E43400F583E02F
:103E2B00FE900308E0FBA3E0FAA3E0F9EE1225F9FC
:103E3B00900309E475F00112260B0F80D1E5D160D8
:103E4B000C900383E01455D17003023DB1E4F5D718
:103E5B00023F51900304E07002A3E07003023F5154
:103E6B00125AF1900383E0FFFD900304E0FAA3E004
:103E7B00FBC39DEA940040028003CFEBCF8FD7901A
:103E8B000308E0FBA3E0FAA3E0F99000011225AAD6
:103E9B00640970439003ACE0640160047F0180020D
:103EAB007F009003ACEFF01225F9900308E0FBA321
:103EBB00E0FAA3E0F9122591FF900311E4F0A3EFD0
:103ECB00F09003ACE0FF900313E4F0A3EFF07BFF63
:103EDB007A10793F123382E4FFEF65D760289003A5
:103EEB0008E0FBA3E0FAA3E0F9122591FE74402F42
:103EFB00F582E43400F583EEF0900309E475F001EC
:103F0B0012260B0F80D37B107A27ADD67F1012466B
:103F1B006E900306EFF0E0FF600122AFD7C3900372
:103F2B0005E09FF0900304E09400F090030BE0FB9E
:103F3B00A3E0FAA3E0F9EA494B7003023E5EE5D732
:103F4B001225D7023E5E125AF1E5D760047F9080AE
:103F5B00027F107B107A277DC012466E900306EF0E
:103F6B00F06003E0FF22E5D77002FF22E5D170027B
:043F7B00FF227F178B
:013F7F00221F
:10598000E4FD8F828E83E493FC74402DF582E43431
:0F59900000F583ECF00FBF00010E0DEDB408E33E
:01599F0022E5
:105724009003837408F07E167F031259809003015E
:105734007401F0A37402F074F8123D13EF600122B7
:10574400900047E0900383F0901609E493FF9002E1
:0B575400F8E0C39F50037F17227F0086
:01575F002227
:1052CC007E167F0B125980900301E4F0A37400F05A
:1052DC00A37413123D14EF600122901611E493FE97
:1052EC00E513C39E50037F1722900042E0F5137E16
:1052FC00167F0B125980900046E513F0900301E4E1
:10530C00F0A37400F0A37413123D14EF600122900B
:10531C001611E493FFE513C39F400A900042E0FF8F
:0A532C00E5139F50037F17227F0056
:015336002254
:05579C009002F8EFF09F
:1057A1007E167F131259809002F8E0900042F0902B
:1057B1000301E4F0A3F0A3F0FBFAF9123D1BEF6043
:1057C10001229002F8E0FF125B427F0A7E00125A2A
:0357D100AA7F00AC
:0157D40022B2
:055918009002F1E0FF28
:10591D00CBEFCB7E167F1B125980900042EBF0909F
:0F592D000301E4F0A3F0A3F0FBFAF9123D1B22F3
:1059A000CBEFCB7E167F23125980900044EBF09012
:0F59B0000301E4F0A3F0A3F0FBFAF9123D1B2270
:1059BF00CBEFCB7E167F2B125980900042EBF090ED
:0F59CF000301E4F0A3F0A3F0FBFAF9123D1B2251
:1059DE00CBEFCB7E167F33125980900044EBF090C4
:0F59EE000301E4F0A3F0A3F0FBFAF9123D1B2232
:1054420078F67C027D017BFF7A1679537E007F0815
:1054520012256BE4FF74F62FF582E43402F583E043
:10546200FE74402FF582E43400F583EEF00FEFB4C2
:1054720008E3123D077E167F43125980123D07EF63
:10548200600122901609E493FF9002F5E0C39F5059
:06549200037F17227F00DA
:0154980022F1
:1058A0007E167F3B125980900301E4F0A37400F050
:1058B000A37413123D14EF600122901641E493FF8C
:0B58C000E513C39F50037F17227F00F9
:0158CB0022BA
:0C5623007F017E00125AAA9002EFE0FF07
:10562F0090004074A3F0A3E4F0A3F0A3F0A3EFF075
:10563F00A3E4F0A37404F0A3E4F0900301F0A374C7
:10564F0000F0A37413123D14EF600122E513C3940D
:08565F000450037F17227F00B5
:015667002220
:0757D5009002EFE0FF7D04EC
:1057DC009000407423F0A37403F0A3EDF0A3E4F065
:1057EC00A3EFF0A3E4F0A3F0A3F0F9900301C9F048
:0F57FC00A3F0A3E9F07B007A007900123D1B2295
:055840009002EFE0FF03
:105845009000407423F0A37401F0A3EDF0A3E4F0FD
:10585500A3EFF0A3E4F0A3F0A3F0F9900301C9F0DE
:0F586500A3F0A3E9F07B007A007900123D1B222B
:105760007E167F4B1259809003017401F0A37402DE
:10577000F0A374F5123D14EF600122901652E493E9
:10578000FE901651E493FDEDFFC39002F6E09F906A
:0B57900002F5E09E50037F17227F000F
:01579B0022EB
:04179F007E007F4009
:1017A300E4F9FC8F828E83A3A3E0FBECC39B504739
:1017B300EF2CF582E43EF583A3E064057025EF2C5E
:1017C300F582E43EF583A3A3A3E05403FBBB031319
:1017D300EF2CF582E43EF583A3A3E030E705540F35
:1017E300F98014EF2CF582E43EF583E0FDD39410E9
:0A17F3005005ED2CFC80ACCFE9CFCF
:0117FD0022C9
:05098B009002EEEFF008
:10099000E49002F4F07BFF7A107955900311020A7B
:1009A000279002F4E0FFC3940A4003020FFFEF75A3
:1009B000F064A4FFAEF0125AAAE004F09002EEE058
:1009C000FF1255DCE49002EFF0A3F07F017E0012ED
:1009D0005AAA9002EEE0FF125172EF70219002EFDE
:1009E000F0A3E004F09002F4E075F00AA4FF900296
:1009F000F0E0D39FE5F06480F8748098500C90028A
:100A0000EFE004F0E0C3946440C19002EFE06021A5
:100A10009002EEE0FF1258747BFF7A10796F90021B
:100A2000EEE0FF900311E4F0A3EFF012338202092D
:100A3000A19002EEE0FFE4FD124D707BFF7A107989
:100A4000A11233821257249002F0EFF06003020FDC
:100A5000CD9002EFF0901609E493FF9002EFE0FED4
:100A6000C39F50257BFF7A1079AF74402EF582E446
:100A70003400F583E0FF900311E4F0A3EFF01233AC
:100A8000829002EFE004F080CC7BFF7A1079B612FE
:100A90003382900044E09002F2F0901615E493FF48
:100AA0009002EEE02FFF12579C9002F0EFF06003EF
:100AB000020FCD90161593FF9002EEE0FE2FFFEE91
:100AC00075F006A424AEF582E43403F583EFF07BE1
:100AD000FF7A1079B81233821252CC9002F0EFF004
:100AE0006003020FCD900045E09002F1F0E4900227
:100AF000EFF0900042E0FF9002EFE0FEC39F502530
:100B00007BFF7A1079AF74402EF582E43400F583D0
:100B1000E0FF900311E4F0A3EFF01233829002EFB4
:100B2000E004F080CD7BFF7A1079B612338290001A
:100B30004EE09002F3F09002F2E07042A3E064080D
:100B4000703C1259189002F0EFF06003020FCD9044
:100B500002EEE0FF75F006A424ADF582E43403F55F
:100B6000837403F0EF75F006A424B0F582E4340337
:100B7000F5837408F07BFF7A1079C6020DAC900201
:100B8000F2E06003020C9AA3E064076003020C9A8F
:100B900090004FE064016003020C9A7BFF7A1079A9
:100BA000D6123382900053E0FFB4051AA3E0FE6032
:100BB000159002EEE075F006A424B1F582E434034A
:100BC000F583EEF0802AEFB40526900054E0FF7C18
:100BD0000060047D0180027D00ED4C70139002EEF8
:100BE000E075F006A424B2F582E43403F583EFF057
:100BF00090005AE0FFB40520900054E0601A900085
:100C00005BE0FE9002EEE075F006A424B1F582E40C
:100C10003403F583EEF0802EEFB4052A900054E003
:100C20007E0060047F0180027F00EF4E701890000C
:100C30005BE0FF9002EEE075F006A424B2F582E4DA
:100C40003403F583EFF01259189002F0EFF06003CF
:100C5000020FCDA3E0FF1259BF9002F0EFF0125740
:100C6000609002F0EFF06003020FCD9002EEE0FF23
:100C700075F006A424ADF582E43403F5837403F023
:100C8000EF75F006A424B0F582E43403F58374070D
:100C9000F07BFF7A1079E4020DAC9002F2E0600381
:100CA000020DBBA3E064036003020DBB90004FE0A4
:100CB000D394014003020DBB12179F9002F0EFF096
:100CC000540FFF9002EEE075F006A424B1F582E423
:100CD0003403F583EFF0900050E09002F3F01259E6
:100CE000189002F0EFF07BFF7A1079F5900311E491
:100CF000F0A3EFF01233829002F0E06003020FCD18
:100D00007BFF7A1079FF1233821254429002F0EF87
:100D1000F0703C9002EFF09002EFE0FFC39440507F
:100D2000257BFF7A1079AF74402FF582E43400F50B
:100D300083E0FF900311E4F0A3EFF01233829002FE
:100D4000EFE004F080D17BFF7A1079B61233829005
:100D500002EEE075F006A424ADF582E43403F583D9
:100D60007403F07F0A1259A09002F3E0B4011C90C2
:100D700002EEE075F006A424B0F582E43403F583B6
:100D80007423F07BFF7A11790E80219002F3E0B496
:100D900002209002EEE075F006A424B0F582E4345F
:100DA00003F5837433F07BFF7A11792212338202C8
:100DB0000FC69002F074FBF0020FCD9002F2E064D7
:100DC000096003020F6612179F9002F0EFF0540FB4
:100DD000FF9002EEE075F006A424B2F582E434033D
:100DE000F583EFF07BFF7A1179331233821258A02A
:100DF0009002F0EFF06003020FCD9002EFF0900050
:100E000040E0FF9002EFE0FEC39F50257BFF7A1089
:100E100079AF74402EF582E43400F583E0FF90034F
:100E200011E4F0A3EFF01233829002EFE004F080BF
:100E3000CD7BFF7A1079B6123382900042E0FF90AA
:100E400002EEE0FE75F006A424B1F582E43403F569
:100E500083EFF0EE75F006A424B1F582E43403F5D7
:100E600083E0D394044011EE75F006A424B1F5821A
:100E7000E43403F5837404F01259189002F0EFF093
:100E80006003020FCD9002EEE0FF75F006A424ADE2
:100E9000F582E43403F5837403F0EF75F006A424BF
:100EA000B0F582E43403F5837409F09002EF740125
:100EB000F09002EEE0FF75F006A424B1F582E43470
:100EC00003F583E0FE9002EFE0D39E504DEF75F006
:100ED00014A4247FF582E43403F583C083C0829098
:100EE00002EFE0FFD082D08375F005122716E4F000
:100EF0007D081257DC9002F0EFF060167BFF7A114C
:100F000079419002EFE0FF900311E4F0A3EFF012BB
:100F100033829002EFE004F080979002EF7401F0CA
:100F20009002EEE075F006A424B1F582E43403F5F6
:100F300083E0FE9002EFE0FFD39E502812562F90E0
:100F400002F0EFF060167BFF7A1179639002EFE018
:100F5000FF900311E4F0A3EFF01233829002EFE070
:100F600004F080BC80607BFF7A11798D9002F2E002
:100F7000FF900311E4F0A3EFF09002F3E0FF900381
:100F800013E4F0A3EFF01233821259189002F0EF3D
:100F9000F0703A9002EEE0FF75F006A424ADF58201
:100FA000E43403F5837403F09002F2E0FE60028003
:100FB000059002F3E0FEEF75F006A424ADF582E49F
:100FC0003403F583EEF07F01125B341F227BFF7A3E
:100FD0001179A69002F0E0FF900311E4F0A3EFF086
:100FE0001233829002EEE075F006A424ADF582E49F
:100FF0003403F5837402F07F01125B340209A1907F
:0410000002F0E0FF1B
:0110040022C9
:1054EF007BFF7A1179BE123382E4781DF6781DE6C0
:1054FF00FFC3940250377BFF7A1179CE900311E4EA
:10550F00F0A3EFF0123382781DE6FF75F006A424A6
:10551F00ADF582E43403F583E0B4010C12098B7806
:0F552F001CEFF66003E6FF22781D0680C07F00A8
:01553E00224A
:082FAA009002F1EFF0A3EDF03D
:102FB2007BFF7A1179E1FF900311E4F0A3EFF012A5
:102FC20033827BFF7A1179FC9002F1E0FF900311CA
:102FD200E4F0A3EFF01233829002F2E0FD70037F7F
:102FE200FE229002F1E0FF124D707BFF7A12790708
:102FF200AFD2900311E4F0A3EFF012338212572400
:103002009002F4EFF06003E0FF22900044E09002AF
:10301200F6F09002F1E004C454F0FFA3E02FFF9019
:1030220002F5F012579C9002F4EFF06003E0FF22E9
:103032009002F5E0FF9002F1E075F014A42480F50F
:1030420082E43403F583C083C0829002F2E0D0822E
:10305200D08375F005122716EFF07BFF7A1079B84E
:103062001233821252CC9002F4EFF06003E0FF229E
:10307200900045E09002F5F0E49002F3F0900042F7
:10308200E0FF9002F3E0FEC39F50257BFF7A1079A8
:10309200AF74402EF582E43400F583E0FF90031113
:1030A200E4F0A3EFF01233829002F3E004F080CD5B
:1030B2007BFF7A1079B612338290004EE09002F7CD
:1030C200F09002F6E07061A3E06408705B9002F594
:1030D200E0FF12591D9002F4EFF060030232D0902B
:1030E20002F1E0FF75F014A4247FF582E43403F5C5
:1030F20083C083C0829002F2E0FED082D08375F05A
:10310200051227167403F0EF75F014A42482F582D9
:10311200E43403F58375F005EE1227167408F07B8C
:10312200FF7A1079C60232129002F6E06003023290
:103132001AA3E06403600302321A90004FE0D394B2
:1031420001400302321A12179F9002F4EFF090022C
:10315200F1E075F014A42483F582E43403F583C00E
:1031620083C0829002F2E0D082D08375F0051227EC
:1031720016EFF0900050E09002F7F09002F5E0FFB9
:1031820012591D9002F4EFF060030232D09002F166
:10319200E0FF75F014A4247FF582E43403F583C0C4
:1031A20083C0829002F2E0FED082D08375F00512D5
:1031B20027167403F09002F7E0B40120EF75F014C3
:1031C200A42482F582E43403F58375F005EE122718
:1031D200167423F07BFF7A11790E80349002F7E0A7
:1031E200640270329002F1E075F014A42482F58238
:1031F200E43403F583C083C0829002F2E0D082D02F
:103202008375F0051227167433F07BFF7A11792249
:103212001233820232C9804B9002F6E06409704B8D
:103222009002F1E075F014A42482F582E43403F5EF
:1032320083C083C0829002F2E0D082D08375F00511
:103242001227167409F07BFF7A12792412338290C6
:1032520002F3E0FF7D011258459002F4EFF06003A3
:10326200E0FF229002F474FBF080639002F5E0FF2D
:1032720012591D9002F4EFF070549002F1E0FF75C4
:10328200F014A4247FF582E43403F583C083C08262
:103292009002F2E0FED082D08375F00512271674F8
:1032A20003F09002F6E0FD600280059002F7E0FD77
:1032B200EF75F014A42482F582E43403F58375F0EB
:1032C20005EE122716EDF07F01125B341F227BFF01
:1032D2007A12794C9002F4E0FF900311E4F0A3EF2C
:1032E200F01233829002F1E075F014A4247FF5828B
:1032F200E43403F583C083C0829002F2E0D082D02E
:103302008375F0051227167402F07F01125B349068
:0433120002F4E0FFE2
:013316002294
:053F80009002EEEFF0DD
:103F85007BFF7A1279651233829002EF7401F0900B
:103F950002EEE0FF75F006A424B1F582E43403F5E2
:103FA50083E0FE9002EFE0D39E40030241F4E4FD7E
:103FB500124D7012562A9002F0EFF06003E0FF22D6
:103FC500900040E030E007900042E020E00B9000D8
:103FD50042E06410600302413A9002EEE0FE75F0A3
:103FE50014A4247FF582E43403F583C083C0829052
:103FF50002EFE0FFD082D08375F005122716740119
:10400500F0EE75F014A42480F582E43403F583758D
:10401500F005EF122716E4F012562F9002F0EFF09C
:104025006003E0FF22900041E030E1047F00800260
:104035007F019002EEE0FE75F014A42481F582E480
:104045003403F583C083C0829002EFE0FDD082D0B7
:104055008375F005122716EFF0EE75F014A4248190
:10406500F582E43403F58375F005ED122716E07B40
:10407500FF60077A127972ED80087A1279979002BB
:10408500EFE0FF900311E4F0A3EFF01233827FC855
:104095007E00125AAA1257D59002F0EFF06003E0A5
:1040A500FF227BFF7A1279BB1233821256239002CC
:1040B500F0EFF06003E0FF22900040E020E4EC7FA9
:1040C500647E00125AAA7D141258409002F0EFF057
:1040D5007D101258409002F0EFF06003E0FF2212CD
:1040E500562A9002F0EFF06003E0FF22900040E0D6
:1040F50020E0259002EEE075F014A4247FF582E41B
:104105003403F583C083C0829002EFE0D082D08370
:1041150075F005122716E4F09002EEE0FFA3E0FD2E
:10412500122FAA9002F0EFF06003E0FF227F011248
:104135005B340241EB900042E030E1369002EFE063
:10414500FF7D111258457BFF7A1279D812338212FE
:1041550057D59002F0EFF06003E0FF22125623904E
:1041650002F0EFF06003E0FF22900040E020E4EC75
:104175008074900040E020E06D9002EEE075F01450
:10418500A4247FF582E43403F583C083C0829002C2
:10419500EFE0FFD082D08375F005122716E0C394B7
:1041A5000140117BFF7A1279EE900311E4F0A3EF41
:1041B500F01233829002EEE075F014A4247FF582AC
:1041C500E43403F583C083C0829002EFE0FFD08220
:1041D500D08375F005122716E4F0900042E030E038
:1041E500057D101258459002EFE004F0023F947FE0
:0141F50000C9
:0141F60022A6
:10378E007BFF7A13790A123382E49003BDF0900323
:10379E00BDE0FF64026057EF75F006A424ADF5821C
:1037AE00E43403F583E0C39403403B9003BDE0751E
:1037BE00F006A424B0F582E43403F583E0640970C6
:1037CE0025FD124D709003BDE0FF123F80EF60119A
:1037DE007BFF7A13791A900311E4F0A3EFF0123302
:1037EE00827F01125B349003BDE004F080A07F0065
:0137FE0022A8
:0548F3009002EEEFF061
:1048F800E4A3F09002EFE0FF640270030249DBEFEB
:1049080075F006A424B0F582E43403F583E0FD9045
:1049180002EEE0FFED6F701BA3E0FF75F006A42424
:10492800ADF582E43403F583E0C394034005EF7FDB
:1049380000FE22ED640960030249D29002EFE0759F
:10494800F006A424ADF582E43403F583E0C39403B0
:1049580040789002F07401F09002EFE0FF75F006E5
:10496800A424B1F582E43403F583E0FE9002F0E07C
:10497800FDD39E5055EF75F014A42482F582E434DB
:1049880003F58375F005ED122716E0FF9002EEE0BF
:10499800FEEF6E702DA3E0FF75F014A4247FF5825E
:1049A800E43403F583C083C0829002F0E0D082D063
:1049B8008375F005122716E0C394034005EFFEED5A
:1049C800FF229002F0E004F0808E9002EFE004F005
:0749D8000248FB7EFF7FFF98
:0149DF0022B5
:105A1C00C29FD29EC29DD29C438780E589540F447D
:0E5A2C0020F58943C9A0758DF3D28ED2992240
:10566800C2EA75E280E4F5E39024477448F0902498
:105678004C7400F0A37400F090244E7400F0A374EE
:1056880040F0E4F5D4F5D675E28975D24075D8FFB7
:0F569800FECFEECF1258740EEEB402F575E1039B
:0156A70022E0
:0B1F40009002EEEBF0A3EAF0A3E9F042
:101F4B0078F17C027D017BFF7A16795B7E007F083E
:101F5B0012256B9002EEE0FBA3E0FAA3E0F99000F0
:101F6B00011225AAFF1225914FFF9000031225AAFB
:101F7B004FFF9000041225AA4FFF9000051225AACF
:101F8B004FFF9000061225AA4FFF9000071225AABB
:101F9B0070047E0180027E00EE4FFF9002EEE0FBAC
:101FAB00A3E0FAA3E0F99000021225AAB453047E31
:101FBB000180027E00EE5F6033E4FF74F12FF58247
:101FCB00E43402F583E0FE74402FF582E43400F52F
:101FDB0083EEF00FEFB408E39003017401F0A374E8
:0E1FEB0002F0A374F9123D14EF6001227F0092
:011FF90022C5
:055A7400900280EFF03C
:105A7900EF60137BFF7A137935900311E4F0A3EFFC
:075A8900F012338280FE22BF
:10000300E4900285F0125A1C7BFF7A137942AFA168
:10001300900311E4F0A3EFF01233821256681258E2
:100023000BC20F7BFF7A137956123382E49002825C
:10003300F030D80FC2D8124CB7900282EFF0BF1540
:1000430002D20F300F2D900282E0B41526C20F7F2B
:10005300C87E00125AAA1254EF900282EFF0601386
:100063007BFF7A137966E0FF900311E4F0A3EFF0CE
:100073001233827F331248F3900286EEF0A3EFF03F
:10008300F47002EEF470030201C37BFF7A137981EB
:10009300900286E0FFA3E0900311CFF0A3EFF012EC
:1000A3003382124D5A900283E0FF9002806019E080
:1000B30075F014A42483F582E43403F58375F00505
:1000C300EF122716E0FF8010E075F006A424B1F5C7
:1000D30082E43403F583E0FF900284EFF0540F7061
:1000E300030201B5E0FE547F4490FFEE30E7047D48
:1000F300C080027D0012466B900282EFF060030223
:10010300019C900284E06480F0900283E0FF601F12
:10011300A3E0FE900280E075F014A42483F582E44A
:100123003403F58375F005EF122716EEF08018906F
:100133000284E0FF900280E075F006A424B1F5820A
:10014300E43403F583EFF0900283E5D1F0E0606BD4
:100153007BFF7A137994123382E4900280F0900249
:1001630083E0FF900280E0FEC39F50257BFF7A105F
:1001730079AF74002EF582E43400F583E0FF900339
:1001830011E4F0A3EFF0123382900280E004F080D8
:10019300CD7BFF7A1079B6801F900282E0FF642A3C
:1001A30060197BFF7A1379A1900311E4F0A3EFF0B8
:1001B30080067BFF7A1379B31233827F01125B349B
:1001C3007F231248F3900286EEF0A3EFF0F470025F
:1001D300EEF4700302032A7BFF7A1379D090028630
:1001E300E0FFA3E0900311CFF0A3EFF012338212EC
:1001F3004D5A900283E0FF9002806019E075F0147D
:10020300A42483F582E43403F58375F005EF122704
:1002130016E0FF8010E075F006A424B1F582E43403
:1002230003F583E0FF900284EFF07BFF7A1379E616
:10023300900311F0123382900284E0FE540F700396
:1002430002031CEE547F4490FFEE30E7047DC08030
:10025300027D0012466B900282EFF06003020303FB
:10026300900284E06480F0900283E0FF601FA3E0CB
:10027300FE900280E075F014A42483F582E4340335
:10028300F58375F005EF122716EEF08018900284BF
:10029300E0FF900280E075F006A424B1F582E43417
:1002A30003F583EFF0900283E5D1F0E060747B0106
:1002B3007A007900121F407BFF7A1379ED123382A3
:1002C300E4900280F0900283E0FF900280E0FEC39E
:1002D3009F50257BFF7A1079AF74002EF582E434AA
:1002E30000F583E0FF900311E4F0A3EFF0123382F3
:1002F300900280E004F080CD7BFF7A1079B6801FF6
:10030300900282E0FF642A60197BFF7A1379FD90E3
:100313000311E4F0A3EFF080067BFF7A1479121245
:1003230033827F01125B347F231248F3900286EEFF
:10033300F0A3EFF0F47002EEF4700302048B7BFF82
:100343007A1379D0900286E0FFA3E0900311CFF0F7
:10035300A3EFF0123382124D5A900283E0FF900212
:10036300806019E075F014A42483F582E43403F566
:100373008375F005EF122716E0FF8010E075F00695
:10038300A424B1F582E43403F583E0FF900284EF03
:10039300F07BFF7A1379E6900311F0123382900217
:1003A30084E0FE540F700302047DEE547F4490FFFB
:1003B300EE30E7047DC080027D00E4FBFA12466E56
:1003C300900282EFF06003020464900284E0648090
:1003D300F0900283E0FF601FA3E0FE900280E075CF
:1003E300F014A42483F582E43403F58375F005EF58
:1003F300122716EEF08018900284E0FF900280E04E
:1004030075F006A424B1F582E43403F583EFF0908C
:100413000283E5D1F0E0606B7BFF7A1379ED123351
:1004230082E4900280F0900283E0FF900280E0FE7D
:10043300C39F50257BFF7A1079AF74002EF582E4B9
:100443003400F583E0FF900311E4F0A3EFF01233DF
:1004530082900280E004F080CD7BFF7A1079B68031
:100463001F900282E0FF642A60197BFF7A1379FDF3
:10047300900311E4F0A3EFF080067BFF7A14791266
:100483001233827F01125B34E4900280F090028089
:10049300E0FFC3940240030205A6EF75F006A4240F
:1004A300ADF582E43403F583E06403600302059D44
:1004B300900280E075F006A424B0F582E43403F5DD
:1004C30083E06409600302059DFD124D7090028074
:1004D300E075F006A424B2F582E43403F583E090DA
:1004E3000284F0540F700302058CE0FE547F4490A5
:1004F300FFEE30E7047DC080027D00E4FBFA124684
:100503006E900282EFF07068900284E06480F0FEE7
:10051300900280E0FF75F006A424B2F582E4340370
:10052300F583EEF0900283E5D1F0E0606D123F8039
:10053300E4900280F0900283E0FF900280E0FEC32B
:100543009F50257BFF7A1079AF74002EF582E43437
:1005530000F583E0FF900311E4F0A3EFF012338280
:10056300900280E004F080CD7BFF7A1079B680277B
:10057300900282E0FF642A60217BFF7A1479329033
:100583000311E4F0A3EFF0800E7BFF7A147942901D
:100593000280E0900311F0123382900280E004F0B5
:1005A300020490E5C130E0030206F07E007F407D47
:1005B300007B017A00794012280B900040741BF0F5
:1005C300A37440F0A3741DF0A37455F0A37442F018
:1005D300A37402F0A37418F0A3741DF0A37476F04F
:1005E300A37430F0E4A3F0A37430F0E4A3F0A37495
:1005F30018F07F071248F3900286EEF0A3EFF0F4B1
:100603007002EEF470030206F07BFF7A14796290B5
:100613000286E0FFA3E0900311CFF0A3EFF01233C3
:1006230082124D5A900283E0FF9002806019E075B8
:10063300F014A42483F582E43403F58375F005EF05
:10064300122716E0FF8010E075F006A424B1F582AE
:10065300E43403F583E0FF900284EFF07BFF7A1329
:1006630079E6900311F0123382900284E0FE540F76
:10067300607675D740EE547F4410FFEE30E7047D7B
:10068300C080027D0074FFFBFA12466E900282EF77
:10069300F0703B900284E06480F07E007F407D0038
:1006A3007B017A00794012280B75D740900284E0D1
:1006B300FE547F4410FFEE30E7047DC080027D00CE
:1006C30074FFFBFA12466E900282EFF0801A9002DA
:1006D30082E0FF642A60117BFF7A1479779003111B
:1006E300E4F0A3EFF01233827F01125B347F081230
:1006F30048F3900286EEF0A3EFF0F47002EEF4708C
:100703000302002F7BFF7A14798B123382124D5A26
:10071300750A04E4900280F07BFF7A1479AF1233F8
:1007230082124F9F900282EFF060117F327E00129F
:100733005AAA900280E004F0E0B40ADCE50AC3940C
:100743000550030209737BFF7A1479BF1233827851
:10075300237C007D007BFF7A1479CA1227EE1220D6
:1007630000900282EFF064B36004E0B4420C7BFFBC
:100773007A1479DA12338202086D7BFF7A1479E8EE
:10078300AF0A900311E4F0A3EFF0123382900288D2
:10079300E4F0A37464F07BFF7A1479FB900311E413
:1007A300F0A37464F0123382900288E0FEA3E0FFAA
:1007B3004E700302085ED3EF941FEE940090028103
:1007C3004005741FF08002EFF0900281E0FF782370
:1007D300E4F608EFF6087402F608748AF6123A8D06
:1007E300900282EFF07823E6FE08E6FFC3900289C9
:1007F300E09FF0900288E09EF0E4900280F0900287
:1008030080E0782466700218E6602B7BFF7A157906
:1008130018900280E0FF7825E6FC08E68C832FF52C
:1008230082E43583F583E0900311F0123382900262
:1008330080E004F080C8900281E0FFC37824E69F43
:1008430018E6940040030207AB7BFF7A1079B612D7
:1008530033827BFF7A15791B1233827BFF7A1579FA
:10086300291233821251E9125A747BFF7A157930B7
:1008730012338278237C007D007BFF7A15793D1249
:1008830027EE123800900282EFF0125A797BFF7A3A
:1008930015794A12338290031174FFF0A37415F093
:1008A300A37455F07B017A02798A12337C9002801B
:1008B300EFF0E4A3F0900280E0FF7823E4F608EF82
:1008C300F6087402F608748AF612287D900282EF05
:1008D300F0125A797BFF7A157997900281E0FF90A5
:1008E3000311E4F0A3EFF0123382900281E004F0ED
:1008F300E0C3940A40BF7BFF7A1579A8123382784C
:100903002B76FF74FF7829F608F678277651087658
:100913000F78231226CCFFFFFFFF12367C125A7486
:100923007BFF7A157929123382782376011251E9F4
:10093300125A747BFF7A1579B012338278237C00C4
:100943007D007BFF7A1579B81227EE1249E09002F9
:1009530080EFF060137BFF7A1579C1E0FF900311FC
:10096300E4F0A3EFF01233827BFF7A1579DD801375
:100973007BFF7A1579EA900282E0FF900311E4F09D
:08098300A3EFF012338280FEA5
:105B140021FF000000000000A1FE000000000100C1
:064DFD009003431226C0E2
:104E030090035BE0FF900346E06F7024900358E04B
:104E1300FF900343E06F7018900359E0FF90034441
:104E2300E06F700C90035AE0FF900345E06F605809
:104E3300900343E0FCA3E0FDA3E0FEA3E0FF9003A7
:104E4300581226C090033CE0FEA3E0FBCAEECA65FD
:104E53000C7003EA650B7014900343E0FCA3E0FDC0
:104E6300A3E0FEA3E0FF90035C1226C0CEEACECF00
:104E7300EBCFCDEFCDCCEECC7F01124C0F8F0DEFEE
:0B4E83006003125ADAAF0D227F0022FC
:10476300900376E0FCA3E0FDA3E0FEA3E0FF90034B
:04477300431226C007
:1047770090035FE0FF900346E06F702490035CE0D6
:10478700FF900343E06F701890035DE0FF900344D0
:10479700E06F700C90035EE0FF900345E06F60549C
:1047A700900343E0FCA3E0FDA3E0FEA3E0FF90033A
:1047B7005C1226C0AB0CAA0B90033CE06A7003A303
:1047C700E06B7014900343E0FCA3E0FDA3E0FEA3BD
:1047D700E0FF9003581226C0CEEACECFEBCFCDEF45
:1047E700CDCCEECC7F01124C0F8F0DEF6003125A28
:0747F700DAAF0D227F002262
:10539200900343E0FCA3E0FDA3E0FEA3E0FF900343
:1053A200581226C090033CE0FEA3E0FBCAEECA6599
:1053B2000C7003EA650B7014900343E0FCA3E0FD5C
:1053C200A3E0FEA3E0FF90035C1226C0CEEACECF9C
:1053D200EBCFCDEFCDCCEECC7F01124AB88F0DEFE3
:0853E2006003125ADAAF0D223C
:105000008F118E108D0F8C0EE509241AF582E43570
:1050100008F583E50EF0A3E50FF0E5092414F58209
:0C502000E43508F583E510F0A3E511F07D
:10502C00900343E0FCA3E0FDA3E0FEA3E0FF9003AC
:10503C005C1226C0AB0CAA0B90033CE06A7003A375
:10504C00E06B7014900343E0FCA3E0FDA3E0FEA32F
:10505C00E0FF9003581226C0CEEACECFEBCFCDEFB7
:10506C00CDCCEECC7F01124AB88F0DEF6003125AF3
:04507C00DAAF0D2278
:102C2A00900347E0FCA3E0FDA3E0FEA3E0FF9003CE
:062C3A00381226C0E4FF81
:102C40008FD390036FE0FBB40212900338E0FCA333
:102C5000E0FDA3E0FEA3E0FF78018014EBB40315D0
:102C6000900338E0FCA3E0FDA3E0FEA3E0FF7802C0
:102C7000122653803EC20090033BE030E002D200B7
:102C8000900338E0F8A3E0F9A3E0FAA3E0FBE8C082
:102C9000E0900338E0FCA3E0FDA3E0FEA3E0FF78B2
:102CA00001122640D0E0F8EB2FFFEA3EFEE93DFDA1
:102CB000E83CFC9003381226C0900336E024FFFF66
:102CC000EFFE90033AE0FCA3E0FDEE5CFEEDFF902A
:102CD000033DE02FF50990033CE03EF508900338F2
:102CE000E0FCA3E0FDA3E0FEA3E0125A3A900370DB
:102CF000E0F8A3E0F9A3E0FAA3E02FFFEA3EFEE943
:102D00003DFDE83CFC9003381226C090035BE0FFD9
:102D100090033BE06F7024900358E0FF900338E08D
:102D20006F7018900359E0FF900339E06F700C90BA
:102D3000035AE0FF90033AE06F601F300D07124B1B
:102D400065EF600122900338E0FCA3E0FDA3E0FE04
:102D5000A3E0FF124DFDEF600122E5D36044E5D30F
:102D6000B4040C9003381226E5FFFFFFFF8031E525
:102D7000D3B4010C9003381226E500000000802037
:102D8000900363E0900338F0900362E0900339F021
:102D9000900361E090033AF0900360E090033BF011
:102DA000D20DC20E90036FE0FB640270468509826B
:102DB000850883E0F50FA3E0F510850F11E4F50E0B
:102DC000F50FC3E51194F7E51094FF4002D20EE52C
:102DD000D36014900338E0FFA3E08509828508835F
:102DE000CFF0A3EFF0E1A7300E02E1A7AE10AF11D4
:102DF000E4E19FEB64037071AF09AE08125B248FAE
:102E0000118E108D0F8C0EE50E54F0FF90033BE0F9
:102E1000540F4FF0530E0FE50ED3940F5016E50EDE
:102E2000B40F13E50FB4FF0EE510B4FF09E511C3AD
:102E300094F74002D20EE5D36016900338E0FCA36D
:102E4000E0FDA3E0FEA3E0FF850982850883E1A4FD
:102E5000300E02E1A7900360E50EF0A3E50FF0A3AA
:102E6000E510F0A3E511F0E1A7850982850883E06C
:102E7000F511900338E0FFC454F0FEE511540F4EF5
:102E8000F50EA3E0C454F0FEEFC4540F4EF50F90BE
:102E90000336E024FFFFEFFE90033DE024FFFF90A8
:102EA000033CE03EFEEF65097003EE650860438574
:102EB0000982850883A3E0F510E5D37002E168304C
:102EC000000F850982850883E50EF0A3E50FF0E188
:102ED00068900338E0850982850883F0900339E023
:102EE000540FFFE51054F04F850982850883A3F045
:102EF0008076E5D36014300004AF0E80059003386F
:102F0000E0FF850982850883EFF0A20DE43345D305
:102F10006007124B65EF600122900358E0FCA3E0CC
:102F2000FDA3E0FEA3E02401FFE43EFEE43DFDE45A
:102F30003CFC124DFDEF60012290033CE0FEA3E05B
:102F4000FFF5828E83E0F510E5D3601C300004AD00
:102F50000F800D900339E0540FFDE51054F04DFD46
:102F60008F828E83EDF0D20DE4F50EF50F30001454
:102F7000E510C4F854F0C868F510E511C4540F48C2
:102F8000F511800353100FC3E51194F7E510940F6A
:102F90004002D20EE5D3700F200E0CAE10AF11FC24
:0A2FA000FD9003601226C07F00229E
:1044490090033EE0FCA3E0FDA3E0FEA3E0FF9003A0
:1044590060E0F8A3E0F9A3E0FAA3E0FBD312262F6A
:1044690040037FB122900360E0FCA3E0FDA3E0FEDE
:10447900A3E02401FFE43EFEE43DFDE43CFC9002A0
:10448900EE1226C0122C38CBEFCB9002EEE0FCA343
:10449900E0FDA3E0FEA3E0FF9003601226C0EB60FD
:1044A90002FF22E511700AE50E450F45107002C1A1
:1044B90051900340E0FF9002F0E06F701A90033EC4
:1044C900E0FF9002EEE06F700E90033FE0FF900274
:1044D900EFE06F7002814990036FE0FF64017002A1
:1044E900814990033CE0FCA3E08C08F509EF6402E4
:1044F900703E900336E075F080A424FFFFE5F034A8
:10450900FFF50E8F0FF5108F1174022509F509E4D7
:104519003508F508850982F583E07004A3E0607722
:10452900E50F150F7002150E14AE0E4E70DBC12D7E
:10453900900336E075F040A424FFFFE5F034FFF561
:104549000E8F0FF5108F1174042509F509E435084C
:10455900F508850982F583E06002C11DA3E06002C8
:10456900C11D850982850883A3A3E06002C11D8559
:104579000982850883A3A3A3E0540F6002C11D85A6
:104589000982850883A3A374FFF0850982850883BE
:10459900A3A3A3E0440FF085098285088374FFF083
:1045A900A3F0AE10AF11900360E0F8A3E0F9A3E027
:1045B900FAA3E04FFFEA4EFEE9FDE8FCEEC0E0EFAA
:1045C900C0E0E50F24FFFFE50E34FFCBEFCBFAD0B7
:1045D900E0FFD0E0FEC3EF9BFFEE9AFEED9400FDF5
:1045E900EC9400FC9003601226C090033EE0FCA30B
:1045F900E0FDA3E0FEA3E0FF900360E0F8A3E0F98B
:10460900A3E0FAA3E0FBD312262F40037FB122D205
:104619000D7F0022E50F150F7002150E14AE0E4E18
:104629006002A150900360E0F8A3E0F9A3E0FAA3C7
:10463900E0FBAE10AF11EB4FFFEA4EFEE9FDE8FCDF
:104649009003601226C081499002EEE0FCA3E0FDD0
:10465900A3E0FEA3E0FF9003381226C07F04122CCA
:024669004022ED
:105AC300124449EF64B16001229003601226E5009D
:075AD300000000124449220B
:10200000E50AC394105007121800EF60012212591C
:102010003CEF600122C20B7823E6FF7002FF22EF43
:10202000645C6004EFB42F0890037A7424F0801786
:102030007824E6643A600201FBEFC3944350020146
:10204000FB90037A7426F090036FE0FBB4031090CA
:10205000037BE0FCA3E0FDA3E0FEA3E0FF8005E43A
:10206000FFFEFDFC9003471226C090037AE0F8E6DD
:10207000600221019003651226E5FFFFFFFFEB647C
:1020800003604F90034A7402F090037EE0900337A0
:10209000F0900350E0FCA3E0FDA3E0FEA3E0FFEF1F
:1020A000C0E0900337E0FBD0E0FFC3EF9BFFEE946E
:1020B00000FEED9400FDEC9400FC9003501226C04D
:1020C000900337E0FFE4FCFDFE125A5790036512BF
:1020D00026C0900347E0FCA3E0FDA3E0FEA3E0FFE1
:1020E0009003601226C090037F1226E500000000D6
:1020F000E490034BF0750A127F412290037A742317
:10210000F0900347E0700CA3E07008A3E07004A314
:10211000E06046900337E090034BF0900347E0FC0B
:10212000A3E0FDA3E0FEA3E024FEFFEE34FFFEEDFE
:1021300034FFFDEC34FFFC900342E0F9F812265323
:10214000900350E0F8A3E0F9A3E0FAA3E02FFFEA40
:102150003EFEE93DFDE83C802490037EE090034B89
:10216000F0FB900350E0FCA3E0FDA3E0FEA3E0C37E
:102170009BFFEE9400FEED9400FDEC9400FC9003B8
:10218000761226C090034BE070028148124763EF3D
:10219000600122E490034EF0A3F0900336E0FE903D
:1021A000034EE0FCA3E0FDC39400EC9E40028121BD
:1021B000ED250CF509EC350BF508850982F583E072
:1021C000FF70028178EF64E570028111EFB40502BF
:1021D0007FE590037AE0F8E6FE6F6007EE642A6020
:1021E000028111EF6E70047F0180027F008F10AFBB
:1021F00010EFC3940B5059AE1090037AE02EF8E61E
:10220000FEE5092FF582E43508F583E0FD6E603BBD
:10221000EE6009645C6005EE642F701FED64207051
:102220002FEFC394085010E5092408F582E435081F
:10223000F583E0642070197F0B8015EEB42E11E554
:102240001064086004EDB420077F070F051080A11B
:10225000AE1090037AE02EF8E6F511EFC3940B5020
:10226000026151E509240BF582E43508F583E0307D
:10227000E3026151C20EE509241AFFE43508FE129B
:102280005B4EE4FCFD9003471226C090036FE0B460
:102290000314E5092414FFE43508FE125B4E900395
:1022A00047EEF0A3EFF0E5116005200E02614590C6
:1022B0000347E0FCA3E0FDA3E0FEA3E0FF90036082
:1022C0001226C090037F1226E500000000E4900370
:1022D0004BF0E509240BF582E43508F583E030E4A2
:1022E0001E9003651226E5FFFFFFFF7D137F10128E
:1022F0005940EF600122300E037F43227F4122E5E7
:1023000009241CFFE43508FE125B249003651226A5
:10231000C0900347E0701AA3E07016A3E07012A308
:10232000E0700EA374FFF09003651226E500000034
:10233000007D147F10125940EF600122300E037FA0
:1023400043227F0022E51004FF90037AE02FF02162
:1023500001E511642A60028111E509240BF582E48C
:102360003508F583E030E3028111E5A1645960038B
:102370007F1122900365E0FCA3E0FDA3E0FEA3E053
:10238000FFEC4D4E4F602E900365E030E7031217CF
:10239000FE900365E0FCA3E0FDA3E0FEA3E024FFC4
:1023A000FFEE34FFFEED34FFFDEC34FFFC900365DF
:1023B0001226C0805CE4FFF50EE5092FF582E435B6
:1023C00008F583E064206036EFB4080CAE0E90038D
:1023D0007AE02EF8762E050EE5092FF582E4350811
:1023E000F583E0FEAD0E90037AE0FC2DF8EEF6E505
:1023F0000E7009C8ECC8E6B4050276E5050E0FEFCD
:10240000B40BB6AF0E90037AE02FF8E4F6D20E418B
:102410007690034FE02420F090034EE03400F0214A
:102420009A900376E0FCA3E0FDA3E0FEA3E0240184
:10243000FFE43EFEE43DFDE43CFC9003761226C042
:1024400090034BE014F02184900347E0700CA3E06C
:102450007008A3E07004A3E0601E122C2AEF600154
:1024600022200E14900347E50EF0A3E50FF0A3E53C
:1024700010F0A3E511F02101E4FF90037AE0CEEF24
:10248000CE0F2EF8E6FE6010642A600CEE645C60ED
:0B24900004EEB42FE57FB3227F422250
:1053EA00900360E0FCA3E0FDA3E0FEA3E024FEFF3F
:1053FA00EE34FFFEED34FFFDEC34FFFC900342E097
:10540A00F9F8122653900350E0F8A3E0F9A3E0FA62
:10541A00A3E02FFBEA3EFAE93DF9E83CF890034B9A
:10542A00E0FFE4FCFDFEEB2FFFEE3AFEED39FDEC6A
:08543A0038FC9003430226C078
:10480000900347E0700EA3E0700AA3E07006A3E0F7
:10481000700201E17827122666125A3AEFC0E09042
:10482000034BE0FBD0E0FFC3EF9BF511EE9400F5E6
:1048300010ED9400F50FEC9400F50EAF11AE10AD35
:104840000FAC0E7823122672C312262F401778233E
:10485000122666C3EF9511FFEE9510FEED950FFD44
:10486000EC950E8054900347E0FCA3E0FDA3E0FE2E
:10487000A3E0FF9003601226C0900337E0FFE4FC42
:10488000FDFE7823122672C312262F403490036057
:10489000122C2DEF600122200E477823122666EF9E
:1048A000C0E0900337E0FBD0E0FFC3EF9BFFEE9446
:1048B00000FEED9400FDEC9400FC78231226B480F9
:1048C000B87826E690034BF01253EA900343E0FCDD
:1048D000A3E0FDA3E0FEA3E0FF78231226B47F004F
:1048E0002290034B74FFF078231226CCFFFFFFFFCA
:0348F0007F002224
:034FFD007F1322FD
:105ADA0090035C1226E5FFFFFFFF9003581226E5AC
:075AEA00FFFFFFFFC20D22C8
:04593C007D107F104B
:10594000AE0AEEC39F4005CEEDCE8D0AEE6D70021D
:0F595000FF22750A011256E7EF6001227F8322C2
:1058F300AB0DEBB41611750A019003691226E5008E
:10590300000000CFEBCF22EBB41507750A02CFEBF3
:05591300CF227F0022FD
:105337007F027E00125AAA900375E50DF01256E718
:10534700EF600122E50AC3940450037F83227E5B4A
:105357007F14125980900374E0900044F0E4FDFF3D
:10536700FE123D1B8F0DEFB416012290036EE05421
:105377000FFF1259DE90036DE0540F4480FF12595E
:0B538700DE900375E0FFF50DE4F0225E
:1056A800900048EDF0A3E4F0A3F0A3F0ED60047ED1
:1056B8008080027E0090004CEEF0900364E0900041
:1056C8004DF0A37406F0A3EFF0A3E4F0A3F0A3F069
:0F56D800A3EDF0A3E4F0A3F0A3F0A3F0A3F0225E
:0741F7001256A87E007F6252
:1041FE008E158F169000407455F0A37453F0A3746F
:10420E0042F0A304F075D71F90036EE0FF90037584
:10421E00E0FD7BE87AFD12466E8F0DEFB41601229B
:10422E00EF60397E007F627C007D407B1B7A00123E
:10423E00595F1253377E007F407C007D627B1B7A74
:10424E000012595F90036EE0FF900375E0FD7BE86E
:10425E007AFD12466E8F0DEF60028143900375E07A
:10426E006440F0900048E0FDA3E0FF4D700281082D
:10427E00EFF513EDF51490004CE020E7026152D2F9
:10428E0001E514451370026146E5137007E514C38A
:10429E009440400C90244CE515F0A3E516F0800CEC
:1042AE00C20190244C7400F0A37400F090036DE0F2
:1042BE00FF900375E0FD7BE87AFD12466E8F0DEFE1
:1042CE00601E90244C7400F0A37400F0EF642E6016
:1042DE00012290036DE0540F4480FF1259DE805886
:1042EE00900375E06480F030011FE5D164407048A2
:1042FE0074C02514F51474FF3513F5137440251688
:10430E00F516E43515F515418FAFD1AE14EEC39FFA
:10431E005003CFEECFE4FEEE6F601D74002EF582DB
:10432E00E43400F583E0851682851583F00516E5E5
:10433E0016700205150E80DF90244C7400F0A374E5
:10434E0000F08108E5144513700261FEE513700854
:10435E00AF14EFC39440402690244EE515F0A3E52C
:10436E0016F074C02514F51474FF3513F51374404C
:10437E002516F516E43515F51575D74080379024BA
:10438E004E7400F0A37440F08FD7E4FFE5146F6015
:10439E001F851682851583E0FE74402FF582E43466
:1043AE0000F583EEF00516E516700205150F80DC9C
:1043BE00E4F513F51490036EE0FF900375E0FD7BBA
:1043CE00E87AFD12466E8F0DEF601C90244E74003D
:1043DE00F0A37440F0EF642E60012290036EE0545F
:1043EE000FFF1259DE8009900375E06440F06152B0
:1043FE0090244E7400F0A37440F090036DE0FF9093
:10440E000375E0FD7BE87AFD12466E8F0DEF6001BD
:10441E0022900375E06480F0750D1FE5D1640D6088
:10442E0003AF0D2290000CE0FE7004F50DFF22EE9E
:0B443E00C394024003025337AF0D226D
:1059FD007F0A7E00125AAA7D127F031241F77F059E
:0F5A0D007E00125AAAE50D7002FF221258F322F2
:104F1A00751209750E0F7D087F251256A890004E4E
:104F2A00740AF0900053E4F01241FAAF0DEF7020CA
:104F3A00900068E0FEB4040575120A8040EEB408D9
:104F4A000575120B8037EE6410703275120C802DC5
:104F5A00EF64166028EF64156023EF6413601E8FF8
:104F6A000F1259FD850F0DE50E7E0030E3047F40D8
:104F7A0080027FC8125AAA150EE50E7099E512240E
:104F8A00F8FF7401C8EFC8088002C333D8FC900345
:054F9A0036F0AF0F220C
:101663001256E7EF600122E50AC3940450037F8317
:1016730022750A041252CC8F0DEF60012290004EA6
:10168300E06408705FC20CA3E0B40602D20C9000C1
:101693004BE0900374F0E4F50EE50E600790005BF9
:1016A300E0FF8005900054E0FF8F0FE50E60079088
:1016B300005DE0FF8005900056E0FFEF644070247A
:1016C300E50F30E70CE50F540F449090036DF08065
:1016D3000AE50F540F441090036EF0050EE50EB4A7
:1016E30002B78006750D1FAF0D22900045E0FF1273
:1016F300591D8F0DEF600122E4F50E7E5B7F1C12F6
:101703005980900374E0900044F07D0FAF0CAE0B52
:10171300123D1B8F0DEF7010E50FB4011A850C827B
:10172300850B83E0F50E800FE50DB42E07E4FF1261
:1017330059DE8003AF0D227F057E00125AAA125A8A
:10174300DAE4900375F0900364F07D247F1212565F
:10175300A8AF0CAE0B1241FEE50D7023E50E601829
:10176300900364E07012850C82850B83E0B4050856
:101773009003647401F080D27D057F04025940E533
:101783000E600E900364E0C394035005E004F08000
:0C179300B9E4900364F07F0112553F227E
:104F9F0078231226CC000000001256E7EF600122A2
:104FAF00E50AC394055030121663EF600E7F407E02
:104FBF0000125AAA121663EF600122124F1AEF6005
:104FCF0003AF0D22900062E0FCA3E0FDA3E0FEA37F
:104FDF00E0FF78231226B4E4FDFF1241F7E50D70D0
:0E4FEF0002FF22850D0E1259FDAF0E8F0D220E
:10553F00E4FDFCE4F5A10DBD00010CBC01F5BDF4CB
:10554F00F2EFC394024014AE0AEEB41205750A05C9
:10555F008009EED394104003750A10AE0DEF60145E
:10556F00EE6416600FEE6415600A1259FDCEEFCE91
:0F557F00EE7001227F027E00125AAA1258F32208
:10180000E50AC39405500A121663EF600122124FD5
:101810001A125ADA900369E0FCA3E0FDA3E0FEA3EC
:10182000E054F0FFEC7B707A5679347812C31226BC
:101830002F700A90036CE0540FF5098003E4F5095A
:10184000E4900337F090034BF09003651226E50017
:101850000000009003431226E500000000124777C5
:10186000EF600D125337124F1A124777EF600122C3
:10187000E509700F850C82850B83E054FD64E970E7
:101880000221B3E50C24FEF582E50B3401F583E07B
:10189000FEA3E064AA7003EE645560037F9122907A
:1018A0000337E0F508E50864407002219FE50C2449
:1018B000BEFFE50B3401FE7C00EF2508FFEC3ECFB8
:1018C0002408CF3400FE125B249003431226C0E5A7
:1018D0000C24BEFFE50B3401FE7C00EF2508FFEC75
:1018E0003EF583EF2404F582E43583F583E0F50EBD
:1018F000E50E64056005E50EB40F51900343E0FC6E
:10190000A3E0FDA3E0FEA3E0FF900365E0F8A3E001
:10191000F9A3E0FAA3E0FBEF2BFFEE3AFEED39FD71
:10192000EC38FC9003431226C090034BE0600201A8
:101930005DE5082410F0900343E0FCA3E0FDA3E084
:10194000FEA3E0FF9003651226C0015DE50E30E7BF
:1019500003530E3FE50E603FE50EC3940F5038E58C
:101960000994015030900343E0FCA3E0FDA3E0FEA6
:10197000A3E0FF90035CE0F8A3E0F9A3E0FAA3E0A2
:10198000FBEF2BFFEE3AFEED39FDEC38FC90034304
:101990001226C0801E150974102508F50801A590AF
:1019A000034BE0FF600A900337E07004EFF0014959
:1019B0007F9222900343E0FCA3E0FDA3E0FEA3E0BE
:1019C000FF9003691226C0124777EF600122850C51
:1019D00082850B83E054FD64E960037FA122E50C5E
:1019E00024FEF582E50B3401F583E0FEA3E064AA52
:1019F0007003EE645560037FA122E50C240DF5828F
:101A0000E4350BF583E0FF900337F0900342740751
:101A1000F0EF20E713EF25E0FF900342E014F0E041
:101A200070EF9003377401F0E50C2416FFE4350BDA
:101A3000FE125B4EE4FCFD9003541226C090035648
:101A4000E0FEA3E04E7012E50C2424FFE4350BFE0B
:101A5000125B249003541226C0E50C2413FFE435D6
:101A60000BFE125B4EE4FCFD90037F1226C0900338
:101A700081E0FEA3E04E7012E50C2420FFE4350B5C
:101A8000FE125B2490037F1226C0E50C2411FFE4B4
:101A9000350BFE125B4E900336E033333354F814AB
:101AA0007C002FFFEC3EFEE51224FBFDEFC8EDC8E5
:101AB000088005CEC313CE13D8F9FFE4FCFD9003D4
:101AC0007B1226C0E50C240EFFE4350BFE125B4EA4
:101AD000E4FCFD9003701226C090037EE0FF7E00C0
:101AE000900372E0FCA3E02FFFEE3CFEE4FCFD90CF
:101AF0000354E0F8A3E0F9A3E0FAA3E02FF511EA1C
:101B00003EF510ED39F50FEC38F50EE50C2410F527
:101B100082E4350BF583E0900354B4021FE0FCA38C
:101B2000E0FDA3E0FEA3E02511F511EE3510F51060
:101B3000ED350FF50FEC350EF50E80071226E5009A
:101B4000000000900343E0FCA3E0FDA3E0FEA3E05F
:101B50002511FFEE3510FEED350FFDEC350EFC9036
:101B600003501226C090037FE0FCA3E0FDA3E0FE3B
:101B7000A3E0C39511FFEE9510FEED950FFDEC95DA
:101B80000EFC900342E0F9F812264090033E122624
:101B9000C0E47FF57EFFFDFC90033EE0F8A3E0F992
:101BA000A3E0FAA3E0FBC312262F5023E490034CDA
:101BB000F0A3F0900340E0FEA3E0C394F5EE940F91
:101BC00090036F50057401F080317402F0802CE5B1
:101BD0000C2430FFE4350BFE125B4E90034CEEF00C
:101BE000A3EFF0E50C242CFFE4350BFE125B2490F0
:101BF000037B1226C090036F7403F0900372E0FE23
:101C0000A3E04E605790037BE0FCA3E0FDA3E0FE61
:101C1000A3E0FFEC4D4E4F6043E50C2410F582E449
:101C2000350BF583E064016014900354E0FCA3E0FD
:101C3000FDA3E0FEA3E0FFEC4D4E4F601FE50C243A
:101C40000BF582E4350BF583E07011E50C240CF5FF
:101C500082E4350BF583E0C39402500CE50970056E
:101C600075090101407FA322900370E0FCA3E0FD11
:101C7000A3E0FEA3E0FF900343E0F8A3E0F9A3E0B4
:101C8000FAA3E0FBEF2BFFEE3AFEED39FDEC38FC5A
:0E1C90009003701226C07D107F05125940226D
:104B6500900358E0FCA3E0FDA3E0FEA3E0FF900363
:104B7500431226C0125392EF600122900354E0FCC9
:104B8500A3E0FDA3E0FEA3E0FFEC4D4E4F60769061
:104B95000343E0FCA3E0FDA3E0FEA3E0FF90035484
:104BA500E0F8A3E0F9A3E0FAA3E0FBEF2BFFEE3A70
:104BB500FEED39FDEC38FC9003431226C090033C12
:104BC500E0FCA3E0FD7F01124AB88F0D900343E09E
:104BD500FCA3E0FDA3E0FEA3E0FF900354E0F8A3EF
:104BE500E0F9A3E0FAA3E0FBC3EF9BFFEE9AFEED2D
:104BF50099FDEC98FC9003431226C0E50D60061262
:0A4C05005ADAAF0D22C20D7F002223
:10508000124449EF600564B1600122EF60119003A2
:10509000601226E500000000124449EF6001221270
:1050A0004B65EF600122900360E0FCA3E0FDA3E00C
:1050B000FEA3E0FF9003471226C0124763EF600192
:1050C0002290034FE0250CF50990034EE0350BF5D7
:1050D00008F583E509241CF582E43583F58312265F
:1050E000E501000000900347E0FCA3E0FDA3E0FE23
:0A50F000A3E0FF125B5812500022EB
:0850FA007FFF7EFF7DFF7CFFBC
:105102008F118E108D0F8C0E90034CE0FCA3E0FDEE
:105112004C7002FF22CFEDCFCEECCEE4FCFD90032B
:1051220069E0F8A3E0F9A3E0FAA3E02FFFEA3EFE6C
:10513200ED39FDEC38FC124771EF600122E50C24D9
:10514200E8FFE50B3401FE125B24EF2511FFEE357B
:1051520010FEED350FFDEC350EFC125B58E50C240C
:10516200E8F582E50B3401F5831226C012502C2299
:10549900C20BE50AC39414404A124763EF60012224
:1054A90090034FE0250CF50990034EE0350BF50804
:1054B900F583E509240BF582E43583F583E020E4DF
:1054C90022900365E0FCA3E0FDA3E0FEA3E0FF1248
:1054D9005B58E509241CF582E43508F5831226C0DA
:0654E90002502C7F00229E
:1051E900AF0AEFC3941250037FB422EFB412469072
:1051F900036FE06403603E900342E0FF7401C8EF6F
:10520900C8088002C333D8FC900337F0900350E0FC
:10521900F8A3E0F9A3E0FAA3E0FB90037EE0FFE442
:10522900FCFDFEEB2FFFEE3AFEED39FDEC38FC906C
:1052390003501226C0AF0AEFD394134009EFB414F8
:10524900077823E67002C20B300B07125499EF60FE
:06525900012212593C2263
:1049E000E50AC394135007122000EF600122125908
:1049F0003CEF600122124763EF60012290034EE01A
:104A0000FEA3E0250CF582E50B3EF58374E5F0127C
:104A1000502CEF600122900347E0F50EA3E0F50F64
:104A2000A3E0F510A3E0F511E50E450F4510451183
:104A3000700241B5900347E0FCA3E0FDA3E0FEA3B4
:104A4000E024FFFFEE34FFFEED34FFFDEC34FFFC0D
:104A50009003471226C09003601226E50000000074
:104A6000900338E50EF0A3E50FF0A3E510F0A3E501
:104A700011F07F01122C40EF600122900360E0FCF6
:104A8000A3E0FDA3E0FEA3E02401FFE43EFEE43D3D
:104A9000FDE43CFC9003601226C0300EC3124B654F
:104AA000EF600122900360E0FCA3E0FDA3E0FEA321
:084AB000E0FF0251027F002229
:1038000012200090034BEFF070091249E0EF7002B4
:1038100021692290034BE0FF64426001229003364D
:10382000E0FEC390034FE0940090034EE09E5002F0
:103830002169900347E0700EA3E0700AA3E07006D0
:10384000A3E07002210D122C2AEF600122200E024B
:103850002169900347E0FCA3E0FDA3E0FEA3E0FFA5
:103860009003601226C0125AC3EF600122900347F2
:10387000E0FCA3E0FDA3E0FEA3E0FF9003381226E6
:10388000C07F02122C40EF600122124B65EF6001F5
:1038900022AF0CAE0B900336E0FDED6012E4FC8F1E
:1038A000828E83E4F00FBF00010EDCF31D80EBE499
:1038B00090034BF01253EAE490034EF0A3F0900310
:1038C00043E0FCA3E0FDA3E0FEA3E0FF900376123B
:1038D00026C0900337E0F50EE50E602A12502CEF5B
:1038E000600122900343E0FCA3E0FDA3E0FEA3E01F
:1038F0002401FFE43EFEE43DFDE43CFC9003431262
:1039000026C0150E80D21250FAEF605D2290037E21
:10391000E090034BF090037674FF122681124771FA
:10392000EF600122E490034EF0A3F0900336E0FE36
:1039300090034EE0FCA3E0FDC39400EC9E501FE515
:103940000C2DF582E50B3CF583E064E5601B9003EC
:103950004FE02420F090034EE03400F080CD90033F
:103960004BE014F070AF7FB222900347E0FCA3E07D
:10397000FDA3E0FEA3E0FF9003601226C0E5B15472
:10398000D064C060037F1122125AC3EF600122127B
:103990004B65EF600122900360E0FCA3E0FDA3E033
:1039A000FEA3E0FF9003471226C01250FAEF600119
:1039B00022124763EF60012290034FE0250CF509C6
:1039C00090034EE0350BF508E4FFEFC3940B500471
:1039D0007E2080027E00E5092FF582E43508F5831C
:1039E000EEF00FEFB420E3E5092418F582E4350882
:1039F000F5837421F0A37430F0E509241CF582E40A
:103A00003508F5837401F0E4FFEFC3940B50319057
:103A1000037AE0F8E6FE6028EEB42E087F089003F3
:103A20007AE004F090037AE0F8E6FEE5092FF582EB
:103A3000E43508F583EEF00F90037AE004F080C9D6
:103A4000900347E0FCA3E0FDA3E0FEA3E0FF125BD0
:103A500058125000EF600122900347E0FCA3E0FD04
:103A6000A3E0FEA3E0FF9003601226C0900365125E
:103A700026E50000000090037F1226E5000000000C
:0D3A8000E490034BF07D147F10125940229A
:101C9E00D20B900336E0FE900342E0FDE4C8EDC89F
:101CAE00088005C333CE33CED8F924FFFFEE34FFC0
:101CBE00FEE4FCFD900365E0F8A3E0F9A3E0FAA3CF
:101CCE00E02FFFEA3EFEED39FDEC38FC900342E0DA
:101CDE002512F9F81226409003B91226C090037F00
:101CEE00E0FCA3E0FDA3E0FEA3E0FFC8E9C81226D6
:101CFE00409003381226C0900338E0FCA3E0FDA309
:101D0E00E0FEA3E0FF9003B9E0F8A3E0F9A3E0FA48
:101D1E00A3E0FBD312262F402D9003B9E0FCA3E0E5
:101D2E00FDA3E0FEA3E0FF900338E0F8A3E0F9A3E3
:101D3E00E0FAA3E0FBEF9BFFEE9AFEED99FDEC9827
:101D4E00FC9003B98011900347E0FCA3E0FDA3E0F3
:101D5E00FEA3E0FF9003601226C0900347E07029B7
:101D6E00A3E07025A3E07021A3E0701D900365E051
:101D7E00FCA3E0FDA3E0FEA3E0FFEC4D4E4F70028E
:101D8E00FF22125080EF601F22900365E0FCA3E05B
:101D9E00FDA3E0FEA3E0FFEC4D4E4F700A9003B999
:101DAE001226E500000001900360E0FCA3E0FDA315
:101DBE00E0FEA3E0FF78231226B49003B9E0FCA363
:101DCE00E0FDA3E0FEA3E024FFFFEE34FFFEED34C2
:101DDE00FFFDEC34FFFC9003B91226C0900360E0C7
:101DEE00FCA3E0FDA3E0FEA3E0FF9003381226C0A3
:101DFE0078271226B4E4FF122C40EF600122200E49
:101E0E0002C1A09003B9E0700CA3E07008A3E070CB
:101E1E0004A3E060067E007F0180047E007F00EF59
:101E2E004E700E78231226669003601226C07F0035
:101E3E00229003B9E0FCA3E0FDA3E0FEA3E0FF12B5
:101E4E002621125102EF600122900360E0FCA3E014
:101E5E00FDA3E0FEA3E0FF78271226B4125AC3EFCB
:101E6E0060012278271226669003381226C07F0260
:101E7E00122C40EF6001229003B974FF122681EC00
:101E8E004D4E4F70C478231226669003601226C002
:101E9E00E13C9003B9E06002A1C8A3E06002A1C8D2
:101EAE00A3E06002A1C8A3E06002A1C878271226B1
:101EBE00668F118E108D0F8C0E900338E50EF0A3E9
:101ECE00E50FF0A3E510F0A3E511F07F01122C4011
:101EDE00EF6001229003B9E0FCA3E0FDA3E0FEA3B6
:101EEE00E02401FFE43EFEE43DFDE43CFC9003B93A
:101EFE001226C0300EC39003B9E0FCA3E0FDA3E0B0
:101F0E00FEA3E0FF125102EF600122900347E0FCB6
:101F1E00A3E0FDA3E0FEA3E0FF9003601226C090B5
:101F2E00037F1226E500000000E490034BF0124BF5
:021F3E0065221A
:10367C00E50AC3941350037FB422124763EF600131
:10368C0022C20090034FE0250CF50990034EE03563
:10369C000BF508782BE6FFE509240BF582E43508D9
:1036AC00F583E0F6EFF4600FE509240BF582E435C1
:1036BC0008F583EFF0D2007929E7F50F782AE6F5C3
:1036CC000EE5092416FFE43508FE125B4E7829EE50
:1036DC00F608EFF6E50FF47003E50EF46014E50957
:1036EC002416F582E43508F583E50EF0A3E50FF01A
:1036FC00D2007927E7F50F7828E6F50EE5092418AE
:10370C00FFE43508FE125B4E7827EEF608EFF6E57F
:10371C000FF47003E50EF46014E5092418F582E447
:10372C003508F583E50EF0A3E50FF0D200782312EF
:10373C0026668F118E108D0F8C0EE509241CFFE46C
:10374C003508FE125B2478231226B4E50E550F556E
:10375C00105511F46023AF11AE10AD0FAC0E9003E9
:10376C00651226C0125B58E509241CF582E4350865
:10377C00F5831226C0D200C20B30000302502C7FFE
:02378C00002219
:105B0300E4FF74232FF876FF0FEFB40AF512367C07
:015B1300226F
:10558E00E50A641460037FB422900347E0FCA3E0B5
:10559E00FDA3E0FEA3E0FF9003601226C090037F00
:1055AE001226E500000000900347E0700CA3E070A7
:1055BE0008A3E07004A3E06007E490034BF08006BC
:0E55CE0090034B74FFF07D157F14125940229C
:10525F00E50A6415600712558EEF60012290037FF7
:10526F00E0FCA3E0FDA3E0FEA3E0FF78271226B445
:10527F00782312266690037F1226C0900365E0F80C
:10528F00A3E0F9A3E0FAA3E0FBC312262F5014907A
:10529F000365E0FCA3E0FDA3E0FEA3E0FF90037F26
:1052AF001226C090037FE0FCA3E0FDA3E0FEA3E085
:0D52BF00FF125A3A78231226B4124800223A
:103A8D00E50A6415600712558EEF6001227823E672
:103A9D00FF08E67827CFF608EFF6E47823F608F668
:103AAD0090034BE0B4FF037F00227828E6184670A0
:103ABD0002A10490037FE0F8A3E0F9A3E0FAA3E0EC
:103ACD00FB900365E0FCA3E0FDA3E0FEA3E0C39B38
:103ADD00F511EE9AF510ED99F50FEC98F50EE50E42
:103AED00450F451045117002A104E50EF47002A1B9
:103AFD00041253EAE50E450F600674FFF510F5113B
:103B0D00D3E511782896E51018964007E6F51008CC
:103B1D00E6F511900336E0FDFEC3E5119400E510C6
:103B2D009E500261FA900382E0600261FAED14FF8B
:103B3D00900381E05F600261FAE510FFE51224F861
:103B4D00FEEFC8EEC8088002C313D8FCFF75100045
:103B5D008F1190034BE0FF900337E0C39FFFAE1131
:103B6D00EED39F40057510008F11AF117926E778C0
:103B7D002426FD19E71836FC124C0FEF600122AF19
:103B8D001190034BE02FF0AF11E51224F8FEEFC8B2
:103B9D00EEC8088002C333D8FC751100F5109003F0
:103BAD007FE0F8A3E0F9A3E0FAA3E0FBAE10AF11BC
:103BBD00E4FCFDEB2FFFEA3EFEED39FDEC38FC9009
:103BCD00037F1226C0C37828E69511F618E69510E6
:103BDD00F67824E51126F618E51036F6900337E051
:103BED00FF90034BE0C39F500241B781C190033654
:103BFD00E0FD24FFFFEFFE900381E0FAA3E0FBEE72
:103C0D005AFAEDFEC3E49BFFEE9AFED3E5119FE554
:103C1D00109E40048E108F11124777EF6001229095
:103C2D000336E024FFFFEFFE900381E0FCA3E0FDEF
:103C3D00EE5CFEED250CFFEE350BFE7926E77824C4
:103C4D0026FD19E71836FCAB11AA1012595F900327
:103C5D007FE0F8A3E0F9A3E0FAA3E0FBAE10AF110B
:103C6D00E4FCFDEB2FFFEA3EFEED39FDEC38FC9058
:103C7D00037F1226C0C37828E69511F618E6951035
:103C8D00F67824E51126F618E51036F6900382E055
:103C9D00600241B7900336E014FF900381E05F604E
:103CAD000241B7900337E0FF90034BE004F0C39F50
:103CBD00500241B7900360E0FCA3E0FDA3E0FEA33A
:103CCD00E0FF9003381226C0E4FF122C40EF600194
:103CDD0022300E1C90034B74FFF090037FE0FCA389
:103CED00E0FDA3E0FEA3E0FF9003651226C0800770
:0A3CFD00E490034BF041B77F002272
:10287D00E50A6415600712558EEF6001227823E694
:10288D00FE08E6FF7827EEF6FE08EFF64E700630EE
:10289D000B03025499E47823F608F67828E61846D7
:1028AD007002811D90034BE0F460022158900347A4
:1028BD00E0700CA3E07008A3E07004A3E0605DE598
:1028CD000AB4120B90036FE0640360037FB1229092
:1028DD000360E0FCA3E0FDA3E0FEA3E0FF90037F17
:1028ED001226C0125AC3EF60012290037FE0FCA3B1
:1028FD00E0FDA3E0FEA3E0FF9003381226C07F02A7
:10290D00122C40EF60012290033CE0650B7004A394
:10291D00E0650C700E124B65EF600822125080EFCF
:10292D006001227FFF7EFF7DFF7CFF125102EF6071
:10293D000122900365E0FCA3E0FDA3E0FEA3E0FF10
:10294D0090037F1226C0E490034BF01253EA9003DC
:10295D0036E024FFFFEFFE900381E0FCA3E0FDEEE7
:10296D005CFC90034BE0FF900337E0C39FFF7E00BC
:10297D00E51224F8FBEFC8EBC8088005C333CE334E
:10298D00CED8F9FEC3E49DF50FEE9CF50ED3E50F01
:10299D00782896E50E18964007E6F50E08E6F50F31
:1029AD00900336E0FDFEC3E50F9400E50E9E500248
:1029BD0041A7900382E0600241A7ED14FF900381CF
:1029CD00E05F600241A7E50EFFE51224F8FEEFC8B7
:1029DD00EEC8088002C313D8FCFF750E008F0FAF31
:1029ED000F7926E7782426FD19E71836FC124AB828
:1029FD00EF600122AF0F90034BE02FF0AF0FE51208
:102A0D0024F8FEEFC8EEC8088002C333D8FC750F5A
:102A1D0000F50E90037FE0F8A3E0F9A3E0FAA3E040
:102A2D00FBAE0EAF0FE4FCFDEB2FFFEA3EFEED39E2
:102A3D00FDEC38FC90037F1226C0C37828E6950F75
:102A4D00F618E6950EF67824E50F26F618E50E36FF
:102A5D00F690037FE0FCA3E0FDA3E0FEA3E0FF9072
:102A6D000365E0F8A3E0F9A3E0FAA3E0FBC31226A7
:102A7D002F501690037FE0FCA3E0FDA3E0FEA3E042
:102A8D00FF9003651226C0D20B900337E0FF900331
:102A9D004BE0C39F500201A861EE900336E0FD2488
:102AAD00FFFFEFFE900381E0FAA3E0FBEE5AFAED93
:102ABD00FEC3E49BFFEE9AFED3E50F9FE50E9E400D
:102ACD00048E0E8F0F900382E0702F900336E0146A
:102ADD00FF900381E05F702290037FE0FCA3E0FD97
:102AED00A3E0FEA3E0FF900365E0F8A3E0F9A3E007
:102AFD00FAA3E0FBD312262F4007124777EF6001B0
:102B0D00227926E7782426FF19E71836FEEEC0E075
:102B1D00EFC0E0900336E024FFFFEFFE900381E06D
:102B2D00FCA3E0FDEE5CFEED250CFDEE350BFCD0BF
:102B3D00E0FFD0E0FEAB0FAA0E12595F90037FE0CD
:102B4D00F8A3E0F9A3E0FAA3E0FBAE0EAF0FE4FCAF
:102B5D00FDEB2FFFEA3EFEED39FDEC38FC90037FD7
:102B6D001226C0C37828E6950FF618E6950EF6786E
:102B7D0024E50F26F618E50E36F612502CEF6001FF
:102B8D002290037FE0FCA3E0FDA3E0FEA3E0FF9015
:102B9D000365E0F8A3E0F9A3E0FAA3E0FBC3122676
:102BAD002F501690037FE0FCA3E0FDA3E0FEA3E011
:102BBD00FF9003651226C0D20B900382E0600201E4
:102BCD00A8900336E014FF900381E05F600201A836
:102BDD00900337E0FF90034BE004F0C39F500201D8
:102BED00A8900360E0FCA3E0FDA3E0FEA3E0FF904E
:102BFD0003381226C0E4FF122C40EF600122300E84
:102C0D000890034B74FFF001A8E490034BF001A86A
:0D2C1D00300D07124B65EF6001227F002291
:105B24008F828E83E0FFA3E0FEA3E0FDA3E0FC22CE
:0A5B4E008F828E83E0FFA3E0FE22A9
:075B5800EFCCFFEECDFE22B1
:105A3A00C3E4CC13CD13CE13FFE51224F7600DF89F
:0D5A4A00C3ED13FDEE13FEEF13FFD8F422A1
:105A5700C3E4CF33CE33CD33FCE51224F7600DF822
:0D5A6700C3EE33FEED33FDEC33FCD8F4222A
:10595F0005A28D828C8315A28F828E837F00EA60D1
:10596F0007E0A3A5DFFBDAF9EB6005E0A3A5DBFBFE
:01597F002205
:03000000024E8E1F
:0C4E8E00787FE4F6D8FD758142024ED515
:10249B00E709F608DFFA8046E709F208DFFA803E23
:1024AB0088828C83E709F0A3DFFA8032E309F60810
:1024BB00DFFA8078E309F208DFFA807088828C8378
:1024CB00E309F0A3DFFA806489828A83E0A3F6082C
:1024DB00DFFA805889828A83E0A3F208DFFA804C06
:1024EB0080D280FA80C680D4806980F280338010DD
:1024FB0080A680EA809A80A880DA80E280CA803346
:10250B0089828A83ECFAE493A3C8C582C8CCC583BD
:10251B00CCF0A3C8C582C8CCC583CCDFE9DEE7808D
:10252B000D89828A83E493A3F608DFF9ECFAA9F00C
:10253B00EDFB2289828A83ECFAE0A3C8C582C8CC62
:10254B00C583CCF0A3C8C582C8CCC583CCDFEADE7B
:10255B00E880DB89828A83E493A3F208DFF980CCDD
:10256B0088F0EF60010E4E60C388F0ED2402B404D6
:10257B000050B9F582EB2402B4040050AF2323457D
:06258B0082239024EB7393
:10259100BB010689828A83E0225002E722BBFE0248
:0925A100E32289828A83E493227B
:1025AA00BB010CE58229F582E5833AF583E02250E6
:1025BA0006E92582F8E622BBFE06E92582F8E22230
:0D25CA00E58229F582E5833AF583E493224A
:1025D700BB010989828A83F8E028F022500327F794
:1025E70022BBFE05F8E328F3228A838982F8E49365
:0225F700282298
:1025F900BB010689828A83F0225002F722BBFE01C1
:02260900F322BA
:10260B00C5F0F8A3E028F0C5F0F8E582158270025A
:06261B001583E038F022F7
:0E262100C3E49FFFE49EFEE49DFDE49CFC22CA
:10262F00EB9FF5F0EA9E42F0E99D42F0E89C45F001
:01263F002278
:10264000E8600FECC313FCED13FDEE13FEEF13FF78
:03265000D8F1229C
:10265300E8600FEFC333FFEE33FEED33FDEC33FCE5
:03266300D8F12289
:0C266600E6FC08E6FD08E6FE08E6FF22A0
:0D267200E6FB08E6F908E6FA08E6CBF822D8
:10267F007401FF3395E0FEFDFCA3A3A3E02FFFF051
:10268F00E582158270021583E03EFEF0E582158229
:10269F0070021583E03DFDF0E5821582700215830F
:0526AF00E03CFCF022FC
:0C26B400ECF608EDF608EEF608EFF62252
:0C26C000ECF0A3EDF0A3EEF0A3EFF0228D
:1026CC00D083D082E493F608740193F608740293D5
:0926DC00F608740393F67404730C
:1026E500A8828583F0D083D0821226FC1226FC12A4
:1026F50026FC1226FCE473E493A3C583C5F0C583C9
:10270500C8C582C8F0A3C583C5F0C583C8C582C83E
:0127150022A1
:0C271600A42582F582E5F03583F58322CE
:10331700E5172411F582E43403F583E005172290BD
:10332700030E300903900311E475F00112283702E8
:1033370025912002E97F2ED2028018EF540F2490A6
:10334700D43440D4FF30060BEF24BFB41A00500327
:103357002461FFE51860021518051BE51B700205BF
:103367001A30090E90030EE475F001122837EF02A8
:1033770025F90258CC7403D2098003E4C209F51772
:1033870090030E12284EE4F518F51AF51BE51860A0
:10339700077F2012335A80F57519FFC203C202C294
:1033A70004C205C207C208C20A123326FF700D30D5
:1033B70009057F0012336BAF1BAE1A22B4255FC21B
:1033C700D5C206123326FF24D0B40A00501A75F06E
:1033D7000A781830D50508B6FF0106C6A426F620D8
:1033E700D5047002D20580D924CFB41A00EF500457
:1033F700C2E5D20602356CD20380C6D20280C0D2A3
:103407000480BCD2D580BAD20780B47F2012335A49
:103417002004077401B5180040F1123317FF123367
:103427005A023394D20AD2088095123317FB12330B
:1034370017FA123317F94A4B7006793D7A367BFF34
:1034470020042EE518602A7E008E827583001225DF
:10345700AA60060EEE651970F0C2D5EBC0E0EAC0AF
:10346700E0E9C0E0EE1235B3D0E0F9D0E0FAD0E001
:10347700FB122591FF60AAEBC0E0EAC0E0E9C0E0DB
:1034870012335AD0E02401F9D0E03400FAD0E0FB3F
:10349700E5190460DCD519D980877BFF7A3579AFC8
:1034A700D204809C791080027908C208C20A800879
:1034B700D2D5790A8004790AC2D5E519047002F5D4
:1034C70019E4FAFDFEFF123317FC7B0820031312E1
:1034D7003317FD7B1030020A123317FE123317FF22
:1034E7007B20EC3382D592D55013C3E43002069F7C
:1034F700FFE49EFEE42003039DFDE49CFCE4CBF87F
:10350700C203EC700CCFCECDCCE824F8F870F38072
:1035170017C3EF33FFEE33FEED33FDEC33FCEB3334
:10352700FB994002FB0FD8E9EB300305F8D0E0C464
:1035370048B203C0E00AEC4D4E4F78207B0070C2C2
:10354700EAB5190040BCC0E01235B5D0F0D0E02094
:103557000304C4C0E0C4B203C0F0123343D0F0D5B3
:10356700F0EB02339412285734315334AB583402FA
:103577004C33FE4234AF4F34B74434B74934174362
:0835870034BD5534A14634A106
:10358F004534A147365D5034062D340A2E342D2B89
:10359F00340E23342B2036462A33C64800003425F8
:1035AF003F3F3F00790AA2D5200514300709B91013
:1035BF00020404B9080104A2D52008025001042016
:1035CF0004689204B518005034C0E07F203005190C
:1035DF007F30A20472087207500F12360CC204C259
:1035EF0008C207C20A7F30800F300703E9C0E0121C
:1035FF00335A300703D0E0F9D0E0B518CC300717B5
:10360F007F30B9100C12335A7F583006077F7880FD
:10361F0003B9080312335A3004057F2D02335A7F42
:10362F0020200AF87F2B2008F322920480CF286EE7
:10363F00756C6C2900D2031233173003F8C203786C
:10364F001830D50108F60233C62D504349581233AE
:10365F00172403B405004001E49036589312334BFE
:0D366F00743A12334BD2057518040234ABC7
:10272200E709F60870FA8046E709F20870FA803E77
:1027320088828C83E709F0A370FA807EE309F608A9
