:1006D60048554220302064657620696E0A004855E8
:1006E60042203020646576206F75740A00485542B2
:1006F60020312064657620696E0A00485542203113
:1007060020646576206F75740A00526573657420DF
:10071600726F6F7420687562202531642320706FB4
:1007260072740A0044697361626C6520726F6F743B
:1007360020687562202531642320706F72742062F0
:10074600656361757365206F6620646973636F6E98
:100756006E6563740A004765744465764465736321
:10076600723A2000782530325820000A0047657416
:1007760043666744657363723A20005553422D44BD
:1007860069736B2052656164790A004849443A20CE
:1007960025303278004765744849445265706F7257
:1007A600743A20005553422D4B6579626F6172642D
:1007B6002052656164790A005553422D4D6F757359
:1007C600652052656164790A00476574487562441C
:1007D600657363723A20004578742D48554220505F
:1007E6006F72745F2531642320706F776572206F96
:1007F6006E206572726F720A004578742D485542F4
:1008060020506F72745F2531642309636C656172D1
:1008160020636F6E6E656374696F6E206572726FAA
:10082600720A0064765F636C733D253032782C69FA
:10083600665F636C73203D253032780A00253032BE
:10084600782000766964207069643A253032782011
:10085600253032780A00414F41204D6F64650A0009
:10086600496E6974526F6F744465762045727220C2
:100876003D20253032580A00456E756D416C6C522C
:100886006F6F744465760A00526F6F7448756249DB
:100896006E64657820253032780A00496E697420C6
:1008A60064657620404578744875622D706F727461
:1008B6005F253164200040526F6F745F2531640AF2
:1008C6000055485F5345545550203D2047657444B4
:1008D600657644657363723A202530327800546831
:1008E60069732070726F6772616D20646F6E277412
:1008F60020737570706F7274204C6576656C20324B
:10090600204855420A00496E69744465764F6E4820
:10091600756220457272203D20253032580A004506
:100926006E756D487562506F72740A00466F756E0B
:10093600642066756C6C20737065656420646576EA
:10094600696365206F6E20706F7274202531640AAA
:1009560000466F756E64206C6F77207370656564F2
:1009660020646576696365206F6E20706F727420EF
:100976002531640A00526573657420706F727420A5
:10098600616E64207468656E207761697420696E93
:100996000A00446576696365206F6E20706F727415
:1009A600206572726F720A00446576696365206F0E
:1009B6006E20706F7274202531642072656D6F76BB
:1009C60065640A00456E756D416C6C487562506FC2
:1009D60072740A00456E756D416C6C487562506F95
:1009E600727420657272203D20253032580A0053F9
:1009F6007461727420404368697049443D25303201
:100A0600580A005761697420446576696365204910
:100A16006E0A00456E756D416C6C526F6F7444655D
:100A26007620657272203D20253032580A007265A4
:100A3600637620646174613A200073656E64206297
:100A460061636B0A007472616E736D6974206572FE
:100A5600726F7220253032780A006E6F20696E74CC
:100A660065727275707420656E64706F696E740A53
:100A7600008006000100001200800600020000044B
:100A86000000050200000000000009000000000050
:100A960000210A000000000000010B000000000019
:100AA600000201000000000000A006002900000965
:100AB600008106002200004100C033000000000251
:100AC60000403500000000000000041023273543D5
:100AD600574348005743485541525444656D6F008B
:100AE600574348204163636573736F727920546579
:100AF600737400312E3000687474703A2F2F776348
:100B0600682E636E005743484163636573736F7263
:100B16007931004034000000000400403400000138
:100B2600000C0040340000020013004034000003B3
:100B36000004004034000004000E004034000005AC
:0B0B4600000E00210A0000000000006B
:042525007FC87E00ED
:0E252900EF4E600905A1EF1F70F61E80F32231
:10250C00CDEFCDCCEECCED4C600E7FE87E031225EA
:09251C0029ED1D70F11C80EE2276
:1023E000EF75F00CA42471F582E43401F583E4F078
:1023F000EF75F00CA42472F582E43401F583E4F067
:0C240000EFB40104E4F5E522E4F5E42269
:101DCB00E490018FF0E5DB30E327900171E06005D3
:101DDB00E5E420E03CE4FF1223E09001717401F094
:101DEB007BFF7A0679D6120F2990018F7415F0803C
:101DFB0020900171E0C394014017E4FF1223E07BB4
:101E0B00FF7A0679E4120F2990018FE070037416A4
:101E1B00F0E5DB30E72790017DE06005E5E520E0AC
:101E2B003C7F011223E090017D7401F07BFF7A0669
:101E3B0079F3120F2990018F7415F0802090017D9A
:101E4B00E0C3940140177F011223E07BFF7A0779EF
:101E5B0001120F2990018FE070037416F090018F1F
:021E6B00E0FF96
:011E6D002252
:0C254500EF547FFFE5E354804FF5E322E4
:0E253700EF600753E2BF53D27F2243E24022FF
:10213000CEEFCE9001487408F0E4FF122545EE750D
:10214000F00CA42472F582E43401F583E4F0EEB4DB
:102150000105E4F5E58003E4F5E47F01122537EE9F
:10216000B40114E5E554FB4402F5E57F0F7E00124F
:10217000250C53E5FD8012E5E454FB4402F5E47FB1
:102180000F7E0012250C53E4FD7FFA7E00122529F4
:03219000C2D82290
:101EFB00EF75F00CA42471F582E43401F583E0C393
:101F0B0094015011EF75F00CA42471F582E43401A7
:101F1B00F5837401F0EF64017025E5DB30E745E5EF
:101F2B00E520E015E5DB30E6047F0080027F0190C1
:101F3B00017FEFF0700343E50443E5017F0022E5E9
:101F4B00DB30E320E5E420E015E5DB30E2047F0045
:101F5B0080027F01900173EFF0700343E40443E4CC
:071F6B00017F00227F162216
:101E6E00CCEFCCED6057EC75F014A42445F582E46C
:101E7E003401F58375F005ED121A41E0FF12254588
:101E8E00EC75F014A42446F582E43401F58375F064
:101E9E0005ED121A41E0FF122537EC75F014A4245B
:101EAE0046F582E43401F58375F005ED121A41E032
:101EBE00703143D2807F64FE1225298026EC75F0A6
:101ECE000CA42472F582E43401F583E0FF1225455B
:101EDE00EC75F00CA42473F582E43401F583E0FF75
:0D1EEE00122537EC6003D38001C3920A2255
:1024F2007FC87E0020D909EF1F70011EEF4E70F4D5
:0925020030D9047F0080027FFE45
:01250B0022AD
:081BE9009001B0EFF0C9EDC955
:101BF10089D489D6E4A3F09001B0E0F5D5C2D97FAC
:101C0100C87E0020D909EF1F70011EEF4E70F4E469
:101C1100F5D520D9037FFE2220D903021CC330DE73
:101C2100037F0022E5D9540FFFB40E03021CBCEF61
:101C3100B40A1CEB4A70028074C3EB94FFEA94FF70
:101C41005005EB1B70011A9001B1E014F080769001
:101C510001B0E0C4540F24F7602524FC6004240C77
:101C6100705D30DE037F0022EFB402037F0022EFBC
:101C7100640E6004EFB40A028033EF6048803C30A8
:101C8100DE037F0022E9600CEFB40B047E01800EBD
:101C91007E00800AEFB403047E0180027E00EE60C4
:101CA100037F0022EF640E6004EFB40A03EF800BA0
:101CB100EFB40304640B600DEF600A4420FF227F40
:101CC100FE2275D8FF7F0F7E001225299001B1E019
:0C1CD10004F0C394035003021BF87F20B2
:011CDD0022E4
:1016C4001224579001A37401F0A37401F07497A33A
:0716D400F07B017A00798030
:1016DB00E49001A6F0A3F09001AAEBF0A3EAF0A32B
:1016EB00E9F09001A3E0F9A3E0FAA3E09001ADC902
:1016FB00F0A3EAF0A3E9F01225259001ADE0FBA3DE
:10170B00E0FAA3E0F9EA494B6004E4121A1975D721
:10171B00087B107A27E4FD7FD0121BE99001A8EF1C
:10172B00F06003E0FF2275D6D075D4D075D7019049
:10173B000047E0FE900046E0FDEDFF9001A6EEF0C5
:10174B00A3EFF04E70030218B99001AAE0FBA3E0DF
:10175B00FAA3E0F9EA494B70030218B9900040E094
:10176B0020E70302181E9001A6E07002A3E07003AD
:10177B000218181225257B107A27ADD47F90121BE7
:10178B00E99001A8EFF0E0FF600122AFD19001A634
:10179B00E0FCA3E0FDD39FEC94004004AFD18003A9
:1017AB00CFEDCF9001A9EFF0E0FFC39001A7E09F31
:1017BB00F09001A6E09400F09001ADE0FBA3E0FAFD
:1017CB00A3E0F9EA494B6004EF1219F7E4FF90012B
:1017DB00A9E06F602874002FF582E43400F583E0F4
:1017EB00FE9001AAE0FBA3E0FAA3E0F9EE121A19AE
:1017FB009001ABE475F001121A2B0F80D1E5D1608B
:10180B000C900148E01455D17003021771E4F5D721
:10181B000218B99001A6E07002A3E070030218B998
:10182B00122525900148E0FFFD9001A6E0FAA3E008
:10183B00FBC39DEA940040028003CFEBCF8FD7E42C
:10184B00FFEF65D760289001AAE0FBA3E0FAA3E0C5
:10185B00F91219DEFE74402FF582E43400F583EEA5
:10186B00F09001ABE475F001121A2B0F80D37B10B3
:10187B007A27ADD67F10121BE99001A8EFF0E0FF9D
:10188B00600122AFD7C39001A7E09FF09001A6E0C3
:10189B009400F09001ADE0FBA3E0FAA3E0F9EA4974
:1018AB004B700302181EE5D71219F702181E1225EA
:1018BB0025E5D760047F9080027F107B107A277D0F
:1018CB00C0121BE99001A8EFF06003E0FF22E5D7FF
:0C18DB007002FF22E5D17002FF227F178F
:0118E70022DE
:10245700E4FD8F828E83E493FC74402DF582E4348F
:0F24670000F583ECF00FBF00010E0DEDB408E39C
:012476002243
:1022CE009001487408F07E0A7F771224579001A37C
:1022DE007401F0A37401F074971216D3EF6001220B
:1022EE00900087E0900148F0900A7DE493FF900102
:0B22FE0097E0C39F50037F17227F0072
:0123090022B1
:1020C5007E0A7F7F1224579001A3E4F0A37400F0E9
:1020D500A374081216D4EF600122900A85E493FEDA
:1020E500E508C39E50037F1722900082E0F5087E25
:1020F5000A7F7F122457900046E508F09001A3E47B
:10210500F0A37400F0A374081216D4EF60012290B6
:102115000A85E493FFE508C39F400A900082E0FF2B
:0A212500E5089F50037F17227F009A
:01212F00228D
:05230A00900197EFF0C7
:10230F007E0A7F87122457900197E0900042F09049
:10231F0001A3E4F0A3F0A3F0FBFAF91216DBEF60D0
:10232F000122900197E0FF1225457F0A7E001225BA
:03233F000C7F0010
:012342002278
:05243300900192E0FFA2
:10243800CBEFCB7E0A7F8F122457900042EBF090AF
:0F24480001A3E4F0A3F0A3F0FBFAF91216DB22D4
:10247700CBEFCB7E0A7F97122457900044EBF09066
:0F24870001A3E4F0A3F0A3F0FBFAF91216DB2295
:10249600CBEFCB7E0A7F9F122457900042EBF09041
:0F24A60001A3E4F0A3F0A3F0FBFAF91216DB2276
:1024B500CBEFCB7E0A7FA7122457900044EBF09018
:0F24C50001A3E4F0A3F0A3F0FBFAF91216DB2257
:101F720078987C017D017BFF7A0B79497E007F088E
:101F82001219B8E4FF74982FF582E43401F583E066
:101F9200FE74402FF582E43400F583EEF00FEFB4C7
:101FA20008E39001A37401F0A37401F0A3749712E3
:101FB20016D47E0A7FB71224579001A37401F0A3AE
:101FC2007401F0A374971216D4EF600122900A7D77
:101FD200E493FF900197E0C39F50037F17227F0095
:011FE20022DC
:1023AD007E0A7FAF1224579001A3E4F0A37400F0CE
:1023BD00A37408F07B017A0079401216DBEF6001FF
:1023CD0022900AB5E493FFE508C39F50037F1722BF
:0223DD007F007F
:0123DF0022DB
:0C2242007F017E0012250C9001C7E0FF18
:10224E0090004074A3F0A3E4F0A3F0A3F0A3EFF08A
:10225E00A3E4F0A37404F0A3E4F09001A3F0A3743C
:10226E0000F0A37408F07B017A0079401216DBEFC0
:0F227E00600122E508C3940450037F17227F00FC
:01228D00222E
:072343009001C7E0FF7D04DB
:10234A009000407423F0A37403F0A3EDF0A3E4F02B
:10235A00A3EFF0A3E4F0A3F0A3F0F99001A3C9F06E
:0F236A00A3F0A3E9F07B007A0079001216DB22C2
:052379009001C7E0FF28
:10237E009000407423F0A37401F0A3EDF0A3E4F0F9
:10238E00A3EFF0A3E4F0A3F0A3F0F99001A3C9F03A
:0F239E00A3F0A3E9F07B007A0079001216DB228E
:042193007E007F80CB
:10219700E4F9FC8F828E83A3A3E0FBECC39B50473B
:1021A700EF2CF582E43EF583A3E064057025EF2C60
:1021B700F582E43EF583A3A3A3E05403FBBB03131B
:1021C700EF2CF582E43EF583A3A3E030E705540F37
:1021D700F98014EF2CF582E43EF583E0FDD39410EB
:0A21E7005005ED2CFC80ACCFE9CFD1
:0121F10022CB
:0B1AEC00900197EEF0A3EFF0A3EDF0E7
:101AF700E4A3F0A37402F07E007F04EEC0E0EFC021
:101B0700E07D00900199E075F00CA42479F9740147
:101B170035F0FA7B01D0E0FFD0E0FE121A4DE4FF6A
:101B2700900197E0FCA3E0FDF5828C83A3A3E0FE80
:101B3700EFC39E4003021BE6ED2FF582E43CF583DD
:101B4700A3E064057078900197A3E02FF582E43C49
:101B5700F583A3A3A3E0540364027062ED2FF5821B
:101B6700E43CF583A3A3E030E708540FFE90019A05
:101B77008017900197E0FCA3E02FF582E43CF58302
:101B8700A3A3E0540FFE90019BE0FD04F0900199A0
:101B9700E075F00CA42479F582E43401F583E5823D
:101BA7002DF582E43583F583EEF090019AE0B402D7
:101BB700037401F090019BE0B404037403F09001F7
:101BC70097E0FCA3E02FF582E43CF583E090019CCD
:101BD700F0D39410500990019CE02FFF021B277F40
:011BE70000FD
:011BE80022DA
:101FE3007E0A7FBF1216C4EF600122900080E0C317
:101FF300940250037F4122E4900198F0900198E00D
:10200300FF900ACF93FBEF75F008A42419F582E43F
:10201300340BAF82FE12245774D62BF9E4340AFA38
:102023007BFF9001A37401F0A37401F0A37497F0F4
:102033001216DBEF600122900198E004F0E0C394F4
:102043000640B97E0A7FC71216C4EF6001227F00E3
:01205300226A
:0500030090018FEFF0F9
:10000800E4900195F0A3F07BFF7A07791090019AAC
:100018000200A1900196E0FFC3940A40030206D0B3
:10002800EF75F064A4FFAEF012250CE004F0900127
:100038008FE0FF122130E4900190F0A3F07F017E61
:100048000012250C90018FE0FF121EFBEF7021902B
:100058000190F0A3E004F0900196E075F00AA4FF87
:10006800900191E0D39FE5F06480F8748098500C7B
:10007800900190E004F0E0C3946440C1900190E0E6
:10008800602190018FE0FF1223E07BFF7A07792A35
:1000980090018FE0FF90019AE4F0A3EFF0120F298E
:1000A80002001B90018FE0FFE4FD121E6E7BFF7AB9
:1000B80007795C120F291222CE900191EFF06003AC
:1000C80002069E900190F0900A7DE493FF900190C3
:1000D800E0FEC39F50257BFF7A07796A74802EF56E
:1000E80082E43400F583E0FF90019AE4F0A3EFF096
:1000F800120F29900190E004F080CC7BFF7A0779F9
:1001080071120F29900089E0FE900088E07C00249D
:1001180000FFEC3EFE90018FE0FD75F00CA4247505
:10012800F582E43401F583EEF0A3EFF090008BE064
:10013800FE90008AE07A002400FFEA3EFEED75F0AA
:100148000CA42477F582E43401F583EEF0A3EFF0F4
:10015800900084E0900193F0900A89E493FF900165
:100168008FE02FFF12230A900191EFF0600302063F
:100178009E900A8993FF90018FE0FE2FFFEE75F0A5
:100188000CA42472F582E43401F583EFF07BFF7A46
:10019800077973120F291220C5900191EFF06003BF
:1001A80002069E900085E0900192F0E4900190F0A4
:1001B800900082E0FF900190E0FEC39F50257BFFF6
:1001C8007A07796A74802EF582E43400F583E0FFBB
:1001D80090019AE4F0A3EFF0120F29900190E00447
:1001E800F080CD7BFF7A077971120F2990008EE09D
:1001F800900194F0900193E07042A3E06408703C91
:10020800122433900191EFF0600302069E90018F53
:10021800E0FF75F00CA42471F582E43401F58374D1
:1002280003F0EF75F00CA42474F582E43401F5832F
:100238007408F07BFF7A077981020356900193E0F6
:100248006003020365A3E064036003020365900092
:100258008FE0D3940140030203651221939001912A
:10026800EFF0540FFF90018FE075F00CA42479F59E
:1002780082E43401F583EFF0900090E0900194F06F
:10028800122433900191EFF07BFF7A077991900166
:100298009AE4F0A3EFF0120F29900191E0600302B5
:1002A800069E7BFF7A07799B120F29121F72900115
:1002B80091EFF0703C900190F0900190E0FFC394B2
:1002C8004050257BFF7A07796A74802FF582E434E1
:1002D80000F583E0FF90019AE4F0A3EFF0120F29F4
:1002E800900190E004F080D17BFF7A077971120FBA
:1002F8002990018FE075F00CA42471F582E4340193
:10030800F5837403F07F0A122477900194E0B40116
:100318001C90018FE075F00CA42474F582E434017C
:10032800F5837423F07BFF7A0779AA8021900194E2
:10033800E0B4022090018FE075F00CA42474F582DB
:10034800E43401F5837433F07BFF7A0779BE120F2A
:100358002902069790019174FBF002069E90019382
:10036800E064096003020511122193900191EFF0F6
:10037800540FFF90018FE075F00CA4247AF582E405
:100388003401F583EFF07BFF7A0779CF120F29123A
:1003980023AD900191EFF0600302069E900190F06A
:1003A800900040E0FF900190E0FEC39F50257BFF46
:1003B8007A07796A74402EF582E43400F583E0FF09
:1003C80090019AE4F0A3EFF0120F29900190E00455
:1003D800F080CD7BFF7A077971120F29900042E0F7
:1003E800FF90018FE0FE75F00CA42479F582E434C7
:1003F80001F583EFF0EE75F00CA42479F582E4346E
:1004080001F583E0D394044011EE75F00CA424792F
:10041800F582E43401F5837404F0122433900191D9
:10042800EFF0600302069E90018FE0FF75F00CA4C8
:100438002471F582E43401F5837403F0EF75F00C50
:10044800A42474F582E43401F5837409F0900190D2
:100458007401F090018FE0FF75F00CA42479F58207
:10046800E43401F583E0FE900190E0D39E504DEF17
:1004780075F014A42444F582E43401F583C083C0E4
:1004880082900190E0FFD082D08375F005121A4166
:10049800E4F07D0812234A900191EFF060167BFF8B
:1004A8007A0779DD900190E0FF90019AE4F0A3EFDC
:1004B800F0120F29900190E004F080979001907459
:1004C80001F090018FE075F00CA42479F582E434F2
:1004D80001F583E0FE900190E0FFD39E50281222A0
:1004E8004E900191EFF060167BFF7A0779FF90013B
:1004F80090E0FF90019AE4F0A3EFF0120F29900129
:1005080090E004F080BC0206977BFF7A0879299076
:100518000193E0FF90019AE4F0A3EFF0900194E0DA
:10052800FF90019CE4F0A3EFF0120F297E007F807A
:1005380090018FE0FD121AECE4900190F090019088
:10054800E0FF640460367BFF7A08794390018FE00E
:1005580075F00CA42479F582E43401F583E5822F43
:10056800F582E43583F583E0FF90019AE4F0A3EF88
:10057800F0120F29900190E004F080C17BFF7A0708
:100588007971120F29122433900191EFF060030260
:10059800069E7BFF7A08794990018FE0FF75F00C81
:1005A800A42475F582E43401F583E0FDA3E090010D
:1005B8009ACDF0A3EDF0EF75F00CA42477F582E462
:1005C8003401F583E0FFA3E090019CCFF0A3EFF0A6
:1005D800120F2990018FE0FF75F00CA42475F582A5
:1005E800E43401F583E0FCA3E064D17003EC641803
:1005F800704AEF75F00CA42477F582E43401F58392
:10060800E0FEA3E47003EE642D70317BFF7A087975
:100618005C120F2990018FE0FF75F00CA42471F58E
:1006280082E43401F5837403F0EF75F00CA42474AC
:10063800F582E43401F58374F0F08053121FE390DF
:100648000191EFF07050900195E0C39403500DE0D4
:1006580004F07FF47E0112250C02001B900193E048
:10066800FF60028005900194E0FF90018FE0FE7525
:10067800F00CA42474F582E43401F583EFF0EE75F0
:10068800F00CA42471F582E43401F5837403F07F3F
:10069800011225371F227BFF7A087966900191E0C5
:1006A800FF90019AE4F0A3EFF0120F2990018FE078
:1006B80075F00CA42471F582E43401F5837402F01A
:0D06C8007F0112253702001B900191E0FF19
:0106D5002202
:1021F2007BFF7A08797E120F29E4780EF6780EE6D4
:10220200FFC3940250377BFF7A08798E90019AE4DB
:10221200F0A3EFF0120F29780EE6FF75F00CA4245C
:1022220071F582E43401F583E0B4010C1200037805
:0F2232000DEFF66003E6FF22780E0680C07F00F6
:01224100227A
:080B51009001BFEFF0A3EDF0ED
:100B59007BFF7A0879A1FF90019AE4F0A3EFF012E4
:100B69000F297BFF7A0879BC9001BFE0FF90019AB9
:100B7900E4F0A3EFF0120F299001C0E0FD70037FAC
:100B8900FE229001BFE0FF121E6E7BFF7A0879C733
:100B9900AFD290019AE4F0A3EFF0120F291222CEFE
:100BA9009001C2EFF06003E0FF22900084E0900121
:100BB900C4F09001BFE004C454F0FFA3E02FFF90FC
:100BC90001C3F012230A9001C2EFF06003E0FF2293
:100BD9009001C3E0FF9001BFE075F014A42445F52E
:100BE90082E43401F583C083C0829001C0E0D082E1
:100BF900D08375F005121A41EFF07BFF7A077973FC
:100C0900120F291220C59001C2EFF06003E0FF2204
:100C1900900085E09001C3F0E49001C1F09000825A
:100C2900E0FF9001C1E0FEC39F50257BFF7A077961
:100C39006A74802EF582E43400F583E0FF90019A0E
:100C4900E4F0A3EFF0120F299001C1E004F080CD88
:100C59007BFF7A077971120F2990008EE09001C508
:100C6900F09001C4E07061A3E06408705B9001C377
:100C7900E0FF1224389001C2EFF06003020E779072
:100C890001BFE0FF75F014A42444F582E43401F5B2
:100C990083C083C0829001C0E0FED082D08375F00A
:100CA90005121A417403F0EF75F014A42447F58274
:100CB900E43401F58375F005EE121A417408F07BEE
:100CC900FF7A077981020DB99001C4E06003020D32
:100CD900C1A3E064036003020DC190008FE0D394C7
:100CE900014003020DC11221939001C2EFF090015E
:100CF900BFE075F014A42448F582E43401F583C0FB
:100D090083C0829001C0E0D082D08375F005121AA9
:100D190041EFF0900090E09001C5F09001C3E0FF31
:100D29001224389001C2EFF06003020E779001BFE0
:100D3900E0FF75F014A42444F582E43401F583C07E
:100D490083C0829001C0E0FED082D08375F0051285
:100D59001A417403F09001C5E0B40120EF75F01455
:100D6900A42447F582E43401F58375F005EE121ADF
:100D7900417423F07BFF7A0779AA80349001C5E09A
:100D8900640270329001BFE075F014A42447F58223
:100D9900E43401F583C083C0829001C0E0D082D0E1
:100DA9008375F005121A417433F07BFF7A0779BE17
:100DB900120F29020E70804B9001C4E06409704B38
:100DC9009001BFE075F014A42447F582E43401F5DD
:100DD90083C083C0829001C0E0D082D08375F005C2
:100DE900121A417409F07BFF7A0879E4120F2990ED
:100DF90001C1E0FF7D0112237E9001C2EFF0600383
:100E0900E0FF229001C274FBF080639001C3E0FF10
:100E19001224389001C2EFF070549001BFE0FF75C1
:100E2900F014A42444F582E43401F583C083C0821C
:100E39009001C0E0FED082D08375F005121A41748A
:100E490003F09001C4E0FD600280059001C5E0FD5A
:100E5900EF75F014A42447F582E43401F58375F0A5
:100E690005EE121A41EDF07F011225371F227BFF93
:100E79007A09790C9001C2E0FF90019AE4F0A3EF9E
:100E8900F0120F299001BFE075F014A42444F582F3
:100E9900E43401F583C083C0829001C0E0D082D0E0
:100EA9008375F005121A417402F07F0112253790FB
:040EB90001C2E0FF93
:010EBD002212
:051223009001C6EFF090
:101228007BFF7A097925120F299001C77401F09084
:1012380001C6E0FF75F00CA42479F582E43401F5C9
:1012480083E0FE9001C7E0D39E4003021497E4FDBB
:10125800121E6E1222499001C8EFF06003E0FF22CF
:10126800900040E030E007900042E020E00B900062
:1012780042E0641060030213DD9001C6E0FE75F0E1
:1012880014A42444F582E43401F583C083C0829019
:1012980001C7E0FFD082D08375F005121A417401AE
:1012A800F0EE75F014A42445F582E43401F5837555
:1012B800F005EF121A41E4F012224E9001C8EFF047
:1012C8006003E0FF22900041E030E1047F008002EB
:1012D8007F019001C6E0FE75F014A42446F582E46F
:1012E8003401F583C083C0829001C7E0FDD082D06D
:1012F8008375F005121A41EFF0EE75F014A4244638
:10130800F582E43401F58375F005ED121A41E07BAE
:10131800FF60077A097932ED80087A0979579001D8
:10132800C7E0FF90019AE4F0A3EFF0120F297FC8FD
:101338007E0012250C1223439001C8EFF06003E0F1
:10134800FF227BFF7A09797B120F29122242900132
:10135800C8EFF06003E0FF22900040E020E4EC7F5B
:10136800647E0012250C7D141223799001C8EFF0D9
:101378007D101223799001C8EFF06003E0FF22127C
:1013880022499001C8EFF06003E0FF22900040E09E
:1013980020E0259001C6E075F014A42444F582E409
:1013A8003401F583C083C0829001C7E0D082D08326
:1013B80075F005121A41E4F09001C6E0FFA3E0FDC4
:1013C800120B519001C8EFF06003E0FF227F011279
:1013D800253702148E900042E030E1369001C7E0D4
:1013E800FF7D1112237E7BFF7A097998120F29124B
:1013F80023439001C8EFF06003E0FF2212224290DD
:1014080001C8EFF06003E0FF22900040E020E4EC28
:101418008074900040E020E06D9001C6E075F01403
:10142800A42444F582E43401F583C083C08290018A
:10143800C7E0FFD082D08375F005121A41E0C3944B
:101448000140117BFF7A0979AE90019AE4F0A3EF8D
:10145800F0120F299001C6E075F014A42444F58217
:10146800E43401F583C083C0829001C7E0FFD082D5
:10147800D08375F005121A41E4F0900042E030E0A4
:10148800057D1012237E9001C7E004F00212377F19
:011498000053
:011499002230
:102054007BFF7A0979CA120F29E49001C9F0900133
:10206400C9E0FF64026057EF75F00CA42471F58297
:10207400E43401F583E0C39403403B9001C9E07567
:10208400F00CA42474F582E43401F583E06409704F
:1020940025FD121E6E9001C9E0FF121223EF60119C
:1020A4007BFF7A0979DA90019AE4F0A3EFF0120F3A
:1020B400297F011225379001C9E004F080A07F0038
:0120C40022F9
:051CDE0090018FEFF002
:101CE300E4A3F0900190E0FF64027003021DC6EFCD
:101CF30075F00CA42474F582E43401F583E0FD90BF
:101D0300018FE0FFED6F701BA3E0FF75F00CA424BF
:101D130071F582E43401F583E0C394034005EF7F5A
:101D230000FE22ED64096003021DBD900190E07581
:101D3300F00CA42471F582E43401F583E0C3940329
:101D430040789001917401F0900190E0FF75F00CE0
:101D5300A42479F582E43401F583E0FE900191E057
:101D6300FDD39E5055EF75F014A42447F582E43457
:101D730001F58375F005ED121A41E0FF90018FE044
:101D8300FEEF6E702DA3E0FF75F014A42444F582DA
:101D9300E43401F583C083C082900191E0D082D006
:101DA3008375F005121A41E0C394034005EFFEED7D
:101DB300FF22900191E004F0808E900190E004F006
:071DC300021CE67EFF7FFF1A
:011DCA0022F6
:1024D400C29FD29EC29DD29C438780E589540F44FB
:0E24E40020F58943C9A0758DF3D28ED29922BE
:10228E00C2EA75E280E4F5E39024477448F09024A6
:10229E004C7400F0A37400F090244E7400F0A374FC
:1022AE0040F0E4F5D4F5D675E28975D24075D8FFC5
:0F22BE00FECFEECF1223E00EEEB402F575E10372
:0122CD0022EE
:10149A00E490018EF01224D47BFF7A0979F5AFA18A
:1014AA0090019AE4F0A3EFF0120F2912228EC209DA
:1014BA007BFF7A0A7909120F29E490018BF030D860
:1014CA000FC2D8121DCB90018BEFF0BF1502D209C3
:1014DA0030092D90018BE0B41526C2097FC87E0021
:1014EA0012250C1221F290018BEFF060137BFF7A28
:1014FA000A7919E0FF90019AE4F0A3EFF0120F299C
:10150A007FF0121CDECDEFCDCCEECCEDF47002EC08
:10151A00F460A6ECFF900189F0CEEDCE90018CEE3E
:10152A00F0121E6E90018CE0FF9001896019E0753F
:10153A00F014A42448F582E43401F58375F005EF2C
:10154A00121A41E0FF8010E075F00CA42479F582AC
:10155A00E43401F583E0FF90018DEFF0540F70033E
:10156A000216B3E0FE547F4490FFEE30E7047DC0DC
:10157A0080027D00E4FBFA121BE990018BEFF06018
:10158A000302169A90018DE06480F090018CE0FFCE
:10159A00601FA3E0FE900189E075F014A42448F5C9
:1015AA0082E43401F58375F005EF121A41EEF080FA
:1015BA001890018DE0FF900189E075F00CA4247960
:1015CA00F582E43401F583EFF090018CE5D1F0E087
:1015DA00604A7BFF7A0A7934120F29E490018AF073
:1015EA0090018CE0FF90018AE0FEC39F50257BFFAB
:1015FA007A07796A74002EF582E43400F583E0FFF5
:10160A0090019AE4F0A3EFF0120F2990018AE00406
:10161A00F080CD7BFF7A077971120F2990018CE057
:10162A00FF7E0078407C007D017B017A0079001200
:10163A0019B8900189E075F00CA4247BF582E43492
:10164A0001F583E090018DF0FE90018CE0F5D7EE74
:10165A00547F4410FFEE30E7047DC080027D0074A1
:10166A00FFFBFA121BE990018BEFF0704590018D98
:10167A00E06480FFF0900189E075F00CA4247BF50A
:10168A0082E43401F583EFF07BFF7A0A7940801F08
:10169A0090018BE0FF642A60197BFF7A0A794B90EC
:1016AA00019AE4F0A3EFF080067BFF7A0A796012D0
:0A16BA000F297F011225370214C327
:0300000002255185
:0C255100787FE4F6D8FD75812102149A11
:1018E800E709F608DFFA8046E709F208DFFA803EE2
:1018F80088828C83E709F0A3DFFA8032E309F608CF
:10190800DFFA8078E309F208DFFA807088828C8336
:10191800E309F0A3DFFA806489828A83E0A3F608EA
:10192800DFFA805889828A83E0A3F208DFFA804CC4
:1019380080D280FA80C680D4806980F2803380109B
:1019480080A680EA809A80A880DA80E280CA803304
:1019580089828A83ECFAE493A3C8C582C8CCC5837C
:10196800CCF0A3C8C582C8CCC583CCDFE9DEE7804C
:101978000D89828A83E493A3F608DFF9ECFAA9F0CB
:10198800EDFB2289828A83ECFAE0A3C8C582C8CC21
:10199800C583CCF0A3C8C582C8CCC583CCDFEADE3A
:1019A800E880DB89828A83E493A3F208DFF980CC9C
:1019B80088F0EF60010E4E60C388F0ED2402B40495
:1019C8000050B9F582EB2402B4040050AF2323453C
:0619D80082239019387310
:1019DE00BB010689828A83E0225002E722BBFE0207
:0919EE00E32289828A83E493223A
:1019F700BB010989828A83F8E028F022500327F780
:101A070022BBFE05F8E328F3228A838982F8E49350
:021A1700282283
:101A1900BB010689828A83F0225002F722BBFE01AC
:021A2900F322A6
:101A2B00C5F0F8A3E028F0C5F0F8E5821582700246
:061A3B001583E038F022E3
:0C1A4100A42582F582E5F03583F58322B0
:100EBE00E508249AF582E43401F583E005082290D2
:100ECE00019730070390019AE475F001121AA602F9
:100EDE0019DE2000E97F2ED2008018EF540F2490E7
:100EEE00D43440D4FF30040BEF24BFB41A005003A7
:100EFE002461FFE50960021509050CE50C70020579
:100F0E000B30070E900197E475F001121AA6EF024E
:100F1E001A1902240C7403D2078003E4C207F508E1
:100F2E00900197121ABDE4F509F50BF50CE5096071
:100F3E00077F20120F0180F5750AFFC201C200C2A1
:100F4E0002C203C205C206C208120ECDFF700D30DA
:100F5E0007057F00120F12AF0CAE0B22B4255FC235
:100F6E00D5C204120ECDFF24D0B40A00501A75F06B
:100F7E000A780930D50508B6FF0106C6A426F62064
:100F8E00D5047002D20380D924CFB41A00EF5004D6
:100F9E00C2E5D204021113D20180C6D20080C0D2A3
:100FAE000280BCD2D580BAD20580B47F20120F0148
:100FBE002002077401B5090040F1120EBEFF120F98
:100FCE0001020F3BD208D2068095120EBEFB120E06
:100FDE00BEFA120EBEF94A4B700679E47A117BFF07
:100FEE0020022EE509602A7E008E82758300121A79
:100FFE007960060EEE650A70F0C2D5EBC0E0EAC06D
:10100E00E0E9C0E0EE12115AD0E0F9D0E0FAD0E0FB
:10101E00FB1219DEFF60AAEBC0E0EAC0E0E9C0E017
:10102E00120F01D0E02401F9D0E03400FAD0E0FB39
:10103E00E50A0460DCD50AD980877BFF7A117956E0
:10104E00D202809C791080027908C206C2088008FC
:10105E00D2D5790A8004790AC2D5E50A047002F560
:10106E000AE4FAFDFEFF120EBEFC7B0820011312ED
:10107E000EBEFD7B1030000A120EBEFE120EBEFF1B
:10108E007B20EC3382D592D55013C3E43000069FFB
:10109E00FFE49EFEE42001039DFDE49CFCE4CBF8FE
:1010AE00C201EC700CCFCECDCCE824F8F870F380F2
:1010BE0017C3EF33FFEE33FEED33FDEC33FCEB33B2
:1010CE00FB994002FB0FD8E9EB300105F8D0E0C4E4
:1010DE0048B201C0E00AEC4D4E4F78207B0070C242
:1010EE00EAB50A0040BCC0E012115CD0F0D0E0209E
:1010FE000104C4C0E0C4B201C0F0120EEAD0F0D5B3
:10110E00F0EB020F3B121AC60FD8531052580FA90C
:10111E004C0FA54210564F105E44105E490FBE4351
:08112E001064551048461048FA
:10113600451048471204500FAD2D0FB12E0FD42B7A
:101146000FB5230FD22011ED2A0F6D4800000FCCEA
:101156003F3F3F00790AA2D5200314300509B91094
:10116600020404B9080104A2D52006025001042095
:1011760002689202B509005034C0E07F203003199E
:101186007F30A20272067205500F1211B3C202C25C
:1011960006C205C2087F30800F300503E9C0E012A1
:1011A6000F01300503D0E0F9D0E0B509CC300517C2
:1011B6007F30B9100C120F017F583004077F7880FA
:1011C60003B90803120F013002057F2D020F017FBC
:1011D600202008F87F2B2006F322920280CF286E6B
:1011E600756C6C2900D201120EBE3001F8C201786E
:1011F6000930D50108F6020F6D2D50434958120EDD
:10120600BE2403B405004001E49011FF93120EF2D0
:0D121600743A120EF2D20375090402105250
:101A4D00EF4E6012EF60010EEDBB010B89828A83B0
:101A5D00F0A3DFFCDEFA2289F05007F709DFFCA9BD
:0C1A6D00F022BBFEFCF309DFFCA9F02214
:101A7900BB010CE58229F582E5833AF583E0225022
:101A890006E92582F8E622BBFE06E92582F8E2226C
:0D1A9900E58229F582E5833AF583E4932286
:101AA600F8E0FBA3A3E0F925F0F0E58215827002C9
:071AB6001583E0FA38F0226D
:091ABD00EBF0A3EAF0A3E9F0222A
:101AC600D083D082F8E4937012740193700DA3A3AF
:101AD60093F8740193F5828883E4737402936860C3
:061AE600EFA3A3A380DFC3
:10240C00EFB40A07740D122417740A309811A899A6
:10241C00B8130CC2983098FDA899C298B811F63030
:07242C0099FDC299F5992208
:00000001FF
