:1005E1004361703A2530345820200073746172746D
:1005F100202E2E2E0A00464C41473A2530325820F3
:10060100200A004361705B253032585D3A25303451
:10061100582020000A002530345820200054335F30
:0D062100535441543A2530325820200A002D
:0A073F0075A15575A1AA75A1FF224E
:0E06F300EF4E600905A1EF1F70F61E80F32286
:1006C900AD07AC06ED4C600E7FE87E031206F3ED34
:0706D9001D70F11C80EE22F0
:0D07010043C60143C40843C50C43CE10227B
:10054C00C29FD29EC29DC2CDC2CC43878090002A4E
:10055C0012047D00000082E47B0AFAF9F890002A6C
:10056C00E0FCA3E0FDA3E0FEA3E0FF1203DF90009C
:10057C002EEBF090002AE0FCA3E0FDA3E0FEA3E04C
:10058C00FFE47B0AFAF9F81203DF90002A120471D7
:10059C0090002EE0C39405401F90002AE0FCA3E0DD
:1005AC00FDA3E0FEA3E02401FFE43EFEE43DFDE4F8
:1005BC003CFC90002A120471E589540F4420F58903
:1005CC0043C9A090002AA3A3A3E0F404F58DD28E16
:0405DC00D299D29C42
:0105E00022F8
:080749003098FDC298AF99221F
:080751008F993099FDC2992235
:0D070E0043A301EFF5A4EEF5A553A3FE22D1
:10002A0043AA0253AAFD43A38053AAFE43A9F0227E
:1006E00053C6DF43BA0443AA0253AAFD43A390436F
:0306F000AA082233
:0B073400EF600443AA202253AADF223A
:0D071B00EFF5A6EEF5A7EDF5AEECF5AF227B
:1006A300E4F5AA43AA0253AAFD43A31043AA21EDEA
:1006B300C4333354C042AAEFF5A6EEF5A7E4F5AE72
:0606C300F5AF75A9F0225D
:03003B0002066A50
:10066A00C0E0C0F0C083C082C0D075D01053AAFBCE
:10067A00E5A930E4167BFF7A0579E190002DE5AF14
:10068A00F0A3E5AEF01200A943A91043AA04D0D002
:09069A00D082D083D0F0D0E03210
:10062E007F057E001206C912054C7BFF7A0579EC18
:10063E001200A97F027E0012070E43CE4043C6026F
:10064E0043BA0443BB04E4900062F07D01FF7E4098
:0C065E001206A343AA04D2AFD2E980FE2A
:03000000020728CC
:0C072800787FE4F6D8FD75812C02062EC7
:1003A30075F008758200EF2FFFEE33FECD33CDCC11
:1003B30033CCC58233C5829BED9AEC99E582984094
:1003C3000CF582EE9BFEED9AFDEC99FC0FD5F0D671
:1003D300E4CEFBE4CDFAE4CCF9A88222B800C1B99B
:1003E3000059BA002DEC8BF084CFCECDFCE5F0CBD9
:1003F300F97818EF2FFFEE33FEED33FDEC33FCEB12
:1004030033FB10D703994004EB99FB0FD8E5E4F9CC
:10041300FA227818EF2FFFEE33FEED33FDEC33FCB9
:10042300C933C910D7059BE99A4007EC9BFCE99AAD
:10043300F90FD8E0E4C9FAE4CCFB2275F010EF2FF2
:10044300FFEE33FEED33FDCC33CCC833C810D707F2
:100453009BEC9AE899400AED9BFDEC9AFCE899F82D
:0E0463000FD5F0DAE4CDFBE4CCFAE4C8F922C0
:0C047100ECF0A3EDF0A3EEF0A3EFF022FE
:10047D00A8828583F0D083D0821204941204941242
:10048D000494120494E473E493A3C583C5F0C58367
:10049D00C8C582C8F0A3C583C5F0C583C8C582C8C9
:0104AD00222C
:10003E00E528242DF582E43400F583E0052822908E
:10004E00002A30100390002DE475F001120506020F
:10005E0004AE2009E97F2ED2098018EF540F2490A8
:10006E00D43440D4FF300D0BEF24BFB41A0050032C
:10007E002461FFE52960021529052CE52C70020587
:10008E002B30100E90002AE475F001120506EF02D7
:10009E0004F40200037403D2108003E4C210F528A6
:1000AE0090002A12051DE4F529F52BF52CE52960A3
:1000BE00077F2012008180F5752AFFC20AC209C28D
:1000CE000BC20CC20EC20FC21112004DFF700D30CA
:1000DE0010057F00120092AF2CAE2B22B4255FC20A
:1000EE00D5C20D12004DFF24D0B40A00501A75F07F
:1000FE000A782930D50508B6FF0106C6A426F620D3
:10010E00D5047002D20C80D924CFB41A00EF50045B
:10011E00C2E5D20D020293D20A80C6D20980C0D2A5
:10012E000B80BCD2D580BAD20E80B47F2012008153
:10013E00200B077401B5290040F112003EFF12009A
:10014E00810200BBD211D20F809512003EFB12002D
:10015E003EFA12003EF94A4B700679647A037BFF31
:10016E00200B2EE529602A7E008E827583001204F4
:10017E00C760060EEE652A70F0C2D5EBC0E0EAC08D
:10018E00E0E9C0E0EE1202DAD0E0F9D0E0FAD0E019
:10019E00FB1204AEFF60AAEBC0E0EAC0E0E9C0E0EB
:1001AE00120081D0E02401F9D0E03400FAD0E0FB57
:1001BE00E52A0460DCD52AD980877BFF7A0279D6BE
:1001CE00D20B809C791080027908C20FC211800870
:1001DE00D2D5790A8004790AC2D5E52A047002F5CF
:1001EE002AE4FAFDFEFF12003EFC7B08200A1312E1
:1001FE00003EFD7B1030090A12003EFE12003EFF4B
:10020E007B20EC3382D592D55013C3E43009069F80
:10021E00FFE49EFEE4200A039DFDE49CFCE4CBF883
:10022E00C20AEC700CCFCECDCCE824F8F870F38077
:10023E0017C3EF33FFEE33FEED33FDEC33FCEB3340
:10024E00FB994002FB0FD8E9EB300A05F8D0E0C469
:10025E0048B20AC0E00AEC4D4E4F78207B0070C2C7
:10026E00EAB52A0040BCC0E01202DCD0F0D0E0209B
:10027E000A04C4C0E0C4B20AC0F012006AD0F0D5BD
:10028E00F0EB0200BB12052601585301D25801298A
:10029E004C01254201D64F01DE4401DE49013E43A9
:0802AE0001E45501C84601C836
:1002B6004501C847038450012D2D01312E01542BD1
:1002C600013523015220036D2A00ED480000014C40
:1002D6003F3F3F00790AA2D5200C14300E09B91011
:1002E600020404B9080104A2D5200F02500104201B
:1002F6000B68920BB529005034C0E07F20300C19F2
:100306007F30A20B720F720E500F120333C20BC254
:100316000FC20EC2117F30800F300E03E9C0E0120B
:100326000081300E03D0E0F9D0E0B529CC300E17AD
:100336007F30B9100C1200817F58300D077F78800E
:1003460003B90803120081300B057F2D0200817F5F
:10035600202011F87F2B200FF322920B80CF286EDE
:10036600756C6C2900D20A12003E300AF8C20A786F
:100376002930D50108F60200ED2D504349581200E8
:100386003E2403B405004001E490037F93120072FB
:0D039600743A120072D20C7529040201D2D3
:1004AE00BB010689828A83E0225002E722BBFE024C
:0904BE00E32289828A83E493227F
:1004C700BB010CE58229F582E5833AF583E02250EA
:1004D70006E92582F8E622BBFE06E92582F8E22234
:0D04E700E58229F582E5833AF583E493224E
:1004F400BB010689828A83F0225002F722BBFE01E7
:02050400F322E0
:10050600F8E0FBA3A3E0F925F0F0E582158270027E
:070516001583E0FA38F02222
:09051D00EBF0A3EAF0A3E9F022DF
:10052600D083D082F8E4937012740193700DA3A364
:1005360093F8740193F5828883E473740293686078
:06054600EFA3A3A380DF78
:10000300EFB40A07740D12000E740A309811A89900
:10001300B8130CC2983098FDA899C298B811F6305D
:0700230099FDC299F5992235
:00000001FF
