:0B0647007374617274202E2E2E0A00C6
:0A06520075A15575A1AA75A1FF223C
:0E061200EF4E600905A1EF1F70F61E80F32267
:10000300AD07AC06ED4C600E7FE87E03120612EDE1
:070013001D70F11C80EE22BC
:0D062E0043C60143C40843C50C43CE10224F
:10052C00C29FD29EC29DC2CDC2CC43878090000098
:10053C0012045D00000082E47B0AFAF9F8900000D6
:10054C00E0FCA3E0FDA3E0FEA3E0FF1203BF9000DC
:10055C0004EBF0900000E0FCA3E0FDA3E0FEA3E0C0
:10056C00FFE47B0AFAF9F81203BF90000012045161
:10057C00900004E0C39405401F900000E0FCA3E051
:10058C00FDA3E0FEA3E02401FFE43EFEE43DFDE418
:10059C003CFC900000120451E589540F4420F5896D
:1005AC0043C9A0900000A3A3A3E0F404F58DD28E60
:0405BC00D299D29C62
:0105C0002218
:080666003098FDC298AF992203
:08066E008F993099FDD2992209
:0A065C0053890FEFC454F0428922C5
:0D062000C3E49FFFE49EFEEFF58BEEF58D29
:01062D0022AA
:03001B0002067664
:03067600B282321B
:1005C1007F057E0012000312052C7BFF7A06794716
:1005D10012008953C95F7F0212065C7480FFFE120C
:0A05E1000620D28ED2ABD2AF80FE0E
:0300000002063BBA
:0C063B00787FE4F6D8FD7581210205C12E
:1003830075F008758200EF2FFFEE33FECD33CDCC31
:1003930033CCC58233C5829BED9AEC99E5829840B4
:1003A3000CF582EE9BFEED9AFDEC99FC0FD5F0D691
:1003B300E4CEFBE4CDFAE4CCF9A88222B800C1B9BB
:1003C3000059BA002DEC8BF084CFCECDFCE5F0CBF9
:1003D300F97818EF2FFFEE33FEED33FDEC33FCEB32
:1003E30033FB10D703994004EB99FB0FD8E5E4F9ED
:1003F300FA227818EF2FFFEE33FEED33FDEC33FCDA
:10040300C933C910D7059BE99A4007EC9BFCE99ACD
:10041300F90FD8E0E4C9FAE4CCFB2275F010EF2F12
:10042300FFEE33FEED33FDCC33CCC833C810D70712
:100433009BEC9AE899400AED9BFDEC9AFCE899F84D
:0E0443000FD5F0DAE4CDFBE4CCFAE4C8F922E0
:0C045100ECF0A3EDF0A3EEF0A3EFF0221E
:10045D00A8828583F0D083D08212047412047412A2
:10046D000474120474E473E493A3C583C5F0C583C7
:10047D00C8C582C8F0A3C583C5F0C583C8C582C8E9
:01048D00224C
:10001E00E5082403F582E43400F583E00508229018
:10002E000000300703900003E475F0011204E602AD
:10003E00048E2000E97F2ED2008018EF540F2490FA
:10004E00D43440D4FF30040BEF24BFB41A00500355
:10005E002461FFE50960021509050CE50C70020527
:10006E000B30070E900000E475F0011204E6EF026B
:10007E0004D40205EB7403D2078003E4C207F5082B
:10008E009000001204FDE4F509F50BF50CE509608E
:10009E00077F2012006180F5750AFFC201C200C2FF
:1000AE0002C203C205C206C20812002DFF700D3037
:1000BE0007057F00120072AF0CAE0B22B4255FC293
:1000CE00D5C20412002DFF24D0B40A00501A75F0C8
:1000DE000A780930D50508B6FF0106C6A426F62013
:1000EE00D5047002D20380D924CFB41A00EF500485
:1000FE00C2E5D204020273D20180C6D20080C0D201
:10010E000280BCD2D580BAD20580B47F20120061A5
:10011E002002077401B5090040F112001EFF120003
:10012E006102009BD208D206809512001EFB1200BF
:10013E001EFA12001EF94A4B700679447A037BFFB1
:10014E0020022EE509602A7E008E8275830012043D
:10015E00A760060EEE650A70F0C2D5EBC0E0EAC0ED
:10016E00E0E9C0E0EE1202BAD0E0F9D0E0FAD0E059
:10017E00FB12048EFF60AAEBC0E0EAC0E0E9C0E02B
:10018E00120061D0E02401F9D0E03400FAD0E0FB97
:10019E00E50A0460DCD50AD980877BFF7A0279B63E
:1001AE00D202809C791080027908C206C2088008AB
:1001BE00D2D5790A8004790AC2D5E50A047002F50F
:1001CE000AE4FAFDFEFF12001EFC7B08200113124A
:1001DE00001EFD7B1030000A12001EFE12001EFFD4
:1001EE007B20EC3382D592D55013C3E43000069FAA
:1001FE00FFE49EFEE42001039DFDE49CFCE4CBF8AD
:10020E00C201EC700CCFCECDCCE824F8F870F380A0
:10021E0017C3EF33FFEE33FEED33FDEC33FCEB3360
:10022E00FB994002FB0FD8E9EB300105F8D0E0C492
:10023E0048B201C0E00AEC4D4E4F78207B0070C2F0
:10024E00EAB50A0040BCC0E01202BCD0F0D0E020FB
:10025E000104C4C0E0C4B201C0F012004AD0F0D50F
:10026E00F0EB02009B12050601385301B25801094A
:10027E004C01054201B64F01BE4401BE49011E4369
:08028E0001C45501A84601A8B6
:100296004501A847036450010D2D01112E01342B91
:1002A600011523013220034D2A00CD480000012C00
:1002B6003F3F3F00790AA2D5200314300509B91043
:1002C600020404B9080104A2D52006025001042044
:1002D60002689202B509005034C0E07F203003194D
:1002E6007F30A20272067205500F120313C202C2B9
:1002F60006C205C2087F30800F300503E9C0E01250
:100306000061300503D0E0F9D0E0B509CC3005171F
:100316007F30B9100C1200617F583004077F788057
:1003260003B908031200613002057F2D0200617FC8
:10033600202008F87F2B2006F322920280CF286E19
:10034600756C6C2900D20112001E3001F8C20178CA
:100356000930D50108F60200CD2D50434958120048
:100366001E2403B405004001E490035F931200527B
:0D037600743A120052D2037509040201B25C
:10048E00BB010689828A83E0225002E722BBFE026C
:09049E00E32289828A83E493229F
:1004A700BB010CE58229F582E5833AF583E022500A
:1004B70006E92582F8E622BBFE06E92582F8E22254
:0D04C700E58229F582E5833AF583E493226E
:1004D400BB010689828A83F0225002F722BBFE0107
:0204E400F32201
:1004E600F8E0FBA3A3E0F925F0F0E582158270029F
:0704F6001583E0FA38F02243
:0904FD00EBF0A3EAF0A3E9F02200
:10050600D083D082F8E4937012740193700DA3A384
:1005160093F8740193F5828883E473740293686098
:06052600EFA3A3A380DF98
:1005EB00EFB40A07740D1205F6740A309811A89926
:1005FB00B8130CC2983098FDA899C298B811F63070
:07060B0099FDC299F5992247
:00000001FF
