:1006BC0050434F4E20253032580A00504C4C5F436B
:1006CC00464720253032580A00434C4F434B5F437A
:1006DC00464720253032580A00534C4545505F435D
:1006EC0054524C20253032580A0057414B455F4339
:1006FC0054524C20253032580A0052455345545F11
:10070C004B45455020253032580A0057444F475F1F
:10071C00434F554E5420253032580A0050434F4E0B
:10072C002020253032580A007374617274202E2EEA
:03073C002E0A0082
:0A07A70075A15575A1AA75A1FF22E6
:0E005B00EF4E600905A1EF1F70F61E80F32224
:10076100AD07AC06ED4C600E7FE87E0312005BED39
:070771001D70F11C80EE2257
:0D078E0043C60143C40843C50C43CE1022EE
:10062700C29FD29EC29DC2CDC2CC43878090002874
:100637001204AD00000082E47B0AFAF9F890002862
:10064700E0FCA3E0FDA3E0FEA3E0FF12040F90008F
:100657002CEBF0900028E0FCA3E0FDA3E0FEA3E074
:10066700FFE47B0AFAF9F812040F9000281204A19C
:1006770090002CE0C39405401F900028E0FCA3E005
:10068700FDA3E0FEA3E02401FFE43EFEE43DFDE41C
:100697003CFC9000281204A1E589540F4420F589F9
:1006A70043C9A0900028A3A3A3E0F404F58DD28E3C
:0406B700D299D29C66
:0106BB00221C
:0807B1003098FDC298AF9922B7
:0807B9008F993099FDD29922BD
:1007780075A15575A1AAED42B175A1FF8FFFED7066
:0607880004D2EFD2AF2203
:10057C007BFF7A0679BCAF8790002BE4F0A3EFF0F9
:10058C001200D97BFF7A0679C7AFB290002BE4F04A
:10059C00A3EFF01200D97BFF7A0679D5AFB39000A8
:1005AC002BE4F0A3EFF01200D97BFF7A0679E5AFCC
:1005BC00EA90002BE4F0A3EFF01200D97BFF7A064F
:1005CC0079F6AFEB90002BE4F0A3EFF01200D97B9F
:1005DC00FF7A077906AFFE90002BE4F0A3EFF01240
:1005EC0000D97BFF7A077917AFFF90002BE4F0A3BB
:1005FC00EFF01200D97BFF7A0679C7AFB290002BCF
:10060C00E4F0A3EFF01200D97BFF7A0679D5AFB3F3
:0B061C0090002BE4F0A3EFF00200D9E7
:03006B000200038D
:10000300C0E0C0F0C083C082C0D075D0087BFF7A47
:10001300077928AF8790002BE4F0A3EFF01200D903
:1000230075FF2063C0FFD0D0D082D083D0F0D0E062
:01003300329A
:10073F007F057E0012076143C20F1206277BFF7AE7
:10074F000779341200D912057CE4FD7F2312077854
:02075F0080FE1A
:0300000002079B59
:0C079B00787FE4F6D8FD75812202073F4C
:1003D30075F008758200EF2FFFEE33FECD33CDCCE1
:1003E30033CCC58233C5829BED9AEC99E582984064
:1003F3000CF582EE9BFEED9AFDEC99FC0FD5F0D641
:10040300E4CEFBE4CDFAE4CCF9A88222B800C1B96A
:100413000059BA002DEC8BF084CFCECDFCE5F0CBA8
:10042300F97818EF2FFFEE33FEED33FDEC33FCEBE1
:1004330033FB10D703994004EB99FB0FD8E5E4F99C
:10044300FA227818EF2FFFEE33FEED33FDEC33FC89
:10045300C933C910D7059BE99A4007EC9BFCE99A7D
:10046300F90FD8E0E4C9FAE4CCFB2275F010EF2FC2
:10047300FFEE33FEED33FDCC33CCC833C810D707C2
:100483009BEC9AE899400AED9BFDEC9AFCE899F8FD
:0E0493000FD5F0DAE4CDFBE4CCFAE4C8F92290
:0C04A100ECF0A3EDF0A3EEF0A3EFF022CE
:1004AD00A8828583F0D083D0821204C41204C412B2
:1004BD0004C41204C4E473E493A3C583C5F0C583D7
:1004CD00C8C582C8F0A3C583C5F0C583C8C582C899
:0104DD0022FC
:10006E00E515242BF582E43400F583E00515229086
:10007E00002830100390002BE475F00112053602B3
:10008E0004DE2009E97F2ED2098018EF540F249048
:10009E00D43440D4FF300D0BEF24BFB41A005003FC
:1000AE002461FFE516600215160519E519700205A3
:1000BE001830100E900028E475F001120536EF028C
:1000CE0005240200347403D2108003E4C210F51527
:1000DE0090002812054DE4F516F518F519E5166091
:1000EE00077F201200B180F57517FFC20AC209C240
:1000FE000BC20CC20EC20FC21112007DFF700D306A
:10010E0010057F001200C2AF19AE1822B4255FC2CF
:10011E00D5C20D12007DFF24D0B40A00501A75F01E
:10012E000A781630D50508B6FF0106C6A426F620B5
:10013E00D5047002D20C80D924CFB41A00EF50042B
:10014E00C2E5D20D0202C3D20A80C6D20980C0D245
:10015E000B80BCD2D580BAD20E80B47F201200B1F3
:10016E00200B077401B5160040F112006EFF12004D
:10017E00B10200EBD211D20F809512006EFB12006D
:10018E006EFA12006EF94A4B700679947A037BFF71
:10019E00200B2EE516602A7E008E827583001204D7
:1001AE00F760060EEE651770F0C2D5EBC0E0EAC040
:1001BE00E0E9C0E0EE12030AD0E0F9D0E0FAD0E0B8
:1001CE00FB1204DEFF60AAEBC0E0EAC0E0E9C0E08B
:1001DE001200B1D0E02401F9D0E03400FAD0E0FBF7
:1001EE00E5170460DCD517D980877BFF7A03790683
:1001FE00D20B809C791080027908C20FC211800840
:10020E00D2D5790A8004790AC2D5E517047002F5B1
:10021E0017E4FAFDFEFF12006EFC7B08200A131293
:10022E00006EFD7B1030090A12006EFE12006EFF8A
:10023E007B20EC3382D592D55013C3E43009069F50
:10024E00FFE49EFEE4200A039DFDE49CFCE4CBF853
:10025E00C20AEC700CCFCECDCCE824F8F870F38047
:10026E0017C3EF33FFEE33FEED33FDEC33FCEB3310
:10027E00FB994002FB0FD8E9EB300A05F8D0E0C439
:10028E0048B20AC0E00AEC4D4E4F78207B0070C297
:10029E00EAB5170040BCC0E012030CD0F0D0E0204D
:1002AE000A04C4C0E0C4B20AC0F012009AD0F0D55D
:1002BE00F0EB0200EB120556018853020258015969
:1002CE004C01554202064F020E44020E49016E4386
:0802DE0002145501F84601F875
:1002E6004501F84703B450015D2D01612E01842BB1
:1002F600016523018220039D2A011D480000017C1F
:100306003F3F3F00790AA2D5200C14300E09B910E0
:10031600020404B9080104A2D5200F0250010420EA
:100326000B68920BB516005034C0E07F20300C19D4
:100336007F30A20B720F720E500F120363C20BC2F4
:100346000FC20EC2117F30800F300E03E9C0E012DB
:1003560000B1300E03D0E0F9D0E0B516CC300E1760
:100366007F30B9100C1200B17F58300D077F7880AE
:1003760003B908031200B1300B057F2D0200B17FCF
:10038600202011F87F2B200FF322920B80CF286EAE
:10039600756C6C2900D20A12006E300AF8C20A780F
:1003A6001630D50108F602011D2D5043495812009A
:1003B6006E2403B405004001E49003AF931200A23B
:0D03C600743A1200A2D20C75160402020255
:1004DE00BB010689828A83E0225002E722BBFE021C
:0904EE00E32289828A83E493224F
:1004F700BB010CE58229F582E5833AF583E02250BA
:1005070006E92582F8E622BBFE06E92582F8E22203
:0D051700E58229F582E5833AF583E493221D
:10052400BB010689828A83F0225002F722BBFE01B6
:02053400F322B0
:10053600F8E0FBA3A3E0F925F0F0E582158270024E
:070546001583E0FA38F022F2
:09054D00EBF0A3EAF0A3E9F022AF
:10055600D083D082F8E4937012740193700DA3A334
:1005660093F8740193F5828883E473740293686048
:06057600EFA3A3A380DF48
:10003400EFB40A07740D12003F740A309811A8999E
:10004400B8130CC2983098FDA899C298B811F6302C
:0700540099FDC299F5992204
:00000001FF
