:1004A10048554220302064657620696E0A0048551F
:1004B10042203020646576206F75740A00485542E9
:1004C10020312064657620696E0A0048554220314A
:1004D10020646576206F75740A0052657365742017
:1004E100686F737420706F72740A0044697361627B
:1004F1006C6520686F737420706F7274206265631D
:1005010061757365206F6620646973636F6E6E65D4
:1005110063740A0047657444657644657363723A8F
:100521002000782530325820000A00476574436660
:100531006744657363723A20005553422D446973D1
:100541006B2052656164790A00496E6974526F6F5C
:100551007444657620457272203D20253032580A58
:1005610000456E756D416C6C526F6F744465760A0F
:10057100004572726F723A20253032580A002E20DF
:10058100202020202020202020100000000000003A
:1005910000000000000021300000000000002E2EAD
:1005A100202020202020202020100000000000001A
:1005B1000000000000002130000000000000005396
:1005C1007461727420404368697049443D2530323A
:1005D100580A00576169742044657669636520494A
:1005E1006E0A00537461727420554449534B5F6421
:1005F100656D6F20404348353539554649206C6952
:1006010062726172790A0057616974204469736B7F
:1006110052656164790A00437265617465204C65B5
:1006210076656C2031204469726563746F7279203C
:100631002F5945415232303034200A002F5945415B
:10064100523230303400437265617465204E6577F3
:100651002046696C65202F59454152323030342F84
:1006610044454D4F323030342E545854200A002F17
:1006710059454152323030342F44454D4F3230309C
:10068100342E54585400577269746520736F6D6528
:10069100206461746120746F2066696C6520444533
:1006A1004D4F323030342E545854200A00D1DDCA17
:1006B100BECEC4BCFE0D0A00436C6F736520666933
:1006C1006C652044454D4F323030342E54585420FF
:1006D1000A00437265617465204C6576656C203251
:1006E100204469726563746F7279202F59454152B4
:1006F100323030342F4D4F4E54483035200A002FC0
:1007010059454152323030342F4D4F4E54483035D7
:1007110000436C6F73650A0055C5CCC3BBD3D0D7FA
:10072100BCB1B8BAC320455252203D253032580AD7
:1007310000B3F5CABCBBAF55C5CCCAA7B0DCA3ACEE
:10074100C7EBB0CECFC255C5CCD6D8CAD40A00802B
:1007510006000100001200800600020000040000F3
:100761000502000000000000090000000000000276
:070771000100000000000080
:0A471C0075A15575A1AA75A1FF2231
:044692007FC87E005F
:0E469600EF4E600905A1EF1F70F61E80F322A3
:101FE900AD07AC06ED4C600E7FE87E03124696ED18
:071FF9001D70F11C80EE22B7
:0D46F70043C60143C40843C50C43CE102246
:103A7100C29FD29EC29DC2CDC2CC4387809002E834
:103A81001218BF00000082E47B0AFAF9F89002E8FC
:103A9100E0FCA3E0FDA3E0FEA3E0FF1217699002A2
:103AA100ECEBF09002E8E0FCA3E0FDA3E0FEA3E074
:103AB100FFE47B0AFAF9F81217699002E812189AE2
:103AC1009002ECE0C39405401F9002E8E0FCA3E003
:103AD100FDA3E0FEA3E02401FFE43EFEE43DFDE49E
:103AE1003CFC9002E812189AE589540F4420F589AC
:103AF10043C9A09002E8A3A3A3E0F404F58DD28EFC
:043B0100D299D29CE7
:013B0500229D
:0827F7003098FDC298AF992251
:084730008F993099FDD2992206
:0B392E009002F4EFF0A3ECF0A3EDF02A
:10393900E4A3F0900048E4F0E51224F8FF9002F4C3
:10394900E0FEA807088002C333D8FC900049F0A321
:10395900E4F0A3F0A37480F0900356E090004DF0DA
:10396900A3740AF0A37428F0A3E4F0900335E0905F
:103979000051F0900336E0900052F0900337E09048
:103989000053F0900338E0900054F0A3E4F0A3F062
:10399900A3EEF0A3E4F09002F5E0FEA3E0FF122409
:1039A900FFE50D7002FF229002F7E0FF1242278F18
:1039B9000DE50D6003AF0D229002F7E004F0E0C3BE
:0C39C9009403500302393C750D1F7F1F52
:0139D50022CF
:0B274A009002F4EFF0A3ECF0A3EDF020
:10275500E4A3F0900048E4F0E51224F8FF9002F4B9
:10276500E0FEA807088002C333D8FC900049F0A317
:10277500E4F0A3F0A3F0900356E090004DF0A374AD
:102785000AF0A3742AF0A3E4F0900335E090005119
:10279500F0900336E0900052F0900337E09000533C
:1027A500F0900338E0900054F0A3E4F0A3F0A3EE1A
:1027B500F0A3E4F09002F5E0FEA3E0FF1224FFE5AC
:1027C5000D70097FC8FE1246967F00229002F7E041
:1027D500FF1242278F0DE50D6003AF0D229002F722
:1027E500E004F0E0C394035003022758750D1F7FE2
:0127F5001FC4
:0127F60022C0
:1043450053E37FE5E364026006E5E364037028E573
:10435500E3B40204AFE48002AFE5EF30E0037F0091
:1043650022E5E3B402047F0880027F80E5DB5F601D
:0C43750006750A027F0022750A017F16FF
:014381002219
:0127FF0022B7
:104430001207FDEFC3941250037FFF227E007F809E
:104440008E0B8F0C90032EEEF0A3EFF0E4F50A75BF
:1044500012099003287402F090035B1218BF000049
:0544600000007F0022B6
:10449900EF75F005A42476F582E43403F583E4F09E
:1044A900EF75F005A42477F582E43403F583E4F08D
:0C44B900EFB40104E4F5E522E4F5E42290
:1037C400E49002FFF0E5DB30E335900376E060053A
:1037D400E5E420E04AE4FF124499E5DB30E20280AC
:1037E400027F01900378EFF09003767401F07BFF81
:1037F4007A0479A1120D069002FF7415F0802090CE
:103804000376E0C394014017E4FF1244997BFF7AE6
:103814000479AF120D069002FFE070037416F0E510
:10382400DB30E73690037BE06005E5E520E04B7F85
:1038340001124499E5DB30E6031F80027F01900307
:103844007DEFF090037B7401F07BFF7A0479BE1264
:103854000D069002FF7415F0802090037BE0C39462
:103864000140177F011244997BFF7A0479CC120D31
:0F387400069002FFE070037416F09002FFE0FF71
:013883002222
:0C470400EF547FFFE5E354804FF5E32203
:1042C400CEEFCE9003757408F0E4FF124704EEB409
:1042D4000114E5E554FB4402F5E57F0F7E00121F4F
:1042E400E953E5FD8012E5E454FB4402F5E47F0F55
:1042F4007E00121FE953E4FD7FFA7E00124696C247
:02430400D822BD
:103D0900EF75F005A42476F582E43403F583E0C366
:103D190094015011EF75F005A42476F582E434037B
:103D2900F5837401F0EF64017025E5DB30E745E5C3
:103D3900E520E015E5DB30E6047F0080027F019095
:103D4900037DEFF0700343E50443E5017F0022E5BD
:103D5900DB30E320E5E420E015E5DB30E2047F0019
:103D690080027F01900378EFF0700343E40443E499
:073D7900017F00227F1622EA
:10458100CEEFCEEE75F005A42477F582E43403F581
:1045910083E0FF124704EE6003D38001C39210222F
:104636007FC87E0020D909EF1F70011EEF4E70F46F
:0946460030D9047F0080027FFEE0
:01464F002248
:0B3611009002FCEFF0A3EAF0A3EBF046
:10361C00CFEDCF8FD68FD4E4F5DD9002FCE0F5D55D
:10362C00C2D97FC87E0020D909EF1F70011EEF4E52
:10363C0070F4E4F5D520D9037FFE2230D81EC2D811
:10364C001237C4EFB41502D20FE50AB401037F168A
:10365C0022E50AB402037F152212469230D9673054
:10366C00DE037F0022E5D9540FFFB40E028043EF36
:10367C00B40A299002FDE0FCA3E0FD4C7003EF803E
:10368C003EC3ED94FFEC94FF500E9002FEE024FF3D
:10369C00F09002FDE034FFF015DD802D9002FCE08F
:1036AC00C4540F24F7600D24FC6004240C7014EF38
:1036BC006017800BEFB40304640B600DEF600A44D9
:1036CC0020FF227FFE2275D8FF7F0F7E00124696C8
:0F36DC0005DDAFDDEFC3940350030236267F20D8
:0136EB0022BC
:06314800EBF0E4FDFFFEC8
:10314E009002F9EEF0A3EFF0A3EDF0124692E060DC
:10315E0003F8E4F675D7087B107A27E4FD7FD012CA
:10316E003611CBEFCBEB60012275D6D075D4D0756E
:10317E00D701900047E060047FFF8005900046E095
:10318E00FF9002F8EFF070030232A4A3E0FEA3E07A
:10319E004E70030232A4900040E020E70302322E6C
:1031AE009002F8E060751246927B107A27ADD47FBC
:1031BE0090123611CBEFCBEB6001229002F8E0FFBC
:1031CE00E5D1C39F5007AED1CFEECF80009002F86D
:1031DE00E0C39FF09002FBE06004F8EF26F6E4FEF9
:1031EE00EE6F602A74002EF582E43400F583E0FD64
:1031FE009002F9E0F8A3E0F5828883EDF09002FAF0
:10320E00E004F070069002F9E004F00E80D2E5D1F1
:10321E006009900375E01455D16085E4F5D780768A
:10322E009002F8E06070124692900375E0FF9002F3
:10323E00F8E0FEC39F40028003CFEECF8FD7E4FFAE
:10324E00EF65D7602A9002F9E0FCA3E0F5828C834B
:10325E00E0FE74402FF582E43400F583EEF0900228
:10326E00FAE004F070069002F9E004F00F80D17BD2
:10327E00107A27ADD67F10123611CBEFCBEB600153
:10328E00229002F8E0C395D7F09002FBE06091F82F
:10329E00E5D726F6808A124692E5D760047F9080A5
:1032AE00027F107B107A277DC0123611CBEFCBEB4D
:1032BE00600122E5D77002FF22E5D17002FF227F66
:0132CE0017E8
:0132CF0022DC
:1045A100E4FD8F828E83E493FC74402DF582E43424
:0F45B10000F583ECF00FBF00010E0DEDB408E331
:0145C00022D8
:104465009003757408F07E077F501245A17E007F8A
:10447500407D1312314EEF600122900047E090031A
:1044850075F0900756E493FFE513C39F50037F171C
:03449500227F0083
:014498002201
:103F3B007E077F581245A17E007F407D1312314EC4
:103F4B00EF60012290075EE493FEE513C39E5003DE
:103F5B007F1722900042E0F513E513D39440400302
:103F6B007F17227E077F581245A1900046E513F07C
:103F7B007E007F407D1312314EEF60012290075E71
:103F8B00E493FFE513C39F400A900042E0FFE51363
:083F9B009F50037F17227F00F5
:013FA30022FB
:0544C5009002EEEFF093
:1044CA007E077F601245A19002EEE0900042123111
:1044DA0049EF6001229002EEE0FF1247047F0A7E54
:0644EA0000121FE97F0033
:0144F00022A9
:1046A400CBEFCB7E077F681245A1900042123148C0
:0146B40022E3
:1046B500CBEFCB7E077F701245A1900044123148A5
:0146C50022D2
:103FA400E4F9FC8F828E83A3A3E0FBECC39B504710
:103FB400EF2CF582E43EF583A3E064057025EF2C35
:103FC400F582E43EF583A3A3A3E05403FBBB0313F0
:103FD400EF2CF582E43EF583A3A3E030E705540F0C
:103FE400F98014EF2CF582E43EF583E0FDD39410C0
:0A3FF4005005ED2CFC80ACCFE9CFA6
:013FFE0022A0
:052C58009002E9EFF01D
:102C5D007BFF7A0479DB120D069002E9E0FF124248
:102C6D00C4E49002EAF0A3F07F017E00121FE99008
:102C7D0002E9E0FF123D09EF700E9002EAF0A3E0C9
:102C8D0004F0E0D39414500C9002EAE004F0E0C399
:102C9D00946440D49002EAE060149002E9E0FF12DF
:102CAD0044997BFF7A0479EC120D067F162290026F
:102CBD00E9E0FF1245817BFF7A057915120D0612A9
:102CCD0044659002EBEFF06003022DF79002EAF0FD
:102CDD00900756E493FF9002EAE0FEC39F50257BD8
:102CED00FF7A05792374402EF582E43400F583E0F4
:102CFD00FF900303E4F0A3EFF0120D069002EAE05B
:102D0D0004F080CC7BFF7A05792A120D06900044E1
:102D1D00E09002EDF0900762E493FF9002E9E02F5E
:102D2D00FF1244C59002EBEFF06003022DF7900700
:102D3D006293FF9002E9E0FE2FFFEE75F005A424EB
:102D4D0077F582E43403F583EFF07BFF7A05792C78
:102D5D00120D06123F3B9002EBEFF06003022DF7D0
:102D6D00900045E09002ECF0E49002EAF090004211
:102D7D00E0FF9002EAE0FEC39F50257BFF7A0579C4
:102D8D002374402EF582E43400F583E0FF900303B5
:102D9D00E4F0A3EFF0120D069002EAE004F080CD0E
:102DAD007BFF7A05792A120D0690004EE0FF900206
:102DBD00EDE07036EFB408329002E9E0FF75F005F2
:102DCD00A42476F582E43403F5837403F0EF75F0F3
:102DDD0005A42479F582E43403F5837408F07BFFB0
:102DED007A05793A120D067F00227BFF7A05794A22
:102DFD009002EBE0FF900303E4F0A3EFF0120D0659
:082E0D00750A029002EBE0FFE0
:012E1500229A
:1043BE007BFF7A057962120D06E49002E8F0900216
:1043CE00E8E0FF64026021EF75F005A42476F58223
:1043DE00E43403F583E0B40107122C58EF60012298
:0A43EE009002E8E004F080D67F00A2
:0143F80022A2
:1043F900E4FEEE75F005A42479F582E43403F5832F
:10440900E06F7019EE75F005A42476F582E43403A3
:10441900F583E0C394034005EE7F00FE220EEEB45F
:0644290002D07EFF7FFFC0
:01442F00226A
:10438200C2EA75E280E4F5E39024477448F0902491
:104392004C7400F0A37400F090244E7400F0A374E7
:1043A20040F0E4F5D4F5D675E28975D24075D8FFB0
:0C43B200FF1244990F12449975E1032298
:05461A00900281EFF0A9
:10461F00EF60137BFF7A057972900303E4F0A3EF49
:07462F00F0120D0680FE22CF
:07467E008D828C83C8EFC898
:0C468500E4FFE493F6600508A30F80F644
:014691002206
:0B1AA30078237C007D007BFF1219BC43
:101AAE009002E974FFF0E49002E8F09002E8E0FFA3
:101ABE006420602A74232FF8E660239002E8E0FF8A
:101ACE002423F8E6645C600874232FF8E6B42F062E
:101ADE009002E8E0A3F09002E8E004F080CDE490FC
:101AEE0002E8F0A3E0FF6009B402127824E6B43AEB
:101AFE000C9002EA1218BF0000000080439002E929
:101B0E00E0FFF4602774232FF8E4F6120800900229
:101B1E00E8EFF0700574B3F080099002E8E0B4418C
:101B2E0002E4F09002E9E02423F8765C900339E0B9
:101B3E00FCA3E0FDA3E0FEA3E0FF9002EA12189AD8
:101B4E009002E8E06003021D411208009002E8EFE7
:101B5E00F070067443F0021D419002E8E0FFB441BC
:101B6E0005E4F0021D41EF64426003021D411220A4
:101B7E00009002E8EFF06003021D4190032EE0FAA0
:101B8E00A3E0FB650C7003EA650B7011900328E06F
:101B9E007F00FEC9EBC97B017D001219D990032E7F
:101BAE00E0FFA3E09002EECFF0A3EFF07E057F7F83
:101BBE009002E87440F08F828E83E493FD9002EEE3
:101BCE00E0FAA3E0F5828A83EDF09002EFE004F0F4
:101BDE0070069002EEE004F00FBF00010E9002E8D6
:101BEE00E014F0E070D0783CE6FF90032EE0FCA30A
:101BFE00E0FD241AF582E43CF583EFF018E6FFEDE4
:101C0E00241BF582E43CF583EFF018E6FFED241477
:101C1E00F582E43CF583EFF018E6FFED2415F5822E
:101C2E00E43CF583EFF078EDE6FFED243AF582E43F
:101C3E003CF583EFF018E6FFED243BF582E43CF52E
:101C4E0083EFF018E6FFED2434F582E43CF583EFE4
:101C5E00F018E6FFED2435F582E43CF583EFF078DD
:101C6E002376017827ECF608EDF61228009002E8AC
:101C7E00EFF06003021D4190032EE0FFA3E09002FF
:101C8E00EECFF0A3EFF09002E87440F09002EEE099
:101C9E00FEA3E0F5828E83E4F09002EFE004F07094
:101CAE00069002EEE004F09002E8E014F0E070DC42
:101CBE009002E97401F0900329E0FF9002E9E06FD1
:101CCE00604690032EE0FAA3E0FB650C7003EA6514
:101CDE000B7011900328E07F00FEC9EBC97B017DDC
:101CEE00001219D97823760190032EE0FFA3E07835
:101CFE0027CFF608EFF61228009002E8EFF07008F2
:101D0E009002E9E004F080AE900329E0FF9002E932
:101D1E00E06F701F78231218A60000000074FF7881
:101D2E0027F608F608F608F608761012340C90021C
:081D3E00E8EFF09002E8E0FF7D
:011D4600227A
:102FB200123A717BFF7A0579C0AFA1900303E4F066
:102FC200A3EFF0120D06124382124430C20F7BFFB0
:102FD2007A0579D4120D06E4900280F030D80FC23F
:102FE200D81237C4900280EFF0BF1502D20F200F23
:102FF2000302313EC20F7FC87E00121FE91243BE98
:10300200900280EFF07F081243F99002E6EEF0A3FF
:10301200EFF0F47002EEF470030231357BFF7A05B3
:1030220079E4120D069002E6E0FF900281F012456B
:1030320081750A04E4900281F07BFF7A0679081216
:103042000D06124068900280EFF060117F327E0020
:10305200121FE9900281E004F0E0B40ADC7BFF7AFF
:103062000579C0AFA1900303E4F0A3EFF0120D06BF
:10307200E50AC394057BFF50030231227A067918D0
:10308200120D067A06793D121AA312461A7BFF7AAE
:10309200067947120D0678237C007D007BFF7A06B5
:1030A20079701219BC12200012461A7BFF7A067937
:1030B20087120D0690030374FFF0A37406F0A37445
:1030C200AEF07B017A027982120D00900281EFF05C
:1030D2007823E4F608EFF6087402F6087482F61212
:1030E200100012461A7BFF7A0679B9120D06782370
:1030F2007601123D8012461A7BFF7A0679D3120DB1
:10310200067A077900121AA312461A7BFF7A077908
:1031120012120D06E47823F6123D8012461A801C24
:103122007A077919900280E0FF900303E4F0A3EF9D
:10313200F080067BFF7A077932120D067F647E00EB
:06314200121FE9022FD963
:1046D70021FF000000000000A1FE00000000010013
:063B060090033512189A2D
:103B0C0090034DE0FF900338E06F702490034AE07F
:103B1C00FF900335E06F701890034BE0FF90033675
:103B2C00E06F700C90034CE0FF900337E06F60582F
:103B3C00900335E0FCA3E0FDA3E0FEA3E0FF9003BF
:103B4C004A12189A90032EE0FEA3E0FBCAEECA6557
:103B5C000C7003EA650B7014900335E0FCA3E0FDD8
:103B6C00A3E0FEA3E0FF90034E12189ACEEACECF4C
:103B7C00EBCFCDEFCDCCEECC7F0112392E8F0DEFEC
:0B3B8C006003124667AF0D227F00228D
:1039D600900368E0FCA3E0FDA3E0FEA3E0FF9003F4
:0439E6003512189AE4
:1039EA00900351E0FF900338E06F702490034EE09B
:1039FA00FF900335E06F701890034FE0FF90033695
:103A0A00E06F700C900350E0FF900337E06F605452
:103A1A00900335E0FCA3E0FDA3E0FEA3E0FF9003E2
:103A2A004E12189AAB0CAA0B90032EE06A7003A3ED
:103A3A00E06B7014900335E0FCA3E0FDA3E0FEA365
:103A4A00E0FF90034A12189ACEEACECFEBCFCDEF21
:103A5A00CDCCEECC7F0112392E8F0DEF60031246CA
:073A6A0067AF0D227F00226F
:10412100900335E0FCA3E0FDA3E0FEA3E0FF9003D4
:104131004A12189A90032EE0FEA3E0FBCAEECA656C
:104141000C7003EA650B7014900335E0FCA3E0FDED
:10415100A3E0FEA3E0FF90034E12189ACEEACECF61
:10416100EBCFCDEFCDCCEECC7F0112274A8F0DEFF7
:084171006003124667AF0D2246
:103B97008F118E108D0F8C0EE509241AF582E435EE
:103BA70008F583E50EF0A3E50FF0E5092414F58287
:0C3BB700E43508F583E510F0A3E511F0FB
:103BC300900335E0FCA3E0FDA3E0FEA3E0FF900338
:103BD3004E12189AAB0CAA0B90032EE06A7003A343
:103BE300E06B7014900335E0FCA3E0FDA3E0FEA3BB
:103BF300E0FF90034A12189ACEEACECFEBCFCDEF77
:103C0300CDCCEECC7F0112274A8F0DEF6003124615
:043C130067AF0D2268
:1013AD00900339E0FCA3E0FDA3E0FEA3E0FF900372
:0613BD002A12189AE4FF59
:1013C3008FD3900361E0FBB4021290032AE0FCA3E5
:1013D300E0FDA3E0FEA3E0FF78018014EBB4031566
:1013E30090032AE0FCA3E0FDA3E0FEA3E0FF780264
:1013F30012182D803EC20090032DE030E002D2008F
:1014030090032AE0F8A3E0F9A3E0FAA3E0FBE8C025
:10141300E090032AE0FCA3E0FDA3E0FEA3E0FF7855
:101423000112181AD0E0F8EB2FFFEA3EFEE93DFD6A
:10143300E83CFC90032A12189A900328E024FFFF4B
:10144300EFFE90032CE0FCA3E0FDEE5CFEEDFF90CD
:10145300032FE02FF50990032EE03EF50890032AB1
:10146300E0FCA3E0FDA3E0FEA3E01245E0900362ED
:10147300E0F8A3E0F9A3E0FAA3E02FFFEA3EFEE9D8
:101483003DFDE83CFC90032A12189A90034DE0FFBF
:1014930090032DE06F702490034AE0FF90032AE04D
:1014A3006F701890034BE0FF90032BE06F700C906C
:1014B300034CE0FF90032CE06F601F300D071238E0
:1014C30084EF60012290032AE0FCA3E0FDA3E0FE89
:1014D300A3E0FF123B06EF600122E5D36044E5D3AE
:1014E300B4040C90032A1218BFFFFFFFFF8031E5FD
:1014F300D3B4010C90032A1218BF0000000080200F
:10150300900355E090032AF0900354E090032BF0EE
:10151300900353E090032CF0900352E090032DF0DE
:10152300D20DC20E900361E0FB640270468509820E
:10153300850883E0F50FA3E0F510850F11E4F50EA0
:10154300F50FC3E51194F7E51094FF4002D20EE5C1
:10155300D3601490032AE0FFA3E085098285088302
:10156300CFF0A3EFF0E12A300E02E12AAE10AF1163
:10157300E4E122EB64037071AF09AE081246E78F12
:10158300118E108D0F8C0EE50E54F0FF90032DE09D
:10159300540F4FF0530E0FE50ED3940F5016E50E74
:1015A300B40F13E50FB4FF0EE510B4FF09E511C343
:1015B30094F74002D20EE5D3601690032AE0FCA311
:1015C300E0FDA3E0FEA3E0FF850982850883E12710
:1015D300300E02E12A900352E50EF0A3E50FF0A3CB
:1015E300E510F0A3E511F0E12A850982850883E07F
:1015F300F51190032AE0FFC454F0FEE511540F4E99
:10160300F50EA3E0C454F0FEEFC4540F4EF50F9053
:101613000328E024FFFFEFFE90032FE024FFFF9059
:10162300032EE03EFEEF65097003EE650860438517
:101633000982850883A3E0F510E5D37002C1EB307E
:10164300000F850982850883E50EF0A3E50FF0C13D
:10165300EB90032AE0850982850883F090032BE051
:10166300540FFFE51054F04F850982850883A3F0DA
:101673008076E5D36014300004AF0E800590032A12
:10168300E0FF850982850883EFF0A20DE43345D39B
:101693006007123884EF60012290034AE0FCA3E064
:1016A300FDA3E0FEA3E02401FFE43EFEE43DFDE4F0
:1016B3003CFC123B06EF60012290032EE0FEA3E008
:1016C300FFF5828E83E0F510E5D3601C300004AD96
:1016D3000F800D90032BE0540FFDE51054F04DFDEA
:1016E3008F828E83EDF0D20DE4F50EF50F300014EA
:1016F300E510C4F854F0C868F510E511C4540F4858
:10170300F511800353100FC3E51194F7E510940FFF
:101713004002D20EE5D3700F200E0CAE10AF11FCB9
:0A172300FD90035212189A7F002275
:102A3600900330E0FCA3E0FDA3E0FEA3E0FF9003DB
:102A460052E0F8A3E0F9A3E0FAA3E0FBD3121809D9
:102A560040037FB122900352E0FCA3E0FDA3E0FE19
:102A6600A3E02401FFE43EFEE43DFDE43CFC9002CD
:102A7600F012189A1213BBCBEFCB9002F0E0FCA336
:102A8600E0FDA3E0FEA3E0FF90035212189AEB606C
:102A960002FF22E511700AE50E450F45107002810E
:102AA6003E900332E0FF9002F2E06F701A9003301E
:102AB600E0FF9002F0E06F700E900331E0FF9002AD
:102AC600F1E06F70024136900361E0FF640170022D
:102AD600413690032EE0FCA3E08C08F509EF640272
:102AE600703E900328E075F080A424FFFFE5F034E3
:102AF600FFF50E8F0FF5108F1174022509F509E405
:102B06003508F508850982F583E07004A3E060774F
:102B1600E50F150F7002150E14AE0E4E70DB811AFE
:102B2600900328E075F040A424FFFFE5F034FFF59C
:102B36000E8F0FF5108F1174042509F509E4350879
:102B4600F508850982F583E06002810AA3E0600248
:102B5600810A850982850883A3A3E06002810A852C
:102B66000982850883A3A3A3E0540F6002810A8526
:102B76000982850883A3A374FFF0850982850883EB
:102B8600A3A3A3E0440FF085098285088374FFF0B0
:102B9600A3F0AE10AF11900352E0F8A3E0F9A3E062
:102BA600FAA3E04FFFEA4EFEE9FDE8FCEEC0E0EFD7
:102BB600C0E0E50F24FFFFE50E34FFCBEFCBFAD0E4
:102BC600E0FFD0E0FEC3EF9BFFEE9AFEED9400FD22
:102BD600EC9400FC90035212189A900330E0FCA388
:102BE600E0FDA3E0FEA3E0FF900352E0F8A3E0F9C6
:102BF600A3E0FAA3E0FBD312180940037FB122D267
:102C06000D7F0022E50F150F7002150E14AE0E4E45
:102C16006002613D900352E0F8A3E0F9A3E0FAA355
:102C2600E0FBAE10AF11EB4FFFEA4EFEE9FDE8FC0C
:102C360090035212189A41369002F0E0FCA3E0FD90
:102C4600A3E0FEA3E0FF90032A12189A7F04121352
:022C5600C32297
:10465000122A36EF64B16001229003521218BF0093
:07466000000000122A3622BF
:10080000E50AC394105007120003EF60012212455D
:100810003DEF600122C20B7823E6FF7002FF22EF5A
:10082000645C6004EFB42F0890036C7424F08017AC
:100830007824E6643A600201FBEFC394435002015E
:10084000FB90036C7426F0900361E0FBB4031090FE
:10085000036DE0FCA3E0FDA3E0FEA3E0FF8005E460
:10086000FFFEFDFC90033912189A90036CE0F8E645
:10087000600221019003571218BFFFFFFFFFEB64D6
:1008800003604F90033C7402F0900370E0900329E2
:10089000F0900342E0FCA3E0FDA3E0FEA3E0FFEF45
:1008A000C0E0900329E0FBD0E0FFC3EF9BFFEE9494
:1008B00000FEED9400FDEC9400FC90034212189AA7
:1008C000900329E0FFE4FCFDFE1245FD9003571262
:1008D000189A900339E0FCA3E0FDA3E0FEA3E0FF3B
:1008E00090035212189A9003711218BF0000000072
:1008F000E490033DF0750A127F412290036C74234B
:10090000F0900339E0700CA3E07008A3E07004A33A
:10091000E06046900329E090033DF0900339E0FC4D
:10092000A3E0FDA3E0FEA3E024FEFFEE34FFFEED16
:1009300034FFFDEC34FFFC900334E0F9F812182D7D
:10094000900342E0F8A3E0F9A3E0FAA3E02FFFEA66
:100950003EFEE93DFDE83C8024900370E090033DBD
:10096000F0FB900342E0FCA3E0FDA3E0FEA3E0C3A4
:100970009BFFEE9400FEED9400FDEC9400FC9003D0
:100980006812189A90033DE0700281481239D6EF40
:10099000600122E4900340F0A3F0900328E0FE9071
:1009A0000340E0FCA3E0FDC39400EC9E40028121E3
:1009B000ED250CF509EC350BF508850982F583E08A
:1009C000FF70028178EF64E570028111EFB40502D7
:1009D0007FE590036CE0F8E6FE6F6007EE642A6046
:1009E000028111EF6E70047F0180027F008F10AFD3
:1009F00010EFC3940B5059AE1090036CE02EF8E644
:100A0000FEE5092FF582E43508F583E0FD6E603BD5
:100A1000EE6009645C6005EE642F701FED64207069
:100A20002FEFC394085010E5092408F582E4350837
:100A3000F583E0642070197F0B8015EEB42E11E56C
:100A40001064086004EDB420077F070F051080A133
:100A5000AE1090036CE02EF8E6F511EFC3940B5046
:100A6000026151E509240BF582E43508F583E03095
:100A7000E3026151C20EE509241AFFE43508FE12B3
:100A80004726E4FCFD90033912189A900361E0B404
:100A90000314E5092414FFE43508FE1247269003E9
:100AA00039EEF0A3EFF0E5116005200E02614590EC
:100AB0000339E0FCA3E0FDA3E0FEA3E0FF900352B6
:100AC00012189A9003711218BF00000000E49003FE
:100AD0003DF0E509240BF582E43508F583E030E4C8
:100AE0001E9003571218BFFFFFFFFF7D137F1012E8
:100AF0004541EF600122300E037F43227F4122E512
:100B000009241CFFE43508FE1246E790035712182B
:100B10009A900339E0701AA3E07016A3E07012A354
:100B2000E0700EA374FFF09003571218BF0000008E
:100B3000007D147F10124541EF600122300E037FCB
:100B400043227F0022E51004FF90036CE02FF02188
:100B500001E511642A60028111E509240BF582E4A4
:100B60003508F583E030E3028111E5A164596003A3
:100B70007F1122900357E0FCA3E0FDA3E0FEA3E079
:100B8000FFEC4D4E4F602E900357E030E7031227E5
:100B9000FF900357E0FCA3E0FDA3E0FEA3E024FFE9
:100BA000FFEE34FFFEED34FFFDEC34FFFC90035705
:100BB00012189A805CE4FFF50EE5092FF582E43502
:100BC00008F583E064206036EFB4080CAE0E9003A5
:100BD0006CE02EF8762E050EE5092FF582E4350837
:100BE000F583E0FEAD0E90036CE0FC2DF8EEF6E52B
:100BF0000E7009C8ECC8E6B4050276E5050E0FEFE5
:100C0000B40BB6AF0E90036CE02FF8E4F6D20E41B1
:100C100076900341E02420F0900340E03400F0217E
:100C20009A900368E0FCA3E0FDA3E0FEA3E02401AA
:100C3000FFE43EFEE43DFDE43CFC90036812189A9C
:100C400090033DE014F02184900339E0700CA3E0A0
:100C50007008A3E07004A3E0601E1213ADEF600102
:100C600022200E14900339E50EF0A3E50FF0A3E562
:100C700010F0A3E511F02101E4FF90036CE0CEEF4A
:100C8000CE0F2EF8E6FE6010642A600CEE645C6005
:0B0C900004EEB42FE57FB3227F422268
:10417900900352E0FCA3E0FDA3E0FEA3E024FEFFD0
:10418900EE34FFFEED34FFFDEC34FFFC900334E028
:10419900F9F812182D900342E0F8A3E0F9A3E0FA28
:1041A900A3E02FFBEA3EFAE93DF9E83CF890033D2C
:1041B900E0FFE4FCFDFEEB2FFFEE3AFEED39FDECEE
:0841C90038FC90033502189A3E
:10351E00900339E0700EA3E0700AA3E07006A3E0FA
:10352E007002A1FF78271218401245E0EFC0E0901C
:10353E00033DE0FBD0E0FFC3EF9BF511EE9400F5E9
:10354E0010ED9400F50FEC9400F50EAF11AE10AD2A
:10355E000FAC0E782312184CC3121809401778239B
:10356E00121840C3EF9511FFEE9510FEED950FFD6D
:10357E00EC950E8054900339E0FCA3E0FDA3E0FE31
:10358E00A3E0FF90035212189A900329E0FFE4FC87
:10359E00FDFE782312184CC31218094034900352C2
:1035AE001213B0EF600122200E477823121840EF5D
:1035BE00C0E0900329E0FBD0E0FFC3EF9BFFEE9449
:1035CE0000FEED9400FDEC9400FC782312188E8022
:1035DE00B87826E690033DF0124179900335E0FC71
:1035EE00A3E0FDA3E0FEA3E0FF782312188E7F0078
:1035FE002290033D74FFF078231218A6FFFFFFFF01
:03360E007F002218
:0307FD007F122246
:1046670090034E1218BFFFFFFFFF90034A1218BFB7
:07467700FFFFFFFFC20D224F
:04453D007D107F105E
:10454100AE0AEEC39F4005CEEDCE8D0AEE6D700230
:0F455100FF22750A01124345EF6001227F83228A
:10451800AB0DEBB41611750A0190035B1218BF00BE
:10452800000000CFEBCF22EBB41507750A02CFEBE2
:05453800CF227F0022EC
:1040C6007F027E00121FE9900367E50DF01243455B
:1040D600EF600122E50AC3940450037F83227E46E3
:1040E6007FD71245A1900366E0900044F0E4FDFFFF
:1040F600FE12314E8F0DEFB4160122900360E0548C
:104106000FFF1246B590035FE0540F4480FF12463E
:0B411600B5900367E0FFF50DE4F02218
:10430600900048EDF0A3E4F0A3F0A3F0ED60047E86
:104316008080027E0090004CEEF0900356E0900004
:104326004DF0A37406F0A3EFF0A3E4F0A3F0A3F01E
:0F433600A3EDF0A3E4F0A3F0A3F0A3F0A3F02213
:0724F8001243067E007F6223
:1024FF008E158F169000407455F0A37453F0A3748B
:10250F0042F0A304F075D71F900360E0FF900367BC
:10251F00E0FD7BE87AFD1236118F0DEFB416012224
:10252F00EF60397E007F627C007D407B1B7A00125A
:10253F0045601240C67E007F407C007D627B1B7A27
:10254F0000124560900360E0FF900367E0FD7BE8B9
:10255F007AFD1236118F0DEF6002E144900367E0B0
:10256F006440F0900048E0FDA3E0FF4D7002E109E8
:10257F00EFF513EDF51490004CE020E702C153D2B4
:10258F0001E51445137002C147E5137007E514C345
:10259F009440400C90244CE515F0A3E516F0800C08
:1025AF00C20190244C7400F0A37400F090035FE01C
:1025BF00FF900367E0FD7BE87AFD1236118F0DEF78
:1025CF00601E90244C7400F0A37400F0EF642E6032
:1025DF00012290035FE0540F4480FF1246B58058EC
:1025EF00900367E06480F030011FE5D164407048CC
:1025FF0074C02514F51474FF3513F51374402516A4
:10260F00F516E43515F515A190AFD1AE14EEC39FB5
:10261F005003CFEECFE4FEEE6F601D74002EF582F7
:10262F00E43400F583E0851682851583F00516E501
:10263F0016700205150E80DF90244C7400F0A37401
:10264F0000F0E109E51445137002C1FFE5137008AE
:10265F00AF14EFC39440402690244EE515F0A3E548
:10266F0016F074C02514F51474FF3513F513744068
:10267F002516F516E43515F51575D74080379024D6
:10268F004E7400F0A37440F08FD7E4FFE5146F6031
:10269F001F851682851583E0FE74402FF582E43482
:1026AF0000F583EEF00516E516700205150F80DCB8
:1026BF00E4F513F514900360E0FF900367E0FD7BF2
:1026CF00E87AFD1236118F0DEF601C90244E7400C6
:1026DF00F0A37440F0EF642E600122900360E05489
:1026EF000FFF1246B58009900367E06440F0C153B5
:1026FF0090244E7400F0A37440F090035FE0FF90BD
:10270F000367E0FD7BE87AFD1236118F0DEF600154
:10271F0022900367E06480F0750D1FE5D1640D60B2
:10272F0003AF0D2290000CE0FE7004F50DFF22EEBA
:0B273F00C3940240030240C6AF0D220D
:1045C1007F0A7E00121FE97D127F031224F87F0506
:0F45D1007E00121FE9E50D7002FF22124518222D
:10077800751209750E0F7D087F2512430690004EED
:10078800740AF0900053E4F01224FBAF0DEF7020D0
:10079800900068E0FEB4040575120A8040EEB408C3
:1007A8000575120B8037EE6410703275120C802DAF
:1007B800EF64166028EF64156023EF6413601E8FE2
:1007C8000F1245C1850F0DE50E7E0030E3047F4012
:1007D80080027FC8121FE9150EE50E7099E51224F4
:1007E800F8FF7401C8EFC8088002C333D8FC90032F
:0507F80028F0AF0F2204
:1032D000124345EF600122E50AC3940450037F8343
:1032E00022750A04123F3B8F0DEF60012290004EC1
:1032F000E06408705FC20CA3E0B40602D20C900038
:103300004BE0900366F0E4F50EE50E600790005B7D
:10331000E0FF8005900054E0FF8F0FE50E600790FE
:10332000005DE0FF8005900056E0FFEF64407024F0
:10333000E50F30E70CE50F540F449090035FF080E9
:103340000AE50F540F4410900360F0050EE50EB42B
:1033500002B78006750D1FAF0D22900045E0FF12E9
:1033600046A48F0DEF600122E4F50E7E467FDF124A
:1033700045A1900366E0900044F07D0FAF0CAE0BCA
:1033800012314E8F0DEF7010E50FB4011A850C82CB
:10339000850B83E0F50E800FE50DB42E07E4FF12D8
:1033A00046B58003AF0D227F057E00121FE912464D
:1033B00067E4900367F0900356F07D247F12124378
:1033C00006AF0CAE0B1224FFE50D7023E50E60185E
:1033D000900356E07012850C82850B83E0B40508DB
:1033E0009003567401F080D27D057F04024541E5CB
:1033F0000E600E900356E0C394035005E004F08085
:0C340000B9E4900356F07F01124227222D
:1040680078231218A600000000124345EF600122D1
:10407800E50AC3940550301232D0EF600E7F407EBF
:1040880000121FE91232D0EF600122120778EF60A8
:1040980003AF0D22900062E0FCA3E0FDA3E0FEA3C5
:1040A800E0FF782312188EE4FDFF1224F8E50D7066
:0E40B80002FF22850D0E1245C1AF0E8F0D22A4
:10422700E4FDFCE4F5A10DBD00010CBC01F5BDF4F6
:10423700F2EFC394024014AE0AEEB41205750A05F4
:104247008009EED394104003750A10AE0DEF601489
:10425700EE6416600FEE6415600A1245C1CEEFCE0C
:0F426700EE7001227F027E00121FE9124518221D
:10000300E50AC39405500A1232D0EF6001221207A9
:100013007812466790035BE0FCA3E0FDA3E0FEA338
:10002300E054F0FFEC7B707A5679347812C31218DF
:1000330009700A90035EE0540FF5098003E4F509A3
:10004300E4900329F090033DF09003571218BF008A
:100053000000009003351218BF000000001239EAB7
:10006300EF600D1240C61207781239EAEF600122E1
:10007300E509700F850C82850B83E054FD64E970FC
:100083000221B6E50C24FEF582E50B3401F583E08D
:10009300FEA3E064AA7003EE645560037F9122908F
:1000A3000329E0F508E5086440700221A2E50C2469
:1000B300BEFFE50B3401FE7C00EF2508FFEC3ECFCD
:1000C3002408CF3400FE1246E790033512189AE550
:1000D3000C24BEFFE50B3401FE7C00EF2508FFEC8A
:1000E3003EF583EF2404F582E43583F583E0F50ED2
:1000F300E50E64056005E50EB40F51900335E0FC91
:10010300A3E0FDA3E0FEA3E0FF900357E0F8A3E024
:10011300F9A3E0FAA3E0FBEF2BFFEE3AFEED39FD86
:10012300EC38FC90033512189A90033DE06002010D
:1001330060E5082410F0900335E0FCA3E0FDA3E0A4
:10014300FEA3E0FF90035712189A0160E50E30E713
:1001530003530E3FE50E603FE50EC3940F5038E5A1
:100163000994015030900335E0FCA3E0FDA3E0FEC9
:10017300A3E0FF90034EE0F8A3E0F9A3E0FAA3E0C5
:10018300FBEF2BFFEE3AFEED39FDEC38FC90033527
:1001930012189A801E150974102508F50801A890F5
:1001A300033DE0FF600A900329E07004EFF0014C87
:1001B3007F9222900335E0FCA3E0FDA3E0FEA3E0E1
:1001C300FF90035B12189A1239EAEF600122850C43
:1001D30082850B83E054FD64E960037FA122E50C73
:1001E30024FEF582E50B3401F583E0FEA3E064AA67
:1001F3007003EE645560037FA122E50C240DF582A4
:10020300E4350BF583E0FF900329F0900334740782
:10021300F0EF20E713EF25E0FF900334E014F0E064
:1002230070EF9003297401F0E50C2416FFE4350BFD
:10023300FE124726E4FCFD90034612189A900348E9
:10024300E0FEA3E04E7012E50C2424FFE4350BFE20
:100253001246E790034612189AE50C2413FFE4357F
:100263000BFE124726E4FCFD90037112189A9003CB
:1002730073E0FEA3E04E7012E50C2420FFE4350B7F
:10028300FE1246E790037112189AE50C2411FFE45D
:10029300350BFE124726900328E033333354F8140A
:1002A3007C002FFFEC3EFEE51224FBFDEFC8EDC8FA
:1002B300088005CEC313CE13D8F9FFE4FCFD9003E9
:1002C3006D12189AE50C240EFFE4350BFE12472637
:1002D300E4FCFD90036212189A900370E0FF7E0025
:1002E300900364E0FCA3E02FFFEE3CFEE4FCFD90F2
:1002F3000346E0F8A3E0F9A3E0FAA3E02FF511EA3F
:100303003EF510ED39F50FEC38F50EE50C2410F53C
:1003130082E4350BF583E0900346B4021FE0FCA3AF
:10032300E0FDA3E0FEA3E02511F511EE3510F51075
:10033300ED350FF50FEC350EF50E80071218BF00E3
:10034300000000900335E0FCA3E0FDA3E0FEA3E082
:100353002511FFEE3510FEED350FFDEC350EFC904B
:10036300034212189A900371E0FCA3E0FDA3E0FEA0
:10037300A3E0C39511FFEE9510FEED950FFDEC95EF
:100383000EFC900334E0F9F812181A900330121897
:100393009AE47FF57EFFFDFC900330E0F8A3E0F9DB
:1003A300A3E0FAA3E0FBC31218095023E490033E31
:1003B300F0A3F0900332E0FEA3E0C394F5EE940FB4
:1003C30090036150057401F080317402F0802CE5D4
:1003D3000C2430FFE4350BFE12472690033EEEF06B
:1003E300A3EFF0E50C242CFFE4350BFE1246E79057
:1003F300036D12189A9003617403F0900364E0FE96
:10040300A3E04E605790036DE0FCA3E0FDA3E0FE84
:10041300A3E0FFEC4D4E4F6043E50C2410F582E45E
:10042300350BF583E064016014900346E0FCA3E020
:10043300FDA3E0FEA3E0FFEC4D4E4F601FE50C244F
:100443000BF582E4350BF583E07011E50C240CF514
:1004530082E4350BF583E0C39402500CE509700583
:1004630075090101437FA322900362E0FCA3E0FD31
:10047300A3E0FEA3E0FF900335E0F8A3E0F9A3E0D7
:10048300FAA3E0FBEF2BFFEE3AFEED39FDEC38FC6F
:0E04930090036212189A7D107F0512454122D7
:1038840090034AE0FCA3E0FDA3E0FEA3E0FF900365
:103894003512189A124121EF600122900346E0FC90
:1038A400A3E0FDA3E0FEA3E0FFEC4D4E4F60769055
:1038B4000335E0FCA3E0FDA3E0FEA3E0FF90034694
:1038C400E0F8A3E0F9A3E0FAA3E0FBEF2BFFEE3A64
:1038D400FEED39FDEC38FC90033512189A90032E56
:1038E400E0FCA3E0FD7F0112274A8F0D900335E031
:1038F400FCA3E0FDA3E0FEA3E0FF900346E0F8A3F1
:10390400E0F9A3E0FAA3E0FBC3EF9BFFEE9AFEED20
:1039140099FDEC98FC90033512189AE50D60061297
:0A3924004667AF0D22C20D7F00229E
:103C1700122A36EF600564B1600122EF601190034C
:103C2700521218BF00000000122A36EF600122125C
:103C37003884EF600122900352E0FCA3E0FDA3E08B
:103C4700FEA3E0FF90033912189A1239D6EF6001EC
:103C570022900341E0250CF509900340E0350BF570
:103C670008F583E509241CF582E43583F5831218EA
:103C7700BF01000000900339E0FCA3E0FDA3E0FED4
:0A3C8700A3E0FF124738123B97221A
:083C91007FFF7EFF7DFF7CFF39
:103C99008F118E108D0F8C0E90033EE0FCA3E0FD7A
:103CA9004C7002FF22CFEDCFCEECCEE4FCFD9003A9
:103CB9005BE0F8A3E0F9A3E0FAA3E02FFFEA3EFEF8
:103CC900ED39FDEC38FC1239E4EF600122E50C24F2
:103CD900E8FFE50B3401FE1246E7EF2511FFEE354B
:103CE90010FEED350FFDEC350EFC124738E50C24BE
:103CF900E8F582E50B3401F58312189A123BC322C9
:1041D100C20BE50AC39414404A1239D6EF6001229A
:1041E100900341E0250CF509900340E0350BF508FB
:1041F100F583E509240BF582E43583F583E020E4BA
:1042010022900357E0FCA3E0FDA3E0FEA3E0FF1230
:104211004738E509241CF582E43508F58312189A1C
:06422100023BC37F0022F6
:103D8000AF0AEFC3941250037FB422EFB4124690EF
:103D90000361E06403603E900334E0FF7401C8EF08
:103DA000C8088002C333D8FC900329F0900342E096
:103DB000F8A3E0F9A3E0FAA3E0FB900370E0FFE4CE
:103DC000FCFDFEEB2FFFEE3AFEED39FDEC38FC90EA
:103DD000034212189AAF0AEFD394134009EFB414B8
:103DE000077823E67002C20B300B071241D1EF6057
:063DF000012212453D22F4
:1036EC00E50AC394135007120800EF60012212453B
:1036FC003DEF6001221239D6EF600122900340E0C9
:10370C00FEA3E0250CF582E50B3EF58374E5F01283
:10371C003BC3EF600122900339E0F50EA3E0F50FF7
:10372C00A3E0F510A3E0F511E50E450F451045118A
:10373C007002E1C1900339E0FCA3E0FDA3E0FEA31D
:10374C00E024FFFFEE34FFFEED34FFFDEC34FFFC14
:10375C0090033912189A9003521218BF00000000FF
:10376C0090032AE50EF0A3E50FF0A3E510F0A3E516
:10377C0011F07F011213C3EF600122900352E0FCA1
:10378C00A3E0FDA3E0FEA3E02401FFE43EFEE43D44
:10379C00FDE43CFC90035212189A300EC31238848C
:1037AC00EF600122900352E0FCA3E0FDA3E0FEA336
:0837BC00E0FF023C997F0022AE
:1020000012080090033DEFF070091236ECEF7002F9
:1020100021692290033DE0FF644260012290032881
:10202000E0FEC3900341E09400900340E09E500224
:102030002169900339E0700EA3E0700AA3E07006F6
:10204000A3E07002210D1213ADEF600122200E02F9
:102050002169900339E0FCA3E0FDA3E0FEA3E0FFCB
:1020600090035212189A124650EF600122900339E1
:10207000E0FCA3E0FDA3E0FEA3E0FF90032A12181A
:102080009A7F021213C3EF600122123884EF6001BD
:1020900022AF0CAE0B900328E0FDED6012E4FC8F44
:1020A000828E83E4F00FBF00010EDCF31D80EBE4B1
:1020B00090033DF0124179E4900340F0A3F09003C7
:1020C00035E0FCA3E0FDA3E0FEA3E0FF900368126F
:1020D000189A900329E0F50EE50E602A123BC3EF33
:1020E000600122900335E0FCA3E0FDA3E0FEA3E045
:1020F0002401FFE43EFEE43DFDE43CFC9003351288
:10210000189A150E80D2123C91EF605D22900370F8
:10211000E090033DF090036874FF12185B1239E4FD
:10212000EF600122E4900340F0A3F0900328E0FE6A
:10213000900340E0FCA3E0FDC39400EC9E501FE53B
:102140000C2DF582E50B3CF583E064E5601B900304
:1021500041E02420F0900340E03400F080CD900373
:102160003DE014F070AF7FB222900339E0FCA3E0B1
:10217000FDA3E0FEA3E0FF90035212189AE5B154CC
:10218000D064C060037F1122124650EF600122121A
:102190003884EF600122900352E0FCA3E0FDA3E04D
:1021A000FEA3E0FF90033912189A123C91EF6001F0
:1021B000221239D6EF600122900341E0250CF50987
:1021C000900340E0350BF508E4FFEFC3940B500497
:1021D0007E2080027E00E5092FF582E43508F58334
:1021E000EEF00FEFB420E3E5092418F582E435089A
:1021F000F5837421F0A37430F0E509241CF582E422
:102200003508F5837401F0E4FFEFC3940B5031906F
:10221000036CE0F8E6FE6028EEB42E087F08900319
:102220006CE004F090036CE0F8E6FEE5092FF5821F
:10223000E43508F583EEF00F90036CE004F080C9FC
:10224000900339E0FCA3E0FDA3E0FEA3E0FF12470A
:1022500038123B97EF600122900339E0FCA3E0FDC8
:10226000A3E0FEA3E0FF90035212189A90035712C6
:1022700018BF000000009003711218BF000000009A
:0D228000E490033DF07D147F1012454122D3
:101D4700D20B900328E0FE900334E0FDE4C8EDC811
:101D5700088005C333CE33CED8F924FFFFEE34FF16
:101D6700FEE4FCFD900357E0F8A3E0F9A3E0FAA333
:101D7700E02FFFEA3EFEED39FDEC38FC900334E03E
:101D87002512F9F812181A90038012189A90037105
:101D9700E0FCA3E0FDA3E0FEA3E0FFC8E9C812183A
:101DA7001A90032A12189A90032AE0FCA3E0FDA3D5
:101DB700E0FEA3E0FF900380E0F8A3E0F9A3E0FAD8
:101DC700A3E0FBD3121809402D900380E0FCA3E0A9
:101DD700FDA3E0FEA3E0FF90032AE0F8A3E0F9A348
:101DE700E0FAA3E0FBEF9BFFEE9AFEED99FDEC987E
:101DF700FC9003808011900339E0FCA3E0FDA3E091
:101E0700FEA3E0FF90035212189A900339E070295D
:101E1700A3E07025A3E07021A3E0701D900357E0B5
:101E2700FCA3E0FDA3E0FEA3E0FFEC4D4E4F7002E4
:101E3700FF22123C17EF601F22900357E0FCA3E03C
:101E4700FDA3E0FEA3E0FFEC4D4E4F700A90038028
:101E57001218BF00000001900352E0FCA3E0FDA3AD
:101E6700E0FEA3E0FF782312188E900380E0FCA326
:101E7700E0FDA3E0FEA3E024FFFFEE34FFFEED3418
:101E8700FFFDEC34FFFC90038012189A900352E098
:101E9700FCA3E0FDA3E0FEA3E0FF90032A12189A3B
:101EA700782712188EE4FF1213C3EF600122200E69
:101EB70002E149900380E0700CA3E07008A3E07092
:101EC70004A3E060067E007F0180047E007F00EFB0
:101ED7004E700E782312184090035212189A7F0002
:101EE70022900380E0FCA3E0FDA3E0FEA3E0FF1245
:101EF70017FB123C99EF600122900352E0FCA3E02C
:101F0700FDA3E0FEA3E0FF782712188E124650EFDC
:101F1700600122782712184090032A12189A7F022C
:101F27001213C3EF60012290038074FF12185BEC59
:101F37004D4E4F70C4782312184090035212189ACE
:101F4700E1E5900380E06002C171A3E06002C17126
:101F5700A3E06002C171A3E06002C1717827121883
:101F6700408F118E108D0F8C0E90032AE50EF0A373
:101F7700E50FF0A3E510F0A3E511F07F011213C3FD
:101F8700EF600122900380E0FCA3E0FDA3E0FEA345
:101F9700E02401FFE43EFEE43DFDE43CFC900380C9
:101FA70012189A300EC3900380E0FCA3E0FDA3E073
:101FB700FEA3E0FF123C99EF600122900339E0FC99
:101FC700A3E0FDA3E0FEA3E0FF90035212189A904E
:101FD70003711218BF00000000E490033DF01238AF
:021FE700842252
:10340C00E50AC3941350037FB4221239D6EF60013E
:10341C0022C200900341E0250CF509900340E035F1
:10342C000BF508782BE6FFE509240BF582E435084B
:10343C00F583E0F6EFF4600FE509240BF582E43533
:10344C0008F583EFF0D2007929E7F50F782AE6F535
:10345C000EE5092416FFE43508FE1247267829EEFE
:10346C00F608EFF6E50FF47003E50EF46014E509C9
:10347C002416F582E43508F583E50EF0A3E50FF08C
:10348C00D2007927E7F50F7828E6F50EE509241820
:10349C00FFE43508FE1247267827EEF608EFF6E52E
:1034AC000FF47003E50EF46014E5092418F582E4BA
:1034BC003508F583E50EF0A3E50FF0D20078231262
:1034CC0018408F118E108D0F8C0EE509241CFFE413
:1034DC003508FE1246E7782312188EE50E550F5567
:1034EC00105511F46023AF11AE10AD0FAC0E90035C
:1034FC005712189A124738E509241CF582E435084E
:10350C00F58312189AD200C20B300003023BC37F22
:02351C0000228B
:1046C600E4FF74232FF876FF0FEFB40AF512340CCB
:0146D60022C1
:103E6300782912184090033512189A7825E6FF78BE
:103E730027E6FC08E6FD12392EEF600122E5122445
:103E8300F8FF7825E6FEC8EFC8088002C333D8FCE4
:103E93007F00FE7828EF26F618EE36F6900371E0E1
:103EA300F8A3E0F9A3E0FAA3E0FBE4FCFDEF2BFFAA
:103EB300EA3EFEED39FDEC38FC90037112189A7856
:0C3EC30025E6782326F6E47825F6FF2299
:103ECF00782912184090033512189A7825E6FF7852
:103EDF0027E6FC08E6FD12274AEF600122E51224CF
:103EEF00F8FF7825E6FEC8EFC8088002C333D8FC78
:103EFF007F00FE7828EF26F618EE36F6900371E075
:103F0F00F8A3E0F9A3E0FAA3E0FBE4FCFDEF2BFF3D
:103F1F00EA3EFEED39FDEC38FC90037112189A78E9
:0C3F2F0025E6782326F6E47825F6FF222C
:10400000E50AC3941250037FB422900371E0FCA32D
:10401000E0FDA3E0FEA3E0FF782712188E9003577F
:10402000E0FCA3E0FDA3E0FEA3E0FF1245E08F115A
:104030008E108D0F8C0EAF11AE10AD0FAC0E78231D
:1040400012184CD3121809400DAF11AE10AD0FACC1
:104050000E782312188E78231218401245FD900313
:084060007112189A12351E229C
:102E1600E50AD394145007E50AC3941250037FB40D
:102E2600227823E608F6E418F67825F6900371E092
:102E3600F8A3E0F9A3E0FAA3E0FB900357E0FCA3B4
:102E4600E0FDA3E0FEA3E0C39BFFEE9AFEED99FD35
:102E5600EC98FC1245E08F118E108D0F8C0EE50F4D
:102E6600451060047FFF8002AF117826EFF67824C4
:102E7600E67002E1A77826E67002E1A790033DE03E
:102E8600F47002E1A71241797825E67002E114E5B3
:102E96001224F7FF74407E00C8EFC8088006CEA251
:102EA600E713CE13D8F8FF7825E6C39FEE6480F8C3
:102EB60074809850367825E6FFE4FCFDFE782912EA
:102EC600184CEF2BFFEE3AFEED39FDEC38FC900383
:102ED60035E0F8A3E0F9A3E0FAA3E06FFFEA6EFE9F
:102EE600E96DFDE86CFC4D4E4F6036900335E0F51C
:102EF6000EA3E0F50FA3E0F510A3E0F511123E6373
:102F0600EF600122AF11AE10AD0FAC0E800E900334
:102F160035E0FCA3E0FDA3E0FEA3E0FF782912184C
:102F26008E90033DE0FF900329E0FEC39FFFF50E60
:102F36007826E6FDEFD39D4003E6F50EE50ED37841
:102F46002496400FE60826F618E6FF90033DE02F8C
:102F5600F08053C37824E6950EF608E50E26F6C3F0
:102F660008E6950EF690033DE0250EF0E06E600251
:102F7600C174900352E0FCA3E0FDA3E0FEA3E0FFD2
:102F860090032A12189AE4FF1213C3EF600122304D
:102F96000E0890033D74FFF0C174E490033DF0C148
:0C2FA600747825E66003023E637F002281
:10280000E50AD394145007E50AC3941250037FB429
:10281000227823E6FF08F67006300B030241D1E46C
:102820007823F67825F608F6E50A641270339003EB
:1028300061E06403602B900359E0FEA3EEFFE51214
:1028400024F8FEEFC8EEC8088002C313D8FCFF903E
:10285000033DE0FEC3EF9EFF7824E6D39F4002EFE6
:10286000F67824E6700221D190033DE0F4705F9089
:102870000339E0700CA3E07008A3E07004A3E060EB
:102880003EE50AB4120B900361E0640360037FB17C
:1028900022900352E0FCA3E0FDA3E0FEA3E0FF785A
:1028A0002D12188E124650EF600122782D1218401A
:1028B00090032A12189A7F021213C3EF60082212A3
:1028C0003C17EF600122782616E490033DF0124198
:1028D000797825E66070E51224F7FF7440C8EFC8E8
:1028E000088002C313D8FCFF7825E6C39F5034E666
:1028F000FFE4FCFDFE782912184CEF2BFFEE3AFEA8
:10290000ED39FDEC38FC900335E0F8A3E0F9A3E0E5
:10291000FAA3E06FFFEA6EFEE96DFDE86CFC4D4E38
:102920004F6036900335E0F50EA3E0F50FA3E0F518
:1029300010A3E0F511123ECFEF600122AF11AE10EF
:10294000AD0FAC0E800E900335E0FCA3E0FDA3E0DC
:10295000FEA3E0FF782912188E90033DE0FF90035C
:1029600029E0C39FFFF50E7824E6FEEFD39E400FCB
:10297000E60826F618E6FF90033DE02FF080527837
:1029800025E50E26F6C318E6950EF6E670147828AF
:10299000E6650C700418E6650B7007123ECFEF6019
:1029A0000122900352E0FCA3E0FDA3E0FEA3E0FFC0
:1029B00090032A12189AE4FF1213C3EF6001223029
:1029C0000E0890033D74FFF00161E490033DF001B7
:1029D00061300D07123884EF6001227825E6600728
:1029E000123ECFEF6001227826E6600FE6FFE47426
:1029F000FFFEFDFC123C99EF600122900371E0FCA8
:102A0000A3E0FDA3E0FEA3E0FF900357E0F8A3E0FE
:102A1000F9A3E0FAA3E0FBC3121809501690037162
:102A2000E0FCA3E0FDA3E0FEA3E0FF900357121833
:062A30009AD20B7F002288
:10427600E50A641460037FB422900339E0FCA3E0EE
:10428600FDA3E0FEA3E0FF90035212189A9003717B
:104296001218BF00000000900339E0700CA3E07014
:1042A60008A3E07004A3E06007E490033DF08006F5
:0E42B60090033D74FFF07D157F1412454122E8
:103DF600E50A64156007124276EF600122900371AE
:103E0600E0FCA3E0FDA3E0FEA3E0FF782712188EF6
:103E1600782312184090037112189A900357E0F80D
:103E2600A3E0F9A3E0FAA3E0FBC31218095014902B
:103E36000357E0FCA3E0FDA3E0FEA3E0FF900371BF
:103E460012189A900371E0FCA3E0FDA3E0FEA3E044
:0D3E5600FF1245E0782312188E12351E224F
:10228D00E50A64156007124276EF6001227823E6B5
:10229D00FF08E67827CFF608EFF6E47823F608F680
:1022AD0090033DE0B4FF037F00227828E6184670C6
:1022BD000281F5900371E0FCA3E0FDA3E0FEA3E035
:1022CD00FF900357E0F8A3E0F9A3E0FAA3E0FBD3F6
:1022DD00121809500281F5124179900373E0FEA3A3
:1022ED00E0FF900359E0FCA3E0C39FF50FEC9EF5D2
:1022FD000ED3E50F782896E50E18964007E6F50EF5
:10230D0008E6F50F900328E0FDFEC3E50F9400E508
:10231D000E9E500261EB900374E0600261EBED14D0
:10232D00FF900373E05F600261EBE50EFFE51224A1
:10233D00F8FEEFC8EEC8088002C313D8FCFF750E77
:10234D00008F0F90033DE0FF900329E0C39FFFAE88
:10235D000FEED39F4005750E008F0FAF0F7926E757
:10236D00782426FD19E71836FC12392EEF6001226C
:10237D00AF0F90033DE02FF0AF0FE51224F8FEEF05
:10238D00C8EEC8088002C333D8FC750F00F50E9057
:10239D000371E0F8A3E0F9A3E0FAA3E0FBAE0EAF02
:1023AD000FE4FCFDEB2FFFEA3EFEED39FDEC38FCB2
:1023BD0090037112189AC37828E6950FF618E695D2
:1023CD000EF67824E50F26F618E50E36F69003295D
:1023DD00E0FF90033DE0C39F500241B781B29003EF
:1023ED0028E0FD24FFFFEFFE900373E0FAA3E0FB6E
:1023FD00EE5AFAEDFEC3E49BFFEE9AFED3E50F9F76
:10240D00E50E9E40048E0E8F0F1239EAEF60012209
:10241D00900328E024FFFFEFFE900373E0FCA3E0A0
:10242D00FDEE5CFEED250CFFEE350BFE7926E77813
:10243D002426FD19E71836FCAB0FAA0E1245609045
:10244D000371E0F8A3E0F9A3E0FAA3E0FBAE0EAF51
:10245D000FE4FCFDEB2FFFEA3EFEED39FDEC38FC01
:10246D0090037112189AC37828E6950FF618E69521
:10247D000EF67824E50F26F618E50E36F690037461
:10248D00E0600241B7900328E014FF900373E05F12
:10249D00600241B7900329E0FF90033DE004F0C3D3
:1024AD009F500241B7900352E0FCA3E0FDA3E0FE74
:1024BD00A3E0FF90032A12189AE4FF1213C3EF60F2
:1024CD000122300E1C90033D74FFF0900371E0FC6F
:1024DD00A3E0FDA3E0FEA3E0FF90035712189A803E
:0B24ED0007E490033DF041B77F0022A0
:10100000E50A64156007124276EF6001227823E654
:10101000FE08E6FF7827EEF6FE08EFF64E70063083
:101020000B030241D1E47823F608F67828E6184647
:10103000700261A090033DE0F4600201DB9003398F
:10104000E0700CA3E07008A3E07004A3E0605DE52D
:101050000AB4120B900361E0640360037FB1229035
:101060000352E0FCA3E0FDA3E0FEA3E0FF900371C8
:1010700012189A124650EF600122900371E0FCA30F
:10108000E0FDA3E0FEA3E0FF90032A12189A7F027E
:101090001213C3EF60012290032EE0650B7004A3CE
:1010A000E0650C700E123884EF600822123C17EFD6
:1010B0006001227FFF7EFF7DFF7CFF123C99EF6085
:1010C0000122900357E0FCA3E0FDA3E0FEA3E0FFB4
:1010D00090037112189AE490033DF0124179900345
:1010E00028E024FFFFEFFE900373E0FCA3E0FDEE99
:1010F0005CFC90033DE0FF900329E0C39FFF7E006E
:10110000E51224F8FBEFC8EBC8088005C333CE33E3
:10111000CED8F9FEC3E49DF50FEE9CF50ED3E50F96
:10112000782896E50E18964007E6F50E08E6F50FC6
:10113000900328E0FDFEC3E50F9400E50E9E5002EB
:10114000412A900374E06002412AED14FF9003737A
:10115000E05F6002412AE50EFFE51224F8FEEFC8C9
:10116000EEC8088002C313D8FCFF750E008F0FAFC6
:101170000F7926E7782426FD19E71836FC12274A4E
:10118000EF600122AF0F90033DE02FF0AF0FE512AB
:1011900024F8FEEFC8EEC8088002C333D8FC750FF0
:1011A00000F50E900371E0F8A3E0F9A3E0FAA3E0E4
:1011B000FBAE0EAF0FE4FCFDEB2FFFEA3EFEED3978
:1011C000FDEC38FC90037112189AC37828E6950F4D
:1011D000F618E6950EF67824E50F26F618E50E3695
:1011E000F6900371E0FCA3E0FDA3E0FEA3E0FF9016
:1011F0000357E0F8A3E0F9A3E0FAA3E0FBC3121859
:10120000095016900371E0FCA3E0FDA3E0FEA3E00B
:10121000FF90035712189AD20B900329E0FF900316
:101220003DE0C39F5002012B6171900328E0FD2433
:10123000FFFFEFFE900373E0FAA3E0FBEE5AFAED36
:10124000FEC3E49BFFEE9AFED3E50F9FE50E9E40A2
:10125000048E0E8F0F900374E0702F900328E0141B
:10126000FF900373E05F7022900371E0FCA3E0FD48
:10127000A3E0FEA3E0FF900357E0F8A3E0F9A3E0AA
:10128000FAA3E0FBD312180940071239EAEF600114
:10129000227926E7782426FF19E71836FEEEC0E00B
:1012A000EFC0E0900328E024FFFFEFFE900373E01F
:1012B000FCA3E0FDEE5CFEED250CFDEE350BFCD055
:1012C000E0FFD0E0FEAB0FAA0E124560900371E084
:1012D000F8A3E0F9A3E0FAA3E0FBAE0EAF0FE4FC45
:1012E000FDEB2FFFEA3EFEED39FDEC38FC9003717B
:1012F00012189AC37828E6950FF618E6950EF67838
:1013000024E50F26F618E50E36F6123BC3EF600112
:1013100022900371E0FCA3E0FDA3E0FEA3E0FF90B8
:101320000357E0F8A3E0F9A3E0FAA3E0FBC3121827
:10133000095016900371E0FCA3E0FDA3E0FEA3E0DA
:10134000FF90035712189AD20B900374E0600201C9
:101350002B900328E014FF900373E05F6002012BE1
:10136000900329E0FF90033DE004F0C39F50020189
:101370002B900352E0FCA3E0FDA3E0FEA3E0FF906E
:10138000032A12189AE4FF1213C3EF600122300EF1
:101390000890033D74FFF0012BE490033DF0012B16
:0D13A000300D07123884EF6001227F00221B
:1046E7008F828E83E0FFA3E0FEA3E0FDA3E0FC2220
:0A4726008F828E83E0FFA3E0FE22E5
:07473800EFCCFFEECDFE22E5
:1045E000C3E4CC13CD13CE13FFE51224F7600DF80E
:0D45F000C3ED13FDEE13FEEF13FFD8F42210
:1045FD00C3E4CF33CE33CD33FCE51224F7600DF891
:0D460D00C3EE33FEED33FDEC33FCD8F42298
:1045600005A28D828C8315A28F828E837F00EA60E4
:1045700007E0A3A5DFFBDAF9EB6005E0A3A5DBFB11
:014580002218
:03000000024710A4
:0C471000787FE4F6D8FD758142022FB2DC
:10172D0075F008758200EF2FFFEE33FECD33CDCC73
:10173D0033CCC58233C5829BED9AEC99E5829840F6
:10174D000CF582EE9BFEED9AFDEC99FC0FD5F0D6D3
:10175D00E4CEFBE4CDFAE4CCF9A88222B800C1B9FD
:10176D000059BA002DEC8BF084CFCECDFCE5F0CB3B
:10177D00F97818EF2FFFEE33FEED33FDEC33FCEB74
:10178D0033FB10D703994004EB99FB0FD8E5E4F92F
:10179D00FA227818EF2FFFEE33FEED33FDEC33FC1C
:1017AD00C933C910D7059BE99A4007EC9BFCE99A10
:1017BD00F90FD8E0E4C9FAE4CCFB2275F010EF2F55
:1017CD00FFEE33FEED33FDCC33CCC833C810D70755
:1017DD009BEC9AE899400AED9BFDEC9AFCE899F890
:0E17ED000FD5F0DAE4CDFBE4CCFAE4C8F92223
:0E17FB00C3E49FFFE49EFEE49DFDE49CFC22FF
:10180900EB9FF5F0EA9E42F0E99D42F0E89C45F035
:0118190022AC
:10181A00E8600FECC313FCED13FDEE13FEEF13FFAC
:03182A00D8F122D0
:10182D00E8600FEFC333FFEE33FEED33FDEC33FC19
:03183D00D8F122BD
:0C184000E6FC08E6FD08E6FE08E6FF22D4
:0D184C00E6FB08E6F908E6FA08E6CBF8220C
:101859007401FF3395E0FEFDFCA3A3A3E02FFFF085
:10186900E582158270021583E03EFEF0E58215825D
:1018790070021583E03DFDF0E58215827002158343
:05188900E03CFCF02230
:0C188E00ECF608EDF608EEF608EFF62286
:0C189A00ECF0A3EDF0A3EEF0A3EFF022C1
:1018A600D083D082E493F608740193F60874029309
:0918B600F608740393F674047340
:1018BF00A8828583F0D083D0821218D61218D61240
:1018CF0018D61218D6E473E493A3C583C5F0C58365
:1018DF00C8C582C8F0A3C583C5F0C583C8C582C873
:0118EF0022D6
:100C9B00E5172403F582E43403F583E0051722906E
:100CAB000300300903900303E475F001121A5D028F
:100CBB001A052002E97F2ED2028018EF540F2490E0
:100CCB00D43440D4FF30060BEF24BFB41A005003CA
:100CDB002461FFE51860021518051BE51B70020562
:100CEB001A30090E900300E475F001121A5DEF0241
:100CFB001A4B0244F17403D2098003E4C209F517BD
:100D0B00900300121A74E4F518F51AF51BE5186038
:100D1B00077F20120CDE80F57519FFC203C202C2D9
:100D2B0004C205C207C208C20A120CAAFF700D301A
:100D3B0009057F00120CEFAF1BAE1A22B4255FC260
:100D4B00D5C206120CAAFF24D0B40A00501A75F0B3
:100D5B000A781830D50508B6FF0106C6A426F6207A
:100D6B00D5047002D20580D924CFB41A00EF5004F9
:100D7B00C2E5D206020EF0D20380C6D20280C0D2E8
:100D8B000480BCD2D580BAD20780B47F20120CDE8F
:100D9B002004077401B5180040F1120C9BFF120CD4
:100DAB00DE020D18D20AD2088095120C9BFB120C96
:100DBB009BFA120C9BF94A4B700679C17A0F7BFF99
:100DCB0020042EE518602A7E008E82758300121A8D
:100DDB001E60060EEE651970F0C2D5EBC0E0EAC0DE
:100DEB00E0E9C0E0EE120F37D0E0F9D0E0FAD0E046
:100DFB00FB121A05FF60AAEBC0E0EAC0E0E9C0E015
:100E0B00120CDED0E02401F9D0E03400FAD0E0FB84
:100E1B00E5190460DCD519D980877BFF7A0F79330C
:100E2B00D204809C791080027908C208C20A80081B
:100E3B00D2D5790A8004790AC2D5E519047002F576
:100E4B0019E4FAFDFEFF120C9BFC7B082003131226
:100E5B000C9BFD7B1030020A120C9BFE120C9BFFAD
:100E6B007B20EC3382D592D55013C3E43002069F1E
:100E7B00FFE49EFEE42003039DFDE49CFCE4CBF821
:100E8B00C203EC700CCFCECDCCE824F8F870F38015
:100E9B0017C3EF33FFEE33FEED33FDEC33FCEB33D7
:100EAB00FB994002FB0FD8E9EB300305F8D0E0C407
:100EBB0048B203C0E00AEC4D4E4F78207B0070C265
:100ECB00EAB5190040BCC0E0120F39D0F0D0E020D9
:100EDB000304C4C0E0C4B203C0F0120CC7D0F0D5F9
:100EEB00F0EB020D18121A7D0DB5530E2F580D860F
:100EFB004C0D82420E334F0E3B440E3B490D9B4330
:080F0B000E41550E25460E258E
:100F1300450E25470FE1500D8A2D0D8E2E0DB12B59
:100F23000D92230DAF200FCA2A0D4A4800000DA9C8
:100F33003F3F3F00790AA2D5200514300709B910B5
:100F4300020404B9080104A2D520080250010420B8
:100F530004689204B518005034C0E07F20300519AE
:100F63007F30A20472087207500F120F90C204C29E
:100F730008C207C20A7F30800F300703E9C0E012BE
:100F83000CDE300703D0E0F9D0E0B518CC300717FA
:100F93007F30B9100C120CDE7F583006077F788043
:100FA30003B90803120CDE3004057F2D020CDE7F2B
:100FB30020200AF87F2B2008F322920480CF286E8A
:100FC300756C6C2900D203120C9B3003F8C20378B2
:100FD3001830D50108F6020D4A2D50434958120C1A
:100FE3009B2403B405004001E4900FDC93120CCF63
:0D0FF300743A120CCFD205751804020E2FAF
:1018F000E709F60870FA8046E709F20870FA803EB8
:1019000088828C83E709F0A370FA807EE309F608E9
:1019100070FA8076E309F20870FA806E88828C8310
:10192000E309F0A370FA806289828A83E0A3F60853
:1019300070FA805689828A83E0A3F20870FA804A9E
:1019400080D280FA80C680D4806580F28031801099
:1019500080A680EA809A80A880DA80E280CA8031FE
:1019600089828A83ECFAE493A3C8C582C8CCC58374
:10197000CCF0A3C8C582C8CCC583CC70E9800D89E2
:10198000828A83E493A3F60870F9ECFAA9F0EDFBE0
:101990002289828A83ECFAE0A3C8C582C8CCC583B9
:1019A000CCF0A3C8C582C8CCC583CC70EA80DD89E1
:1019B000828A83E493A3F20870F980CE88F0ED2444
:1019C00002B4040050C4F582EB2402B4040050BAFF
:0919D00023234582239019407382
:1019D900EF4E6012EF60010EEDBB010B89828A8325
:1019E900F0A3DFFCDEFA2289F05007F709DFFCA932
:0C19F900F022BBFEFCF309DFFCA9F02289
:101A0500BB010689828A83E0225002E722BBFE02DF
:091A1500E32289828A83E4932212
:101A1E00BB010CE58229F582E5833AF583E022507D
:101A2E0006E92582F8E622BBFE06E92582F8E222C7
:0D1A3E00E58229F582E5833AF583E49322E1
:101A4B00BB010689828A83F0225002F722BBFE017A
:021A5B00F32274
:101A5D00F8E0FBA3A3E0F925F0F0E5821582700212
:071A6D001583E0FA38F022B6
:091A7400EBF0A3EAF0A3E9F02273
:101A7D00D083D082F8E4937012740193700DA3A3F8
:101A8D0093F8740193F5828883E47374029368600C
:061A9D00EFA3A3A380DF0C
:1044F100EFB40A07740D1244FC740A309811A8999C
:10450100B8130CC2983098FDA899C298B811F6302A
:0745110099FDC299F5992202
:00000001FF
