:1008D30053746172742053504920464C415348204D
:1008E300404368697049443D253032580A004368E3
:1008F30069705F4572617365206F7665720A005790
:1009030072697465206F7665720A0020253032782B
:03091300202000A1
:0A09E10075A15575A1AA75A1FF22AA
:0E099700EF4E600905A1EF1F70F61E80F322DF
:10093D00AD07AC06ED4C600E7FE87E03120997ED16
:07094D001D70F11C80EE2279
:0D09A50043C60143C40843C50C43CE1022D5
:10068900C29FD29EC29DC2CDC2CC43878090003604
:100699001204B500000082E47B0AFAF9F8900036EA
:1006A900E0FCA3E0FDA3E0FEA3E0FF1203F390004A
:1006B9003AEBF0900036E0FCA3E0FDA3E0FEA3E0F6
:1006C900FFE47B0AFAF9F81203F39000361204A941
:1006D90090003AE0C39405401F900036E0FCA3E087
:1006E900FDA3E0FEA3E02401FFE43EFEE43DFDE4BA
:1006F9003CFC9000361204A9E589540F4420F58981
:1007090043C9A0900036A3A3A3E0F404F58DD28ECB
:04071900D299D29C03
:01071D0022B9
:0809EB003098FDC298AF99227B
:0809F3008F993099FDD2992281
:1009670053FC7775FA6043BAB453BABF75FB0222DA
:10095400C29475F90530FBFD75F9FF30FBFDAFF965
:02096400D2942B
:01096600226E
:0D09B200120954EF30E00512095480F422C0
:10097700C29475F90130FBFD8FF930FBFDD294224B
:0B09CB00C29475F90630FBFDD29422A7
:0A09D600120954EF20E1031209CBCF
:0109E00022F4
:100987001209D6C29475F96030FBFDD2940209B200
:060878009000411204A9EA
:10087E00E4FBC29475F90330FBFD900041A3E0FD4B
:10088E00A3E0FEA3E0FFE4FC78101204968FF9308B
:10089E00FBFD900041A3A3E0FEA3E0FFE4FDFC7886
:1008AE00081204968FF930FBFD900041A3A3A3E03C
:1008BE00FFE48FF930FBFD75F9FF30FBFDABF9D28C
:0408CE0094CFEBCF09
:0108D2002203
:100817009000411204A91209CBC29475F90230FB6A
:10082700FD900041A3E0FDA3E0FEA3E0FFE4FC7818
:10083700101204968FF930FBFD900041A3A3E0FE50
:10084700A3E0FFE4FDFC78081204968FF930FBFD66
:10085700900041E0FCA3E0FDA3E0FEA3E0FF8FF9D9
:1008670030FBFD900045E0F5F930FBFDD29402091D
:01087700B2CE
:06079C009000361204A9D2
:1007A200E490003FF0A3F090003AE0FEA3E0FFC324
:1007B200900040E09F90003FE09E5058900036E04D
:1007C200FCA3E0FDA3E0FEA3E0FF12087890003C4A
:1007D200E0FBA3E0FAA3E0F9A3E0FCA3E0F5828C3E
:1007E20083EF120395900036E0FCA3E0FDA3E0FE48
:1007F200A3E02401FFE43EFEE43DFDE43CFC900066
:10080200361204A9900040E004F0709B90003FE093
:0408120004F08093DB
:0108160022BF
:06071E009000361204A950
:10072400E490003FF0A3F090003AE0FEA3E0FFC3A2
:10073400900040E09F90003FE09E505B900036E0C8
:10074400FCA3E0FDA3E0FEA3E0FF90003CE0FBA3DC
:10075400E0FAA3E0F9A3E0F8A3E0F58288831203AA
:1007640068900045F0120817900036E0FCA3E0FD05
:10077400A3E0FEA3E02401FFE43EFEE43DFDE43CEF
:10078400FC9000361204A9900040E004F0709890A8
:07079400003FE004F080903B
:01079B00223B
:100557001206897BFF7A0879D3AFA1900039E4F0BE
:10056700A3EFF012006E1209671209CBE4FF12091C
:10057700771209877BFF7A0879F112006E900032B3
:100587001204B500000000E47F32FEFDFC9000324B
:10059700E0F8A3E0F9A3E0FAA3E0FBC31204855057
:1005A7002E900032E0FCA3E0FDA3E0FEA3E0FF24D1
:1005B70000F582E43400F583EBF0EF2401FFE43E1D
:1005C700FEE43DFDE43CFC9000321204A980B890A3
:1005D700003AE4F0A37432F0A37401F0A37400F0BE
:1005E700A37400F07F007E007D007C0012071E7B55
:1005F700FF7A09790212006E90003AE4F0A3743290
:10060700F0A37401F0A37400F0A37400F07F007EE0
:10061700007D007C0012079C9000321204B5000098
:100627000000E47F32FEFDFC900032E0F8A3E0F921
:10063700A3E0FAA3E0FBC312048550447BFF7A09C9
:10064700790E900032A3A3A3E02400F582E43400DE
:10065700F583E0FF900039E4F0A3EFF012006E900D
:100667000032E0FCA3E0FDA3E0FEA3E02401FFE4E9
:100677003EFEE43DFDE43CFC9000321204A980A25A
:0206870080FEF3
:030000000209BF33
:0C09BF00787FE4F6D8FD75812102055711
:10036800BB010CE58229F582E5833AF583E022504A
:1003780006E92582F8E622BBFE06E92582F8E22294
:0D038800E58229F582E5833AF583E49322AE
:10039500F8BB010DE58229F582E5833AF583E8F09E
:1003A500225006E92582C8F622BBFE05E92582C84A
:0203B500F22232
:1003B70075F008758200EF2FFFEE33FECD33CDCCFD
:1003C70033CCC58233C5829BED9AEC99E582984080
:1003D7000CF582EE9BFEED9AFDEC99FC0FD5F0D65D
:1003E700E4CEFBE4CDFAE4CCF9A88222B800C1B987
:1003F7000059BA002DEC8BF084CFCECDFCE5F0CBC5
:10040700F97818EF2FFFEE33FEED33FDEC33FCEBFD
:1004170033FB10D703994004EB99FB0FD8E5E4F9B8
:10042700FA227818EF2FFFEE33FEED33FDEC33FCA5
:10043700C933C910D7059BE99A4007EC9BFCE99A99
:10044700F90FD8E0E4C9FAE4CCFB2275F010EF2FDE
:10045700FFEE33FEED33FDCC33CCC833C810D707DE
:100467009BEC9AE899400AED9BFDEC9AFCE899F819
:0E0477000FD5F0DAE4CDFBE4CCFAE4C8F922AC
:10048500EB9FF5F0EA9E42F0E99D42F0E89C45F0CD
:010495002244
:10049600E8600FECC313FCED13FDEE13FEEF13FF44
:0304A600D8F12268
:0C04A900ECF0A3EDF0A3EEF0A3EFF022C6
:1004B500A8828583F0D083D0821204CC1204CC129A
:1004C50004CC1204CCE473E493A3C583C5F0C583BF
:1004D500C8C582C8F0A3C583C5F0C583C8C582C891
:0104E50022F4
:10000300E5082439F582E43400F583E005082290FD
:100013000036300703900039E475F0011205110230
:1000230004E62000E97F2ED2008018EF540F2490BD
:10003300D43440D4FF30040BEF24BFB41A00500370
:100043002461FFE50960021509050CE50C70020542
:100053000B30070E900036E475F001120511EF0224
:1000630004FF0209167403D2078003E4C207F508EC
:10007300900036120528E4F509F50BF50CE5096047
:10008300077F2012004680F5750AFFC201C200C235
:1000930002C203C205C206C208120012FF700D306D
:1000A30007057F00120057AF0CAE0B22B4255FC2C9
:1000B300D5C204120012FF24D0B40A00501A75F0FE
:1000C3000A780930D50508B6FF0106C6A426F6202E
:1000D300D5047002D20380D924CFB41A00EF5004A0
:1000E300C2E5D204020258D20180C6D20080C0D237
:1000F3000280BCD2D580BAD20580B47F20120046DC
:100103002002077401B5090040F1120003FF120039
:1001130046020080D208D2068095120003FB12002B
:1001230003FA120003F94A4B700679297A037BFF1D
:1001330020022EE509602A7E008E82758300120359
:100143006860060EEE650A70F0C2D5EBC0E0EAC047
:10015300E0E9C0E0EE12029FD0E0F9D0E0FAD0E08F
:10016300FB1204E6FF60AAEBC0E0EAC0E0E9C0E0EE
:10017300120046D0E02401F9D0E03400FAD0E0FBCD
:10018300E50A0460DCD50AD980877BFF7A02799B74
:10019300D202809C791080027908C206C2088008C6
:1001A300D2D5790A8004790AC2D5E50A047002F52A
:1001B3000AE4FAFDFEFF120003FC7B082001131280
:1001C3000003FD7B1030000A120003FE120003FF40
:1001D3007B20EC3382D592D55013C3E43000069FC5
:1001E300FFE49EFEE42001039DFDE49CFCE4CBF8C8
:1001F300C201EC700CCFCECDCCE824F8F870F380BC
:1002030017C3EF33FFEE33FEED33FDEC33FCEB337B
:10021300FB994002FB0FD8E9EB300105F8D0E0C4AD
:1002230048B201C0E00AEC4D4E4F78207B0070C20B
:10023300EAB50A0040BCC0E01202A1D0F0D0E02031
:100243000104C4C0E0C4B201C0F012002FD0F0D545
:10025300F0EB020080120531011D5301975800EEA7
:100263004C00EA42019B4F01A34401A3490103430C
:0802730001A955018D46018D22
:10027B0045018D4703495000F22D00F62E01192B35
:10028B0000FA2301172003322A00B24800000111A3
:10029B003F3F3F00790AA2D5200314300509B9105E
:1002AB00020404B9080104A2D5200602500104205F
:1002BB0002689202B509005034C0E07F2030031968
:1002CB007F30A20272067205500F1202F8C202C2F0
:1002DB0006C205C2087F30800F300503E9C0E0126B
:1002EB000046300503D0E0F9D0E0B509CC30051756
:1002FB007F30B9100C1200467F583004077F78808E
:10030B0003B908031200463002057F2D0200467F19
:10031B00202008F87F2B2006F322920280CF286E34
:10032B00756C6C2900D2011200033001F8C2017800
:10033B000930D50108F60200B22D5043495812007E
:10034B00032403B405004001E490034493120037E7
:0D035B00743A120037D203750904020197AD
:1004E600BB010689828A83E0225002E722BBFE0214
:0904F600E32289828A83E4932247
:1004FF00BB010689828A83F0225002F722BBFE01DC
:02050F00F322D5
:10051100F8E0FBA3A3E0F925F0F0E5821582700273
:070521001583E0FA38F02217
:09052800EBF0A3EAF0A3E9F022D4
:10053100D083D082F8E4937012740193700DA3A359
:1005410093F8740193F5828883E47374029368606D
:06055100EFA3A3A380DF6D
:10091600EFB40A07740D120921740A309811A899C8
:10092600B8130CC2983098FDA899C298B811F63041
:0709360099FDC299F5992219
:00000001FF
