:1007310045726173652044617461466C6173682020
:10074100535543434553532E2E2E0A0045525220F2
:10075100253032580A00577269746520446174610A
:10076100466C617368202E2E2E0A002530325820E7
:1007710020000A526561642044617461466C6173B2
:0E0781006820535543434553532E2E2E0A0035
:0A08480075A15575A1AA75A1FF2244
:0E082100EF4E600905A1EF1F70F61E80F32256
:1007F300AD07AC06ED4C600E7FE87E03120821EDD9
:070803001D70F11C80EE22C4
:0D082F0043C60143C40843C50C43CE10224C
:10069C00C29FD29EC29DC2CDC2CC43878090020520
:1006AC0012046F00000082E47B0AFAF9F89002054C
:1006BC00E0FCA3E0FDA3E0FEA3E0FF1203D1900257
:1006CC0009EBF0900205E0FCA3E0FDA3E0FEA3E043
:1006DC00FFE47B0AFAF9F81203D1900205120463C5
:1006EC00900209E0C39405401F900205E0FCA3E0D2
:1006FC00FDA3E0FEA3E02401FFE43EFEE43DFDE4A7
:10070C003CFC900205120463E589540F4420F589E2
:10071C0043C9A0900205A3A3A3E0F404F58DD28EE7
:04072C00D299D29CF0
:0107300022A6
:080852003098FDC298AF992215
:08085A008F993099FDC299222B
:10080A008E858F84E58630E60B7586A6E58664407C
:07081A00547FFF227F402202
:1007B6008E858F84CEECCECFEDCF8E8F8F8EE58655
:1007C60030E60B75869AE5866440547FFF227F40AB
:0107D6002200
:1007D70075A15575A1AA43B104E4F5A112080A75DC
:0B07E700A15575A1AA53B1FBE4F5A1D8
:0107F20022E4
:1005ED00900205EEF0A3EFF0A3EBF0A3EAF0A3E980
:0105FD00F00D
:1005FE0075A15575A1AA43B104E4F5A190020CF0C2
:10060E00A3F090020AE0FEA3E0FFA3E0FCA3E0FD4E
:10061E00C39FEC9E506B900207E0FBA3E0FAA3E0B1
:10062E00F98D828C83A3120368FF90020EE4F0A36F
:10063E00EFF0E0F8E4F0E890020EF08D828C831279
:10064E000368FF90020FE02FF090020EE03400F0EE
:10065E00900205E0FEA3E0FF90020EE0FCA3E0FD99
:10066E001207B6900206E02402F0900205E0340074
:10067E00F090020DE02402F090020CE03400F080C5
:0D068E008175A15575A1AA53B1FBE4F5A13A
:01069B00223C
:10051100E4900203F0A3F012069C7F007EF0120724
:10052100D7900200EFF07BFF70067A0779318011D6
:100531007A07794D900200E0FF900208E4F0A3EF02
:10054100F012006E7BFF7A07795712006EE4900279
:1005510001F0A3F0900201E0FEA3E0FF74002FF58B
:100561008274003EF583EFF0900202E004F0700621
:10057100900201E004F0900201E0B402D7A3E0B4DC
:1005810000D27B017A00790090020A7402F0A3E4A0
:10059100F0FF7EF01205EDE4900201F0A3F090026D
:1005A10001E0FEA3E0FFC3EE9402502E7BFF7A0729
:1005B100796CE42FFFEE34F08F82F583E493FF90A2
:1005C1000208E4F0A3EFF012006E900202E004F0E2
:1005D10070CC900201E004F080C47BFF7A0779734C
:0C05E10012006E7F647E001207F380FEA3
:0300000002083CB7
:0C083C00787FE4F6D8FD758121020511DB
:10036800BB010CE58229F582E5833AF583E022504A
:1003780006E92582F8E622BBFE06E92582F8E22294
:0D038800E58229F582E5833AF583E49322AE
:1003950075F008758200EF2FFFEE33FECD33CDCC1F
:1003A50033CCC58233C5829BED9AEC99E5829840A2
:1003B5000CF582EE9BFEED9AFDEC99FC0FD5F0D67F
:1003C500E4CEFBE4CDFAE4CCF9A88222B800C1B9A9
:1003D5000059BA002DEC8BF084CFCECDFCE5F0CBE7
:1003E500F97818EF2FFFEE33FEED33FDEC33FCEB20
:1003F50033FB10D703994004EB99FB0FD8E5E4F9DB
:10040500FA227818EF2FFFEE33FEED33FDEC33FCC7
:10041500C933C910D7059BE99A4007EC9BFCE99ABB
:10042500F90FD8E0E4C9FAE4CCFB2275F010EF2F00
:10043500FFEE33FEED33FDCC33CCC833C810D70700
:100445009BEC9AE899400AED9BFDEC9AFCE899F83B
:0E0455000FD5F0DAE4CDFBE4CCFAE4C8F922CE
:0C046300ECF0A3EDF0A3EEF0A3EFF0220C
:10046F00A8828583F0D083D082120486120486126C
:10047F000486120486E473E493A3C583C5F0C58391
:10048F00C8C582C8F0A3C583C5F0C583C8C582C8D7
:01049F00223A
:10000300E5082408F582E43402F583E0050822902C
:100013000205300703900208E475F0011204CB02D5
:1000230004A02000E97F2ED2008018EF540F249003
:10003300D43440D4FF30040BEF24BFB41A00500370
:100043002461FFE50960021509050CE50C70020542
:100053000B30070E900205E475F0011204CBEF029A
:1000630004B902078F7403D2078003E4C207F508BB
:100073009002051204E2E4F509F50BF50CE50960BD
:10008300077F2012004680F5750AFFC201C200C235
:1000930002C203C205C206C208120012FF700D306D
:1000A30007057F00120057AF0CAE0B22B4255FC2C9
:1000B300D5C204120012FF24D0B40A00501A75F0FE
:1000C3000A780930D50508B6FF0106C6A426F6202E
:1000D300D5047002D20380D924CFB41A00EF5004A0
:1000E300C2E5D204020258D20180C6D20080C0D237
:1000F3000280BCD2D580BAD20580B47F20120046DC
:100103002002077401B5090040F1120003FF120039
:1001130046020080D208D2068095120003FB12002B
:1001230003FA120003F94A4B700679297A037BFF1D
:1001330020022EE509602A7E008E82758300120359
:100143006860060EEE650A70F0C2D5EBC0E0EAC047
:10015300E0E9C0E0EE12029FD0E0F9D0E0FAD0E08F
:10016300FB1204A0FF60AAEBC0E0EAC0E0E9C0E034
:10017300120046D0E02401F9D0E03400FAD0E0FBCD
:10018300E50A0460DCD50AD980877BFF7A02799B74
:10019300D202809C791080027908C206C2088008C6
:1001A300D2D5790A8004790AC2D5E50A047002F52A
:1001B3000AE4FAFDFEFF120003FC7B082001131280
:1001C3000003FD7B1030000A120003FE120003FF40
:1001D3007B20EC3382D592D55013C3E43000069FC5
:1001E300FFE49EFEE42001039DFDE49CFCE4CBF8C8
:1001F300C201EC700CCFCECDCCE824F8F870F380BC
:1002030017C3EF33FFEE33FEED33FDEC33FCEB337B
:10021300FB994002FB0FD8E9EB300105F8D0E0C4AD
:1002230048B201C0E00AEC4D4E4F78207B0070C20B
:10023300EAB50A0040BCC0E01202A1D0F0D0E02031
:100243000104C4C0E0C4B201C0F012002FD0F0D545
:10025300F0EB0200801204EB011D5301975800EEEE
:100263004C00EA42019B4F01A34401A3490103430C
:0802730001A955018D46018D22
:10027B0045018D4703495000F22D00F62E01192B35
:10028B0000FA2301172003322A00B24800000111A3
:10029B003F3F3F00790AA2D5200314300509B9105E
:1002AB00020404B9080104A2D5200602500104205F
:1002BB0002689202B509005034C0E07F2030031968
:1002CB007F30A20272067205500F1202F8C202C2F0
:1002DB0006C205C2087F30800F300503E9C0E0126B
:1002EB000046300503D0E0F9D0E0B509CC30051756
:1002FB007F30B9100C1200467F583004077F78808E
:10030B0003B908031200463002057F2D0200467F19
:10031B00202008F87F2B2006F322920280CF286E34
:10032B00756C6C2900D2011200033001F8C2017800
:10033B000930D50108F60200B22D5043495812007E
:10034B00032403B405004001E490034493120037E7
:0D035B00743A120037D203750904020197AD
:1004A000BB010689828A83E0225002E722BBFE025A
:0904B000E32289828A83E493228D
:1004B900BB010689828A83F0225002F722BBFE0122
:0204C900F3221C
:1004CB00F8E0FBA3A3E0F925F0F0E58215827002BA
:0704DB001583E0FA38F0225E
:0904E200EBF0A3EAF0A3E9F0221B
:1004EB00D083D082F8E4937012740193700DA3A3A0
:1004FB0093F8740193F5828883E4737402936860B4
:06050B00EFA3A3A380DFB3
:10078F00EFB40A07740D12079A740A309811A899DA
:10079F00B8130CC2983098FDA899C298B811F630CA
:0707AF0099FDC299F59922A2
:00000001FF
