:1014B40048554220302064657620696E0A004855FC
:1014C40042203020646576206F75740A00485542C6
:1014D40020312064657620696E0A00485542203127
:1014E40020646576206F75740A00526573657420F4
:1014F400686F737420706F72740A00446973616258
:101504006C6520686F737420706F727420626563F9
:1015140061757365206F6620646973636F6E6E65B1
:1015240063740A0047657444657644657363723A6C
:101534002000782530325820000A0047657443663D
:101544006744657363723A20005553422D446973AE
:101554006B2052656164790A00496E6974526F6F39
:101564007444657620457272203D20253032580A35
:1015740000456E756D416C6C526F6F744465760AEC
:10158400004572726F723A20253032580A00537443
:1015940061727420404368697049443D2530325873
:1015A4000A00576169742044657669636520496E51
:1015B4000A00537461727420554449534B5F646547
:1015C4006D6F20404348353539554649206C696272
:1015D400726172790A0057616974204469736B52AD
:1015E400656164790A004F70656E2046696C650A0E
:1015F400002F4335312F43483535394846542E435F
:1016040000C3BBD3D0D5D2B5BDCEC4BCFE0A00B492
:10161400D3CEC4BCFED6D0B6C1B3F6B5C4C7B025CC
:1016240064B8F6D7D6B7FBCAC73A0A00254300CE3A
:10163400C4BCFED2D1BEADBDE1CAF80A00436C6F92
:1016440073650A004372656174652046696C650AB6
:10165400002F4E455746494C452E54585400427964
:10166400746557726974650A004E6F74653A200D8B
:101674000AD5E2B8F6B3CCD0F2CAC7D2D4D7D6BD15
:10168400DACEAAB5A5CEBBBDF8D0D055C5CCCEC454
:10169400BCFEB6C1D0B42C353539BCF2B5A5D1DD0C
:1016A400CABEB9A6C4DCA1A30D0A00B3C9B9A6D0A9
:1016B400B4C8EB2025303258B4CE0A004D6F6469AB
:1016C40066790A0052656E616D6546696C656E6186
:1016D4006D650A002F3131312E5458540045727211
:1016E4006F722052656E616D65206661696C3A2087
:1016F400253032580A0044656C6574650A002F4F22
:101704004C442E545854004572726F722046696CD2
:1017140065206E6F742065786973743A20253032C1
:10172400580A0055C5CCD1DDCABECDEAB3C90A00FA
:1017340055C5CCC3BBD3D0D7BCB1B8BAC32045526E
:1017440052203D253032580A008006000100001264
:1017540000800600020000040000050200000000F2
:101764000000090000000000000201000000000069
:011774000074
:0A430D0075A15575A1AA75A1FF2244
:044290007FC87E0065
:0E429400EF4E600905A1EF1F70F61E80F322A9
:10424B00AD07AC06ED4C600E7FE87E03124294ED99
:07425B001D70F11C80EE2232
:0D07F30043C60143C40843C50C43CE102289
:10389B00C29FD29EC29DC2CDC2CC4387809002F103
:1038AB00120F5000000082E47B0AFAF9F89002F143
:1038BB00E0FCA3E0FDA3E0FEA3E0FF120DFA9002F3
:1038CB00F5EBF09002F1E0FCA3E0FDA3E0FEA3E03A
:1038DB00FFE47B0AFAF9F8120DFA9002F1120F2BA2
:1038EB009002F5E0C39405401F9002F1E0FCA3E0C9
:1038FB00FDA3E0FEA3E02401FFE43EFEE43DFDE476
:10390B003CFC9002F1120F2BE589540F4420F589F2
:10391B0043C9A09002F1A3A3A3E0F404F58DD28ECA
:04392B00D299D29CBF
:01392F002275
:081FF7003098FDC298AF992259
:0827F8008F993099FDC299226E
:0B370A009002F8EFF0A3ECF0A3EDF04C
:10371500E4A3F0900048E4F0E51224F8FF9002F8E5
:10372500E0FEA807088002C333D8FC900049F0A347
:10373500E4F0A3F0A37480F090035AE090004DF0FC
:10374500A3740AF0A37428F0A3E4F0900339E09081
:103755000051F090033AE0900052F090033BE09066
:103765000053F090033CE0900054F0A3E4F0A3F084
:10377500A3EEF0A3E4F09002F9E0FEA3E0FF122827
:1037850007E50D7002FF229002FBE0FF123EB28FAB
:103795000DE50D6003AF0D229002FBE004F0E0C3E0
:0C37A50094035003023718750D1F7F1F9E
:0137B10022F5
:0B35B3009002F8EFF0A3ECF0A3EDF0A5
:1035BE00E4A3F0900048E4F0E51224F8FF9002F83E
:1035CE00E0FEA807088002C333D8FC900049F0A3A0
:1035DE00E4F0A3F0A3F090035AE090004DF0A37432
:1035EE000AF0A3742AF0A3E4F0900339E09000519E
:1035FE00F090033AE0900052F090033BE0900053BD
:10360E00F090033CE0900054F0A3E4F0A3F0A3EE9E
:10361E00F0A3E4F09002F9E0FEA3E0FF122807E524
:10362E000D70097FC8FE1242947F00229002FBE0CB
:10363E00FF123EB28F0DE50D6003AF0D229002FB1F
:10364E00E004F0E0C3940350030235C1750D1F7FF3
:01365E001F4C
:01365F002248
:103F400053E37FE5E364026006E5E364037028E57C
:103F5000E3B40204AFE48002AFE5EF30E0037F009A
:103F600022E5E3B402047F0880027F80E5DB5F6026
:0C3F700006750A027F0022750A017F1608
:013F7C002222
:0117FD0022C9
:10402B001217FAEFC3941250037FFF227E007F809A
:10403B008E0B8F0C900332EEF0A3EFF0E4F50A75C4
:10404B00120990032C7402F090035F120F500000C2
:05405B0000007F0022BF
:10409400EF75F005A4247AF582E43403F583E4F0A3
:1040A400EF75F005A4247BF582E43403F583E4F092
:0C40B400EFB40104E4F5E522E4F5E42299
:1034F300E4900303F0E5DB30E33590037AE0600505
:10350300E5E420E04AE4FF124094E5DB30E2028088
:10351300027F0190037CEFF090037A7401F07BFF4C
:103523007A1479B4121BEB9003037415F080209086
:10353300037AE0C394014017E4FF1240947BFF7ABF
:103543001479C2121BEB900303E070037416F0E5C9
:10355300DB30E73690037FE06005E5E520E04B7F55
:1035630001124094E5DB30E6031F80027F019003E4
:1035730081EFF090037F7401F07BFF7A1479D1120D
:103583001BEB9003037415F0802090037FE0C3943A
:103593000140177F011240947BFF7A1479DF121BDD
:0F35A300EB900303E070037416F0900303E0FF56
:0135B20022F6
:0C42F500EF547FFFE5E354804FF5E32217
:102FBA00CEEFCE9003797408F0E4FF1242F5EEB436
:102FCA000114E5E554FB4402F5E57F0F7E00124249
:102FDA004B53E5FD8012E5E454FB4402F5E47F0F10
:102FEA007E0012424B53E4FD7FFA7E00124294C2E5
:022FFA00D822DB
:103B3300EF75F005A4247AF582E43403F583E0C33A
:103B430094015011EF75F005A4247AF582E434034F
:103B5300F5837401F0EF64017025E5DB30E745E59B
:103B6300E520E015E5DB30E6047F0080027F01906D
:103B73000381EFF0700343E50443E5017F0022E591
:103B8300DB30E320E5E420E015E5DB30E2047F00F1
:103B930080027F0190037CEFF0700343E40443E46D
:073BA300017F00227F1622C2
:10417C00CEEFCEEE75F005A4247BF582E43403F586
:10418C0083E0FF1242F5EE6003D38001C39210224C
:104231007FC87E0020D909EF1F70011EEF4E70F478
:0942410030D9047F0080027FFEE9
:01424A002251
:0B334000900300EFF0A3EAF0A3EBF015
:10334B00CFEDCF8FD68FD4E4F5DD900300E0F5D52C
:10335B00C2D97FC87E0020D909EF1F70011EEF4E26
:10336B0070F4E4F5D520D9037FFE2230D81EC2D8E5
:10337B001234F3EFB41502D20FE50AB401037F1632
:10338B0022E50AB402037F152212429030D967302E
:10339B00DE037F0022E5D9540FFFB40E028043EF0A
:1033AB00B40A29900301E0FCA3E0FD4C7003EF800D
:1033BB003EC3ED94FFEC94FF500E900302E024FF0C
:1033CB00F0900301E034FFF015DD802D900300E059
:1033DB00C4540F24F7600D24FC6004240C7014EF0C
:1033EB006017800BEFB40304640B600DEF600A44AD
:1033FB0020FF227FFE2275D8FF7F0F7E00124294A2
:0F340B0005DDAFDDEFC3940350030233557F207F
:01341A00228F
:062E3200EBF0E4FDFFFEE1
:102E38009002FDEEF0A3EFF0A3EDF0124290E060F7
:102E480003F8E4F675D7087B107A27E4FD7FD012E3
:102E58003340CBEFCBEB60012275D6D075D4D0755B
:102E6800D701900047E060047FFF8005900046E0AE
:102E7800FF9002FCEFF07003022F8EA3E0FEA3E0A8
:102E88004E7003022F8E900040E020E703022F18B7
:102E98009002FCE060751242907B107A27ADD47FD7
:102EA80090123340CBEFCBEB6001229002FCE0FFA5
:102EB800E5D1C39F5007AED1CFEECF80009002FC82
:102EC800E0C39FF09002FFE06004F8EF26F6E4FE0E
:102ED800EE6F602A74002EF582E43400F583E0FD7D
:102EE8009002FDE0F8A3E0F5828883EDF09002FE01
:102EF800E004F070069002FDE004F00E80D2E5D107
:102F08006009900379E01455D16085E4F5D780769F
:102F18009002FCE06070124290900379E0FF90020A
:102F2800FCE0FEC39F40028003CFEECF8FD7E4FFC3
:102F3800EF65D7602A9002FDE0FCA3E0F5828C8360
:102F4800E0FE74402FF582E43400F583EEF0900241
:102F5800FEE004F070069002FDE004F00F80D17BE3
:102F6800107A27ADD67F10123340CBEFCBEB600140
:102F7800229002FCE0C395D7F09002FFE06091F840
:102F8800E5D726F6808A124290E5D760047F9080C4
:102F9800027F107B107A277DC0123340CBEFCBEB3A
:102FA800600122E5D77002FF22E5D17002FF227F7F
:012FB8001701
:012FB90022F5
:10419C00E4FD8F828E83E493FC74402DF582E4342D
:0F41AC0000F583ECF00FBF00010E0DEDB408E33A
:0141BB0022E1
:104060009003797408F07E177F4D12419C7E007F8B
:10407000407D13122E38EF600122900047E090033C
:1040800079F0901753E493FFE513C39F50037F1714
:03409000227F008C
:01409300220A
:103C8D007E177F5512419C7E007F407D13122E388A
:103C9D00EF60012290175BE493FEE513C39E500382
:103CAD007F1722900042E0F513E513D394404003B3
:103CBD007F17227E177F5512419C900046E513F029
:103CCD007E007F407D13122E38EF60012290175B2E
:103CDD00E493FFE513C39F400A900042E0FFE51314
:083CED009F50037F17227F00A6
:013CF50022AC
:0540C0009002F7EFF093
:1040C5007E177F5D12419C9002F7E0900042122E10
:1040D50033EF6001229002F7E0FF1242F57F0A7E7E
:0640E5000012424B7F00B7
:0140EB0022B2
:1042A200CBEFCB7E177F6512419C900042122E32DB
:0142B20022E9
:1042B300CBEFCB7E177F6D12419C900044122E32C0
:0142C30022D8
:103CF600E4F9FC8F828E83A3A3E0FBECC39B5047C1
:103D0600EF2CF582E43EF583A3E064057025EF2CE5
:103D1600F582E43EF583A3A3A3E05403FBBB0313A0
:103D2600EF2CF582E43EF583A3A3E030E705540FBC
:103D3600F98014EF2CF582E43EF583E0FDD3941070
:0A3D46005005ED2CFC80ACCFE9CF56
:013D50002250
:052C74009002F2EFF0F8
:102C79007BFF7A1479EE121BEB9002F2E0FF122F20
:102C8900BAE49002F3F0A3F07F017E0012424B9068
:102C990002F2E0FF123B33EF700E9002F3F0A3E073
:102CA90004F0E0D39414500C9002F3E004F0E0C374
:102CB900946440D49002F3E060149002F2E0FF12B1
:102CC90040947BFF7A1479FF121BEB7F1622900246
:102CD900F2E0FF12417C7BFF7A157928121BEB1277
:102CE90040609002F4EFF06003022E139002F3F0BB
:102CF900901753E493FF9002F3E0FEC39F50257BA6
:102D0900FF7A15793674402EF582E43400F583E0B4
:102D1900FF900307E4F0A3EFF0121BEB9002F3E03E
:102D290004F080CC7BFF7A15793D121BEB900044AF
:102D3900E09002F6F090175FE493FF9002F2E02F23
:102D4900FF1240C09002F4EFF06003022E139017B7
:102D59005F93FF9002F2E0FE2FFFEE75F005A424C9
:102D69007BF582E43403F583EFF07BFF7A15793F35
:102D7900121BEB123C8D9002F4EFF06003022E134C
:102D8900900045E09002F5F0E49002F3F0900042E3
:102D9900E0FF9002F3E0FEC39F50257BFF7A15798F
:102DA9003674402EF582E43400F583E0FF90030782
:102DB900E4F0A3EFF0121BEB9002F3E004F080CDF6
:102DC9007BFF7A15793D121BEB90004EE0FF9002D4
:102DD900F6E07036EFB408329002F2E0FF75F005C4
:102DE900A4247AF582E43403F5837403F0EF75F0D3
:102DF90005A4247DF582E43403F5837408F07BFF90
:102E09007A15794D121BEB7F00227BFF7A15795DCC
:102E19009002F4E0FF900307E4F0A3EFF0121BEB3C
:082E2900750A029002F4E0FFBB
:012E3100227E
:103FB9007BFF7A157975121BEBE49002F1F0900200
:103FC900F1E0FF64026021EF75F005A4247AF5821F
:103FD900E43403F583E0B40107122C74EF60012285
:0A3FE9009002F1E004F080D67F00A2
:013FF30022AB
:103FF400E4FEEE75F005A4247DF582E43403F58334
:10400400E06F7019EE75F005A4247AF582E43403A8
:10401400F583E0C394034005EE7F00FE220EEEB468
:0640240002D07EFF7FFFC9
:01402A002273
:103F7D00C2EA75E280E4F5E39024477448F090249A
:103F8D004C7400F0A37400F090244E7400F0A374F0
:103F9D0040F0E4F5D4F5D675E28975D24075D8FFB9
:0C3FAD00FF1240940F12409475E10322B3
:05421500900282EFF0B1
:10421A00EF60137BFF7A157985900307E4F0A3EF2B
:07422A00F0121BEB80FE22E5
:0E313C009002F1EBF0A3EAF0A3E9F0A3EDF0AE
:10314A001242C49002F5EFF0600302320F90034579
:10315A00E0250CFF900344E0350BFE9002F6F0A345
:10316A00EFF07C007D0BECC0E0EDC0E07D20CAEE04
:10317A00CAC9EFC97B01D0E0FFD0E0FE12106AE4B1
:10318A009002F5F09002F4E0FFA3E0FEC39F5037EF
:10319A009002F1E0FBA3E0FAA3E0F98E82758300C6
:1031AA00120D91FFB42E089002F5E004F0801890F9
:1031BA0002F6E0FCA3E02EF582E43CF583EFF09002
:1031CA0002F5E004F080BD9002F5E0FF9002F4E021
:1031DA00C39FFFE49400FE9002F1E0FBA3E0FAA390
:1031EA00E0F99002F5E0FD7C00E92DF9EC3AFA905D
:1031FA0002F7E02408FD9002F6E03400C8EDC8FCAE
:10320A007D01120D6B9002F6E0FEA3E0240BF5821D
:10321A00E43EF583E0782BF674FF7829F608F67811
:10322A0023120F37FFFFFFFF121EE59002F5EFF0A2
:10323A00700B7823F6123BAA9002F5EFF09002F594
:02324A00E0FFA3
:01324C00225F
:1004A1009002EB7432F0A3F0A3F0A3F0A3742EF04A
:1004B100A37443F07F1E7E0012424B12389B7BFFD8
:1004C1007A157992AFA1900307E4F0A3EFF0121B24
:1004D100EB123F7D12402BC20F7BFF7A1579A612DA
:1004E1001BEBE4900280F030D80FC2D81234F390A5
:1004F1000280EFF0BF1502D20F200F030207E9C2FD
:100501000F7FC87E0012424B123FB9900280EFF07C
:100511007F08123FF4900285EEF0A3EFF0F4700231
:10052100EEF470030207E97BFF7A1579B6121BEB33
:10053100900285E0FF900282F012417C750A04E48A
:10054100900282F07BFF7A1579DA121BEB12279A5F
:10055100900280EFF060117F327E0012424B9002D8
:1005610082E004F0E0B40ADCE50AC394055003021A
:1005710007D37BFF7A1579EA121BEB78237C007D88
:10058100007BFF7A1579F512104D12080090028058
:10059100EFF064B36004E0B4420C7BFF7A16790596
:1005A100121BEB020684900283E4F0A37464F07BD7
:1005B100FF7A167913900307E4F0A37464F0121B19
:1005C100EB900283E0FEA3E0FF4E7003020675D3B9
:1005D100EF941FEE94009002814005741FF0800299
:1005E100EFF0900281E0FF7823E4F608EFF608745B
:1005F10002F6087487F612252F900280EFF0782317
:10060100E6FE08E6FFC3900284E09FF0900283E0DB
:100611009EF0E4900282F0900282E07824667002FB
:1006210018E6602B7BFF7A167930900282E0FF7822
:1006310025E6FC08E68C832FF582E43583F583E01B
:10064100900307F0121BEB900282E004F080C89047
:100651000281E0FFC37824E69F18E694004003027C
:1006610005C27BFF7A15793D121BEB7BFF7A167968
:1006710033121BEB7BFF7A167941121BEB123BAA5B
:100681001242157BFF7A167948121BEB78237C0006
:100691007D007BFF7A16795512104D1222A290022D
:1006A10080EFF012421A7BFF7A167962121BEB90EF
:1006B100030774FFF0A37416F0A3746DF07B017A45
:1006C100027987121BE5900282EFF0E4900281F03B
:1006D100900282E0FF7823E4F608EFF6087402F650
:1006E100087487F6121107900280EFF012421A7B0C
:1006F100FF7A1679AF900281E0FF900307E4F0A33F
:10070100EFF0121BEB900281E004F0E0C3940A4089
:10071100BF7BFF7A1679C0121BEB782B76FF74FF33
:100721007829F608F67827765108760F7823120F84
:1007310037FFFFFFFF121EE51242157BFF7A167984
:1007410041121BEB78237601123BAA1242157BFF63
:100751007A1679C8121BEB78237C007D007BFF7A27
:100761001679D812104D120800900280EFF0702512
:100771007B017A0279EB7D0612313C900282EFF027
:1007810060137BFF7A1679E1E0FF900307E4F0A3A1
:10079100EFF0121BEB7BFF7A1679FA121BEB782331
:1007A1007C007D007BFF7A17790212104D12341BF9
:1007B100900282EFF060137BFF7A17790BE0FF90D4
:1007C1000307E4F0A3EFF0121BEB7BFF7A17792705
:1007D10080137BFF7A177934900280E0FF90030742
:1007E100E4F0A3EFF0121BEB7F647E0012424B0298
:0207F10004E31F
:1042D50021FF000000000000A1FE00000000010019
:06393000900339120F2B79
:10393600900351E0FF90033CE06F702490034EE04B
:10394600FF900339E06F701890034FE0FF90033A41
:10395600E06F700C900350E0FF90033BE06F6058FF
:10396600900339E0FCA3E0FDA3E0FEA3E0FF900393
:103976004E120F2B900332E0FEA3E0FBCAEECA659F
:103986000C7003EA650B7014900339E0FCA3E0FDAC
:10399600A3E0FEA3E0FF900352120F2BCEEACECF98
:1039A600EBCFCDEFCDCCEECC7F0112370A8F0DEFEA
:0B39B6006003124279AF0D227F002257
:1038000090036CE0FCA3E0FDA3E0FEA3E0FF9003C7
:0438100039120F2B2F
:10381400900355E0FF90033CE06F7024900352E066
:10382400FF900339E06F7018900353E0FF90033A60
:10383400E06F700C900354E0FF90033BE06F605422
:10384400900339E0FCA3E0FDA3E0FEA3E0FF9003B6
:1038540052120F2BAB0CAA0B900332E06A7003A335
:10386400E06B7014900339E0FCA3E0FDA3E0FEA339
:10387400E0FF90034E120F2BCEEACECFEBCFCDEF6D
:10388400CDCCEECC7F0112370A8F0DEF60031242CC
:0738940079AF0D227F002235
:103DAC00900339E0FCA3E0FDA3E0FEA3E0FF900349
:103DBC004E120F2B900332E0FEA3E0FBCAEECA6555
:103DCC000C7003EA650B7014900339E0FCA3E0FD62
:103DDC00A3E0FEA3E0FF900352120F2BCEEACECF4E
:103DEC00EBCFCDEFCDCCEECC7F011235B38F0DEFF9
:083DFC006003124279AF0D22B1
:1039C1008F118E108D0F8C0EE509241AF582E435C6
:1039D10008F583E50EF0A3E50FF0E5092414F5825F
:0C39E100E43508F583E510F0A3E511F0D3
:1039ED00900339E0FCA3E0FDA3E0FEA3E0FF90030C
:1039FD0052120F2BAB0CAA0B900332E06A7003A38B
:103A0D00E06B7014900339E0FCA3E0FDA3E0FEA38E
:103A1D00E0FF90034E120F2BCEEACECFEBCFCDEFC2
:103A2D00CDCCEECC7F011235B38F0DEF600312427A
:043A3D0079AF0D222E
:1018000090033DE0FCA3E0FDA3E0FEA3E0FF900316
:061810002E120F2BE4FF75
:101816008FD3900365E0FBB4021290032EE0FCA385
:10182600E0FDA3E0FEA3E0FF78018014EBB403150E
:1018360090032EE0FCA3E0FDA3E0FEA3E0FF780208
:10184600120EBE803EC200900331E030E002D200AC
:1018560090032EE0F8A3E0F9A3E0FAA3E0FBE8C0CA
:10186600E090032EE0FCA3E0FDA3E0FEA3E0FF78FA
:1018760001120EABD0E0F8EB2FFFEA3EFEE93DFD8C
:10188600E83CFC90032E120F2B90032CE024FFFF64
:10189600EFFE900330E0FCA3E0FDEE5CFEEDFF9072
:1018A6000333E02FF509900332E03EF50890032E4E
:1018B600E0FCA3E0FDA3E0FEA3E01241DB9003669B
:1018C600E0F8A3E0F9A3E0FAA3E02FFFEA3EFEE981
:1018D6003DFDE83CFC90032E120F2B900351E0FFD8
:1018E600900331E06F702490034EE0FF90032EE0EA
:1018F6006F701890034FE0FF90032FE06F700C900D
:101906000350E0FF900330E06F601F300D07123682
:1019160060EF60012290032EE0FCA3E0FDA3E0FE51
:10192600A3E0FF123930EF600122E5D36044E5D32E
:10193600B4040C90032E120F50FFFFFFFF8031E519
:10194600D3B4010C90032E120F500000000080202B
:10195600900359E090032EF0900358E090032FF087
:10196600900357E0900330F0900356E0900331F077
:10197600D20DC20E900365E0FB64027046850982B3
:10198600850883E0F50FA3E0F510850F11E4F50E49
:10199600F50FC3E51194F7E51094FF4002D20EE56A
:1019A600D3601490032EE0FFA3E0850982850883A7
:1019B600CFF0A3EFF0617D300E02617DAE10AF1166
:1019C600E46175EB64037071AF09AE081242E58FEE
:1019D600118E108D0F8C0EE50E54F0FF900331E042
:1019E600540F4FF0530E0FE50ED3940F5016E50E1D
:1019F600B40F13E50FB4FF0EE510B4FF09E511C3EC
:101A060094F74002D20EE5D3601690032EE0FCA3B5
:101A1600E0FDA3E0FEA3E0FF850982850883617AE5
:101A2600300E02617D900356E50EF0A3E50FF0A39C
:101A3600E510F0A3E511F0617D850982850883E054
:101A4600F51190032EE0FFC454F0FEE511540F4E3D
:101A5600F50EA3E0C454F0FEEFC4540F4EF50F90FC
:101A6600032CE024FFFFEFFE900333E024FFFF90FA
:101A76000332E03EFEEF65097003EE6508604385BC
:101A86000982850883A3E0F510E5D37002613E3034
:101A9600000F850982850883E50EF0A3E50FF06146
:101AA6003E90032EE0850982850883F090032FE09F
:101AB600540FFFE51054F04F850982850883A3F083
:101AC6008076E5D36014300004AF0E800590032EB7
:101AD600E0FF850982850883EFF0A20DE43345D344
:101AE6006007123660EF60012290034EE0FCA3E02F
:101AF600FDA3E0FEA3E02401FFE43EFEE43DFDE499
:101B06003CFC123930EF600122900332E0FEA3E084
:101B1600FFF5828E83E0F510E5D3601C300004AD3E
:101B26000F800D90032FE0540FFDE51054F04DFD8E
:101B36008F828E83EDF0D20DE4F50EF50F30001492
:101B4600E510C4F854F0C868F510E511C4540F4800
:101B5600F511800353100FC3E51194F7E510940FA8
:101B66004002D20EE5D3700F200E0CAE10AF11FC62
:0A1B7600FD900356120F2B7F002292
:102A5200900334E0FCA3E0FDA3E0FEA3E0FF9003BB
:102A620056E0F8A3E0F9A3E0FAA3E0FBD3120E9A32
:102A720040037FB122900356E0FCA3E0FDA3E0FEF9
:102A8200A3E02401FFE43EFEE43DFDE43CFC9002B1
:102A9200F1120F2B12180ECBEFCB9002F1E0FCA338
:102AA200E0FDA3E0FEA3E0FF900356120F2BEB60C4
:102AB20002FF22E511700AE50E450F4510700281F2
:102AC2005A900336E0FF9002F3E06F701A900334DD
:102AD200E0FF9002F1E06F700E900335E0FF90028C
:102AE200F2E06F70024152900365E0FF64017002F0
:102AF2004152900332E0FCA3E08C08F509EF640236
:102B0200703E90032CE075F080A424FFFFE5F034C2
:102B1200FFF50E8F0FF5108F1174022509F509E4E8
:102B22003508F508850982F583E07004A3E0607733
:102B3200E50F150F7002150E14AE0E4E70DB8136C6
:102B420090032CE075F040A424FFFFE5F034FFF57C
:102B52000E8F0FF5108F1174042509F509E435085D
:102B6200F508850982F583E060028126A3E0600210
:102B72008126850982850883A3A3E06002812685D8
:102B82000982850883A3A3A3E0540F6002812685EE
:102B92000982850883A3A374FFF0850982850883CF
:102BA200A3A3A3E0440FF085098285088374FFF094
:102BB200A3F0AE10AF11900356E0F8A3E0F9A3E042
:102BC200FAA3E04FFFEA4EFEE9FDE8FCEEC0E0EFBB
:102BD200C0E0E50F24FFFFE50E34FFCBEFCBFAD0C8
:102BE200E0FFD0E0FEC3EF9BFFEE9AFEED9400FD06
:102BF200EC9400FC900356120F2B900334E0FCA3DC
:102C0200E0FDA3E0FEA3E0FF900356E0F8A3E0F9A5
:102C1200A3E0FAA3E0FBD3120E9A40037FB122D2C3
:102C22000D7F0022E50F150F7002150E14AE0E4E29
:102C320060026159900356E0F8A3E0F9A3E0FAA319
:102C4200E0FBAE10AF11EB4FFFEA4EFEE9FDE8FCF0
:102C5200900356120F2B41529002F1E0FCA3E0FDCB
:102C6200A3E0FEA3E0FF90032E120F2B7F041218A5
:022C7200162228
:10426200122A52EF64B1600122900356120F5000DD
:07427200000000122A522295
:10080000E50AC394105007120003EF600122124161
:1008100038EF600122C20B7823E6FF7002FF22EF5F
:10082000645C6004EFB42F089003707424F08017A8
:100830007824E6643A600201FBEFC394435002015E
:10084000FB9003707426F0900365E0FBB4031090F6
:100850000371E0FCA3E0FDA3E0FEA3E0FF8005E45C
:10086000FFFEFDFC90033D120F2B900370E0F8E6B5
:100870006002210190035B120F50FFFFFFFFEB644A
:1008800003604F9003407402F0900374E090032DD6
:10089000F0900346E0FCA3E0FDA3E0FEA3E0FFEF41
:1008A000C0E090032DE0FBD0E0FFC3EF9BFFEE9490
:1008B00000FEED9400FDEC9400FC900346120F2B1B
:1008C00090032DE0FFE4FCFDFE1241F890035B1263
:1008D0000F2B90033DE0FCA3E0FDA3E0FEA3E0FFAF
:1008E000900356120F2B900375120F50000000005A
:1008F000E4900341F0750A127F4122900370742343
:10090000F090033DE0700CA3E07008A3E07004A336
:10091000E0604690032DE0900341F090033DE0FC41
:10092000A3E0FDA3E0FEA3E024FEFFEE34FFFEED16
:1009300034FFFDEC34FFFC900338E0F9F8120EBEF2
:10094000900346E0F8A3E0F9A3E0FAA3E02FFFEA62
:100950003EFEE93DFDE83C8024900374E0900341B5
:10096000F0FB900346E0FCA3E0FDA3E0FEA3E0C3A0
:100970009BFFEE9400FEED9400FDEC9400FC9003D0
:100980006C120F2B900341E070028148123800EF87
:10099000600122E4900344F0A3F090032CE0FE9069
:1009A0000344E0FCA3E0FDC39400EC9E40028121DF
:1009B000ED250CF509EC350BF508850982F583E08A
:1009C000FF70028178EF64E570028111EFB40502D7
:1009D0007FE5900370E0F8E6FE6F6007EE642A6042
:1009E000028111EF6E70047F0180027F008F10AFD3
:1009F00010EFC3940B5059AE10900370E02EF8E640
:100A0000FEE5092FF582E43508F583E0FD6E603BD5
:100A1000EE6009645C6005EE642F701FED64207069
:100A20002FEFC394085010E5092408F582E4350837
:100A3000F583E0642070197F0B8015EEB42E11E56C
:100A40001064086004EDB420077F070F051080A133
:100A5000AE10900370E02EF8E6F511EFC3940B5042
:100A6000026151E509240BF582E43508F583E03095
:100A7000E3026151C20EE509241AFFE43508FE12B3
:100A80004317E4FCFD90033D120F2B900365E0B487
:100A90000314E5092414FFE43508FE1243179003FC
:100AA0003DEEF0A3EFF0E5116005200E02614590E8
:100AB000033DE0FCA3E0FDA3E0FEA3E0FF900356AE
:100AC000120F2B900375120F5000000000E49003EA
:100AD00041F0E509240BF582E43508F583E030E4C4
:100AE0001E90035B120F50FFFFFFFF7D137F10125C
:100AF000413CEF600122300E037F43227F4122E51B
:100B000009241CFFE43508FE1242E590035B120F36
:100B10002B90033DE0701AA3E07016A3E07012A3BF
:100B2000E0700EA374FFF090035B120F5000000002
:100B3000007D147F1012413CEF600122300E037FD4
:100B400043227F0022E51004FF900370E02FF02184
:100B500001E511642A60028111E509240BF582E4A4
:100B60003508F583E030E3028111E5A164596003A3
:100B70007F112290035BE0FCA3E0FDA3E0FEA3E075
:100B8000FFEC4D4E4F602E90035BE030E7031217F1
:100B9000FD90035BE0FCA3E0FDA3E0FEA3E024FFE7
:100BA000FFEE34FFFEED34FFFDEC34FFFC90035B01
:100BB000120F2B805CE4FFF50EE5092FF582E4357A
:100BC00008F583E064206036EFB4080CAE0E9003A5
:100BD00070E02EF8762E050EE5092FF582E4350833
:100BE000F583E0FEAD0E900370E0FC2DF8EEF6E527
:100BF0000E7009C8ECC8E6B4050276E5050E0FEFE5
:100C0000B40BB6AF0E900370E02FF8E4F6D20E41AD
:100C100076900345E02420F0900344E03400F02176
:100C20009A90036CE0FCA3E0FDA3E0FEA3E02401A6
:100C3000FFE43EFEE43DFDE43CFC90036C120F2B10
:100C4000900341E014F0218490033DE0700CA3E098
:100C50007008A3E07004A3E0601E121800EF6001AA
:100C600022200E1490033DE50EF0A3E50FF0A3E55E
:100C700010F0A3E511F02101E4FF900370E0CEEF46
:100C8000CE0F2EF8E6FE6010642A600CEE645C6005
:0B0C900004EEB42FE57FB3227F422268
:103E0400900356E0FCA3E0FDA3E0FEA3E024FEFF44
:103E1400EE34FFFEED34FFFDEC34FFFC900338E09C
:103E2400F9F8120EBE900346E0F8A3E0F9A3E0FA15
:103E3400A3E02FFBEA3EFAE93DF9E83CF8900341A0
:103E4400E0FFE4FCFDFEEB2FFFEE3AFEED39FDEC66
:083E540038FC900339020F2B2A
:10324D0090033DE0700EA3E0700AA3E07006A3E0CA
:10325D007002612E7827120ED11241DBEFC0E09083
:10326D000341E0FBD0E0FFC3EF9BF511EE9400F5B9
:10327D0010ED9400F50FEC9400F50EAF11AE10ADFE
:10328D000FAC0E7823120EDDC3120E9A4017782361
:10329D00120ED1C3EF9511FFEE9510FEED950FFDBA
:1032AD00EC950E805490033DE0FCA3E0FDA3E0FE01
:1032BD00A3E0FF900356120F2B90032DE0FFE4FCCB
:1032CD00FDFE7823120EDDC3120E9A403490035684
:1032DD00121803EF600122200E477823120ED1EF52
:1032ED00C0E090032DE0FBD0E0FFC3EF9BFFEE9419
:1032FD0000FEED9400FDEC9400FC7823120F1F806E
:10330D00B87826E6900341F0123E04900339E0FCB4
:10331D00A3E0FDA3E0FEA3E0FF7823120F1F7F00C3
:10332D002290034174FFF07823120F37FFFFFFFF48
:03333D007F0022EC
:0317FA007F122239
:10427900900352120F50FFFFFFFF90034E120F5091
:07428900FFFFFFFFC20D2241
:044138007D107F1067
:10413C00AE0AEEC39F4005CEEDCE8D0AEE6D700239
:0F414C00FF22750A01123F40EF6001227F83229C
:10411300AB0DEBB41611750A0190035F120F50003B
:10412300000000CFEBCF22EBB41507750A02CFEBEB
:05413300CF227F0022F5
:103D51007F027E0012424B90036BE50DF0123F4053
:103D6100EF600122E50AC3940450037F83227E425F
:103D71007FD512419C90036AE0900044F0E4FDFF7E
:103D8100FE122E388F0DEFB4160122900364E05419
:103D91000FFF1242B3900363E0540F4480FF1242BD
:0B3DA100B390036BE0FFF50DE4F0228F
:103F0100900048EDF0A3E4F0A3F0A3F0ED60047E8F
:103F11008080027E0090004CEEF090035AE0900009
:103F21004DF0A37406F0A3EFF0A3E4F0A3F0A3F027
:0F3F3100A3EDF0A3E4F0A3F0A3F0A3F0A3F0221C
:07280000123F017E007F6220
:102807008E158F169000407455F0A37453F0A3747F
:1028170042F0A304F075D71F900364E0FF90036BA9
:10282700E0FD7BE87AFD1233408F0DEFB4160122ED
:10283700EF60397E007F627C007D407B1B7A00124F
:10284700415B123D517E007F407C007D627B1B7A9D
:102857000012415B900364E0FF90036BE0FD7BE8AF
:102867007AFD1233408F0DEF6002414C90036BE00D
:102877006440F0900048E0FDA3E0FF4D7002411175
:10288700EFF513EDF51490004CE020E702215BD241
:1028970001E51445137002214FE5137007E514C3D2
:1028A7009440400C90244CE515F0A3E516F0800CFD
:1028B700C20190244C7400F0A37400F0900363E00D
:1028C700FF90036BE0FD7BE87AFD1233408F0DEF3D
:1028D700601E90244C7400F0A37400F0EF642E6027
:1028E7000122900363E0540F4480FF1242B38058E3
:1028F70090036BE06480F030011FE5D164407048BD
:1029070074C02514F51474FF3513F5137440251698
:10291700F516E43515F5150198AFD1AE14EEC39F42
:102927005003CFEECFE4FEEE6F601D74002EF582EC
:10293700E43400F583E0851682851583F00516E5F6
:1029470016700205150E80DF90244C7400F0A374F6
:1029570000F04111E514451370024107E5137008B3
:10296700AF14EFC39440402690244EE515F0A3E53D
:1029770016F074C02514F51474FF3513F51374405D
:102987002516F516E43515F51575D74080379024CB
:102997004E7400F0A37440F08FD7E4FFE5146F6026
:1029A7001F851682851583E0FE74402FF582E43477
:1029B70000F583EEF00516E516700205150F80DCAD
:1029C700E4F513F514900364E0FF90036BE0FD7BDF
:1029D700E87AFD1233408F0DEF601C90244E74008F
:1029E700F0A37440F0EF642E600122900364E0547A
:1029F7000FFF1242B3800990036BE06440F0215B44
:102A070090244E7400F0A37440F0900363E0FF90AD
:102A1700036BE0FD7BE87AFD1233408F0DEF600119
:102A27002290036BE06480F0750D1FE5D1640D60A3
:102A370003AF0D2290000CE0FE7004F50DFF22EEAF
:0B2A4700C394024003023D51AF0D227A
:1041BC007F0A7E0012424B7D127F031228007F057E
:0F41CC007E0012424BE50D7002FF2212411322BA
:10177500751209750E0F7D087F25123F0190004EE9
:10178500740AF0900053E4F0122803AF0DEF7020B7
:10179500900068E0FEB4040575120A8040EEB408B6
:1017A5000575120B8037EE6410703275120C802DA2
:1017B500EF64166028EF64156023EF6413601E8FD5
:1017C5000F1241BC850F0DE50E7E0030E3047F400E
:1017D50080027FC812424B150EE50E7099E5122462
:1017E500F8FF7401C8EFC8088002C333D8FC900322
:0517F5002CF0AF0F22F3
:10300000123F40EF600122E50AC3940450037F831E
:1030100022750A04123C8D8F0DEF60012290004E44
:10302000E06408705FC20CA3E0B40602D20C90000A
:103030004BE090036AF0E4F50EE50E600790005B4C
:10304000E0FF8005900054E0FF8F0FE50E600790D1
:10305000005DE0FF8005900056E0FFEF64407024C3
:10306000E50F30E70CE50F540F4490900363F080B8
:103070000AE50F540F4410900364F0050EE50EB4FA
:1030800002B78006750D1FAF0D22900045E0FF12BC
:1030900042A28F0DEF600122E4F50E7E427FDD1229
:1030A000419C90036AE0900044F07D0FAF0CAE0BA2
:1030B000122E388F0DEF7010E50FB4011A850C82B7
:1030C000850B83E0F50E800FE50DB42E07E4FF12AB
:1030D00042B38003AF0D227F057E0012424B1242A5
:1030E00079E490036BF090035AF07D247F12123F35
:1030F00001AF0CAE0B122807E50D7023E50E60182A
:1031000090035AE07012850C82850B83E0B40508A9
:1031100090035A7401F080D27D057F0402413CE5A2
:103120000E600E90035AE0C394035005E004F08053
:0C313000B9E490035AF07F01123EB22275
:10279A007823120F3700000000123F40EF60012239
:1027AA00E50AC394055030123000EF600E7F407E78
:1027BA000012424B123000EF600122121775EF60CF
:1027CA0003AF0D22900062E0FCA3E0FDA3E0FEA3AC
:1027DA00E0FF7823120F1FE4FDFF122800E50D70B9
:0E27EA0002FF22850D0E1241BCAF0E8F0D2294
:103EB200E4FDFCE4F5A10DBD00010CBC01F5BDF46F
:103EC200F2EFC394024014AE0AEEB41205750A056D
:103ED2008009EED394104003750A10AE0DEF601402
:103EE200EE6416600FEE6415600A1241BCCEEFCE8E
:0F3EF200EE7001227F027E0012424B124113221A
:10000300E50AC39405500A123000EF60012212176B
:100013007512427990035FE0FCA3E0FDA3E0FEA329
:10002300E054F0FFEC7B707A5679347812C3120EE9
:100033009A700A900362E0540FF5098003E4F5090E
:10004300E490032DF0900341F090035B120F5000F6
:10005300000000900339120F500000000012381402
:10006300EF600D123D51121775123814EF60012223
:10007300E509700F850C82850B83E054FD64E970FC
:100083000221B6E50C24FEF582E50B3401F583E08D
:10009300FEA3E064AA7003EE645560037F9122908F
:1000A300032DE0F508E5086440700221A2E50C2465
:1000B300BEFFE50B3401FE7C00EF2508FFEC3ECFCD
:1000C3002408CF3400FE1242E5900339120F2BE5CA
:1000D3000C24BEFFE50B3401FE7C00EF2508FFEC8A
:1000E3003EF583EF2404F582E43583F583E0F50ED2
:1000F300E50E64056005E50EB40F51900339E0FC8D
:10010300A3E0FDA3E0FEA3E0FF90035BE0F8A3E020
:10011300F9A3E0FAA3E0FBEF2BFFEE3AFEED39FD86
:10012300EC38FC900339120F2B900341E06002017D
:1001330060E5082410F0900339E0FCA3E0FDA3E0A0
:10014300FEA3E0FF90035B120F2B0160E50E30E787
:1001530003530E3FE50E603FE50EC3940F5038E5A1
:100163000994015030900339E0FCA3E0FDA3E0FEC5
:10017300A3E0FF900352E0F8A3E0F9A3E0FAA3E0C1
:10018300FBEF2BFFEE3AFEED39FDEC38FC90033923
:10019300120F2B801E150974102508F50801A8906D
:1001A3000341E0FF600A90032DE07004EFF0014C7F
:1001B3007F9222900339E0FCA3E0FDA3E0FEA3E0DD
:1001C300FF90035F120F2B123814EF600122850C8E
:1001D30082850B83E054FD64E960037FA122E50C73
:1001E30024FEF582E50B3401F583E0FEA3E064AA67
:1001F3007003EE645560037FA122E50C240DF582A4
:10020300E4350BF583E0FF90032DF090033874077A
:10021300F0EF20E713EF25E0FF900338E014F0E060
:1002230070EF90032D7401F0E50C2416FFE4350BF9
:10023300FE124317E4FCFD90034A120F2B90034C6C
:10024300E0FEA3E04E7012E50C2424FFE4350BFE20
:100253001242E590034A120F2BE50C2413FFE435F9
:100263000BFE124317E4FCFD900375120F2B900352
:1002730077E0FEA3E04E7012E50C2420FFE4350B7B
:10028300FE1242E5900375120F2BE50C2411FFE4D7
:10029300350BFE12431790032CE033333354F81419
:1002A3007C002FFFEC3EFEE51224FBFDEFC8EDC8FA
:1002B300088005CEC313CE13D8F9FFE4FCFD9003E9
:1002C30071120F2BE50C240EFFE4350BFE124317BE
:1002D300E4FCFD900366120F2B900374E0FF7E0095
:1002E300900368E0FCA3E02FFFEE3CFEE4FCFD90EE
:1002F300034AE0F8A3E0F9A3E0FAA3E02FF511EA3B
:100303003EF510ED39F50FEC38F50EE50C2410F53C
:1003130082E4350BF583E090034AB4021FE0FCA3AB
:10032300E0FDA3E0FEA3E02511F511EE3510F51075
:10033300ED350FF50FEC350EF50E8007120F50005B
:10034300000000900339E0FCA3E0FDA3E0FEA3E07E
:100353002511FFEE3510FEED350FFDEC350EFC904B
:100363000346120F2B900375E0FCA3E0FDA3E0FE10
:10037300A3E0C39511FFEE9510FEED950FFDEC95EF
:100383000EFC900338E0F9F8120EAB900334120F11
:100393002BE47FF57EFFFDFC900334E0F8A3E0F946
:1003A300A3E0FAA3E0FBC3120E9A5023E4900342A6
:1003B300F0A3F0900336E0FEA3E0C394F5EE940FB0
:1003C30090036550057401F080317402F0802CE5D0
:1003D3000C2430FFE4350BFE124317900342EEF07A
:1003E300A3EFF0E50C242CFFE4350BFE1242E5905D
:1003F3000371120F2B9003657403F0900368E0FE02
:10040300A3E04E6057900371E0FCA3E0FDA3E0FE80
:10041300A3E0FFEC4D4E4F6043E50C2410F582E45E
:10042300350BF583E06401601490034AE0FCA3E01C
:10043300FDA3E0FEA3E0FFEC4D4E4F601FE50C244F
:100443000BF582E4350BF583E07011E50C240CF514
:1004530082E4350BF583E0C39402500CE509700583
:1004630075090101437FA322900366E0FCA3E0FD2D
:10047300A3E0FEA3E0FF900339E0F8A3E0F9A3E0D3
:10048300FAA3E0FBEF2BFFEE3AFEED39FDEC38FC6F
:0E049300900366120F2B7D107F0512413C2254
:1036600090034EE0FCA3E0FDA3E0FEA3E0FF900387
:1036700039120F2B123DACEF60012290034AE0FC9F
:10368000A3E0FDA3E0FEA3E0FFEC4D4E4F6076907B
:103690000339E0FCA3E0FDA3E0FEA3E0FF90034AB2
:1036A000E0F8A3E0F9A3E0FAA3E0FBEF2BFFEE3A8A
:1036B000FEED39FDEC38FC900339120F2B900332EC
:1036C000E0FCA3E0FD7F011235B38F0D900339E0DC
:1036D000FCA3E0FDA3E0FEA3E0FF90034AE0F8A313
:1036E000E0F9A3E0FAA3E0FBC3EF9BFFEE9AFEED47
:1036F00099FDEC98FC900339120F2BE50D60061232
:0A3700004279AF0D22C20D7F0022B6
:103A4100122A52EF600564B1600122EF6011900308
:103A510056120F5000000000122A52EF600122128C
:103A61003660EF600122900356E0FCA3E0FDA3E085
:103A7100FEA3E0FF90033D120F2B123800EF60010F
:103A810022900345E0250CF509900344E0350BF540
:103A910008F583E509241CF582E43583F583120FCB
:103AA100500100000090033DE0FCA3E0FDA3E0FE17
:0A3AB100A3E0FF1243211239C122E5
:083ABB007FFF7EFF7DFF7CFF11
:103AC3008F118E108D0F8C0E900342E0FCA3E0FD4E
:103AD3004C7002FF22CFEDCFCEECCEE4FCFD900381
:103AE3005FE0F8A3E0F9A3E0FAA3E02FFFEA3EFECC
:103AF300ED39FDEC38FC12380EEF600122E50C24A1
:103B0300E8FFE50B3401FE1242E5EF2511FFEE3528
:103B130010FEED350FFDEC350EFC124321E50C24B0
:103B2300E8F582E50B3401F583120F2B1239ED22F0
:103E5C00C20BE50AC39414404A123800EF600122E9
:103E6C00900345E0250CF509900344E0350BF5086B
:103E7C00F583E509240BF582E43583F583E020E432
:103E8C002290035BE0FCA3E0FDA3E0FEA3E0FF12A5
:103E9C004321E509241CF582E43508F583120F2B28
:063EAC000239ED7F002247
:103BAA00AF0AEFC3941250037FB422EFB4124690C7
:103BBA000365E06403603E900338E0FF7401C8EFD8
:103BCA00C8088002C333D8FC90032DF0900346E066
:103BDA00F8A3E0F9A3E0FAA3E0FB900374E0FFE4A2
:103BEA00FCFDFEEB2FFFEE3AFEED39FDEC38FC90C2
:103BFA000346120F2BAF0AEFD394134009EFB41404
:103C0A00077823E67002C20B300B07123E5CEF60A6
:063C1A00012212413822D4
:10341B00E50AC394135007120800EF600122124112
:10342B0038EF600122123800EF600122900344E074
:10343B00FEA3E0250CF582E50B3EF58374E5F01257
:10344B0039EDEF60012290033DE0F50EA3E0F50F9F
:10345B00A3E0F510A3E0F511E50E450F451045115E
:10346B00700281F090033DE0FCA3E0FDA3E0FEA31E
:10347B00E024FFFFEE34FFFEED34FFFDEC34FFFCE8
:10348B0090033D120F2B900356120F5000000000BB
:10349B0090032EE50EF0A3E50FF0A3E510F0A3E5E6
:1034AB0011F07F01121816EF600122900356E0FC19
:1034BB00A3E0FDA3E0FEA3E02401FFE43EFEE43D18
:1034CB00FDE43CFC900356120F2B300EC3123660FA
:1034DB00EF600122900356E0FCA3E0FDA3E0FEA306
:0834EB00E0FF023AC37F00225A
:1022A200120800900341EFF0700912341BEF700224
:1022B200810B22900341E0FF644260012290032CD3
:1022C200E0FEC3900345E09400900344E09E500278
:1022D200810B90033DE0700EA3E0700AA3E070064C
:1022E200A3E0700261AF121800EF600122200E021B
:1022F200810B90033DE0FCA3E0FDA3E0FEA3E0FF21
:10230200900356120F2B124262EF60012290033D9E
:10231200E0FCA3E0FDA3E0FEA3E0FF90032E120F7A
:102322002B7F02121816EF600122123660EF600155
:1023320022AF0CAE0B90032CE0FDED6012E4FC8F9B
:10234200828E83E4F00FBF00010EDCF31D80EBE40C
:10235200900341F0123E04E4900344F0A3F0900392
:1023620039E0FCA3E0FDA3E0FEA3E0FF90036C12C2
:102372000F2B90032DE0F50EE50E602A1239EDEFDA
:10238200600122900339E0FCA3E0FDA3E0FEA3E09C
:102392002401FFE43EFEE43DFDE43CFC90033912DF
:1023A2000F2B150E80D2123ABBEF605D22900374A0
:1023B200E0900341F090036C74FF120EEC12380EA1
:1023C200EF600122E4900344F0A3F090032CE0FEBE
:1023D200900344E0FCA3E0FDC39400EC9E501FE593
:1023E2000C2DF582E50B3CF583E064E5601B900360
:1023F20045E02420F0900344E03400F080CD9003C7
:1024020041E014F070AF7FB22290033DE0FCA3E004
:10241200FDA3E0FEA3E0FF900356120F2BE5B1549B
:10242200D064C060037F1122124262EF6001221267
:102432003660EF600122900356E0FCA3E0FDA3E0CA
:10244200FEA3E0FF90033D120F2B123ABBEF600197
:1024520022123800EF600122900345E0250CF509B5
:10246200900344E0350BF508E4FFEFC3940B5004EE
:102472007E2080027E00E5092FF582E43508F5838F
:10248200EEF00FEFB420E3E5092418F582E43508F5
:10249200F5837421F0A37430F0E509241CF582E47D
:1024A2003508F5837401F0E4FFEFC3940B503190CB
:1024B2000370E0F8E6FE6028EEB42E087F08900371
:1024C20070E004F0900370E0F8E6FEE5092FF58273
:1024D200E43508F583EEF00F900370E004F080C954
:1024E20090033DE0FCA3E0FDA3E0FEA3E0FF124366
:1024F200211239C1EF60012290033DE0FCA3E0FD0F
:10250200A3E0FEA3E0FF900356120F2B90035B1291
:102512000F5000000000900375120F5000000000E1
:0D252200E4900341F07D147F1012413C2233
:10200000D20B90032CE0FE900338E0FDE4C8EDC84D
:10201000088005C333CE33CED8F924FFFFEE34FF5A
:10202000FEE4FCFD90035BE0F8A3E0F9A3E0FAA373
:10203000E02FFFEA3EFEED39FDEC38FC900338E07E
:102040002512F9F8120EAB900384120F2B90037532
:10205000E0FCA3E0FDA3E0FEA3E0FFC8E9C8120E88
:10206000AB90032E120F2B90032EE0FCA3E0FDA3F8
:10207000E0FEA3E0FF900384E0F8A3E0F9A3E0FA18
:10208000A3E0FBD3120E9A402D900384E0FCA3E062
:10209000FDA3E0FEA3E0FF90032EE0F8A3E0F9A388
:1020A000E0FAA3E0FBEF9BFFEE9AFEED99FDEC98C2
:1020B000FC900384801190033DE0FCA3E0FDA3E0CD
:1020C000FEA3E0FF900356120F2B90033DE0702912
:1020D000A3E07025A3E07021A3E0701D90035BE0F6
:1020E000FCA3E0FDA3E0FEA3E0FFEC4D4E4F700229
:1020F000FF22123A41EF601F2290035BE0FCA3E055
:10210000FDA3E0FEA3E0FFEC4D4E4F700A90038468
:10211000120F5000000001900356E0FCA3E0FDA365
:10212000E0FEA3E0FF7823120F1F900384E0FCA3DE
:10213000E0FDA3E0FEA3E024FFFFEE34FFFEED345C
:10214000FFFDEC34FFFC900384120F2B900356E04C
:10215000FCA3E0FDA3E0FEA3E0FF90032E120F2BF3
:102160007827120F1FE4FF121816EF600122200ECD
:10217000024102900384E0700CA3E07008A3E070B9
:1021800004A3E060067E007F0180047E007F00EFF4
:102190004E700E7823120ED1900356120F2B7F0033
:1021A00022900384E0FCA3E0FDA3E0FEA3E0FF1285
:1021B0000E8C123AC3EF600122900356E0FCA3E0BC
:1021C000FDA3E0FEA3E0FF7827120F1F124262EF8B
:1021D0006001227827120ED190032E120F2B7F025E
:1021E000121816EF60012290038474FF120EECECBB
:1021F0004D4E4F70C47823120ED1900356120F2B00
:10220000419E900384E06002212AA3E06002212A1B
:10221000A3E06002212AA3E06002212A7827120E9F
:10222000D18F118E108D0F8C0E90032EE50EF0A322
:10223000E50FF0A3E510F0A3E511F07F01121816E9
:10224000EF600122900384E0FCA3E0FDA3E0FEA385
:10225000E02401FFE43EFEE43DFDE43CFC90038409
:10226000120F2B300EC3900384E0FCA3E0FDA3E02B
:10227000FEA3E0FF123AC3EF60012290033DE0FCB1
:10228000A3E0FDA3E0FEA3E0FF900356120F2B9006
:102290000375120F5000000000E4900341F0123665
:0222A0006022BA
:101EE500E50AC3941350037FB422123800EF600152
:101EF50022C200900345E0250CF509900344E03526
:101F05000BF508782BE6FFE509240BF582E4350887
:101F1500F583E0F6EFF4600FE509240BF582E4356F
:101F250008F583EFF0D2007929E7F50F782AE6F571
:101F35000EE5092416FFE43508FE1243177829EE4D
:101F4500F608EFF6E50FF47003E50EF46014E50905
:101F55002416F582E43508F583E50EF0A3E50FF0C8
:101F6500D2007927E7F50F7828E6F50EE50924185C
:101F7500FFE43508FE1243177827EEF608EFF6E57D
:101F85000FF47003E50EF46014E5092418F582E4F6
:101F95003508F583E50EF0A3E50FF0D2007823129E
:101FA5000ED18F118E108D0F8C0EE509241CFFE4C8
:101FB5003508FE1242E57823120F1FE50E550F5521
:101FC500105511F46023AF11AE10AD0FAC0E900398
:101FD5005B120F2B124321E509241CF582E4350819
:101FE500F583120F2BD200C20B3000030239ED7FAF
:021FF5000022C8
:1042C400E4FF74232FF876FF0FEFB40AF5121EE50E
:0142D40022C7
:1037B200E50A641460037FB42290033DE0FCA3E0B9
:1037C200FDA3E0FEA3E0FF900356120F2B900375BA
:1037D200120F500000000090033DE0700CA3E07057
:1037E20008A3E07004A3E06007E4900341F08006C0
:0E37F20090034174FFF07D157F1412413C22BC
:103C2000E50A641560071237B2EF60012290037550
:103C3000E0FCA3E0FDA3E0FEA3E0FF7827120F1F46
:103C40007823120ED1900375120F2B90035BE0F8CE
:103C5000A3E0F9A3E0FAA3E0FBC3120E9A5014907C
:103C6000035BE0FCA3E0FDA3E0FEA3E0FF9003758F
:103C7000120F2B900375E0FCA3E0FDA3E0FEA3E090
:0D3C8000FF1241DB7823120F1F12324D227C
:10252F00E50A641560071237B2EF6001227823E6DF
:10253F00FF08E67827CFF608EFF6E47823F608F6DB
:10254F00900341E0B4FF037F00227828E61846701D
:10255F0002E197900375E0FCA3E0FDA3E0FEA3E08A
:10256F00FF90035BE0F8A3E0F9A3E0FAA3E0FBD34D
:10257F00120E9A5002E197123E04900377E0FEA3E9
:10258F00E0FF90035DE0FCA3E0C39FF50FEC9EF529
:10259F000ED3E50F782896E50E18964007E6F50E50
:1025AF0008E6F50F90032CE0FDFEC3E50F9400E560
:1025BF000E9E5002C18D900378E06002C18DED1424
:1025CF00FF900377E05F6002C18DE50EFFE51224F7
:1025DF00F8FEEFC8EEC8088002C313D8FCFF750ED3
:1025EF00008F0F900341E0FF90032DE0C39FFFAEDC
:1025FF000FEED39F4005750E008F0FAF0F7926E7B3
:10260F00782426FD19E71836FC12370AEF600122ED
:10261F00AF0F900341E02FF0AF0FE51224F8FEEF5C
:10262F00C8EEC8088002C333D8FC750F00F50E90B2
:10263F000375E0F8A3E0F9A3E0FAA3E0FBAE0EAF59
:10264F000FE4FCFDEB2FFFEA3EFEED39FDEC38FC0D
:10265F00900375120F2BC37828E6950FF618E695A1
:10266F000EF67824E50F26F618E50E36F690032DB4
:10267F00E0FF900341E0C39F5002A159E154900342
:10268F002CE0FD24FFFFEFFE900377E0FAA3E0FBC1
:10269F00EE5AFAEDFEC3E49BFFEE9AFED3E50F9FD1
:1026AF00E50E9E40048E0E8F0F123814EF6001223C
:1026BF0090032CE024FFFFEFFE900377E0FCA3E0F4
:1026CF00FDEE5CFEED250CFFEE350BFE7926E7786F
:1026DF002426FD19E71836FCAB0FAA0E12415B90AA
:1026EF000375E0F8A3E0F9A3E0FAA3E0FBAE0EAFA9
:1026FF000FE4FCFDEB2FFFEA3EFEED39FDEC38FC5D
:10270F00900375120F2BC37828E6950FF618E695F0
:10271F000EF67824E50F26F618E50E36F6900378B8
:10272F00E06002A15990032CE014FF900377E05F63
:10273F006002A15990032DE0FF900341E004F0C324
:10274F009F5002A159900356E0FCA3E0FDA3E0FEC9
:10275F00A3E0FF90032E120F2BE4FF121816EF6069
:10276F000122300E1C90034174FFF0900375E0FCC2
:10277F00A3E0FDA3E0FEA3E0FF90035B120F2B800D
:0B278F0007E4900341F0A1597F0022F5
:10110700E50A641560071237B2EF6001227823E61B
:10111700FE08E6FF7827EEF6FE08EFF64E7006307B
:101127000B03023E5CE47823F608F67828E61846B7
:10113700700281A7900341E0F4600221E290033D31
:10114700E0700CA3E07008A3E07004A3E0605DE525
:101157000AB4120B900365E0640360037FB1229029
:101167000356E0FCA3E0FDA3E0FEA3E0FF900375B8
:10117700120F2B124262EF600122900375E0FCA36D
:10118700E0FDA3E0FEA3E0FF90032E120F2B7F02EA
:10119700121816EF600122900332E0650B7004A36A
:1011A700E0650C700E123660EF600822123A41EFCC
:1011B7006001227FFF7EFF7DFF7CFF123AC3EF6055
:1011C700012290035BE0FCA3E0FDA3E0FEA3E0FFA8
:1011D700900375120F2BE4900341F0123E04900325
:1011E7002CE024FFFFEFFE900377E0FCA3E0FDEE89
:1011F7005CFC900341E0FF90032DE0C39FFF7E005E
:10120700E51224F8FBEFC8EBC8088005C333CE33DB
:10121700CED8F9FEC3E49DF50FEE9CF50ED3E50F8E
:10122700782896E50E18964007E6F50E08E6F50FBE
:1012370090032CE0FDFEC3E50F9400E50E9E5002DF
:101247006131900378E060026131ED14FF9003771C
:10125700E05F60026131E50EFFE51224F8FEEFC89A
:10126700EEC8088002C313D8FCFF750E008F0FAFBE
:101277000F7926E7782426FD19E71836FC1235B3CF
:10128700EF600122AF0F900341E02FF0AF0FE5129F
:1012970024F8FEEFC8EEC8088002C333D8FC750FE8
:1012A70000F50E900375E0F8A3E0F9A3E0FAA3E0D8
:1012B700FBAE0EAF0FE4FCFDEB2FFFEA3EFEED3970
:1012C700FDEC38FC900375120F2BC37828E6950FB9
:1012D700F618E6950EF67824E50F26F618E50E368D
:1012E700F6900375E0FCA3E0FDA3E0FEA3E0FF900A
:1012F700035BE0F8A3E0F9A3E0FAA3E0FBC3120E57
:101307009A5016900375E0FCA3E0FDA3E0FEA3E06E
:10131700FF90035B120F2BD20B90032DE0FF90037E
:1013270041E0C39F50022132817890032CE0FD24D5
:10133700FFFFEFFE900377E0FAA3E0FBEE5AFAED2A
:10134700FEC3E49BFFEE9AFED3E50F9FE50E9E409A
:10135700048E0E8F0F900378E0702F90032CE0140B
:10136700FF900377E05F7022900375E0FCA3E0FD38
:10137700A3E0FEA3E0FF90035BE0F8A3E0F9A3E09E
:10138700FAA3E0FBD3120E9A4007123814EF60015C
:10139700227926E7782426FF19E71836FEEEC0E003
:1013A700EFC0E090032CE024FFFFEFFE900377E00F
:1013B700FCA3E0FDEE5CFEED250CFDEE350BFCD04D
:1013C700E0FFD0E0FEAB0FAA0E12415B900375E081
:1013D700F8A3E0F9A3E0FAA3E0FBAE0EAF0FE4FC3D
:1013E700FDEB2FFFEA3EFEED39FDEC38FC9003756F
:1013F700120F2BC37828E6950FF618E6950EF678A8
:1014070024E50F26F618E50E36F61239EDEF6001E2
:1014170022900375E0FCA3E0FDA3E0FEA3E0FF90AC
:10142700035BE0F8A3E0F9A3E0FAA3E0FBC3120E25
:101437009A5016900375E0FCA3E0FDA3E0FEA3E03D
:10144700FF90035B120F2BD20B900378E060022111
:101457003290032CE014FF900377E05F60022132A3
:1014670090032DE0FF900341E004F0C39F50022159
:1014770032900356E0FCA3E0FDA3E0FEA3E0FF905B
:10148700032E120F2BE4FF121816EF600122300E05
:101497000890034174FFF02132E4900341F02132B8
:0D14A700300D07123660EF6001227F002239
:1042E5008F828E83E0FFA3E0FEA3E0FDA3E0FC2226
:0A4317008F828E83E0FFA3E0FE22F8
:07432100EFCCFFEECDFE2200
:1041DB00C3E4CC13CD13CE13FFE51224F7600DF817
:0D41EB00C3ED13FDEE13FEEF13FFD8F42219
:1041F800C3E4CF33CE33CD33FCE51224F7600DF89A
:0D420800C3EE33FEED33FDEC33FCD8F422A1
:10415B0005A28D828C8315A28F828E837F00EA60ED
:10416B0007E0A3A5DFFBDAF9EB6005E0A3A5DBFB1A
:01417B002221
:03000000024301B7
:0C430100787FE4F6D8FD7581420204A12B
:100C9B00E709F608DFFA8046E709F208DFFA803E3B
:100CAB0088828C83E709F0A3DFFA8032E309F60828
:100CBB00DFFA8078E309F208DFFA807088828C8390
:100CCB00E309F0A3DFFA806489828A83E0A3F60844
:100CDB00DFFA805889828A83E0A3F208DFFA804C1E
:100CEB0080D280FA80C680D4806980F280338010F5
:100CFB0080A680EA809A80A880DA80E280CA80335E
:100D0B0089828A83ECFAE493A3C8C582C8CCC583D5
:100D1B00CCF0A3C8C582C8CCC583CCDFE9DEE780A5
:100D2B000D89828A83E493A3F608DFF9ECFAA9F024
:100D3B00EDFB2289828A83ECFAE0A3C8C582C8CC7A
:100D4B00C583CCF0A3C8C582C8CCC583CCDFEADE93
:100D5B00E880DB89828A83E493A3F208DFF980CCF5
:100D6B0088F0EF60010E4E60C388F0ED2402B404EE
:100D7B000050B9F582EB2402B4040050AF23234595
:060D8B008223900CEB73C3
:100D9100BB010CE58229F582E5833AF583E0225017
:100DA10006E92582F8E622BBFE06E92582F8E22261
:0D0DB100E58229F582E5833AF583E493227B
:100DBE0075F008758200EF2FFFEE33FECD33CDCCEC
:100DCE0033CCC58233C5829BED9AEC99E58298406F
:100DDE000CF582EE9BFEED9AFDEC99FC0FD5F0D64C
:100DEE00E4CEFBE4CDFAE4CCF9A88222B800C1B976
:100DFE000059BA002DEC8BF084CFCECDFCE5F0CBB4
:100E0E00F97818EF2FFFEE33FEED33FDEC33FCEBEC
:100E1E0033FB10D703994004EB99FB0FD8E5E4F9A7
:100E2E00FA227818EF2FFFEE33FEED33FDEC33FC94
:100E3E00C933C910D7059BE99A4007EC9BFCE99A88
:100E4E00F90FD8E0E4C9FAE4CCFB2275F010EF2FCD
:100E5E00FFEE33FEED33FDCC33CCC833C810D707CD
:100E6E009BEC9AE899400AED9BFDEC9AFCE899F808
:0E0E7E000FD5F0DAE4CDFBE4CCFAE4C8F9229B
:0E0E8C00C3E49FFFE49EFEE49DFDE49CFC2277
:100E9A00EB9FF5F0EA9E42F0E99D42F0E89C45F0AE
:010EAA002225
:100EAB00E8600FECC313FCED13FDEE13FEEF13FF25
:030EBB00D8F12249
:100EBE00E8600FEFC333FFEE33FEED33FDEC33FC92
:030ECE00D8F12236
:0C0ED100E6FC08E6FD08E6FE08E6FF224D
:0D0EDD00E6FB08E6F908E6FA08E6CBF82285
:100EEA007401FF3395E0FEFDFCA3A3A3E02FFFF0FE
:100EFA00E582158270021583E03EFEF0E5821582D6
:100F0A0070021583E03DFDF0E582158270021583BB
:050F1A00E03CFCF022A8
:0C0F1F00ECF608EDF608EEF608EFF622FE
:0C0F2B00ECF0A3EDF0A3EEF0A3EFF02239
:100F3700D083D082E493F608740193F60874029381
:090F4700F608740393F6740473B8
:100F5000A8828583F0D083D082120F67120F6712A8
:100F60000F67120F67E473E493A3C583C5F0C583CD
:100F7000C8C582C8F0A3C583C5F0C583C8C582C8EB
:010F8000224E
:101B8000E5172407F582E43403F583E00517229076
:101B90000304300903900307E475F0011210C10239
:101BA00010962002E97F2ED2028018EF540F249065
:101BB000D43440D4FF30060BEF24BFB41A005003D6
:101BC0002461FFE51860021518051BE51B7002056E
:101BD0001A30090E900304E475F0011210C1EF02EF
:101BE00010AF0240EC7403D2098003E4C209F51778
:101BF0009003041210D8E4F518F51AF51BE51860E7
:101C0000077F20121BC380F57519FFC203C202C2F1
:101C100004C205C207C208C20A121B8FFF700D3032
:101C200009057F00121BD4AF1BAE1A22B4255FC278
:101C3000D5C206121B8FFF24D0B40A00501A75F0CB
:101C40000A781830D50508B6FF0106C6A426F62086
:101C5000D5047002D20580D924CFB41A00EF500405
:101C6000C2E5D206021DD5D20380C6D20280C0D200
:101C70000480BCD2D580BAD20780B47F20121BC3A7
:101C80002004077401B5180040F1121B80FF121BDD
:101C9000C3021BFDD20AD2088095121B80FB121BC7
:101CA00080FA121B80F94A4B700679A67A1E7BFFD8
:101CB00020042EE518602A7E008E82758300120DA6
:101CC0009160060EEE651970F0C2D5EBC0E0EAC077
:101CD000E0E9C0E0EE121E1CD0E0F9D0E0FAD0E05E
:101CE000FB121096FF60AAEBC0E0EAC0E0E9C0E09A
:101CF000121BC3D0E02401F9D0E03400FAD0E0FB9D
:101D0000E5190460DCD519D980877BFF7A1E791824
:101D1000D204809C791080027908C208C20A800827
:101D2000D2D5790A8004790AC2D5E519047002F582
:101D300019E4FAFDFEFF121B80FC7B08200313123E
:101D40001B80FD7B1030020A121B80FE121B80FFDD
:101D50007B20EC3382D592D55013C3E43002069F2A
:101D6000FFE49EFEE42003039DFDE49CFCE4CBF82D
:101D7000C203EC700CCFCECDCCE824F8F870F38021
:101D800017C3EF33FFEE33FEED33FDEC33FCEB33E3
:101D9000FB994002FB0FD8E9EB300305F8D0E0C413
:101DA00048B203C0E00AEC4D4E4F78207B0070C271
:101DB000EAB5190040BCC0E0121E1ED0F0D0E020F1
:101DC0000304C4C0E0C4B203C0F0121BACD0F0D511
:101DD000F0EB021BFD1210E11C9A531D14581C6BF2
:101DE0004C1C67421D184F1D20441D20491C804378
:081DF0001D26551D0A461D0ABF
:101DF800451D0A471EC6501C6F2D1C732E1C962BA2
:101E08001C77231C94201EAF2A1C2F4800001C8E10
:101E18003F3F3F00790AA2D5200514300709B910C1
:101E2800020404B9080104A2D520080250010420C4
:101E380004689204B518005034C0E07F20300519BA
:101E48007F30A20472087207500F121E75C204C2B6
:101E580008C207C20A7F30800F300703E9C0E012CA
:101E68001BC3300703D0E0F9D0E0B518CC30071712
:101E78007F30B9100C121BC37F583006077F78805B
:101E880003B90803121BC33004057F2D021BC37F4F
:101E980020200AF87F2B2008F322920480CF286E96
:101EA800756C6C2900D203121B803003F8C20378CA
:101EB8001830D50108F6021C2F2D50434958121B23
:101EC800802403B405004001E4901EC193121BB4A2
:0D1ED800743A121BB4D205751804021D14D3
:100F8100E709F60870FA8046E709F20870FA803E30
:100F910088828C83E709F0A370FA807EE309F60862
:100FA10070FA8076E309F20870FA806E88828C8389
:100FB100E309F0A370FA806289828A83E0A3F608CC
:100FC10070FA805689828A83E0A3F20870FA804A17
:100FD10080D280FA80C680D4806580F28031801012
:100FE10080A680EA809A80A880DA80E280CA803177
:100FF10089828A83ECFAE493A3C8C582C8CCC583ED
:10100100CCF0A3C8C582C8CCC583CC70E9800D895A
:10101100828A83E493A3F60870F9ECFAA9F0EDFB58
:101021002289828A83ECFAE0A3C8C582C8CCC58331
:10103100CCF0A3C8C582C8CCC583CC70EA80DD8959
:10104100828A83E493A3F20870F980CE88F0ED24BC
:1010510002B4040050C4F582EB2402B4040050BA77
:091061002323458223900FD17373
:10106A00EF4E6012EF60010EEDBB010B89828A839D
:10107A00F0A3DFFCDEFA2289F05007F709DFFCA9AA
:0C108A00F022BBFEFCF309DFFCA9F02201
:10109600BB010689828A83E0225002E722BBFE0258
:0910A600E32289828A83E493228B
:1010AF00BB010689828A83F0225002F722BBFE0120
:0210BF00F3221A
:1010C100F8E0FBA3A3E0F925F0F0E58215827002B8
:0710D1001583E0FA38F0225C
:0910D800EBF0A3EAF0A3E9F02219
:1010E100D083D082F8E4937012740193700DA3A39E
:1010F10093F8740193F5828883E4737402936860B2
:06110100EFA3A3A380DFB1
:1040EC00EFB40A07740D1240F7740A309811A899AE
:1040FC00B8130CC2983098FDA899C298B811F63034
:07410C0099FDC299F599220B
:00000001FF
